{
  "_format": "hh-sol-artifact-1",
  "contractName": "StudySubscription",
  "sourceName": "contracts/StudySubscription.sol",
  "abi": [
    {
      "inputs": [
        {
          "internalType": "address",
          "name": "_subscriptionToken",
          "type": "address"
        }
      ],
      "stateMutability": "nonpayable",
      "type": "constructor"
    },
    {
      "inputs": [],
      "name": "EnforcedPause",
      "type": "error"
    },
    {
      "inputs": [],
      "name": "ExpectedPause",
      "type": "error"
    },
    {
      "inputs": [
        {
          "internalType": "address",
          "name": "owner",
          "type": "address"
        }
      ],
      "name": "OwnableInvalidOwner",
      "type": "error"
    },
    {
      "inputs": [
        {
          "internalType": "address",
          "name": "account",
          "type": "address"
        }
      ],
      "name": "OwnableUnauthorizedAccount",
      "type": "error"
    },
    {
      "inputs": [],
      "name": "ReentrancyGuardReentrantCall",
      "type": "error"
    },
    {
      "inputs": [
        {
          "internalType": "address",
          "name": "token",
          "type": "address"
        }
      ],
      "name": "SafeERC20FailedOperation",
      "type": "error"
    },
    {
      "anonymous": false,
      "inputs": [
        {
          "indexed": true,
          "internalType": "address",
          "name": "previousOwner",
          "type": "address"
        },
        {
          "indexed": true,
          "internalType": "address",
          "name": "newOwner",
          "type": "address"
        }
      ],
      "name": "OwnershipTransferred",
      "type": "event"
    },
    {
      "anonymous": false,
      "inputs": [
        {
          "indexed": false,
          "internalType": "address",
          "name": "account",
          "type": "address"
        }
      ],
      "name": "Paused",
      "type": "event"
    },
    {
      "anonymous": false,
      "inputs": [
        {
          "indexed": false,
          "internalType": "enum StudySubscription.SubscriptionTier",
          "name": "tier",
          "type": "uint8"
        },
        {
          "indexed": false,
          "internalType": "uint256",
          "name": "newPrice",
          "type": "uint256"
        }
      ],
      "name": "PricingUpdated",
      "type": "event"
    },
    {
      "anonymous": false,
      "inputs": [
        {
          "indexed": true,
          "internalType": "address",
          "name": "user",
          "type": "address"
        }
      ],
      "name": "SubscriptionCancelled",
      "type": "event"
    },
    {
      "anonymous": false,
      "inputs": [
        {
          "indexed": true,
          "internalType": "address",
          "name": "user",
          "type": "address"
        }
      ],
      "name": "SubscriptionExpired",
      "type": "event"
    },
    {
      "anonymous": false,
      "inputs": [
        {
          "indexed": true,
          "internalType": "address",
          "name": "user",
          "type": "address"
        },
        {
          "indexed": false,
          "internalType": "enum StudySubscription.SubscriptionTier",
          "name": "tier",
          "type": "uint8"
        },
        {
          "indexed": false,
          "internalType": "uint256",
          "name": "price",
          "type": "uint256"
        },
        {
          "indexed": false,
          "internalType": "uint256",
          "name": "endTime",
          "type": "uint256"
        }
      ],
      "name": "SubscriptionPurchased",
      "type": "event"
    },
    {
      "anonymous": false,
      "inputs": [
        {
          "indexed": true,
          "internalType": "address",
          "name": "user",
          "type": "address"
        },
        {
          "indexed": false,
          "internalType": "enum StudySubscription.SubscriptionTier",
          "name": "tier",
          "type": "uint8"
        },
        {
          "indexed": false,
          "internalType": "uint256",
          "name": "price",
          "type": "uint256"
        },
        {
          "indexed": false,
          "internalType": "uint256",
          "name": "newEndTime",
          "type": "uint256"
        }
      ],
      "name": "SubscriptionRenewed",
      "type": "event"
    },
    {
      "anonymous": false,
      "inputs": [
        {
          "indexed": false,
          "internalType": "address",
          "name": "account",
          "type": "address"
        }
      ],
      "name": "Unpaused",
      "type": "event"
    },
    {
      "inputs": [],
      "name": "MONTHLY_DURATION",
      "outputs": [
        {
          "internalType": "uint256",
          "name": "",
          "type": "uint256"
        }
      ],
      "stateMutability": "view",
      "type": "function"
    },
    {
      "inputs": [],
      "name": "PREMIUM_MONTHLY_PRICE",
      "outputs": [
        {
          "internalType": "uint256",
          "name": "",
          "type": "uint256"
        }
      ],
      "stateMutability": "view",
      "type": "function"
    },
    {
      "inputs": [],
      "name": "PREMIUM_YEARLY_PRICE",
      "outputs": [
        {
          "internalType": "uint256",
          "name": "",
          "type": "uint256"
        }
      ],
      "stateMutability": "view",
      "type": "function"
    },
    {
      "inputs": [],
      "name": "YEARLY_DURATION",
      "outputs": [
        {
          "internalType": "uint256",
          "name": "",
          "type": "uint256"
        }
      ],
      "stateMutability": "view",
      "type": "function"
    },
    {
      "inputs": [
        {
          "internalType": "address",
          "name": "user",
          "type": "address"
        }
      ],
      "name": "cancelSubscription",
      "outputs": [],
      "stateMutability": "nonpayable",
      "type": "function"
    },
    {
      "inputs": [
        {
          "internalType": "address",
          "name": "user",
          "type": "address"
        }
      ],
      "name": "checkSubscriptionExpiry",
      "outputs": [],
      "stateMutability": "nonpayable",
      "type": "function"
    },
    {
      "inputs": [
        {
          "internalType": "uint256",
          "name": "amount",
          "type": "uint256"
        }
      ],
      "name": "emergencyWithdraw",
      "outputs": [],
      "stateMutability": "nonpayable",
      "type": "function"
    },
    {
      "inputs": [],
      "name": "getContractBalance",
      "outputs": [
        {
          "internalType": "uint256",
          "name": "",
          "type": "uint256"
        }
      ],
      "stateMutability": "view",
      "type": "function"
    },
    {
      "inputs": [
        {
          "internalType": "enum StudySubscription.SubscriptionTier",
          "name": "tier",
          "type": "uint8"
        }
      ],
      "name": "getSubscriptionPrice",
      "outputs": [
        {
          "internalType": "uint256",
          "name": "",
          "type": "uint256"
        }
      ],
      "stateMutability": "pure",
      "type": "function"
    },
    {
      "inputs": [
        {
          "internalType": "address",
          "name": "user",
          "type": "address"
        }
      ],
      "name": "getSubscriptionTimeRemaining",
      "outputs": [
        {
          "internalType": "uint256",
          "name": "",
          "type": "uint256"
        }
      ],
      "stateMutability": "view",
      "type": "function"
    },
    {
      "inputs": [
        {
          "internalType": "address",
          "name": "user",
          "type": "address"
        }
      ],
      "name": "getUserSubscription",
      "outputs": [
        {
          "components": [
            {
              "internalType": "enum StudySubscription.SubscriptionTier",
              "name": "tier",
              "type": "uint8"
            },
            {
              "internalType": "uint256",
              "name": "startTime",
              "type": "uint256"
            },
            {
              "internalType": "uint256",
              "name": "endTime",
              "type": "uint256"
            },
            {
              "internalType": "bool",
              "name": "isActive",
              "type": "bool"
            },
            {
              "internalType": "uint256",
              "name": "pricePaid",
              "type": "uint256"
            }
          ],
          "internalType": "struct StudySubscription.Subscription",
          "name": "",
          "type": "tuple"
        }
      ],
      "stateMutability": "view",
      "type": "function"
    },
    {
      "inputs": [
        {
          "internalType": "address",
          "name": "user",
          "type": "address"
        }
      ],
      "name": "getUserSubscriptionTier",
      "outputs": [
        {
          "internalType": "enum StudySubscription.SubscriptionTier",
          "name": "",
          "type": "uint8"
        }
      ],
      "stateMutability": "view",
      "type": "function"
    },
    {
      "inputs": [
        {
          "internalType": "address",
          "name": "user",
          "type": "address"
        }
      ],
      "name": "hasActivePremiumSubscription",
      "outputs": [
        {
          "internalType": "bool",
          "name": "",
          "type": "bool"
        }
      ],
      "stateMutability": "view",
      "type": "function"
    },
    {
      "inputs": [],
      "name": "owner",
      "outputs": [
        {
          "internalType": "address",
          "name": "",
          "type": "address"
        }
      ],
      "stateMutability": "view",
      "type": "function"
    },
    {
      "inputs": [],
      "name": "pause",
      "outputs": [],
      "stateMutability": "nonpayable",
      "type": "function"
    },
    {
      "inputs": [],
      "name": "paused",
      "outputs": [
        {
          "internalType": "bool",
          "name": "",
          "type": "bool"
        }
      ],
      "stateMutability": "view",
      "type": "function"
    },
    {
      "inputs": [
        {
          "internalType": "address",
          "name": "user",
          "type": "address"
        }
      ],
      "name": "purchasePremiumMonthly",
      "outputs": [],
      "stateMutability": "nonpayable",
      "type": "function"
    },
    {
      "inputs": [
        {
          "internalType": "address",
          "name": "user",
          "type": "address"
        }
      ],
      "name": "purchasePremiumYearly",
      "outputs": [],
      "stateMutability": "nonpayable",
      "type": "function"
    },
    {
      "inputs": [
        {
          "internalType": "address",
          "name": "user",
          "type": "address"
        }
      ],
      "name": "renewSubscription",
      "outputs": [],
      "stateMutability": "nonpayable",
      "type": "function"
    },
    {
      "inputs": [],
      "name": "renounceOwnership",
      "outputs": [],
      "stateMutability": "nonpayable",
      "type": "function"
    },
    {
      "inputs": [],
      "name": "subscriptionToken",
      "outputs": [
        {
          "internalType": "contract IERC20",
          "name": "",
          "type": "address"
        }
      ],
      "stateMutability": "view",
      "type": "function"
    },
    {
      "inputs": [
        {
          "internalType": "address",
          "name": "newOwner",
          "type": "address"
        }
      ],
      "name": "transferOwnership",
      "outputs": [],
      "stateMutability": "nonpayable",
      "type": "function"
    },
    {
      "inputs": [],
      "name": "unpause",
      "outputs": [],
      "stateMutability": "nonpayable",
      "type": "function"
    },
    {
      "inputs": [
        {
          "internalType": "enum StudySubscription.SubscriptionTier",
          "name": "tier",
          "type": "uint8"
        },
        {
          "internalType": "uint256",
          "name": "newPrice",
          "type": "uint256"
        }
      ],
      "name": "updateSubscriptionPrice",
      "outputs": [],
      "stateMutability": "nonpayable",
      "type": "function"
    },
    {
      "inputs": [
        {
          "internalType": "address",
          "name": "",
          "type": "address"
        }
      ],
      "name": "userSubscriptions",
      "outputs": [
        {
          "internalType": "enum StudySubscription.SubscriptionTier",
          "name": "tier",
          "type": "uint8"
        },
        {
          "internalType": "uint256",
          "name": "startTime",
          "type": "uint256"
        },
        {
          "internalType": "uint256",
          "name": "endTime",
          "type": "uint256"
        },
        {
          "internalType": "bool",
          "name": "isActive",
          "type": "bool"
        },
        {
          "internalType": "uint256",
          "name": "pricePaid",
          "type": "uint256"
        }
      ],
      "stateMutability": "view",
      "type": "function"
    }
  ],
  "bytecode": "0x60a06040523480156200001157600080fd5b506040516200192338038062001923833981016040819052620000349162000131565b33806200005c57604051631e4fbdf760e01b8152600060048201526024015b60405180910390fd5b6200006781620000e1565b50600180556001600160a01b038116620000cf5760405162461bcd60e51b815260206004820152602260248201527f496e76616c696420737562736372697074696f6e20746f6b656e206164647265604482015261737360f01b606482015260840162000053565b6001600160a01b031660805262000163565b600080546001600160a01b038381166001600160a01b0319831681178455604051919092169283917f8be0079c531659141344cd1fd0a4f28419497f9722a3daafe3b4186f6b6457e09190a35050565b6000602082840312156200014457600080fd5b81516001600160a01b03811681146200015c57600080fd5b9392505050565b60805161176c620001b76000396000818161030c015281816104f40152818161061f0152818161085f015281816108fa01528181610cd401528181610db2015281816110660152611192015261176c6000f3fe608060405234801561001057600080fd5b50600436106101735760003560e01c80637273a856116100de578063d6672e1c11610097578063ebbeec0811610071578063ebbeec081461034b578063f2fde38b1461036b578063f34a075e1461037e578063fe1dc4871461039e57600080fd5b8063d6672e1c14610307578063da8230101461032e578063e02eb1091461033857600080fd5b80637273a856146102505780638456cb59146102605780638da5cb5b1461026857806393d81d581461028d5780639e26d4be146102a0578063cf14b9e4146102b057600080fd5b80635312ea8e116101305780635312ea8e146101fc57806357d6e5be1461020f5780635c975abb146102225780636f9fb98a1461022d5780636febd1d914610235578063715018a61461024857600080fd5b8063031c78d41461017857806307a14d9c146101a0578063165a9adc146101b55780631855e97c146101d657806323473384146101e95780633f4ba83a146101f4575b600080fd5b61018b6101863660046114e2565b6103b1565b60405190151581526020015b60405180910390f35b6101b36101ae3660046114e2565b61048b565b005b6101c86101c33660046114e2565b6106f2565b604051908152602001610197565b6101b36101e43660046114e2565b6107aa565b6101c86301e1338081565b6101b3610826565b6101b361020a36600461150b565b610838565b6101c861021d366004611538565b610886565b60025460ff1661018b565b6101c86108e2565b6101b3610243366004611553565b610972565b6101b3610a07565b6101c8683635c9adc5dea0000081565b6101b3610a19565b6000546001600160a01b03165b6040516001600160a01b039091168152602001610197565b6101b361029b3660046114e2565b610a29565b6101c868056bc75e2d6310000081565b6102f66102be3660046114e2565b60036020819052600091825260409091208054600182015460028301549383015460049093015460ff92831694919391929091169085565b6040516101979594939291906115b5565b6102757f000000000000000000000000000000000000000000000000000000000000000081565b6101c862278d0081565b6101b36103463660046114e2565b610b09565b61035e6103593660046114e2565b610e3e565b60405161019791906115e6565b6101b36103793660046114e2565b610f1c565b61039161038c3660046114e2565b610f57565b6040516101979190611629565b6101b36103ac3660046114e2565b611006565b6001600160a01b038116600090815260036020526040808220815160a08101909252805483929190829060ff1660028111156103ef576103ef61157d565b60028111156104005761040061157d565b81526001820154602082015260028201546040820152600382015460ff161515606080830191909152600490920154608090910152810151909150801561044a5750806040015142105b801561048457506001815160028111156104665761046661157d565b148061048457506002815160028111156104825761048261157d565b145b9392505050565b610493611251565b61049b61127b565b6001600160a01b0381166104ca5760405162461bcd60e51b81526004016104c190611637565b60405180910390fd5b6040516370a0823160e01b81526001600160a01b038281166004830152683635c9adc5dea00000917f0000000000000000000000000000000000000000000000000000000000000000909116906370a0823190602401602060405180830381865afa15801561053d573d6000803e3d6000fd5b505050506040513d601f19601f820116820180604052508101906105619190611665565b10156105c45760405162461bcd60e51b815260206004820152602c60248201527f496e73756666696369656e742062616c616e636520666f7220796561726c792060448201526b39bab139b1b934b83a34b7b760a11b60648201526084016104c1565b6001600160a01b03811660009081526003602081905260409091209081015460ff1615806105f6575080600201544210155b6106125760405162461bcd60e51b81526004016104c19061167e565b6106506001600160a01b037f0000000000000000000000000000000000000000000000000000000000000000168330683635c9adc5dea0000061129f565b4260006106616301e13380836116d6565b8354600260ff1991821681178655600180870186905581870184905560038701805490931617909155683635c9adc5dea00000600486018190556040519293506001600160a01b038716927f559531f26d3d225cebcd22eb4b5a893fffe267028468d998315d80fd4bdd22fb926106db92909186906116e9565b60405180910390a25050506106ef60018055565b50565b6001600160a01b038116600090815260036020526040808220815160a08101909252805483929190829060ff1660028111156107305761073061157d565b60028111156107415761074161157d565b81526001820154602082015260028201546040820152600382015460ff161515606080830191909152600490920154608090910152810151909150158061078c575080604001514210155b1561079a5750600092915050565b4281604001516104849190611708565b6001600160a01b03811660009081526003602081905260409091209081015460ff1680156107dc575080600201544210155b156108225760038101805460ff191690556040516001600160a01b038316907fce494df26201e4ab47fcf20b8e9c68090020433b94bca8e2768f3a6a2099f75390600090a25b5050565b61082e61130c565b610836611339565b565b61084061130c565b6106ef6108556000546001600160a01b031690565b6001600160a01b037f000000000000000000000000000000000000000000000000000000000000000016908361138b565b6000600182600281111561089c5761089c61157d565b036108b1575068056bc75e2d63100000919050565b60028260028111156108c5576108c561157d565b036108da5750683635c9adc5dea00000919050565b506000919050565b6040516370a0823160e01b81523060048201526000907f00000000000000000000000000000000000000000000000000000000000000006001600160a01b0316906370a0823190602401602060405180830381865afa158015610949573d6000803e3d6000fd5b505050506040513d601f19601f8201168201806040525081019061096d9190611665565b905090565b61097a61130c565b600081116109ca5760405162461bcd60e51b815260206004820152601f60248201527f5072696365206d7573742062652067726561746572207468616e207a65726f0060448201526064016104c1565b7f0e5b21d629350c551f4d1422c61e2d238c4e8bcfe91953f21b4e66d1667ea71a82826040516109fb92919061171b565b60405180910390a15050565b610a0f61130c565b61083660006113c1565b610a2161130c565b610836611411565b610a3161130c565b6001600160a01b038116610a575760405162461bcd60e51b81526004016104c190611637565b6001600160a01b03811660009081526003602081905260409091209081015460ff16610ac55760405162461bcd60e51b815260206004820181905260248201527f4e6f2061637469766520737562736372697074696f6e20746f2063616e63656c60448201526064016104c1565b60038101805460ff191690556040516001600160a01b038316907f71215198e3f86c24dc3af6d0d7f84d0095e5ee736aa56daf9927fae51935e95d90600090a25050565b610b11611251565b610b1961127b565b6001600160a01b038116610b3f5760405162461bcd60e51b81526004016104c190611637565b6001600160a01b03811660009081526003602081905260409091209081015460ff16610bad5760405162461bcd60e51b815260206004820152601f60248201527f4e6f2061637469766520737562736372697074696f6e20746f2072656e65770060448201526064016104c1565b8060020154421015610c015760405162461bcd60e51b815260206004820152601c60248201527f537562736372697074696f6e206973207374696c6c206163746976650000000060448201526064016104c1565b6000806001835460ff166002811115610c1c57610c1c61157d565b03610c37575068056bc75e2d63100000905062278d00610cb3565b6002835460ff166002811115610c4f57610c4f61157d565b03610c6b5750683635c9adc5dea0000090506301e13380610cb3565b60405162461bcd60e51b815260206004820152601960248201527f496e76616c696420737562736372697074696f6e20746965720000000000000060448201526064016104c1565b6040516370a0823160e01b81526001600160a01b03858116600483015283917f0000000000000000000000000000000000000000000000000000000000000000909116906370a0823190602401602060405180830381865afa158015610d1d573d6000803e3d6000fd5b505050506040513d601f19601f82011682018060405250810190610d419190611665565b1015610da55760405162461bcd60e51b815260206004820152602d60248201527f496e73756666696369656e742062616c616e636520666f72207375627363726960448201526c1c1d1a5bdb881c995b995dd85b609a1b60648201526084016104c1565b610dda6001600160a01b037f00000000000000000000000000000000000000000000000000000000000000001685308561129f565b4260018401819055610ded9082906116d6565b600284018190556004840183905583546040516001600160a01b038716927f7444fe04ae039d88e8603aea2141b4441332ad3d8352341bcfd5027bb871ba36926106db9260ff9091169187916116e9565b610e736040805160a0810190915280600081526020016000815260200160008152602001600015158152602001600081525090565b6001600160a01b038216600090815260036020526040808220815160a081019092528054829060ff166002811115610ead57610ead61157d565b6002811115610ebe57610ebe61157d565b81526001820154602082015260028201546040820152600382015460ff1615156060808301919091526004909201546080909101528101519091508015610f09575080604001514210155b15610f1657600060608201525b92915050565b610f2461130c565b6001600160a01b038116610f4e57604051631e4fbdf760e01b8152600060048201526024016104c1565b6106ef816113c1565b6001600160a01b038116600090815260036020526040808220815160a08101909252805483929190829060ff166002811115610f9557610f9561157d565b6002811115610fa657610fa661157d565b81526001820154602082015260028201546040820152600382015460ff1615156060808301919091526004909201546080909101528101519091501580610ff1575080604001514210155b15610fff5750600092915050565b5192915050565b61100e611251565b61101661127b565b6001600160a01b03811661103c5760405162461bcd60e51b81526004016104c190611637565b6040516370a0823160e01b81526001600160a01b03828116600483015268056bc75e2d63100000917f0000000000000000000000000000000000000000000000000000000000000000909116906370a0823190602401602060405180830381865afa1580156110af573d6000803e3d6000fd5b505050506040513d601f19601f820116820180604052508101906110d39190611665565b10156111375760405162461bcd60e51b815260206004820152602d60248201527f496e73756666696369656e742062616c616e636520666f72206d6f6e74686c7960448201526c1039bab139b1b934b83a34b7b760991b60648201526084016104c1565b6001600160a01b03811660009081526003602081905260409091209081015460ff161580611169575080600201544210155b6111855760405162461bcd60e51b81526004016104c19061167e565b6111c36001600160a01b037f000000000000000000000000000000000000000000000000000000000000000016833068056bc75e2d6310000061129f565b4260006111d362278d00836116d6565b8354909150600190849060ff19168280021790555060018084018390556002840182905560038401805460ff19168217905568056bc75e2d63100000600485018190556040516001600160a01b038716927f559531f26d3d225cebcd22eb4b5a893fffe267028468d998315d80fd4bdd22fb926106db9286906116e9565b60026001540361127457604051633ee5aeb560e01b815260040160405180910390fd5b6002600155565b60025460ff16156108365760405163d93c066560e01b815260040160405180910390fd5b6040516001600160a01b0384811660248301528381166044830152606482018390526113069186918216906323b872dd906084015b604051602081830303815290604052915060e01b6020820180516001600160e01b03838183161783525050505061144e565b50505050565b6000546001600160a01b031633146108365760405163118cdaa760e01b81523360048201526024016104c1565b6113416114bf565b6002805460ff191690557f5db9ee0a495bf2e6ff9c91a7834c1ba4fdd244a5e8aa4e537bd38aeae4b073aa335b6040516001600160a01b03909116815260200160405180910390a1565b6040516001600160a01b038381166024830152604482018390526113bc91859182169063a9059cbb906064016112d4565b505050565b600080546001600160a01b038381166001600160a01b0319831681178455604051919092169283917f8be0079c531659141344cd1fd0a4f28419497f9722a3daafe3b4186f6b6457e09190a35050565b61141961127b565b6002805460ff191660011790557f62e78cea01bee320cd4e420270b5ea74000d11b0c9f74754ebdbfc544b05a25861136e3390565b600080602060008451602086016000885af180611471576040513d6000823e3d81fd5b50506000513d91508115611489578060011415611496565b6001600160a01b0384163b155b1561130657604051635274afe760e01b81526001600160a01b03851660048201526024016104c1565b60025460ff1661083657604051638dfc202b60e01b815260040160405180910390fd5b6000602082840312156114f457600080fd5b81356001600160a01b038116811461048457600080fd5b60006020828403121561151d57600080fd5b5035919050565b80356003811061153357600080fd5b919050565b60006020828403121561154a57600080fd5b61048482611524565b6000806040838503121561156657600080fd5b61156f83611524565b946020939093013593505050565b634e487b7160e01b600052602160045260246000fd5b600381106115b157634e487b7160e01b600052602160045260246000fd5b9052565b60a081016115c38288611593565b602082019590955260408101939093529015156060830152608090910152919050565b600060a0820190506115f9828451611593565b60208301516020830152604083015160408301526060830151151560608301526080830151608083015292915050565b60208101610f168284611593565b602080825260149082015273496e76616c69642075736572206164647265737360601b604082015260600190565b60006020828403121561167757600080fd5b5051919050565b60208082526022908201527f41637469766520737562736372697074696f6e20616c72656164792065786973604082015261747360f01b606082015260800190565b634e487b7160e01b600052601160045260246000fd5b80820180821115610f1657610f166116c0565b606081016116f78286611593565b602082019390935260400152919050565b81810381811115610f1657610f166116c0565b604081016117298285611593565b826020830152939250505056fea26469706673582212201041e972c854dd7cedb09ee12f00b3410fe6cb0945c87e57d4770477bc95000464736f6c63430008140033",
  "linkReferences": {},
  "deployedLinkReferences": {}
}