{"contracts/StudyTokenShop.sol":{"StudyTokenShop":{"abi":[{"inputs":[{"internalType":"address","name":"_studyToken","type":"address"}],"stateMutability":"nonpayable","type":"constructor"},{"inputs":[],"name":"EnforcedPause","type":"error"},{"inputs":[],"name":"ExpectedPause","type":"error"},{"inputs":[{"internalType":"address","name":"owner","type":"address"}],"name":"OwnableInvalidOwner","type":"error"},{"inputs":[{"internalType":"address","name":"account","type":"address"}],"name":"OwnableUnauthorizedAccount","type":"error"},{"inputs":[],"name":"ReentrancyGuardReentrantCall","type":"error"},{"anonymous":false,"inputs":[{"indexed":false,"internalType":"uint256","name":"timestamp","type":"uint256"},{"indexed":false,"internalType":"uint256","name":"volume","type":"uint256"},{"indexed":false,"internalType":"uint256","name":"purchases","type":"uint256"}],"name":"DailyReset","type":"event"},{"anonymous":false,"inputs":[{"indexed":true,"internalType":"address","name":"previousOwner","type":"address"},{"indexed":true,"internalType":"address","name":"newOwner","type":"address"}],"name":"OwnershipTransferred","type":"event"},{"anonymous":false,"inputs":[{"indexed":false,"internalType":"address","name":"account","type":"address"}],"name":"Paused","type":"event"},{"anonymous":false,"inputs":[{"indexed":false,"internalType":"uint256","name":"oldPrice","type":"uint256"},{"indexed":false,"internalType":"uint256","name":"newPrice","type":"uint256"},{"indexed":false,"internalType":"uint256","name":"dailyVolume","type":"uint256"}],"name":"PriceUpdated","type":"event"},{"anonymous":false,"inputs":[{"indexed":true,"internalType":"address","name":"buyer","type":"address"},{"indexed":false,"internalType":"uint256","name":"ethAmount","type":"uint256"},{"indexed":false,"internalType":"uint256","name":"tokenAmount","type":"uint256"},{"indexed":false,"internalType":"uint256","name":"price","type":"uint256"}],"name":"TokensPurchased","type":"event"},{"anonymous":false,"inputs":[{"indexed":false,"internalType":"address","name":"account","type":"address"}],"name":"Unpaused","type":"event"},{"inputs":[],"name":"MAX_PRICE","outputs":[{"internalType":"uint256","name":"","type":"uint256"}],"stateMutability":"view","type":"function"},{"inputs":[],"name":"MIN_PRICE","outputs":[{"internalType":"uint256","name":"","type":"uint256"}],"stateMutability":"view","type":"function"},{"inputs":[],"name":"PRICE_DECREASE_RATE","outputs":[{"internalType":"uint256","name":"","type":"uint256"}],"stateMutability":"view","type":"function"},{"inputs":[],"name":"PRICE_INCREASE_RATE","outputs":[{"internalType":"uint256","name":"","type":"uint256"}],"stateMutability":"view","type":"function"},{"inputs":[],"name":"VOLUME_THRESHOLD_HIGH","outputs":[{"internalType":"uint256","name":"","type":"uint256"}],"stateMutability":"view","type":"function"},{"inputs":[],"name":"VOLUME_THRESHOLD_LOW","outputs":[{"internalType":"uint256","name":"","type":"uint256"}],"stateMutability":"view","type":"function"},{"inputs":[],"name":"basePrice","outputs":[{"internalType":"uint256","name":"","type":"uint256"}],"stateMutability":"view","type":"function"},{"inputs":[],"name":"buyTokens","outputs":[],"stateMutability":"payable","type":"function"},{"inputs":[],"name":"currentPrice","outputs":[{"internalType":"uint256","name":"","type":"uint256"}],"stateMutability":"view","type":"function"},{"inputs":[],"name":"dailyPurchases","outputs":[{"internalType":"uint256","name":"","type":"uint256"}],"stateMutability":"view","type":"function"},{"inputs":[],"name":"dailyVolume","outputs":[{"internalType":"uint256","name":"","type":"uint256"}],"stateMutability":"view","type":"function"},{"inputs":[],"name":"emergencyWithdraw","outputs":[],"stateMutability":"nonpayable","type":"function"},{"inputs":[],"name":"forceReset","outputs":[],"stateMutability":"nonpayable","type":"function"},{"inputs":[],"name":"getPriceInfo","outputs":[{"internalType":"uint256","name":"price","type":"uint256"},{"internalType":"uint256","name":"tokensPerEth","type":"uint256"},{"internalType":"uint256","name":"dailyVol","type":"uint256"},{"internalType":"uint256","name":"dailyPurchasesCount","type":"uint256"},{"internalType":"uint256","name":"timeUntilReset","type":"uint256"}],"stateMutability":"view","type":"function"},{"inputs":[{"internalType":"uint256","name":"ethAmount","type":"uint256"}],"name":"getQuote","outputs":[{"internalType":"uint256","name":"tokenAmount","type":"uint256"}],"stateMutability":"view","type":"function"},{"inputs":[],"name":"lastReset","outputs":[{"internalType":"uint256","name":"","type":"uint256"}],"stateMutability":"view","type":"function"},{"inputs":[],"name":"owner","outputs":[{"internalType":"address","name":"","type":"address"}],"stateMutability":"view","type":"function"},{"inputs":[],"name":"pause","outputs":[],"stateMutability":"nonpayable","type":"function"},{"inputs":[],"name":"paused","outputs":[{"internalType":"bool","name":"","type":"bool"}],"stateMutability":"view","type":"function"},{"inputs":[],"name":"renounceOwnership","outputs":[],"stateMutability":"nonpayable","type":"function"},{"inputs":[{"internalType":"uint256","name":"newBasePrice","type":"uint256"}],"name":"setBasePrice","outputs":[],"stateMutability":"nonpayable","type":"function"},{"inputs":[{"internalType":"uint256","name":"newPrice","type":"uint256"}],"name":"setCurrentPrice","outputs":[],"stateMutability":"nonpayable","type":"function"},{"inputs":[],"name":"studyToken","outputs":[{"internalType":"contract StudyToken","name":"","type":"address"}],"stateMutability":"view","type":"function"},{"inputs":[],"name":"totalBuyers","outputs":[{"internalType":"uint256","name":"","type":"uint256"}],"stateMutability":"view","type":"function"},{"inputs":[],"name":"totalRevenue","outputs":[{"internalType":"uint256","name":"","type":"uint256"}],"stateMutability":"view","type":"function"},{"inputs":[],"name":"totalSold","outputs":[{"internalType":"uint256","name":"","type":"uint256"}],"stateMutability":"view","type":"function"},{"inputs":[{"internalType":"address","name":"newOwner","type":"address"}],"name":"transferOwnership","outputs":[],"stateMutability":"nonpayable","type":"function"},{"inputs":[],"name":"unpause","outputs":[],"stateMutability":"nonpayable","type":"function"}],"evm":{"bytecode":{"linkReferences":{},"object":"6080604052655af3107a4000600355655af3107a400060045534801561002457600080fd5b5060405161101e38038061101e833981016040819052610043916100f0565b338061006957604051631e4fbdf760e01b81526000600482015260240160405180910390fd5b610072816100a0565b5060018055600280546001600160a01b0319166001600160a01b039290921691909117905542600755610120565b600080546001600160a01b038381166001600160a01b0319831681178455604051919092169283917f8be0079c531659141344cd1fd0a4f28419497f9722a3daafe3b4186f6b6457e09190a35050565b60006020828403121561010257600080fd5b81516001600160a01b038116811461011957600080fd5b9392505050565b610eef8061012f6000396000f3fe6080604052600436106101b75760003560e01c806398c8877e116100ec578063c7876ea41161008a578063d0febe4c11610064578063d0febe4c14610466578063db2e21bc1461046e578063de4b326214610483578063f2fde38b146104a357600080fd5b8063c7876ea41461041a578063c9a1e7b214610430578063cf39918e1461044657600080fd5b8063a7481b5b116100c6578063a7481b5b146103b4578063ab0f8485146103d4578063ad9f20a6146103ea578063bf2d9e0b1461040457600080fd5b806398c8877e146103735780639d1b464a146103895780639ef113d11461039f57600080fd5b8063715018a6116101595780638a69bed9116101335780638a69bed9146102f95780638b680cc3146103165780638da5cb5b1461032b5780639106d7ba1461035d57600080fd5b8063715018a6146102b35780638456cb59146102c8578063855c3686146102dd57600080fd5b8063330227bf11610195578063330227bf146102215780633abd01361461025e5780633f4ba83a146102745780635c975abb1461028957600080fd5b806301c11d96146101bc57806318b20071146101ea57806327a67fc61461020c575b600080fd5b3480156101c857600080fd5b506101d766038d7ea4c6800081565b6040519081526020015b60405180910390f35b3480156101f657600080fd5b5061020a610205366004610dc9565b6104c3565b005b34801561021857600080fd5b506101d7606e81565b34801561022d57600080fd5b50610236610534565b604080519586526020860194909452928401919091526060830152608082015260a0016101e1565b34801561026a57600080fd5b506101d7600a5481565b34801561028057600080fd5b5061020a610593565b34801561029557600080fd5b50600054600160a01b900460ff1660405190151581526020016101e1565b3480156102bf57600080fd5b5061020a6105a5565b3480156102d457600080fd5b5061020a6105b7565b3480156102e957600080fd5b506101d7674563918244f4000081565b34801561030557600080fd5b506101d76802b5e3af16b188000081565b34801561032257600080fd5b5061020a6105c7565b34801561033757600080fd5b506000546001600160a01b03165b6040516001600160a01b0390911681526020016101e1565b34801561036957600080fd5b506101d760085481565b34801561037f57600080fd5b506101d760055481565b34801561039557600080fd5b506101d760045481565b3480156103ab57600080fd5b506101d7605a81565b3480156103c057600080fd5b50600254610345906001600160a01b031681565b3480156103e057600080fd5b506101d760065481565b3480156103f657600080fd5b506101d7652d79883d200081565b34801561041057600080fd5b506101d760095481565b34801561042657600080fd5b506101d760035481565b34801561043c57600080fd5b506101d760075481565b34801561045257600080fd5b506101d7610461366004610dc9565b6105d7565b61020a6105ed565b34801561047a57600080fd5b5061020a6109a3565b34801561048f57600080fd5b5061020a61049e366004610dc9565b6109e8565b3480156104af57600080fd5b5061020a6104be366004610de2565b610a54565b6104cb610a8f565b652d79883d200081101580156104e8575066038d7ea4c680008111155b61052f5760405162461bcd60e51b81526020600482015260136024820152725072696365206f7574206f6620626f756e647360681b60448201526064015b60405180910390fd5b600455565b6000806000806000426007546201518061054e9190610e28565b6105589190610e3b565b905062015180811115610569575060005b60045461057e81670de0b6b3a7640000610e4e565b60055460065494509450945094509091929394565b61059b610a8f565b6105a3610abc565b565b6105ad610a8f565b6105a36000610b11565b6105bf610a8f565b6105a3610b61565b6105cf610a8f565b6105a3610ba4565b6000600454826105e79190610e4e565b92915050565b6105f5610c4c565b6105fd610c76565b6000341161063d5760405162461bcd60e51b815260206004820152600d60248201526c09aeae6e840e6cadcc8408aa89609b1b6044820152606401610526565b66038d7ea4c680003410156106945760405162461bcd60e51b815260206004820152601b60248201527f4d696e696d756d2070757263686173653a20302e3030312045544800000000006044820152606401610526565b61069c610ba4565b34600560008282546106ae9190610e28565b9091555050600680549060006106c383610e70565b91905055506000600454346106d89190610e4e565b90506000811161072a5760405162461bcd60e51b815260206004820152601b60248201527f496e73756666696369656e742045544820666f7220746f6b656e7300000000006044820152606401610526565b600260009054906101000a90046001600160a01b03166001600160a01b03166332cb6b0c6040518163ffffffff1660e01b8152600401602060405180830381865afa15801561077d573d6000803e3d6000fd5b505050506040513d601f19601f820116820180604052508101906107a19190610e89565b600254604080516318160ddd60e01b8152905184926001600160a01b0316916318160ddd9160048083019260209291908290030181865afa1580156107ea573d6000803e3d6000fd5b505050506040513d601f19601f8201168201806040525081019061080e9190610e89565b6108189190610e28565b11156108665760405162461bcd60e51b815260206004820152601760248201527f576f756c6420657863656564206d617820737570706c790000000000000000006044820152606401610526565b600254604051633147ff7d60e21b8152336004820152602481018390526001600160a01b039091169063c51ffdf490604401600060405180830381600087803b1580156108b257600080fd5b505af11580156108c6573d6000803e3d6000fd5b5050505080600860008282546108dc9190610e28565b9250508190555034600960008282546108f59190610e28565b9091555050600a805490600061090a83610e70565b9190505550610917610ca1565b600080546040516001600160a01b03909116913480156108fc02929091818181858888f19350505050158015610951573d6000803e3d6000fd5b5060045460408051348152602081018490529081019190915233907f0d1a0d5e3d583a0e92588799dd06e50fd78c07daf05f0cc06d7b848b1ca445f19060600160405180910390a2506105a360018055565b6109ab610a8f565b600080546040516001600160a01b03909116914780156108fc02929091818181858888f193505050501580156109e5573d6000803e3d6000fd5b50565b6109f0610a8f565b652d79883d20008110158015610a0d575066038d7ea4c680008111155b610a4f5760405162461bcd60e51b81526020600482015260136024820152725072696365206f7574206f6620626f756e647360681b6044820152606401610526565b600355565b610a5c610a8f565b6001600160a01b038116610a8657604051631e4fbdf760e01b815260006004820152602401610526565b6109e581610b11565b6000546001600160a01b031633146105a35760405163118cdaa760e01b8152336004820152602401610526565b610ac4610d9f565b6000805460ff60a01b191690557f5db9ee0a495bf2e6ff9c91a7834c1ba4fdd244a5e8aa4e537bd38aeae4b073aa335b6040516001600160a01b03909116815260200160405180910390a1565b600080546001600160a01b038381166001600160a01b0319831681178455604051919092169283917f8be0079c531659141344cd1fd0a4f28419497f9722a3daafe3b4186f6b6457e09190a35050565b610b69610c76565b6000805460ff60a01b1916600160a01b1790557f62e78cea01bee320cd4e420270b5ea74000d11b0c9f74754ebdbfc544b05a258610af43390565b600754610bb49062015180610e28565b42106105a35760075460055460065460408051938452602084019290925282820152517f9e3e7d6f44b9932dc8cbef16d0f7dc456e51e1ecff456315ff3855dbad61258f9181900360600190a1600060058190556006554260075560035460045411156105a3576064600454605f610c2c9190610ea2565b610c369190610e4e565b600481905560035411156105a357600354600455565b600260015403610c6f57604051633ee5aeb560e01b815260040160405180910390fd5b6002600155565b600054600160a01b900460ff16156105a35760405163d93c066560e01b815260040160405180910390fd5b6004546005546802b5e3af16b188000011610cf5576064606e600454610cc79190610ea2565b610cd19190610e4e565b600481905566038d7ea4c680001015610cf05766038d7ea4c680006004555b610d4e565b674563918244f4000060055411158015610d1157506000600654115b15610d4e576064605a600454610d279190610ea2565b610d319190610e4e565b6004819055652d79883d20001115610d4e57652d79883d20006004555b60045481146109e5576004546005546040805184815260208101939093528201527f15819dd2fd9f6418b142e798d08a18d0bf06ea368f4480b7b0d3f75bd966bc489060600160405180910390a150565b600054600160a01b900460ff166105a357604051638dfc202b60e01b815260040160405180910390fd5b600060208284031215610ddb57600080fd5b5035919050565b600060208284031215610df457600080fd5b81356001600160a01b0381168114610e0b57600080fd5b9392505050565b634e487b7160e01b600052601160045260246000fd5b808201808211156105e7576105e7610e12565b818103818111156105e7576105e7610e12565b600082610e6b57634e487b7160e01b600052601260045260246000fd5b500490565b600060018201610e8257610e82610e12565b5060010190565b600060208284031215610e9b57600080fd5b5051919050565b80820281158282048414176105e7576105e7610e1256fea26469706673582212201c6b110db975f6de3d1c5547b835ca69489e071e20e06fb612239750bdd87bc664736f6c63430008140033","opcodes":"PUSH1 0x80 PUSH1 0x40 MSTORE PUSH6 0x5AF3107A4000 PUSH1 0x3 SSTORE PUSH6 0x5AF3107A4000 PUSH1 0x4 SSTORE CALLVALUE DUP1 ISZERO PUSH2 0x24 JUMPI PUSH1 0x0 DUP1 REVERT JUMPDEST POP PUSH1 0x40 MLOAD PUSH2 0x101E CODESIZE SUB DUP1 PUSH2 0x101E DUP4 CODECOPY DUP2 ADD PUSH1 0x40 DUP2 SWAP1 MSTORE PUSH2 0x43 SWAP2 PUSH2 0xF0 JUMP JUMPDEST CALLER DUP1 PUSH2 0x69 JUMPI PUSH1 0x40 MLOAD PUSH4 0x1E4FBDF7 PUSH1 0xE0 SHL DUP2 MSTORE PUSH1 0x0 PUSH1 0x4 DUP3 ADD MSTORE PUSH1 0x24 ADD PUSH1 0x40 MLOAD DUP1 SWAP2 SUB SWAP1 REVERT JUMPDEST PUSH2 0x72 DUP2 PUSH2 0xA0 JUMP JUMPDEST POP PUSH1 0x1 DUP1 SSTORE PUSH1 0x2 DUP1 SLOAD PUSH1 0x1 PUSH1 0x1 PUSH1 0xA0 SHL SUB NOT AND PUSH1 0x1 PUSH1 0x1 PUSH1 0xA0 SHL SUB SWAP3 SWAP1 SWAP3 AND SWAP2 SWAP1 SWAP2 OR SWAP1 SSTORE TIMESTAMP PUSH1 0x7 SSTORE PUSH2 0x120 JUMP JUMPDEST PUSH1 0x0 DUP1 SLOAD PUSH1 0x1 PUSH1 0x1 PUSH1 0xA0 SHL SUB DUP4 DUP2 AND PUSH1 0x1 PUSH1 0x1 PUSH1 0xA0 SHL SUB NOT DUP4 AND DUP2 OR DUP5 SSTORE PUSH1 0x40 MLOAD SWAP2 SWAP1 SWAP3 AND SWAP3 DUP4 SWAP2 PUSH32 0x8BE0079C531659141344CD1FD0A4F28419497F9722A3DAAFE3B4186F6B6457E0 SWAP2 SWAP1 LOG3 POP POP JUMP JUMPDEST PUSH1 0x0 PUSH1 0x20 DUP3 DUP5 SUB SLT ISZERO PUSH2 0x102 JUMPI PUSH1 0x0 DUP1 REVERT JUMPDEST DUP2 MLOAD PUSH1 0x1 PUSH1 0x1 PUSH1 0xA0 SHL SUB DUP2 AND DUP2 EQ PUSH2 0x119 JUMPI PUSH1 0x0 DUP1 REVERT JUMPDEST SWAP4 SWAP3 POP POP POP JUMP JUMPDEST PUSH2 0xEEF DUP1 PUSH2 0x12F PUSH1 0x0 CODECOPY PUSH1 0x0 RETURN INVALID PUSH1 0x80 PUSH1 0x40 MSTORE PUSH1 0x4 CALLDATASIZE LT PUSH2 0x1B7 JUMPI PUSH1 0x0 CALLDATALOAD PUSH1 0xE0 SHR DUP1 PUSH4 0x98C8877E GT PUSH2 0xEC JUMPI DUP1 PUSH4 0xC7876EA4 GT PUSH2 0x8A JUMPI DUP1 PUSH4 0xD0FEBE4C GT PUSH2 0x64 JUMPI DUP1 PUSH4 0xD0FEBE4C EQ PUSH2 0x466 JUMPI DUP1 PUSH4 0xDB2E21BC EQ PUSH2 0x46E JUMPI DUP1 PUSH4 0xDE4B3262 EQ PUSH2 0x483 JUMPI DUP1 PUSH4 0xF2FDE38B EQ PUSH2 0x4A3 JUMPI PUSH1 0x0 DUP1 REVERT JUMPDEST DUP1 PUSH4 0xC7876EA4 EQ PUSH2 0x41A JUMPI DUP1 PUSH4 0xC9A1E7B2 EQ PUSH2 0x430 JUMPI DUP1 PUSH4 0xCF39918E EQ PUSH2 0x446 JUMPI PUSH1 0x0 DUP1 REVERT JUMPDEST DUP1 PUSH4 0xA7481B5B GT PUSH2 0xC6 JUMPI DUP1 PUSH4 0xA7481B5B EQ PUSH2 0x3B4 JUMPI DUP1 PUSH4 0xAB0F8485 EQ PUSH2 0x3D4 JUMPI DUP1 PUSH4 0xAD9F20A6 EQ PUSH2 0x3EA JUMPI DUP1 PUSH4 0xBF2D9E0B EQ PUSH2 0x404 JUMPI PUSH1 0x0 DUP1 REVERT JUMPDEST DUP1 PUSH4 0x98C8877E EQ PUSH2 0x373 JUMPI DUP1 PUSH4 0x9D1B464A EQ PUSH2 0x389 JUMPI DUP1 PUSH4 0x9EF113D1 EQ PUSH2 0x39F JUMPI PUSH1 0x0 DUP1 REVERT JUMPDEST DUP1 PUSH4 0x715018A6 GT PUSH2 0x159 JUMPI DUP1 PUSH4 0x8A69BED9 GT PUSH2 0x133 JUMPI DUP1 PUSH4 0x8A69BED9 EQ PUSH2 0x2F9 JUMPI DUP1 PUSH4 0x8B680CC3 EQ PUSH2 0x316 JUMPI DUP1 PUSH4 0x8DA5CB5B EQ PUSH2 0x32B JUMPI DUP1 PUSH4 0x9106D7BA EQ PUSH2 0x35D JUMPI PUSH1 0x0 DUP1 REVERT JUMPDEST DUP1 PUSH4 0x715018A6 EQ PUSH2 0x2B3 JUMPI DUP1 PUSH4 0x8456CB59 EQ PUSH2 0x2C8 JUMPI DUP1 PUSH4 0x855C3686 EQ PUSH2 0x2DD JUMPI PUSH1 0x0 DUP1 REVERT JUMPDEST DUP1 PUSH4 0x330227BF GT PUSH2 0x195 JUMPI DUP1 PUSH4 0x330227BF EQ PUSH2 0x221 JUMPI DUP1 PUSH4 0x3ABD0136 EQ PUSH2 0x25E JUMPI DUP1 PUSH4 0x3F4BA83A EQ PUSH2 0x274 JUMPI DUP1 PUSH4 0x5C975ABB EQ PUSH2 0x289 JUMPI PUSH1 0x0 DUP1 REVERT JUMPDEST DUP1 PUSH4 0x1C11D96 EQ PUSH2 0x1BC JUMPI DUP1 PUSH4 0x18B20071 EQ PUSH2 0x1EA JUMPI DUP1 PUSH4 0x27A67FC6 EQ PUSH2 0x20C JUMPI JUMPDEST PUSH1 0x0 DUP1 REVERT JUMPDEST CALLVALUE DUP1 ISZERO PUSH2 0x1C8 JUMPI PUSH1 0x0 DUP1 REVERT JUMPDEST POP PUSH2 0x1D7 PUSH7 0x38D7EA4C68000 DUP2 JUMP JUMPDEST PUSH1 0x40 MLOAD SWAP1 DUP2 MSTORE PUSH1 0x20 ADD JUMPDEST PUSH1 0x40 MLOAD DUP1 SWAP2 SUB SWAP1 RETURN JUMPDEST CALLVALUE DUP1 ISZERO PUSH2 0x1F6 JUMPI PUSH1 0x0 DUP1 REVERT JUMPDEST POP PUSH2 0x20A PUSH2 0x205 CALLDATASIZE PUSH1 0x4 PUSH2 0xDC9 JUMP JUMPDEST PUSH2 0x4C3 JUMP JUMPDEST STOP JUMPDEST CALLVALUE DUP1 ISZERO PUSH2 0x218 JUMPI PUSH1 0x0 DUP1 REVERT JUMPDEST POP PUSH2 0x1D7 PUSH1 0x6E DUP2 JUMP JUMPDEST CALLVALUE DUP1 ISZERO PUSH2 0x22D JUMPI PUSH1 0x0 DUP1 REVERT JUMPDEST POP PUSH2 0x236 PUSH2 0x534 JUMP JUMPDEST PUSH1 0x40 DUP1 MLOAD SWAP6 DUP7 MSTORE PUSH1 0x20 DUP7 ADD SWAP5 SWAP1 SWAP5 MSTORE SWAP3 DUP5 ADD SWAP2 SWAP1 SWAP2 MSTORE PUSH1 0x60 DUP4 ADD MSTORE PUSH1 0x80 DUP3 ADD MSTORE PUSH1 0xA0 ADD PUSH2 0x1E1 JUMP JUMPDEST CALLVALUE DUP1 ISZERO PUSH2 0x26A JUMPI PUSH1 0x0 DUP1 REVERT JUMPDEST POP PUSH2 0x1D7 PUSH1 0xA SLOAD DUP2 JUMP JUMPDEST CALLVALUE DUP1 ISZERO PUSH2 0x280 JUMPI PUSH1 0x0 DUP1 REVERT JUMPDEST POP PUSH2 0x20A PUSH2 0x593 JUMP JUMPDEST CALLVALUE DUP1 ISZERO PUSH2 0x295 JUMPI PUSH1 0x0 DUP1 REVERT JUMPDEST POP PUSH1 0x0 SLOAD PUSH1 0x1 PUSH1 0xA0 SHL SWAP1 DIV PUSH1 0xFF AND PUSH1 0x40 MLOAD SWAP1 ISZERO ISZERO DUP2 MSTORE PUSH1 0x20 ADD PUSH2 0x1E1 JUMP JUMPDEST CALLVALUE DUP1 ISZERO PUSH2 0x2BF JUMPI PUSH1 0x0 DUP1 REVERT JUMPDEST POP PUSH2 0x20A PUSH2 0x5A5 JUMP JUMPDEST CALLVALUE DUP1 ISZERO PUSH2 0x2D4 JUMPI PUSH1 0x0 DUP1 REVERT JUMPDEST POP PUSH2 0x20A PUSH2 0x5B7 JUMP JUMPDEST CALLVALUE DUP1 ISZERO PUSH2 0x2E9 JUMPI PUSH1 0x0 DUP1 REVERT JUMPDEST POP PUSH2 0x1D7 PUSH8 0x4563918244F40000 DUP2 JUMP JUMPDEST CALLVALUE DUP1 ISZERO PUSH2 0x305 JUMPI PUSH1 0x0 DUP1 REVERT JUMPDEST POP PUSH2 0x1D7 PUSH9 0x2B5E3AF16B1880000 DUP2 JUMP JUMPDEST CALLVALUE DUP1 ISZERO PUSH2 0x322 JUMPI PUSH1 0x0 DUP1 REVERT JUMPDEST POP PUSH2 0x20A PUSH2 0x5C7 JUMP JUMPDEST CALLVALUE DUP1 ISZERO PUSH2 0x337 JUMPI PUSH1 0x0 DUP1 REVERT JUMPDEST POP PUSH1 0x0 SLOAD PUSH1 0x1 PUSH1 0x1 PUSH1 0xA0 SHL SUB AND JUMPDEST PUSH1 0x40 MLOAD PUSH1 0x1 PUSH1 0x1 PUSH1 0xA0 SHL SUB SWAP1 SWAP2 AND DUP2 MSTORE PUSH1 0x20 ADD PUSH2 0x1E1 JUMP JUMPDEST CALLVALUE DUP1 ISZERO PUSH2 0x369 JUMPI PUSH1 0x0 DUP1 REVERT JUMPDEST POP PUSH2 0x1D7 PUSH1 0x8 SLOAD DUP2 JUMP JUMPDEST CALLVALUE DUP1 ISZERO PUSH2 0x37F JUMPI PUSH1 0x0 DUP1 REVERT JUMPDEST POP PUSH2 0x1D7 PUSH1 0x5 SLOAD DUP2 JUMP JUMPDEST CALLVALUE DUP1 ISZERO PUSH2 0x395 JUMPI PUSH1 0x0 DUP1 REVERT JUMPDEST POP PUSH2 0x1D7 PUSH1 0x4 SLOAD DUP2 JUMP JUMPDEST CALLVALUE DUP1 ISZERO PUSH2 0x3AB JUMPI PUSH1 0x0 DUP1 REVERT JUMPDEST POP PUSH2 0x1D7 PUSH1 0x5A DUP2 JUMP JUMPDEST CALLVALUE DUP1 ISZERO PUSH2 0x3C0 JUMPI PUSH1 0x0 DUP1 REVERT JUMPDEST POP PUSH1 0x2 SLOAD PUSH2 0x345 SWAP1 PUSH1 0x1 PUSH1 0x1 PUSH1 0xA0 SHL SUB AND DUP2 JUMP JUMPDEST CALLVALUE DUP1 ISZERO PUSH2 0x3E0 JUMPI PUSH1 0x0 DUP1 REVERT JUMPDEST POP PUSH2 0x1D7 PUSH1 0x6 SLOAD DUP2 JUMP JUMPDEST CALLVALUE DUP1 ISZERO PUSH2 0x3F6 JUMPI PUSH1 0x0 DUP1 REVERT JUMPDEST POP PUSH2 0x1D7 PUSH6 0x2D79883D2000 DUP2 JUMP JUMPDEST CALLVALUE DUP1 ISZERO PUSH2 0x410 JUMPI PUSH1 0x0 DUP1 REVERT JUMPDEST POP PUSH2 0x1D7 PUSH1 0x9 SLOAD DUP2 JUMP JUMPDEST CALLVALUE DUP1 ISZERO PUSH2 0x426 JUMPI PUSH1 0x0 DUP1 REVERT JUMPDEST POP PUSH2 0x1D7 PUSH1 0x3 SLOAD DUP2 JUMP JUMPDEST CALLVALUE DUP1 ISZERO PUSH2 0x43C JUMPI PUSH1 0x0 DUP1 REVERT JUMPDEST POP PUSH2 0x1D7 PUSH1 0x7 SLOAD DUP2 JUMP JUMPDEST CALLVALUE DUP1 ISZERO PUSH2 0x452 JUMPI PUSH1 0x0 DUP1 REVERT JUMPDEST POP PUSH2 0x1D7 PUSH2 0x461 CALLDATASIZE PUSH1 0x4 PUSH2 0xDC9 JUMP JUMPDEST PUSH2 0x5D7 JUMP JUMPDEST PUSH2 0x20A PUSH2 0x5ED JUMP JUMPDEST CALLVALUE DUP1 ISZERO PUSH2 0x47A JUMPI PUSH1 0x0 DUP1 REVERT JUMPDEST POP PUSH2 0x20A PUSH2 0x9A3 JUMP JUMPDEST CALLVALUE DUP1 ISZERO PUSH2 0x48F JUMPI PUSH1 0x0 DUP1 REVERT JUMPDEST POP PUSH2 0x20A PUSH2 0x49E CALLDATASIZE PUSH1 0x4 PUSH2 0xDC9 JUMP JUMPDEST PUSH2 0x9E8 JUMP JUMPDEST CALLVALUE DUP1 ISZERO PUSH2 0x4AF JUMPI PUSH1 0x0 DUP1 REVERT JUMPDEST POP PUSH2 0x20A PUSH2 0x4BE CALLDATASIZE PUSH1 0x4 PUSH2 0xDE2 JUMP JUMPDEST PUSH2 0xA54 JUMP JUMPDEST PUSH2 0x4CB PUSH2 0xA8F JUMP JUMPDEST PUSH6 0x2D79883D2000 DUP2 LT ISZERO DUP1 ISZERO PUSH2 0x4E8 JUMPI POP PUSH7 0x38D7EA4C68000 DUP2 GT ISZERO JUMPDEST PUSH2 0x52F JUMPI PUSH1 0x40 MLOAD PUSH3 0x461BCD PUSH1 0xE5 SHL DUP2 MSTORE PUSH1 0x20 PUSH1 0x4 DUP3 ADD MSTORE PUSH1 0x13 PUSH1 0x24 DUP3 ADD MSTORE PUSH19 0x5072696365206F7574206F6620626F756E6473 PUSH1 0x68 SHL PUSH1 0x44 DUP3 ADD MSTORE PUSH1 0x64 ADD JUMPDEST PUSH1 0x40 MLOAD DUP1 SWAP2 SUB SWAP1 REVERT JUMPDEST PUSH1 0x4 SSTORE JUMP JUMPDEST PUSH1 0x0 DUP1 PUSH1 0x0 DUP1 PUSH1 0x0 TIMESTAMP PUSH1 0x7 SLOAD PUSH3 0x15180 PUSH2 0x54E SWAP2 SWAP1 PUSH2 0xE28 JUMP JUMPDEST PUSH2 0x558 SWAP2 SWAP1 PUSH2 0xE3B JUMP JUMPDEST SWAP1 POP PUSH3 0x15180 DUP2 GT ISZERO PUSH2 0x569 JUMPI POP PUSH1 0x0 JUMPDEST PUSH1 0x4 SLOAD PUSH2 0x57E DUP2 PUSH8 0xDE0B6B3A7640000 PUSH2 0xE4E JUMP JUMPDEST PUSH1 0x5 SLOAD PUSH1 0x6 SLOAD SWAP5 POP SWAP5 POP SWAP5 POP SWAP5 POP SWAP1 SWAP2 SWAP3 SWAP4 SWAP5 JUMP JUMPDEST PUSH2 0x59B PUSH2 0xA8F JUMP JUMPDEST PUSH2 0x5A3 PUSH2 0xABC JUMP JUMPDEST JUMP JUMPDEST PUSH2 0x5AD PUSH2 0xA8F JUMP JUMPDEST PUSH2 0x5A3 PUSH1 0x0 PUSH2 0xB11 JUMP JUMPDEST PUSH2 0x5BF PUSH2 0xA8F JUMP JUMPDEST PUSH2 0x5A3 PUSH2 0xB61 JUMP JUMPDEST PUSH2 0x5CF PUSH2 0xA8F JUMP JUMPDEST PUSH2 0x5A3 PUSH2 0xBA4 JUMP JUMPDEST PUSH1 0x0 PUSH1 0x4 SLOAD DUP3 PUSH2 0x5E7 SWAP2 SWAP1 PUSH2 0xE4E JUMP JUMPDEST SWAP3 SWAP2 POP POP JUMP JUMPDEST PUSH2 0x5F5 PUSH2 0xC4C JUMP JUMPDEST PUSH2 0x5FD PUSH2 0xC76 JUMP JUMPDEST PUSH1 0x0 CALLVALUE GT PUSH2 0x63D JUMPI PUSH1 0x40 MLOAD PUSH3 0x461BCD PUSH1 0xE5 SHL DUP2 MSTORE PUSH1 0x20 PUSH1 0x4 DUP3 ADD MSTORE PUSH1 0xD PUSH1 0x24 DUP3 ADD MSTORE PUSH13 0x9AEAE6E840E6CADCC8408AA89 PUSH1 0x9B SHL PUSH1 0x44 DUP3 ADD MSTORE PUSH1 0x64 ADD PUSH2 0x526 JUMP JUMPDEST PUSH7 0x38D7EA4C68000 CALLVALUE LT ISZERO PUSH2 0x694 JUMPI PUSH1 0x40 MLOAD PUSH3 0x461BCD PUSH1 0xE5 SHL DUP2 MSTORE PUSH1 0x20 PUSH1 0x4 DUP3 ADD MSTORE PUSH1 0x1B PUSH1 0x24 DUP3 ADD MSTORE PUSH32 0x4D696E696D756D2070757263686173653A20302E303031204554480000000000 PUSH1 0x44 DUP3 ADD MSTORE PUSH1 0x64 ADD PUSH2 0x526 JUMP JUMPDEST PUSH2 0x69C PUSH2 0xBA4 JUMP JUMPDEST CALLVALUE PUSH1 0x5 PUSH1 0x0 DUP3 DUP3 SLOAD PUSH2 0x6AE SWAP2 SWAP1 PUSH2 0xE28 JUMP JUMPDEST SWAP1 SWAP2 SSTORE POP POP PUSH1 0x6 DUP1 SLOAD SWAP1 PUSH1 0x0 PUSH2 0x6C3 DUP4 PUSH2 0xE70 JUMP JUMPDEST SWAP2 SWAP1 POP SSTORE POP PUSH1 0x0 PUSH1 0x4 SLOAD CALLVALUE PUSH2 0x6D8 SWAP2 SWAP1 PUSH2 0xE4E JUMP JUMPDEST SWAP1 POP PUSH1 0x0 DUP2 GT PUSH2 0x72A JUMPI PUSH1 0x40 MLOAD PUSH3 0x461BCD PUSH1 0xE5 SHL DUP2 MSTORE PUSH1 0x20 PUSH1 0x4 DUP3 ADD MSTORE PUSH1 0x1B PUSH1 0x24 DUP3 ADD MSTORE PUSH32 0x496E73756666696369656E742045544820666F7220746F6B656E730000000000 PUSH1 0x44 DUP3 ADD MSTORE PUSH1 0x64 ADD PUSH2 0x526 JUMP JUMPDEST PUSH1 0x2 PUSH1 0x0 SWAP1 SLOAD SWAP1 PUSH2 0x100 EXP SWAP1 DIV PUSH1 0x1 PUSH1 0x1 PUSH1 0xA0 SHL SUB AND PUSH1 0x1 PUSH1 0x1 PUSH1 0xA0 SHL SUB AND PUSH4 0x32CB6B0C PUSH1 0x40 MLOAD DUP2 PUSH4 0xFFFFFFFF AND PUSH1 0xE0 SHL DUP2 MSTORE PUSH1 0x4 ADD PUSH1 0x20 PUSH1 0x40 MLOAD DUP1 DUP4 SUB DUP2 DUP7 GAS STATICCALL ISZERO DUP1 ISZERO PUSH2 0x77D JUMPI RETURNDATASIZE PUSH1 0x0 DUP1 RETURNDATACOPY RETURNDATASIZE PUSH1 0x0 REVERT JUMPDEST POP POP POP POP PUSH1 0x40 MLOAD RETURNDATASIZE PUSH1 0x1F NOT PUSH1 0x1F DUP3 ADD AND DUP3 ADD DUP1 PUSH1 0x40 MSTORE POP DUP2 ADD SWAP1 PUSH2 0x7A1 SWAP2 SWAP1 PUSH2 0xE89 JUMP JUMPDEST PUSH1 0x2 SLOAD PUSH1 0x40 DUP1 MLOAD PUSH4 0x18160DDD PUSH1 0xE0 SHL DUP2 MSTORE SWAP1 MLOAD DUP5 SWAP3 PUSH1 0x1 PUSH1 0x1 PUSH1 0xA0 SHL SUB AND SWAP2 PUSH4 0x18160DDD SWAP2 PUSH1 0x4 DUP1 DUP4 ADD SWAP3 PUSH1 0x20 SWAP3 SWAP2 SWAP1 DUP3 SWAP1 SUB ADD DUP2 DUP7 GAS STATICCALL ISZERO DUP1 ISZERO PUSH2 0x7EA JUMPI RETURNDATASIZE PUSH1 0x0 DUP1 RETURNDATACOPY RETURNDATASIZE PUSH1 0x0 REVERT JUMPDEST POP POP POP POP PUSH1 0x40 MLOAD RETURNDATASIZE PUSH1 0x1F NOT PUSH1 0x1F DUP3 ADD AND DUP3 ADD DUP1 PUSH1 0x40 MSTORE POP DUP2 ADD SWAP1 PUSH2 0x80E SWAP2 SWAP1 PUSH2 0xE89 JUMP JUMPDEST PUSH2 0x818 SWAP2 SWAP1 PUSH2 0xE28 JUMP JUMPDEST GT ISZERO PUSH2 0x866 JUMPI PUSH1 0x40 MLOAD PUSH3 0x461BCD PUSH1 0xE5 SHL DUP2 MSTORE PUSH1 0x20 PUSH1 0x4 DUP3 ADD MSTORE PUSH1 0x17 PUSH1 0x24 DUP3 ADD MSTORE PUSH32 0x576F756C6420657863656564206D617820737570706C79000000000000000000 PUSH1 0x44 DUP3 ADD MSTORE PUSH1 0x64 ADD PUSH2 0x526 JUMP JUMPDEST PUSH1 0x2 SLOAD PUSH1 0x40 MLOAD PUSH4 0x3147FF7D PUSH1 0xE2 SHL DUP2 MSTORE CALLER PUSH1 0x4 DUP3 ADD MSTORE PUSH1 0x24 DUP2 ADD DUP4 SWAP1 MSTORE PUSH1 0x1 PUSH1 0x1 PUSH1 0xA0 SHL SUB SWAP1 SWAP2 AND SWAP1 PUSH4 0xC51FFDF4 SWAP1 PUSH1 0x44 ADD PUSH1 0x0 PUSH1 0x40 MLOAD DUP1 DUP4 SUB DUP2 PUSH1 0x0 DUP8 DUP1 EXTCODESIZE ISZERO DUP1 ISZERO PUSH2 0x8B2 JUMPI PUSH1 0x0 DUP1 REVERT JUMPDEST POP GAS CALL ISZERO DUP1 ISZERO PUSH2 0x8C6 JUMPI RETURNDATASIZE PUSH1 0x0 DUP1 RETURNDATACOPY RETURNDATASIZE PUSH1 0x0 REVERT JUMPDEST POP POP POP POP DUP1 PUSH1 0x8 PUSH1 0x0 DUP3 DUP3 SLOAD PUSH2 0x8DC SWAP2 SWAP1 PUSH2 0xE28 JUMP JUMPDEST SWAP3 POP POP DUP2 SWAP1 SSTORE POP CALLVALUE PUSH1 0x9 PUSH1 0x0 DUP3 DUP3 SLOAD PUSH2 0x8F5 SWAP2 SWAP1 PUSH2 0xE28 JUMP JUMPDEST SWAP1 SWAP2 SSTORE POP POP PUSH1 0xA DUP1 SLOAD SWAP1 PUSH1 0x0 PUSH2 0x90A DUP4 PUSH2 0xE70 JUMP JUMPDEST SWAP2 SWAP1 POP SSTORE POP PUSH2 0x917 PUSH2 0xCA1 JUMP JUMPDEST PUSH1 0x0 DUP1 SLOAD PUSH1 0x40 MLOAD PUSH1 0x1 PUSH1 0x1 PUSH1 0xA0 SHL SUB SWAP1 SWAP2 AND SWAP2 CALLVALUE DUP1 ISZERO PUSH2 0x8FC MUL SWAP3 SWAP1 SWAP2 DUP2 DUP2 DUP2 DUP6 DUP9 DUP9 CALL SWAP4 POP POP POP POP ISZERO DUP1 ISZERO PUSH2 0x951 JUMPI RETURNDATASIZE PUSH1 0x0 DUP1 RETURNDATACOPY RETURNDATASIZE PUSH1 0x0 REVERT JUMPDEST POP PUSH1 0x4 SLOAD PUSH1 0x40 DUP1 MLOAD CALLVALUE DUP2 MSTORE PUSH1 0x20 DUP2 ADD DUP5 SWAP1 MSTORE SWAP1 DUP2 ADD SWAP2 SWAP1 SWAP2 MSTORE CALLER SWAP1 PUSH32 0xD1A0D5E3D583A0E92588799DD06E50FD78C07DAF05F0CC06D7B848B1CA445F1 SWAP1 PUSH1 0x60 ADD PUSH1 0x40 MLOAD DUP1 SWAP2 SUB SWAP1 LOG2 POP PUSH2 0x5A3 PUSH1 0x1 DUP1 SSTORE JUMP JUMPDEST PUSH2 0x9AB PUSH2 0xA8F JUMP JUMPDEST PUSH1 0x0 DUP1 SLOAD PUSH1 0x40 MLOAD PUSH1 0x1 PUSH1 0x1 PUSH1 0xA0 SHL SUB SWAP1 SWAP2 AND SWAP2 SELFBALANCE DUP1 ISZERO PUSH2 0x8FC MUL SWAP3 SWAP1 SWAP2 DUP2 DUP2 DUP2 DUP6 DUP9 DUP9 CALL SWAP4 POP POP POP POP ISZERO DUP1 ISZERO PUSH2 0x9E5 JUMPI RETURNDATASIZE PUSH1 0x0 DUP1 RETURNDATACOPY RETURNDATASIZE PUSH1 0x0 REVERT JUMPDEST POP JUMP JUMPDEST PUSH2 0x9F0 PUSH2 0xA8F JUMP JUMPDEST PUSH6 0x2D79883D2000 DUP2 LT ISZERO DUP1 ISZERO PUSH2 0xA0D JUMPI POP PUSH7 0x38D7EA4C68000 DUP2 GT ISZERO JUMPDEST PUSH2 0xA4F JUMPI PUSH1 0x40 MLOAD PUSH3 0x461BCD PUSH1 0xE5 SHL DUP2 MSTORE PUSH1 0x20 PUSH1 0x4 DUP3 ADD MSTORE PUSH1 0x13 PUSH1 0x24 DUP3 ADD MSTORE PUSH19 0x5072696365206F7574206F6620626F756E6473 PUSH1 0x68 SHL PUSH1 0x44 DUP3 ADD MSTORE PUSH1 0x64 ADD PUSH2 0x526 JUMP JUMPDEST PUSH1 0x3 SSTORE JUMP JUMPDEST PUSH2 0xA5C PUSH2 0xA8F JUMP JUMPDEST PUSH1 0x1 PUSH1 0x1 PUSH1 0xA0 SHL SUB DUP2 AND PUSH2 0xA86 JUMPI PUSH1 0x40 MLOAD PUSH4 0x1E4FBDF7 PUSH1 0xE0 SHL DUP2 MSTORE PUSH1 0x0 PUSH1 0x4 DUP3 ADD MSTORE PUSH1 0x24 ADD PUSH2 0x526 JUMP JUMPDEST PUSH2 0x9E5 DUP2 PUSH2 0xB11 JUMP JUMPDEST PUSH1 0x0 SLOAD PUSH1 0x1 PUSH1 0x1 PUSH1 0xA0 SHL SUB AND CALLER EQ PUSH2 0x5A3 JUMPI PUSH1 0x40 MLOAD PUSH4 0x118CDAA7 PUSH1 0xE0 SHL DUP2 MSTORE CALLER PUSH1 0x4 DUP3 ADD MSTORE PUSH1 0x24 ADD PUSH2 0x526 JUMP JUMPDEST PUSH2 0xAC4 PUSH2 0xD9F JUMP JUMPDEST PUSH1 0x0 DUP1 SLOAD PUSH1 0xFF PUSH1 0xA0 SHL NOT AND SWAP1 SSTORE PUSH32 0x5DB9EE0A495BF2E6FF9C91A7834C1BA4FDD244A5E8AA4E537BD38AEAE4B073AA CALLER JUMPDEST PUSH1 0x40 MLOAD PUSH1 0x1 PUSH1 0x1 PUSH1 0xA0 SHL SUB SWAP1 SWAP2 AND DUP2 MSTORE PUSH1 0x20 ADD PUSH1 0x40 MLOAD DUP1 SWAP2 SUB SWAP1 LOG1 JUMP JUMPDEST PUSH1 0x0 DUP1 SLOAD PUSH1 0x1 PUSH1 0x1 PUSH1 0xA0 SHL SUB DUP4 DUP2 AND PUSH1 0x1 PUSH1 0x1 PUSH1 0xA0 SHL SUB NOT DUP4 AND DUP2 OR DUP5 SSTORE PUSH1 0x40 MLOAD SWAP2 SWAP1 SWAP3 AND SWAP3 DUP4 SWAP2 PUSH32 0x8BE0079C531659141344CD1FD0A4F28419497F9722A3DAAFE3B4186F6B6457E0 SWAP2 SWAP1 LOG3 POP POP JUMP JUMPDEST PUSH2 0xB69 PUSH2 0xC76 JUMP JUMPDEST PUSH1 0x0 DUP1 SLOAD PUSH1 0xFF PUSH1 0xA0 SHL NOT AND PUSH1 0x1 PUSH1 0xA0 SHL OR SWAP1 SSTORE PUSH32 0x62E78CEA01BEE320CD4E420270B5EA74000D11B0C9F74754EBDBFC544B05A258 PUSH2 0xAF4 CALLER SWAP1 JUMP JUMPDEST PUSH1 0x7 SLOAD PUSH2 0xBB4 SWAP1 PUSH3 0x15180 PUSH2 0xE28 JUMP JUMPDEST TIMESTAMP LT PUSH2 0x5A3 JUMPI PUSH1 0x7 SLOAD PUSH1 0x5 SLOAD PUSH1 0x6 SLOAD PUSH1 0x40 DUP1 MLOAD SWAP4 DUP5 MSTORE PUSH1 0x20 DUP5 ADD SWAP3 SWAP1 SWAP3 MSTORE DUP3 DUP3 ADD MSTORE MLOAD PUSH32 0x9E3E7D6F44B9932DC8CBEF16D0F7DC456E51E1ECFF456315FF3855DBAD61258F SWAP2 DUP2 SWAP1 SUB PUSH1 0x60 ADD SWAP1 LOG1 PUSH1 0x0 PUSH1 0x5 DUP2 SWAP1 SSTORE PUSH1 0x6 SSTORE TIMESTAMP PUSH1 0x7 SSTORE PUSH1 0x3 SLOAD PUSH1 0x4 SLOAD GT ISZERO PUSH2 0x5A3 JUMPI PUSH1 0x64 PUSH1 0x4 SLOAD PUSH1 0x5F PUSH2 0xC2C SWAP2 SWAP1 PUSH2 0xEA2 JUMP JUMPDEST PUSH2 0xC36 SWAP2 SWAP1 PUSH2 0xE4E JUMP JUMPDEST PUSH1 0x4 DUP2 SWAP1 SSTORE PUSH1 0x3 SLOAD GT ISZERO PUSH2 0x5A3 JUMPI PUSH1 0x3 SLOAD PUSH1 0x4 SSTORE JUMP JUMPDEST PUSH1 0x2 PUSH1 0x1 SLOAD SUB PUSH2 0xC6F JUMPI PUSH1 0x40 MLOAD PUSH4 0x3EE5AEB5 PUSH1 0xE0 SHL DUP2 MSTORE PUSH1 0x4 ADD PUSH1 0x40 MLOAD DUP1 SWAP2 SUB SWAP1 REVERT JUMPDEST PUSH1 0x2 PUSH1 0x1 SSTORE JUMP JUMPDEST PUSH1 0x0 SLOAD PUSH1 0x1 PUSH1 0xA0 SHL SWAP1 DIV PUSH1 0xFF AND ISZERO PUSH2 0x5A3 JUMPI PUSH1 0x40 MLOAD PUSH4 0xD93C0665 PUSH1 0xE0 SHL DUP2 MSTORE PUSH1 0x4 ADD PUSH1 0x40 MLOAD DUP1 SWAP2 SUB SWAP1 REVERT JUMPDEST PUSH1 0x4 SLOAD PUSH1 0x5 SLOAD PUSH9 0x2B5E3AF16B1880000 GT PUSH2 0xCF5 JUMPI PUSH1 0x64 PUSH1 0x6E PUSH1 0x4 SLOAD PUSH2 0xCC7 SWAP2 SWAP1 PUSH2 0xEA2 JUMP JUMPDEST PUSH2 0xCD1 SWAP2 SWAP1 PUSH2 0xE4E JUMP JUMPDEST PUSH1 0x4 DUP2 SWAP1 SSTORE PUSH7 0x38D7EA4C68000 LT ISZERO PUSH2 0xCF0 JUMPI PUSH7 0x38D7EA4C68000 PUSH1 0x4 SSTORE JUMPDEST PUSH2 0xD4E JUMP JUMPDEST PUSH8 0x4563918244F40000 PUSH1 0x5 SLOAD GT ISZERO DUP1 ISZERO PUSH2 0xD11 JUMPI POP PUSH1 0x0 PUSH1 0x6 SLOAD GT JUMPDEST ISZERO PUSH2 0xD4E JUMPI PUSH1 0x64 PUSH1 0x5A PUSH1 0x4 SLOAD PUSH2 0xD27 SWAP2 SWAP1 PUSH2 0xEA2 JUMP JUMPDEST PUSH2 0xD31 SWAP2 SWAP1 PUSH2 0xE4E JUMP JUMPDEST PUSH1 0x4 DUP2 SWAP1 SSTORE PUSH6 0x2D79883D2000 GT ISZERO PUSH2 0xD4E JUMPI PUSH6 0x2D79883D2000 PUSH1 0x4 SSTORE JUMPDEST PUSH1 0x4 SLOAD DUP2 EQ PUSH2 0x9E5 JUMPI PUSH1 0x4 SLOAD PUSH1 0x5 SLOAD PUSH1 0x40 DUP1 MLOAD DUP5 DUP2 MSTORE PUSH1 0x20 DUP2 ADD SWAP4 SWAP1 SWAP4 MSTORE DUP3 ADD MSTORE PUSH32 0x15819DD2FD9F6418B142E798D08A18D0BF06EA368F4480B7B0D3F75BD966BC48 SWAP1 PUSH1 0x60 ADD PUSH1 0x40 MLOAD DUP1 SWAP2 SUB SWAP1 LOG1 POP JUMP JUMPDEST PUSH1 0x0 SLOAD PUSH1 0x1 PUSH1 0xA0 SHL SWAP1 DIV PUSH1 0xFF AND PUSH2 0x5A3 JUMPI PUSH1 0x40 MLOAD PUSH4 0x8DFC202B PUSH1 0xE0 SHL DUP2 MSTORE PUSH1 0x4 ADD PUSH1 0x40 MLOAD DUP1 SWAP2 SUB SWAP1 REVERT JUMPDEST PUSH1 0x0 PUSH1 0x20 DUP3 DUP5 SUB SLT ISZERO PUSH2 0xDDB JUMPI PUSH1 0x0 DUP1 REVERT JUMPDEST POP CALLDATALOAD SWAP2 SWAP1 POP JUMP JUMPDEST PUSH1 0x0 PUSH1 0x20 DUP3 DUP5 SUB SLT ISZERO PUSH2 0xDF4 JUMPI PUSH1 0x0 DUP1 REVERT JUMPDEST DUP2 CALLDATALOAD PUSH1 0x1 PUSH1 0x1 PUSH1 0xA0 SHL SUB DUP2 AND DUP2 EQ PUSH2 0xE0B JUMPI PUSH1 0x0 DUP1 REVERT JUMPDEST SWAP4 SWAP3 POP POP POP JUMP JUMPDEST PUSH4 0x4E487B71 PUSH1 0xE0 SHL PUSH1 0x0 MSTORE PUSH1 0x11 PUSH1 0x4 MSTORE PUSH1 0x24 PUSH1 0x0 REVERT JUMPDEST DUP1 DUP3 ADD DUP1 DUP3 GT ISZERO PUSH2 0x5E7 JUMPI PUSH2 0x5E7 PUSH2 0xE12 JUMP JUMPDEST DUP2 DUP2 SUB DUP2 DUP2 GT ISZERO PUSH2 0x5E7 JUMPI PUSH2 0x5E7 PUSH2 0xE12 JUMP JUMPDEST PUSH1 0x0 DUP3 PUSH2 0xE6B JUMPI PUSH4 0x4E487B71 PUSH1 0xE0 SHL PUSH1 0x0 MSTORE PUSH1 0x12 PUSH1 0x4 MSTORE PUSH1 0x24 PUSH1 0x0 REVERT JUMPDEST POP DIV SWAP1 JUMP JUMPDEST PUSH1 0x0 PUSH1 0x1 DUP3 ADD PUSH2 0xE82 JUMPI PUSH2 0xE82 PUSH2 0xE12 JUMP JUMPDEST POP PUSH1 0x1 ADD SWAP1 JUMP JUMPDEST PUSH1 0x0 PUSH1 0x20 DUP3 DUP5 SUB SLT ISZERO PUSH2 0xE9B JUMPI PUSH1 0x0 DUP1 REVERT JUMPDEST POP MLOAD SWAP2 SWAP1 POP JUMP JUMPDEST DUP1 DUP3 MUL DUP2 ISZERO DUP3 DUP3 DIV DUP5 EQ OR PUSH2 0x5E7 JUMPI PUSH2 0x5E7 PUSH2 0xE12 JUMP INVALID LOG2 PUSH5 0x6970667358 0x22 SLT KECCAK256 SHR PUSH12 0x110DB975F6DE3D1C5547B835 0xCA PUSH10 0x489E071E20E06FB61223 SWAP8 POP 0xBD 0xD8 PUSH28 0xC664736F6C6343000814003300000000000000000000000000000000 "},"methodIdentifiers":{"MAX_PRICE()":"01c11d96","MIN_PRICE()":"ad9f20a6","PRICE_DECREASE_RATE()":"9ef113d1","PRICE_INCREASE_RATE()":"27a67fc6","VOLUME_THRESHOLD_HIGH()":"8a69bed9","VOLUME_THRESHOLD_LOW()":"855c3686","basePrice()":"c7876ea4","buyTokens()":"d0febe4c","currentPrice()":"9d1b464a","dailyPurchases()":"ab0f8485","dailyVolume()":"98c8877e","emergencyWithdraw()":"db2e21bc","forceReset()":"8b680cc3","getPriceInfo()":"330227bf","getQuote(uint256)":"cf39918e","lastReset()":"c9a1e7b2","owner()":"8da5cb5b","pause()":"8456cb59","paused()":"5c975abb","renounceOwnership()":"715018a6","setBasePrice(uint256)":"de4b3262","setCurrentPrice(uint256)":"18b20071","studyToken()":"a7481b5b","totalBuyers()":"3abd0136","totalRevenue()":"bf2d9e0b","totalSold()":"9106d7ba","transferOwnership(address)":"f2fde38b","unpause()":"3f4ba83a"}}}}}