{"contracts/StudyTokenV2.sol":{"StudyTokenV2":{"abi":[{"inputs":[],"stateMutability":"nonpayable","type":"constructor"},{"inputs":[{"internalType":"address","name":"spender","type":"address"},{"internalType":"uint256","name":"allowance","type":"uint256"},{"internalType":"uint256","name":"needed","type":"uint256"}],"name":"ERC20InsufficientAllowance","type":"error"},{"inputs":[{"internalType":"address","name":"sender","type":"address"},{"internalType":"uint256","name":"balance","type":"uint256"},{"internalType":"uint256","name":"needed","type":"uint256"}],"name":"ERC20InsufficientBalance","type":"error"},{"inputs":[{"internalType":"address","name":"approver","type":"address"}],"name":"ERC20InvalidApprover","type":"error"},{"inputs":[{"internalType":"address","name":"receiver","type":"address"}],"name":"ERC20InvalidReceiver","type":"error"},{"inputs":[{"internalType":"address","name":"sender","type":"address"}],"name":"ERC20InvalidSender","type":"error"},{"inputs":[{"internalType":"address","name":"spender","type":"address"}],"name":"ERC20InvalidSpender","type":"error"},{"inputs":[],"name":"EnforcedPause","type":"error"},{"inputs":[],"name":"ExpectedPause","type":"error"},{"inputs":[{"internalType":"address","name":"owner","type":"address"}],"name":"OwnableInvalidOwner","type":"error"},{"inputs":[{"internalType":"address","name":"account","type":"address"}],"name":"OwnableUnauthorizedAccount","type":"error"},{"anonymous":false,"inputs":[{"indexed":true,"internalType":"address","name":"owner","type":"address"},{"indexed":true,"internalType":"address","name":"spender","type":"address"},{"indexed":false,"internalType":"uint256","name":"value","type":"uint256"}],"name":"Approval","type":"event"},{"anonymous":false,"inputs":[{"indexed":false,"internalType":"uint256","name":"amount","type":"uint256"}],"name":"BuybackExecuted","type":"event"},{"anonymous":false,"inputs":[{"indexed":true,"internalType":"address","name":"previousOwner","type":"address"},{"indexed":true,"internalType":"address","name":"newOwner","type":"address"}],"name":"OwnershipTransferred","type":"event"},{"anonymous":false,"inputs":[{"indexed":false,"internalType":"address","name":"account","type":"address"}],"name":"Paused","type":"event"},{"anonymous":false,"inputs":[{"indexed":false,"internalType":"uint256","name":"amount","type":"uint256"}],"name":"RevenueDistributed","type":"event"},{"anonymous":false,"inputs":[{"indexed":false,"internalType":"uint256","name":"amount","type":"uint256"}],"name":"TokensBurned","type":"event"},{"anonymous":false,"inputs":[{"indexed":true,"internalType":"address","name":"user","type":"address"},{"indexed":false,"internalType":"uint256","name":"amount","type":"uint256"}],"name":"TokensStaked","type":"event"},{"anonymous":false,"inputs":[{"indexed":true,"internalType":"address","name":"user","type":"address"},{"indexed":false,"internalType":"uint256","name":"amount","type":"uint256"}],"name":"TokensUnstaked","type":"event"},{"anonymous":false,"inputs":[{"indexed":true,"internalType":"address","name":"from","type":"address"},{"indexed":true,"internalType":"address","name":"to","type":"address"},{"indexed":false,"internalType":"uint256","name":"value","type":"uint256"}],"name":"Transfer","type":"event"},{"anonymous":false,"inputs":[{"indexed":false,"internalType":"address","name":"account","type":"address"}],"name":"Unpaused","type":"event"},{"inputs":[],"name":"BURN_FEE","outputs":[{"internalType":"uint256","name":"","type":"uint256"}],"stateMutability":"view","type":"function"},{"inputs":[],"name":"MAX_SUPPLY","outputs":[{"internalType":"uint256","name":"","type":"uint256"}],"stateMutability":"view","type":"function"},{"inputs":[],"name":"REVENUE_FEE","outputs":[{"internalType":"uint256","name":"","type":"uint256"}],"stateMutability":"view","type":"function"},{"inputs":[],"name":"TRANSFER_FEE","outputs":[{"internalType":"uint256","name":"","type":"uint256"}],"stateMutability":"view","type":"function"},{"inputs":[{"internalType":"uint256","name":"amount","type":"uint256"}],"name":"addToBuybackReserve","outputs":[],"stateMutability":"nonpayable","type":"function"},{"inputs":[{"internalType":"address","name":"owner","type":"address"},{"internalType":"address","name":"spender","type":"address"}],"name":"allowance","outputs":[{"internalType":"uint256","name":"","type":"uint256"}],"stateMutability":"view","type":"function"},{"inputs":[{"internalType":"address","name":"spender","type":"address"},{"internalType":"uint256","name":"value","type":"uint256"}],"name":"approve","outputs":[{"internalType":"bool","name":"","type":"bool"}],"stateMutability":"nonpayable","type":"function"},{"inputs":[{"internalType":"address","name":"account","type":"address"}],"name":"balanceOf","outputs":[{"internalType":"uint256","name":"","type":"uint256"}],"stateMutability":"view","type":"function"},{"inputs":[],"name":"buybackReserve","outputs":[{"internalType":"uint256","name":"","type":"uint256"}],"stateMutability":"view","type":"function"},{"inputs":[],"name":"claimRevenueShare","outputs":[],"stateMutability":"nonpayable","type":"function"},{"inputs":[],"name":"decimals","outputs":[{"internalType":"uint8","name":"","type":"uint8"}],"stateMutability":"pure","type":"function"},{"inputs":[{"internalType":"address","name":"to","type":"address"},{"internalType":"uint256","name":"amount","type":"uint256"}],"name":"emergencyMint","outputs":[],"stateMutability":"nonpayable","type":"function"},{"inputs":[{"internalType":"uint256","name":"amount","type":"uint256"}],"name":"executeBuyback","outputs":[],"stateMutability":"nonpayable","type":"function"},{"inputs":[{"internalType":"address","name":"user","type":"address"}],"name":"getUserRevenueShare","outputs":[{"internalType":"uint256","name":"","type":"uint256"}],"stateMutability":"view","type":"function"},{"inputs":[],"name":"name","outputs":[{"internalType":"string","name":"","type":"string"}],"stateMutability":"view","type":"function"},{"inputs":[],"name":"owner","outputs":[{"internalType":"address","name":"","type":"address"}],"stateMutability":"view","type":"function"},{"inputs":[],"name":"paused","outputs":[{"internalType":"bool","name":"","type":"bool"}],"stateMutability":"view","type":"function"},{"inputs":[],"name":"renounceOwnership","outputs":[],"stateMutability":"nonpayable","type":"function"},{"inputs":[],"name":"revenuePool","outputs":[{"internalType":"uint256","name":"","type":"uint256"}],"stateMutability":"view","type":"function"},{"inputs":[{"internalType":"uint256","name":"amount","type":"uint256"}],"name":"stake","outputs":[],"stateMutability":"nonpayable","type":"function"},{"inputs":[{"internalType":"address","name":"","type":"address"}],"name":"stakingBalance","outputs":[{"internalType":"uint256","name":"","type":"uint256"}],"stateMutability":"view","type":"function"},{"inputs":[],"name":"symbol","outputs":[{"internalType":"string","name":"","type":"string"}],"stateMutability":"view","type":"function"},{"inputs":[],"name":"totalBurned","outputs":[{"internalType":"uint256","name":"","type":"uint256"}],"stateMutability":"view","type":"function"},{"inputs":[],"name":"totalStaked","outputs":[{"internalType":"uint256","name":"","type":"uint256"}],"stateMutability":"view","type":"function"},{"inputs":[],"name":"totalSupply","outputs":[{"internalType":"uint256","name":"","type":"uint256"}],"stateMutability":"view","type":"function"},{"inputs":[{"internalType":"address","name":"to","type":"address"},{"internalType":"uint256","name":"value","type":"uint256"}],"name":"transfer","outputs":[{"internalType":"bool","name":"","type":"bool"}],"stateMutability":"nonpayable","type":"function"},{"inputs":[{"internalType":"address","name":"from","type":"address"},{"internalType":"address","name":"to","type":"address"},{"internalType":"uint256","name":"value","type":"uint256"}],"name":"transferFrom","outputs":[{"internalType":"bool","name":"","type":"bool"}],"stateMutability":"nonpayable","type":"function"},{"inputs":[{"internalType":"address","name":"newOwner","type":"address"}],"name":"transferOwnership","outputs":[],"stateMutability":"nonpayable","type":"function"},{"inputs":[{"internalType":"uint256","name":"amount","type":"uint256"}],"name":"unstake","outputs":[],"stateMutability":"nonpayable","type":"function"}],"evm":{"bytecode":{"linkReferences":{},"object":"60806040523480156200001157600080fd5b50336040518060400160405280600e81526020016d29ba3ab23c902a37b5b2b7102b1960911b8152506040518060400160405280600781526020016629aa2aa22cab1960c91b81525081600390816200006b91906200056c565b5060046200007a82826200056c565b5050506001600160a01b038116620000ad57604051631e4fbdf760e01b8152600060048201526024015b60405180910390fd5b620000b881620000e7565b50620000e133620000cc6012600a6200074d565b620000db90620f424062000765565b62000139565b620007ce565b600580546001600160a01b038381166001600160a01b0319831681179093556040519116919082907f8be0079c531659141344cd1fd0a4f28419497f9722a3daafe3b4186f6b6457e090600090a35050565b6001600160a01b038216620001655760405163ec442f0560e01b815260006004820152602401620000a4565b620001736000838362000177565b5050565b62000181620002c1565b6001600160a01b03831615801590620001a257506001600160a01b03821615155b8015620001bd57506005546001600160a01b03848116911614155b15620002af576000612710620001d560328462000765565b620001e191906200077f565b90506000612710620001f560328562000765565b6200020191906200077f565b905081156200026357620002168583620002f6565b81600660008282546200022a9190620007a2565b90915550506040518281527f6ef4855b666dcc7884561072e4358b28dfe01feb1b7f4dcebc00e62d50394ac79060200160405180910390a15b801562000291576200027785308362000330565b80600a60008282546200028b9190620007a2565b90915550505b806200029e8385620007b8565b620002aa9190620007b8565b925050505b620002bc83838362000395565b505050565b620002d5600554600160a01b900460ff1690565b15620002f45760405163d93c066560e01b815260040160405180910390fd5b565b6001600160a01b0382166200032257604051634b637e8f60e11b815260006004820152602401620000a4565b620001738260008362000177565b6001600160a01b0383166200035c57604051634b637e8f60e11b815260006004820152602401620000a4565b6001600160a01b038216620003885760405163ec442f0560e01b815260006004820152602401620000a4565b620002bc83838362000177565b6001600160a01b038316620003c4578060026000828254620003b89190620007a2565b90915550620004389050565b6001600160a01b03831660009081526020819052604090205481811015620004195760405163391434e360e21b81526001600160a01b03851660048201526024810182905260448101839052606401620000a4565b6001600160a01b03841660009081526020819052604090209082900390555b6001600160a01b038216620004565760028054829003905562000475565b6001600160a01b03821660009081526020819052604090208054820190555b816001600160a01b0316836001600160a01b03167fddf252ad1be2c89b69c2b068fc378daa952ba7f163c4a11628f55a4df523b3ef83604051620004bb91815260200190565b60405180910390a3505050565b634e487b7160e01b600052604160045260246000fd5b600181811c90821680620004f357607f821691505b6020821081036200051457634e487b7160e01b600052602260045260246000fd5b50919050565b601f821115620002bc57600081815260208120601f850160051c81016020861015620005435750805b601f850160051c820191505b8181101562000564578281556001016200054f565b505050505050565b81516001600160401b03811115620005885762000588620004c8565b620005a081620005998454620004de565b846200051a565b602080601f831160018114620005d85760008415620005bf5750858301515b600019600386901b1c1916600185901b17855562000564565b600085815260208120601f198616915b828110156200060957888601518255948401946001909101908401620005e8565b5085821015620006285787850151600019600388901b60f8161c191681555b5050505050600190811b01905550565b634e487b7160e01b600052601160045260246000fd5b600181815b808511156200068f57816000190482111562000673576200067362000638565b808516156200068157918102915b93841c939080029062000653565b509250929050565b600082620006a85750600162000747565b81620006b75750600062000747565b8160018114620006d05760028114620006db57620006fb565b600191505062000747565b60ff841115620006ef57620006ef62000638565b50506001821b62000747565b5060208310610133831016604e8410600b841016171562000720575081810a62000747565b6200072c83836200064e565b806000190482111562000743576200074362000638565b0290505b92915050565b60006200075e60ff84168362000697565b9392505050565b808202811582820484141762000747576200074762000638565b6000826200079d57634e487b7160e01b600052601260045260246000fd5b500490565b8082018082111562000747576200074762000638565b8181038181111562000747576200074762000638565b6113cc80620007de6000396000f3fe608060405234801561001057600080fd5b50600436106101cf5760003560e01c806354dffd0d116101045780638da5cb5b116100a2578063d89135cd11610071578063d89135cd14610388578063dd62ed3e14610391578063f2fde38b146103ca578063ff909560146103dd57600080fd5b80638da5cb5b1461033f57806395d89b411461035a578063a694fc3a14610362578063a9059cbb1461037557600080fd5b806370a08231116100de57806370a08231146102fc578063715018a6146103255780637f753de61461032d578063817b1cd21461033657600080fd5b806354dffd0d146102cf5780635c975abb146102d75780636869c673146102e957600080fd5b8063313ce5671161017157806343785dc91161014b57806343785dc9146102945780634421bd1e146102a757806345bc78ab146102af578063480df058146102a757600080fd5b8063313ce5671461027557806332cb6b0c14610284578063362651921461028c57600080fd5b806318160ddd116101ad57806318160ddd1461022a57806323b872dd1461023c5780632a1b6ba41461024f5780632e17de781461026257600080fd5b806306fdde03146101d4578063095ea7b3146101f25780630ec72f1914610215575b600080fd5b6101dc6103e6565b6040516101e991906110b6565b60405180910390f35b610205610200366004611120565b610478565b60405190151581526020016101e9565b61022861022336600461114a565b610492565b005b6002545b6040519081526020016101e9565b61020561024a366004611163565b61051a565b61022e61025d36600461119f565b61053e565b61022861027036600461114a565b610585565b604051601281526020016101e9565b61022e6106b6565b61022e606481565b6102286102a2366004611120565b6106d2565b61022e603281565b61022e6102bd36600461119f565b60086020526000908152604090205481565b6102286107b9565b600554600160a01b900460ff16610205565b6102286102f736600461114a565b6108d7565b61022e61030a36600461119f565b6001600160a01b031660009081526020819052604090205490565b6102286109fa565b61022e600a5481565b61022e60095481565b6005546040516001600160a01b0390911681526020016101e9565b6101dc610a0e565b61022861037036600461114a565b610a1d565b610205610383366004611120565b610b3d565b61022e60065481565b61022e61039f3660046111c1565b6001600160a01b03918216600090815260016020908152604080832093909416825291909152205490565b6102286103d836600461119f565b610b4b565b61022e60075481565b6060600380546103f5906111f4565b80601f0160208091040260200160405190810160405280929190818152602001828054610421906111f4565b801561046e5780601f106104435761010080835404028352916020019161046e565b820191906000526020600020905b81548152906001019060200180831161045157829003601f168201915b5050505050905090565b600033610486818585610b89565b60019150505b92915050565b61049a610b9b565b336000908152602081905260409020548111156104f55760405162461bcd60e51b8152602060048201526014602482015273496e73756666696369656e742062616c616e636560601b60448201526064015b60405180910390fd5b610500333083610bc8565b80600760008282546105129190611244565b909155505050565b600033610528858285610c27565b610533858585610bc8565b506001949350505050565b600060095460000361055257506000919050565b6009546001600160a01b038316600090815260086020526040902054600a5461057b9190611257565b61048c919061126e565b600081116105d55760405162461bcd60e51b815260206004820181905260248201527f416d6f756e74206d7573742062652067726561746572207468616e207a65726f60448201526064016104ec565b336000908152600860205260409020548111156106345760405162461bcd60e51b815260206004820152601b60248201527f496e73756666696369656e74207374616b65642062616c616e6365000000000060448201526064016104ec565b3360009081526008602052604081208054839290610653908490611290565b92505081905550806009600082825461066c9190611290565b9091555061067d9050303383610bc8565b60405181815233907f9845e367b683334e5c0b12d7b81721ac518e649376fa65e3d68324e8f34f2679906020015b60405180910390a250565b6106c26012600a611387565b6106cf9062989680611257565b81565b6106da610b9b565b6001600160a01b0382166107305760405162461bcd60e51b815260206004820152601b60248201527f43616e6e6f74206d696e7420746f207a65726f2061646472657373000000000060448201526064016104ec565b61073c6012600a611387565b6107499062989680611257565b8161075360025490565b61075d9190611244565b11156107ab5760405162461bcd60e51b815260206004820152601760248201527f576f756c6420657863656564206d617820737570706c7900000000000000000060448201526064016104ec565b6107b58282610ca6565b5050565b336000908152600860205260409020546108085760405162461bcd60e51b815260206004820152601060248201526f4e6f207374616b656420746f6b656e7360801b60448201526064016104ec565b60095433600090815260086020526040812054600a5491929161082b9190611257565b610835919061126e565b90506000811161087d5760405162461bcd60e51b81526020600482015260136024820152724e6f20726576656e756520746f20636c61696d60681b60448201526064016104ec565b80600a600082825461088f9190611290565b909155506108a09050303383610bc8565b6040518181527f4af957e83bae9af28d97033ead523ed57c0f21e021037b85ec168f156ab3b7a0906020015b60405180910390a150565b6108df610b9b565b6007548111156109315760405162461bcd60e51b815260206004820152601c60248201527f496e73756666696369656e74206275796261636b20726573657276650000000060448201526064016104ec565b306000908152602081905260409020548111156109905760405162461bcd60e51b815260206004820152601d60248201527f496e73756666696369656e7420636f6e74726163742062616c616e636500000060448201526064016104ec565b61099a3082610cdc565b80600760008282546109ac9190611290565b9250508190555080600660008282546109c59190611244565b90915550506040518181527fd2c5a6b66fbd4c28346666274dd95b77fd31d5c730deb119439b2b5482deafc9906020016108cc565b610a02610b9b565b610a0c6000610d12565b565b6060600480546103f5906111f4565b60008111610a6d5760405162461bcd60e51b815260206004820181905260248201527f416d6f756e74206d7573742062652067726561746572207468616e207a65726f60448201526064016104ec565b33600090815260208190526040902054811115610ac35760405162461bcd60e51b8152602060048201526014602482015273496e73756666696369656e742062616c616e636560601b60448201526064016104ec565b610ace333083610bc8565b3360009081526008602052604081208054839290610aed908490611244565b925050819055508060096000828254610b069190611244565b909155505060405181815233907fb539ca1e5c8d398ddf1c41c30166f33404941683be4683319b57669a93dad4ef906020016106ab565b600033610486818585610bc8565b610b53610b9b565b6001600160a01b038116610b7d57604051631e4fbdf760e01b8152600060048201526024016104ec565b610b8681610d12565b50565b610b968383836001610d64565b505050565b6005546001600160a01b03163314610a0c5760405163118cdaa760e01b81523360048201526024016104ec565b6001600160a01b038316610bf257604051634b637e8f60e11b8152600060048201526024016104ec565b6001600160a01b038216610c1c5760405163ec442f0560e01b8152600060048201526024016104ec565b610b96838383610e39565b6001600160a01b03838116600090815260016020908152604080832093861683529290522054600019811015610ca05781811015610c9157604051637dc7a0d960e11b81526001600160a01b038416600482015260248101829052604481018390526064016104ec565b610ca084848484036000610d64565b50505050565b6001600160a01b038216610cd05760405163ec442f0560e01b8152600060048201526024016104ec565b6107b560008383610e39565b6001600160a01b038216610d0657604051634b637e8f60e11b8152600060048201526024016104ec565b6107b582600083610e39565b600580546001600160a01b038381166001600160a01b0319831681179093556040519116919082907f8be0079c531659141344cd1fd0a4f28419497f9722a3daafe3b4186f6b6457e090600090a35050565b6001600160a01b038416610d8e5760405163e602df0560e01b8152600060048201526024016104ec565b6001600160a01b038316610db857604051634a1406b160e11b8152600060048201526024016104ec565b6001600160a01b0380851660009081526001602090815260408083209387168352929052208290558015610ca057826001600160a01b0316846001600160a01b03167f8c5be1e5ebec7d5bd14f71427d1e84f3dd0314c0f7b2291e5b200ac8c7c3b92584604051610e2b91815260200190565b60405180910390a350505050565b610e41610f61565b6001600160a01b03831615801590610e6157506001600160a01b03821615155b8015610e7b57506005546001600160a01b03848116911614155b15610f56576000612710610e90603284611257565b610e9a919061126e565b90506000612710610eac603285611257565b610eb6919061126e565b90508115610f1357610ec88583610cdc565b8160066000828254610eda9190611244565b90915550506040518281527f6ef4855b666dcc7884561072e4358b28dfe01feb1b7f4dcebc00e62d50394ac79060200160405180910390a15b8015610f3c57610f24853083610bc8565b80600a6000828254610f369190611244565b90915550505b80610f478385611290565b610f519190611290565b925050505b610b96838383610f8c565b600554600160a01b900460ff1615610a0c5760405163d93c066560e01b815260040160405180910390fd5b6001600160a01b038316610fb7578060026000828254610fac9190611244565b909155506110299050565b6001600160a01b0383166000908152602081905260409020548181101561100a5760405163391434e360e21b81526001600160a01b038516600482015260248101829052604481018390526064016104ec565b6001600160a01b03841660009081526020819052604090209082900390555b6001600160a01b03821661104557600280548290039055611064565b6001600160a01b03821660009081526020819052604090208054820190555b816001600160a01b0316836001600160a01b03167fddf252ad1be2c89b69c2b068fc378daa952ba7f163c4a11628f55a4df523b3ef836040516110a991815260200190565b60405180910390a3505050565b600060208083528351808285015260005b818110156110e3578581018301518582016040015282016110c7565b506000604082860101526040601f19601f8301168501019250505092915050565b80356001600160a01b038116811461111b57600080fd5b919050565b6000806040838503121561113357600080fd5b61113c83611104565b946020939093013593505050565b60006020828403121561115c57600080fd5b5035919050565b60008060006060848603121561117857600080fd5b61118184611104565b925061118f60208501611104565b9150604084013590509250925092565b6000602082840312156111b157600080fd5b6111ba82611104565b9392505050565b600080604083850312156111d457600080fd5b6111dd83611104565b91506111eb60208401611104565b90509250929050565b600181811c9082168061120857607f821691505b60208210810361122857634e487b7160e01b600052602260045260246000fd5b50919050565b634e487b7160e01b600052601160045260246000fd5b8082018082111561048c5761048c61122e565b808202811582820484141761048c5761048c61122e565b60008261128b57634e487b7160e01b600052601260045260246000fd5b500490565b8181038181111561048c5761048c61122e565b600181815b808511156112de5781600019048211156112c4576112c461122e565b808516156112d157918102915b93841c93908002906112a8565b509250929050565b6000826112f55750600161048c565b816113025750600061048c565b816001811461131857600281146113225761133e565b600191505061048c565b60ff8411156113335761133361122e565b50506001821b61048c565b5060208310610133831016604e8410600b8410161715611361575081810a61048c565b61136b83836112a3565b806000190482111561137f5761137f61122e565b029392505050565b60006111ba60ff8416836112e656fea2646970667358221220328588ea378ba30b865b174f568af557693e6ed078c78b193aeafb9477a2110b64736f6c63430008140033","opcodes":"PUSH1 0x80 PUSH1 0x40 MSTORE CALLVALUE DUP1 ISZERO PUSH3 0x11 JUMPI PUSH1 0x0 DUP1 REVERT JUMPDEST POP CALLER PUSH1 0x40 MLOAD DUP1 PUSH1 0x40 ADD PUSH1 0x40 MSTORE DUP1 PUSH1 0xE DUP2 MSTORE PUSH1 0x20 ADD PUSH14 0x29BA3AB23C902A37B5B2B7102B19 PUSH1 0x91 SHL DUP2 MSTORE POP PUSH1 0x40 MLOAD DUP1 PUSH1 0x40 ADD PUSH1 0x40 MSTORE DUP1 PUSH1 0x7 DUP2 MSTORE PUSH1 0x20 ADD PUSH7 0x29AA2AA22CAB19 PUSH1 0xC9 SHL DUP2 MSTORE POP DUP2 PUSH1 0x3 SWAP1 DUP2 PUSH3 0x6B SWAP2 SWAP1 PUSH3 0x56C JUMP JUMPDEST POP PUSH1 0x4 PUSH3 0x7A DUP3 DUP3 PUSH3 0x56C JUMP JUMPDEST POP POP POP PUSH1 0x1 PUSH1 0x1 PUSH1 0xA0 SHL SUB DUP2 AND PUSH3 0xAD JUMPI PUSH1 0x40 MLOAD PUSH4 0x1E4FBDF7 PUSH1 0xE0 SHL DUP2 MSTORE PUSH1 0x0 PUSH1 0x4 DUP3 ADD MSTORE PUSH1 0x24 ADD JUMPDEST PUSH1 0x40 MLOAD DUP1 SWAP2 SUB SWAP1 REVERT JUMPDEST PUSH3 0xB8 DUP2 PUSH3 0xE7 JUMP JUMPDEST POP PUSH3 0xE1 CALLER PUSH3 0xCC PUSH1 0x12 PUSH1 0xA PUSH3 0x74D JUMP JUMPDEST PUSH3 0xDB SWAP1 PUSH3 0xF4240 PUSH3 0x765 JUMP JUMPDEST PUSH3 0x139 JUMP JUMPDEST PUSH3 0x7CE JUMP JUMPDEST PUSH1 0x5 DUP1 SLOAD PUSH1 0x1 PUSH1 0x1 PUSH1 0xA0 SHL SUB DUP4 DUP2 AND PUSH1 0x1 PUSH1 0x1 PUSH1 0xA0 SHL SUB NOT DUP4 AND DUP2 OR SWAP1 SWAP4 SSTORE PUSH1 0x40 MLOAD SWAP2 AND SWAP2 SWAP1 DUP3 SWAP1 PUSH32 0x8BE0079C531659141344CD1FD0A4F28419497F9722A3DAAFE3B4186F6B6457E0 SWAP1 PUSH1 0x0 SWAP1 LOG3 POP POP JUMP JUMPDEST PUSH1 0x1 PUSH1 0x1 PUSH1 0xA0 SHL SUB DUP3 AND PUSH3 0x165 JUMPI PUSH1 0x40 MLOAD PUSH4 0xEC442F05 PUSH1 0xE0 SHL DUP2 MSTORE PUSH1 0x0 PUSH1 0x4 DUP3 ADD MSTORE PUSH1 0x24 ADD PUSH3 0xA4 JUMP JUMPDEST PUSH3 0x173 PUSH1 0x0 DUP4 DUP4 PUSH3 0x177 JUMP JUMPDEST POP POP JUMP JUMPDEST PUSH3 0x181 PUSH3 0x2C1 JUMP JUMPDEST PUSH1 0x1 PUSH1 0x1 PUSH1 0xA0 SHL SUB DUP4 AND ISZERO DUP1 ISZERO SWAP1 PUSH3 0x1A2 JUMPI POP PUSH1 0x1 PUSH1 0x1 PUSH1 0xA0 SHL SUB DUP3 AND ISZERO ISZERO JUMPDEST DUP1 ISZERO PUSH3 0x1BD JUMPI POP PUSH1 0x5 SLOAD PUSH1 0x1 PUSH1 0x1 PUSH1 0xA0 SHL SUB DUP5 DUP2 AND SWAP2 AND EQ ISZERO JUMPDEST ISZERO PUSH3 0x2AF JUMPI PUSH1 0x0 PUSH2 0x2710 PUSH3 0x1D5 PUSH1 0x32 DUP5 PUSH3 0x765 JUMP JUMPDEST PUSH3 0x1E1 SWAP2 SWAP1 PUSH3 0x77F JUMP JUMPDEST SWAP1 POP PUSH1 0x0 PUSH2 0x2710 PUSH3 0x1F5 PUSH1 0x32 DUP6 PUSH3 0x765 JUMP JUMPDEST PUSH3 0x201 SWAP2 SWAP1 PUSH3 0x77F JUMP JUMPDEST SWAP1 POP DUP2 ISZERO PUSH3 0x263 JUMPI PUSH3 0x216 DUP6 DUP4 PUSH3 0x2F6 JUMP JUMPDEST DUP2 PUSH1 0x6 PUSH1 0x0 DUP3 DUP3 SLOAD PUSH3 0x22A SWAP2 SWAP1 PUSH3 0x7A2 JUMP JUMPDEST SWAP1 SWAP2 SSTORE POP POP PUSH1 0x40 MLOAD DUP3 DUP2 MSTORE PUSH32 0x6EF4855B666DCC7884561072E4358B28DFE01FEB1B7F4DCEBC00E62D50394AC7 SWAP1 PUSH1 0x20 ADD PUSH1 0x40 MLOAD DUP1 SWAP2 SUB SWAP1 LOG1 JUMPDEST DUP1 ISZERO PUSH3 0x291 JUMPI PUSH3 0x277 DUP6 ADDRESS DUP4 PUSH3 0x330 JUMP JUMPDEST DUP1 PUSH1 0xA PUSH1 0x0 DUP3 DUP3 SLOAD PUSH3 0x28B SWAP2 SWAP1 PUSH3 0x7A2 JUMP JUMPDEST SWAP1 SWAP2 SSTORE POP POP JUMPDEST DUP1 PUSH3 0x29E DUP4 DUP6 PUSH3 0x7B8 JUMP JUMPDEST PUSH3 0x2AA SWAP2 SWAP1 PUSH3 0x7B8 JUMP JUMPDEST SWAP3 POP POP POP JUMPDEST PUSH3 0x2BC DUP4 DUP4 DUP4 PUSH3 0x395 JUMP JUMPDEST POP POP POP JUMP JUMPDEST PUSH3 0x2D5 PUSH1 0x5 SLOAD PUSH1 0x1 PUSH1 0xA0 SHL SWAP1 DIV PUSH1 0xFF AND SWAP1 JUMP JUMPDEST ISZERO PUSH3 0x2F4 JUMPI PUSH1 0x40 MLOAD PUSH4 0xD93C0665 PUSH1 0xE0 SHL DUP2 MSTORE PUSH1 0x4 ADD PUSH1 0x40 MLOAD DUP1 SWAP2 SUB SWAP1 REVERT JUMPDEST JUMP JUMPDEST PUSH1 0x1 PUSH1 0x1 PUSH1 0xA0 SHL SUB DUP3 AND PUSH3 0x322 JUMPI PUSH1 0x40 MLOAD PUSH4 0x4B637E8F PUSH1 0xE1 SHL DUP2 MSTORE PUSH1 0x0 PUSH1 0x4 DUP3 ADD MSTORE PUSH1 0x24 ADD PUSH3 0xA4 JUMP JUMPDEST PUSH3 0x173 DUP3 PUSH1 0x0 DUP4 PUSH3 0x177 JUMP JUMPDEST PUSH1 0x1 PUSH1 0x1 PUSH1 0xA0 SHL SUB DUP4 AND PUSH3 0x35C JUMPI PUSH1 0x40 MLOAD PUSH4 0x4B637E8F PUSH1 0xE1 SHL DUP2 MSTORE PUSH1 0x0 PUSH1 0x4 DUP3 ADD MSTORE PUSH1 0x24 ADD PUSH3 0xA4 JUMP JUMPDEST PUSH1 0x1 PUSH1 0x1 PUSH1 0xA0 SHL SUB DUP3 AND PUSH3 0x388 JUMPI PUSH1 0x40 MLOAD PUSH4 0xEC442F05 PUSH1 0xE0 SHL DUP2 MSTORE PUSH1 0x0 PUSH1 0x4 DUP3 ADD MSTORE PUSH1 0x24 ADD PUSH3 0xA4 JUMP JUMPDEST PUSH3 0x2BC DUP4 DUP4 DUP4 PUSH3 0x177 JUMP JUMPDEST PUSH1 0x1 PUSH1 0x1 PUSH1 0xA0 SHL SUB DUP4 AND PUSH3 0x3C4 JUMPI DUP1 PUSH1 0x2 PUSH1 0x0 DUP3 DUP3 SLOAD PUSH3 0x3B8 SWAP2 SWAP1 PUSH3 0x7A2 JUMP JUMPDEST SWAP1 SWAP2 SSTORE POP PUSH3 0x438 SWAP1 POP JUMP JUMPDEST PUSH1 0x1 PUSH1 0x1 PUSH1 0xA0 SHL SUB DUP4 AND PUSH1 0x0 SWAP1 DUP2 MSTORE PUSH1 0x20 DUP2 SWAP1 MSTORE PUSH1 0x40 SWAP1 KECCAK256 SLOAD DUP2 DUP2 LT ISZERO PUSH3 0x419 JUMPI PUSH1 0x40 MLOAD PUSH4 0x391434E3 PUSH1 0xE2 SHL DUP2 MSTORE PUSH1 0x1 PUSH1 0x1 PUSH1 0xA0 SHL SUB DUP6 AND PUSH1 0x4 DUP3 ADD MSTORE PUSH1 0x24 DUP2 ADD DUP3 SWAP1 MSTORE PUSH1 0x44 DUP2 ADD DUP4 SWAP1 MSTORE PUSH1 0x64 ADD PUSH3 0xA4 JUMP JUMPDEST PUSH1 0x1 PUSH1 0x1 PUSH1 0xA0 SHL SUB DUP5 AND PUSH1 0x0 SWAP1 DUP2 MSTORE PUSH1 0x20 DUP2 SWAP1 MSTORE PUSH1 0x40 SWAP1 KECCAK256 SWAP1 DUP3 SWAP1 SUB SWAP1 SSTORE JUMPDEST PUSH1 0x1 PUSH1 0x1 PUSH1 0xA0 SHL SUB DUP3 AND PUSH3 0x456 JUMPI PUSH1 0x2 DUP1 SLOAD DUP3 SWAP1 SUB SWAP1 SSTORE PUSH3 0x475 JUMP JUMPDEST PUSH1 0x1 PUSH1 0x1 PUSH1 0xA0 SHL SUB DUP3 AND PUSH1 0x0 SWAP1 DUP2 MSTORE PUSH1 0x20 DUP2 SWAP1 MSTORE PUSH1 0x40 SWAP1 KECCAK256 DUP1 SLOAD DUP3 ADD SWAP1 SSTORE JUMPDEST DUP2 PUSH1 0x1 PUSH1 0x1 PUSH1 0xA0 SHL SUB AND DUP4 PUSH1 0x1 PUSH1 0x1 PUSH1 0xA0 SHL SUB AND PUSH32 0xDDF252AD1BE2C89B69C2B068FC378DAA952BA7F163C4A11628F55A4DF523B3EF DUP4 PUSH1 0x40 MLOAD PUSH3 0x4BB SWAP2 DUP2 MSTORE PUSH1 0x20 ADD SWAP1 JUMP JUMPDEST PUSH1 0x40 MLOAD DUP1 SWAP2 SUB SWAP1 LOG3 POP POP POP JUMP JUMPDEST PUSH4 0x4E487B71 PUSH1 0xE0 SHL PUSH1 0x0 MSTORE PUSH1 0x41 PUSH1 0x4 MSTORE PUSH1 0x24 PUSH1 0x0 REVERT JUMPDEST PUSH1 0x1 DUP2 DUP2 SHR SWAP1 DUP3 AND DUP1 PUSH3 0x4F3 JUMPI PUSH1 0x7F DUP3 AND SWAP2 POP JUMPDEST PUSH1 0x20 DUP3 LT DUP2 SUB PUSH3 0x514 JUMPI PUSH4 0x4E487B71 PUSH1 0xE0 SHL PUSH1 0x0 MSTORE PUSH1 0x22 PUSH1 0x4 MSTORE PUSH1 0x24 PUSH1 0x0 REVERT JUMPDEST POP SWAP2 SWAP1 POP JUMP JUMPDEST PUSH1 0x1F DUP3 GT ISZERO PUSH3 0x2BC JUMPI PUSH1 0x0 DUP2 DUP2 MSTORE PUSH1 0x20 DUP2 KECCAK256 PUSH1 0x1F DUP6 ADD PUSH1 0x5 SHR DUP2 ADD PUSH1 0x20 DUP7 LT ISZERO PUSH3 0x543 JUMPI POP DUP1 JUMPDEST PUSH1 0x1F DUP6 ADD PUSH1 0x5 SHR DUP3 ADD SWAP2 POP JUMPDEST DUP2 DUP2 LT ISZERO PUSH3 0x564 JUMPI DUP3 DUP2 SSTORE PUSH1 0x1 ADD PUSH3 0x54F JUMP JUMPDEST POP POP POP POP POP POP JUMP JUMPDEST DUP2 MLOAD PUSH1 0x1 PUSH1 0x1 PUSH1 0x40 SHL SUB DUP2 GT ISZERO PUSH3 0x588 JUMPI PUSH3 0x588 PUSH3 0x4C8 JUMP JUMPDEST PUSH3 0x5A0 DUP2 PUSH3 0x599 DUP5 SLOAD PUSH3 0x4DE JUMP JUMPDEST DUP5 PUSH3 0x51A JUMP JUMPDEST PUSH1 0x20 DUP1 PUSH1 0x1F DUP4 GT PUSH1 0x1 DUP2 EQ PUSH3 0x5D8 JUMPI PUSH1 0x0 DUP5 ISZERO PUSH3 0x5BF JUMPI POP DUP6 DUP4 ADD MLOAD JUMPDEST PUSH1 0x0 NOT PUSH1 0x3 DUP7 SWAP1 SHL SHR NOT AND PUSH1 0x1 DUP6 SWAP1 SHL OR DUP6 SSTORE PUSH3 0x564 JUMP JUMPDEST PUSH1 0x0 DUP6 DUP2 MSTORE PUSH1 0x20 DUP2 KECCAK256 PUSH1 0x1F NOT DUP7 AND SWAP2 JUMPDEST DUP3 DUP2 LT ISZERO PUSH3 0x609 JUMPI DUP9 DUP7 ADD MLOAD DUP3 SSTORE SWAP5 DUP5 ADD SWAP5 PUSH1 0x1 SWAP1 SWAP2 ADD SWAP1 DUP5 ADD PUSH3 0x5E8 JUMP JUMPDEST POP DUP6 DUP3 LT ISZERO PUSH3 0x628 JUMPI DUP8 DUP6 ADD MLOAD PUSH1 0x0 NOT PUSH1 0x3 DUP9 SWAP1 SHL PUSH1 0xF8 AND SHR NOT AND DUP2 SSTORE JUMPDEST POP POP POP POP POP PUSH1 0x1 SWAP1 DUP2 SHL ADD SWAP1 SSTORE POP JUMP JUMPDEST PUSH4 0x4E487B71 PUSH1 0xE0 SHL PUSH1 0x0 MSTORE PUSH1 0x11 PUSH1 0x4 MSTORE PUSH1 0x24 PUSH1 0x0 REVERT JUMPDEST PUSH1 0x1 DUP2 DUP2 JUMPDEST DUP1 DUP6 GT ISZERO PUSH3 0x68F JUMPI DUP2 PUSH1 0x0 NOT DIV DUP3 GT ISZERO PUSH3 0x673 JUMPI PUSH3 0x673 PUSH3 0x638 JUMP JUMPDEST DUP1 DUP6 AND ISZERO PUSH3 0x681 JUMPI SWAP2 DUP2 MUL SWAP2 JUMPDEST SWAP4 DUP5 SHR SWAP4 SWAP1 DUP1 MUL SWAP1 PUSH3 0x653 JUMP JUMPDEST POP SWAP3 POP SWAP3 SWAP1 POP JUMP JUMPDEST PUSH1 0x0 DUP3 PUSH3 0x6A8 JUMPI POP PUSH1 0x1 PUSH3 0x747 JUMP JUMPDEST DUP2 PUSH3 0x6B7 JUMPI POP PUSH1 0x0 PUSH3 0x747 JUMP JUMPDEST DUP2 PUSH1 0x1 DUP2 EQ PUSH3 0x6D0 JUMPI PUSH1 0x2 DUP2 EQ PUSH3 0x6DB JUMPI PUSH3 0x6FB JUMP JUMPDEST PUSH1 0x1 SWAP2 POP POP PUSH3 0x747 JUMP JUMPDEST PUSH1 0xFF DUP5 GT ISZERO PUSH3 0x6EF JUMPI PUSH3 0x6EF PUSH3 0x638 JUMP JUMPDEST POP POP PUSH1 0x1 DUP3 SHL PUSH3 0x747 JUMP JUMPDEST POP PUSH1 0x20 DUP4 LT PUSH2 0x133 DUP4 LT AND PUSH1 0x4E DUP5 LT PUSH1 0xB DUP5 LT AND OR ISZERO PUSH3 0x720 JUMPI POP DUP2 DUP2 EXP PUSH3 0x747 JUMP JUMPDEST PUSH3 0x72C DUP4 DUP4 PUSH3 0x64E JUMP JUMPDEST DUP1 PUSH1 0x0 NOT DIV DUP3 GT ISZERO PUSH3 0x743 JUMPI PUSH3 0x743 PUSH3 0x638 JUMP JUMPDEST MUL SWAP1 POP JUMPDEST SWAP3 SWAP2 POP POP JUMP JUMPDEST PUSH1 0x0 PUSH3 0x75E PUSH1 0xFF DUP5 AND DUP4 PUSH3 0x697 JUMP JUMPDEST SWAP4 SWAP3 POP POP POP JUMP JUMPDEST DUP1 DUP3 MUL DUP2 ISZERO DUP3 DUP3 DIV DUP5 EQ OR PUSH3 0x747 JUMPI PUSH3 0x747 PUSH3 0x638 JUMP JUMPDEST PUSH1 0x0 DUP3 PUSH3 0x79D JUMPI PUSH4 0x4E487B71 PUSH1 0xE0 SHL PUSH1 0x0 MSTORE PUSH1 0x12 PUSH1 0x4 MSTORE PUSH1 0x24 PUSH1 0x0 REVERT JUMPDEST POP DIV SWAP1 JUMP JUMPDEST DUP1 DUP3 ADD DUP1 DUP3 GT ISZERO PUSH3 0x747 JUMPI PUSH3 0x747 PUSH3 0x638 JUMP JUMPDEST DUP2 DUP2 SUB DUP2 DUP2 GT ISZERO PUSH3 0x747 JUMPI PUSH3 0x747 PUSH3 0x638 JUMP JUMPDEST PUSH2 0x13CC DUP1 PUSH3 0x7DE PUSH1 0x0 CODECOPY PUSH1 0x0 RETURN INVALID PUSH1 0x80 PUSH1 0x40 MSTORE CALLVALUE DUP1 ISZERO PUSH2 0x10 JUMPI PUSH1 0x0 DUP1 REVERT JUMPDEST POP PUSH1 0x4 CALLDATASIZE LT PUSH2 0x1CF JUMPI PUSH1 0x0 CALLDATALOAD PUSH1 0xE0 SHR DUP1 PUSH4 0x54DFFD0D GT PUSH2 0x104 JUMPI DUP1 PUSH4 0x8DA5CB5B GT PUSH2 0xA2 JUMPI DUP1 PUSH4 0xD89135CD GT PUSH2 0x71 JUMPI DUP1 PUSH4 0xD89135CD EQ PUSH2 0x388 JUMPI DUP1 PUSH4 0xDD62ED3E EQ PUSH2 0x391 JUMPI DUP1 PUSH4 0xF2FDE38B EQ PUSH2 0x3CA JUMPI DUP1 PUSH4 0xFF909560 EQ PUSH2 0x3DD JUMPI PUSH1 0x0 DUP1 REVERT JUMPDEST DUP1 PUSH4 0x8DA5CB5B EQ PUSH2 0x33F JUMPI DUP1 PUSH4 0x95D89B41 EQ PUSH2 0x35A JUMPI DUP1 PUSH4 0xA694FC3A EQ PUSH2 0x362 JUMPI DUP1 PUSH4 0xA9059CBB EQ PUSH2 0x375 JUMPI PUSH1 0x0 DUP1 REVERT JUMPDEST DUP1 PUSH4 0x70A08231 GT PUSH2 0xDE JUMPI DUP1 PUSH4 0x70A08231 EQ PUSH2 0x2FC JUMPI DUP1 PUSH4 0x715018A6 EQ PUSH2 0x325 JUMPI DUP1 PUSH4 0x7F753DE6 EQ PUSH2 0x32D JUMPI DUP1 PUSH4 0x817B1CD2 EQ PUSH2 0x336 JUMPI PUSH1 0x0 DUP1 REVERT JUMPDEST DUP1 PUSH4 0x54DFFD0D EQ PUSH2 0x2CF JUMPI DUP1 PUSH4 0x5C975ABB EQ PUSH2 0x2D7 JUMPI DUP1 PUSH4 0x6869C673 EQ PUSH2 0x2E9 JUMPI PUSH1 0x0 DUP1 REVERT JUMPDEST DUP1 PUSH4 0x313CE567 GT PUSH2 0x171 JUMPI DUP1 PUSH4 0x43785DC9 GT PUSH2 0x14B JUMPI DUP1 PUSH4 0x43785DC9 EQ PUSH2 0x294 JUMPI DUP1 PUSH4 0x4421BD1E EQ PUSH2 0x2A7 JUMPI DUP1 PUSH4 0x45BC78AB EQ PUSH2 0x2AF JUMPI DUP1 PUSH4 0x480DF058 EQ PUSH2 0x2A7 JUMPI PUSH1 0x0 DUP1 REVERT JUMPDEST DUP1 PUSH4 0x313CE567 EQ PUSH2 0x275 JUMPI DUP1 PUSH4 0x32CB6B0C EQ PUSH2 0x284 JUMPI DUP1 PUSH4 0x36265192 EQ PUSH2 0x28C JUMPI PUSH1 0x0 DUP1 REVERT JUMPDEST DUP1 PUSH4 0x18160DDD GT PUSH2 0x1AD JUMPI DUP1 PUSH4 0x18160DDD EQ PUSH2 0x22A JUMPI DUP1 PUSH4 0x23B872DD EQ PUSH2 0x23C JUMPI DUP1 PUSH4 0x2A1B6BA4 EQ PUSH2 0x24F JUMPI DUP1 PUSH4 0x2E17DE78 EQ PUSH2 0x262 JUMPI PUSH1 0x0 DUP1 REVERT JUMPDEST DUP1 PUSH4 0x6FDDE03 EQ PUSH2 0x1D4 JUMPI DUP1 PUSH4 0x95EA7B3 EQ PUSH2 0x1F2 JUMPI DUP1 PUSH4 0xEC72F19 EQ PUSH2 0x215 JUMPI JUMPDEST PUSH1 0x0 DUP1 REVERT JUMPDEST PUSH2 0x1DC PUSH2 0x3E6 JUMP JUMPDEST PUSH1 0x40 MLOAD PUSH2 0x1E9 SWAP2 SWAP1 PUSH2 0x10B6 JUMP JUMPDEST PUSH1 0x40 MLOAD DUP1 SWAP2 SUB SWAP1 RETURN JUMPDEST PUSH2 0x205 PUSH2 0x200 CALLDATASIZE PUSH1 0x4 PUSH2 0x1120 JUMP JUMPDEST PUSH2 0x478 JUMP JUMPDEST PUSH1 0x40 MLOAD SWAP1 ISZERO ISZERO DUP2 MSTORE PUSH1 0x20 ADD PUSH2 0x1E9 JUMP JUMPDEST PUSH2 0x228 PUSH2 0x223 CALLDATASIZE PUSH1 0x4 PUSH2 0x114A JUMP JUMPDEST PUSH2 0x492 JUMP JUMPDEST STOP JUMPDEST PUSH1 0x2 SLOAD JUMPDEST PUSH1 0x40 MLOAD SWAP1 DUP2 MSTORE PUSH1 0x20 ADD PUSH2 0x1E9 JUMP JUMPDEST PUSH2 0x205 PUSH2 0x24A CALLDATASIZE PUSH1 0x4 PUSH2 0x1163 JUMP JUMPDEST PUSH2 0x51A JUMP JUMPDEST PUSH2 0x22E PUSH2 0x25D CALLDATASIZE PUSH1 0x4 PUSH2 0x119F JUMP JUMPDEST PUSH2 0x53E JUMP JUMPDEST PUSH2 0x228 PUSH2 0x270 CALLDATASIZE PUSH1 0x4 PUSH2 0x114A JUMP JUMPDEST PUSH2 0x585 JUMP JUMPDEST PUSH1 0x40 MLOAD PUSH1 0x12 DUP2 MSTORE PUSH1 0x20 ADD PUSH2 0x1E9 JUMP JUMPDEST PUSH2 0x22E PUSH2 0x6B6 JUMP JUMPDEST PUSH2 0x22E PUSH1 0x64 DUP2 JUMP JUMPDEST PUSH2 0x228 PUSH2 0x2A2 CALLDATASIZE PUSH1 0x4 PUSH2 0x1120 JUMP JUMPDEST PUSH2 0x6D2 JUMP JUMPDEST PUSH2 0x22E PUSH1 0x32 DUP2 JUMP JUMPDEST PUSH2 0x22E PUSH2 0x2BD CALLDATASIZE PUSH1 0x4 PUSH2 0x119F JUMP JUMPDEST PUSH1 0x8 PUSH1 0x20 MSTORE PUSH1 0x0 SWAP1 DUP2 MSTORE PUSH1 0x40 SWAP1 KECCAK256 SLOAD DUP2 JUMP JUMPDEST PUSH2 0x228 PUSH2 0x7B9 JUMP JUMPDEST PUSH1 0x5 SLOAD PUSH1 0x1 PUSH1 0xA0 SHL SWAP1 DIV PUSH1 0xFF AND PUSH2 0x205 JUMP JUMPDEST PUSH2 0x228 PUSH2 0x2F7 CALLDATASIZE PUSH1 0x4 PUSH2 0x114A JUMP JUMPDEST PUSH2 0x8D7 JUMP JUMPDEST PUSH2 0x22E PUSH2 0x30A CALLDATASIZE PUSH1 0x4 PUSH2 0x119F JUMP JUMPDEST PUSH1 0x1 PUSH1 0x1 PUSH1 0xA0 SHL SUB AND PUSH1 0x0 SWAP1 DUP2 MSTORE PUSH1 0x20 DUP2 SWAP1 MSTORE PUSH1 0x40 SWAP1 KECCAK256 SLOAD SWAP1 JUMP JUMPDEST PUSH2 0x228 PUSH2 0x9FA JUMP JUMPDEST PUSH2 0x22E PUSH1 0xA SLOAD DUP2 JUMP JUMPDEST PUSH2 0x22E PUSH1 0x9 SLOAD DUP2 JUMP JUMPDEST PUSH1 0x5 SLOAD PUSH1 0x40 MLOAD PUSH1 0x1 PUSH1 0x1 PUSH1 0xA0 SHL SUB SWAP1 SWAP2 AND DUP2 MSTORE PUSH1 0x20 ADD PUSH2 0x1E9 JUMP JUMPDEST PUSH2 0x1DC PUSH2 0xA0E JUMP JUMPDEST PUSH2 0x228 PUSH2 0x370 CALLDATASIZE PUSH1 0x4 PUSH2 0x114A JUMP JUMPDEST PUSH2 0xA1D JUMP JUMPDEST PUSH2 0x205 PUSH2 0x383 CALLDATASIZE PUSH1 0x4 PUSH2 0x1120 JUMP JUMPDEST PUSH2 0xB3D JUMP JUMPDEST PUSH2 0x22E PUSH1 0x6 SLOAD DUP2 JUMP JUMPDEST PUSH2 0x22E PUSH2 0x39F CALLDATASIZE PUSH1 0x4 PUSH2 0x11C1 JUMP JUMPDEST PUSH1 0x1 PUSH1 0x1 PUSH1 0xA0 SHL SUB SWAP2 DUP3 AND PUSH1 0x0 SWAP1 DUP2 MSTORE PUSH1 0x1 PUSH1 0x20 SWAP1 DUP2 MSTORE PUSH1 0x40 DUP1 DUP4 KECCAK256 SWAP4 SWAP1 SWAP5 AND DUP3 MSTORE SWAP2 SWAP1 SWAP2 MSTORE KECCAK256 SLOAD SWAP1 JUMP JUMPDEST PUSH2 0x228 PUSH2 0x3D8 CALLDATASIZE PUSH1 0x4 PUSH2 0x119F JUMP JUMPDEST PUSH2 0xB4B JUMP JUMPDEST PUSH2 0x22E PUSH1 0x7 SLOAD DUP2 JUMP JUMPDEST PUSH1 0x60 PUSH1 0x3 DUP1 SLOAD PUSH2 0x3F5 SWAP1 PUSH2 0x11F4 JUMP JUMPDEST DUP1 PUSH1 0x1F ADD PUSH1 0x20 DUP1 SWAP2 DIV MUL PUSH1 0x20 ADD PUSH1 0x40 MLOAD SWAP1 DUP2 ADD PUSH1 0x40 MSTORE DUP1 SWAP3 SWAP2 SWAP1 DUP2 DUP2 MSTORE PUSH1 0x20 ADD DUP3 DUP1 SLOAD PUSH2 0x421 SWAP1 PUSH2 0x11F4 JUMP JUMPDEST DUP1 ISZERO PUSH2 0x46E JUMPI DUP1 PUSH1 0x1F LT PUSH2 0x443 JUMPI PUSH2 0x100 DUP1 DUP4 SLOAD DIV MUL DUP4 MSTORE SWAP2 PUSH1 0x20 ADD SWAP2 PUSH2 0x46E JUMP JUMPDEST DUP3 ADD SWAP2 SWAP1 PUSH1 0x0 MSTORE PUSH1 0x20 PUSH1 0x0 KECCAK256 SWAP1 JUMPDEST DUP2 SLOAD DUP2 MSTORE SWAP1 PUSH1 0x1 ADD SWAP1 PUSH1 0x20 ADD DUP1 DUP4 GT PUSH2 0x451 JUMPI DUP3 SWAP1 SUB PUSH1 0x1F AND DUP3 ADD SWAP2 JUMPDEST POP POP POP POP POP SWAP1 POP SWAP1 JUMP JUMPDEST PUSH1 0x0 CALLER PUSH2 0x486 DUP2 DUP6 DUP6 PUSH2 0xB89 JUMP JUMPDEST PUSH1 0x1 SWAP2 POP POP JUMPDEST SWAP3 SWAP2 POP POP JUMP JUMPDEST PUSH2 0x49A PUSH2 0xB9B JUMP JUMPDEST CALLER PUSH1 0x0 SWAP1 DUP2 MSTORE PUSH1 0x20 DUP2 SWAP1 MSTORE PUSH1 0x40 SWAP1 KECCAK256 SLOAD DUP2 GT ISZERO PUSH2 0x4F5 JUMPI PUSH1 0x40 MLOAD PUSH3 0x461BCD PUSH1 0xE5 SHL DUP2 MSTORE PUSH1 0x20 PUSH1 0x4 DUP3 ADD MSTORE PUSH1 0x14 PUSH1 0x24 DUP3 ADD MSTORE PUSH20 0x496E73756666696369656E742062616C616E6365 PUSH1 0x60 SHL PUSH1 0x44 DUP3 ADD MSTORE PUSH1 0x64 ADD JUMPDEST PUSH1 0x40 MLOAD DUP1 SWAP2 SUB SWAP1 REVERT JUMPDEST PUSH2 0x500 CALLER ADDRESS DUP4 PUSH2 0xBC8 JUMP JUMPDEST DUP1 PUSH1 0x7 PUSH1 0x0 DUP3 DUP3 SLOAD PUSH2 0x512 SWAP2 SWAP1 PUSH2 0x1244 JUMP JUMPDEST SWAP1 SWAP2 SSTORE POP POP POP JUMP JUMPDEST PUSH1 0x0 CALLER PUSH2 0x528 DUP6 DUP3 DUP6 PUSH2 0xC27 JUMP JUMPDEST PUSH2 0x533 DUP6 DUP6 DUP6 PUSH2 0xBC8 JUMP JUMPDEST POP PUSH1 0x1 SWAP5 SWAP4 POP POP POP POP JUMP JUMPDEST PUSH1 0x0 PUSH1 0x9 SLOAD PUSH1 0x0 SUB PUSH2 0x552 JUMPI POP PUSH1 0x0 SWAP2 SWAP1 POP JUMP JUMPDEST PUSH1 0x9 SLOAD PUSH1 0x1 PUSH1 0x1 PUSH1 0xA0 SHL SUB DUP4 AND PUSH1 0x0 SWAP1 DUP2 MSTORE PUSH1 0x8 PUSH1 0x20 MSTORE PUSH1 0x40 SWAP1 KECCAK256 SLOAD PUSH1 0xA SLOAD PUSH2 0x57B SWAP2 SWAP1 PUSH2 0x1257 JUMP JUMPDEST PUSH2 0x48C SWAP2 SWAP1 PUSH2 0x126E JUMP JUMPDEST PUSH1 0x0 DUP2 GT PUSH2 0x5D5 JUMPI PUSH1 0x40 MLOAD PUSH3 0x461BCD PUSH1 0xE5 SHL DUP2 MSTORE PUSH1 0x20 PUSH1 0x4 DUP3 ADD DUP2 SWAP1 MSTORE PUSH1 0x24 DUP3 ADD MSTORE PUSH32 0x416D6F756E74206D7573742062652067726561746572207468616E207A65726F PUSH1 0x44 DUP3 ADD MSTORE PUSH1 0x64 ADD PUSH2 0x4EC JUMP JUMPDEST CALLER PUSH1 0x0 SWAP1 DUP2 MSTORE PUSH1 0x8 PUSH1 0x20 MSTORE PUSH1 0x40 SWAP1 KECCAK256 SLOAD DUP2 GT ISZERO PUSH2 0x634 JUMPI PUSH1 0x40 MLOAD PUSH3 0x461BCD PUSH1 0xE5 SHL DUP2 MSTORE PUSH1 0x20 PUSH1 0x4 DUP3 ADD MSTORE PUSH1 0x1B PUSH1 0x24 DUP3 ADD MSTORE PUSH32 0x496E73756666696369656E74207374616B65642062616C616E63650000000000 PUSH1 0x44 DUP3 ADD MSTORE PUSH1 0x64 ADD PUSH2 0x4EC JUMP JUMPDEST CALLER PUSH1 0x0 SWAP1 DUP2 MSTORE PUSH1 0x8 PUSH1 0x20 MSTORE PUSH1 0x40 DUP2 KECCAK256 DUP1 SLOAD DUP4 SWAP3 SWAP1 PUSH2 0x653 SWAP1 DUP5 SWAP1 PUSH2 0x1290 JUMP JUMPDEST SWAP3 POP POP DUP2 SWAP1 SSTORE POP DUP1 PUSH1 0x9 PUSH1 0x0 DUP3 DUP3 SLOAD PUSH2 0x66C SWAP2 SWAP1 PUSH2 0x1290 JUMP JUMPDEST SWAP1 SWAP2 SSTORE POP PUSH2 0x67D SWAP1 POP ADDRESS CALLER DUP4 PUSH2 0xBC8 JUMP JUMPDEST PUSH1 0x40 MLOAD DUP2 DUP2 MSTORE CALLER SWAP1 PUSH32 0x9845E367B683334E5C0B12D7B81721AC518E649376FA65E3D68324E8F34F2679 SWAP1 PUSH1 0x20 ADD JUMPDEST PUSH1 0x40 MLOAD DUP1 SWAP2 SUB SWAP1 LOG2 POP JUMP JUMPDEST PUSH2 0x6C2 PUSH1 0x12 PUSH1 0xA PUSH2 0x1387 JUMP JUMPDEST PUSH2 0x6CF SWAP1 PUSH3 0x989680 PUSH2 0x1257 JUMP JUMPDEST DUP2 JUMP JUMPDEST PUSH2 0x6DA PUSH2 0xB9B JUMP JUMPDEST PUSH1 0x1 PUSH1 0x1 PUSH1 0xA0 SHL SUB DUP3 AND PUSH2 0x730 JUMPI PUSH1 0x40 MLOAD PUSH3 0x461BCD PUSH1 0xE5 SHL DUP2 MSTORE PUSH1 0x20 PUSH1 0x4 DUP3 ADD MSTORE PUSH1 0x1B PUSH1 0x24 DUP3 ADD MSTORE PUSH32 0x43616E6E6F74206D696E7420746F207A65726F20616464726573730000000000 PUSH1 0x44 DUP3 ADD MSTORE PUSH1 0x64 ADD PUSH2 0x4EC JUMP JUMPDEST PUSH2 0x73C PUSH1 0x12 PUSH1 0xA PUSH2 0x1387 JUMP JUMPDEST PUSH2 0x749 SWAP1 PUSH3 0x989680 PUSH2 0x1257 JUMP JUMPDEST DUP2 PUSH2 0x753 PUSH1 0x2 SLOAD SWAP1 JUMP JUMPDEST PUSH2 0x75D SWAP2 SWAP1 PUSH2 0x1244 JUMP JUMPDEST GT ISZERO PUSH2 0x7AB JUMPI PUSH1 0x40 MLOAD PUSH3 0x461BCD PUSH1 0xE5 SHL DUP2 MSTORE PUSH1 0x20 PUSH1 0x4 DUP3 ADD MSTORE PUSH1 0x17 PUSH1 0x24 DUP3 ADD MSTORE PUSH32 0x576F756C6420657863656564206D617820737570706C79000000000000000000 PUSH1 0x44 DUP3 ADD MSTORE PUSH1 0x64 ADD PUSH2 0x4EC JUMP JUMPDEST PUSH2 0x7B5 DUP3 DUP3 PUSH2 0xCA6 JUMP JUMPDEST POP POP JUMP JUMPDEST CALLER PUSH1 0x0 SWAP1 DUP2 MSTORE PUSH1 0x8 PUSH1 0x20 MSTORE PUSH1 0x40 SWAP1 KECCAK256 SLOAD PUSH2 0x808 JUMPI PUSH1 0x40 MLOAD PUSH3 0x461BCD PUSH1 0xE5 SHL DUP2 MSTORE PUSH1 0x20 PUSH1 0x4 DUP3 ADD MSTORE PUSH1 0x10 PUSH1 0x24 DUP3 ADD MSTORE PUSH16 0x4E6F207374616B656420746F6B656E73 PUSH1 0x80 SHL PUSH1 0x44 DUP3 ADD MSTORE PUSH1 0x64 ADD PUSH2 0x4EC JUMP JUMPDEST PUSH1 0x9 SLOAD CALLER PUSH1 0x0 SWAP1 DUP2 MSTORE PUSH1 0x8 PUSH1 0x20 MSTORE PUSH1 0x40 DUP2 KECCAK256 SLOAD PUSH1 0xA SLOAD SWAP2 SWAP3 SWAP2 PUSH2 0x82B SWAP2 SWAP1 PUSH2 0x1257 JUMP JUMPDEST PUSH2 0x835 SWAP2 SWAP1 PUSH2 0x126E JUMP JUMPDEST SWAP1 POP PUSH1 0x0 DUP2 GT PUSH2 0x87D JUMPI PUSH1 0x40 MLOAD PUSH3 0x461BCD PUSH1 0xE5 SHL DUP2 MSTORE PUSH1 0x20 PUSH1 0x4 DUP3 ADD MSTORE PUSH1 0x13 PUSH1 0x24 DUP3 ADD MSTORE PUSH19 0x4E6F20726576656E756520746F20636C61696D PUSH1 0x68 SHL PUSH1 0x44 DUP3 ADD MSTORE PUSH1 0x64 ADD PUSH2 0x4EC JUMP JUMPDEST DUP1 PUSH1 0xA PUSH1 0x0 DUP3 DUP3 SLOAD PUSH2 0x88F SWAP2 SWAP1 PUSH2 0x1290 JUMP JUMPDEST SWAP1 SWAP2 SSTORE POP PUSH2 0x8A0 SWAP1 POP ADDRESS CALLER DUP4 PUSH2 0xBC8 JUMP JUMPDEST PUSH1 0x40 MLOAD DUP2 DUP2 MSTORE PUSH32 0x4AF957E83BAE9AF28D97033EAD523ED57C0F21E021037B85EC168F156AB3B7A0 SWAP1 PUSH1 0x20 ADD JUMPDEST PUSH1 0x40 MLOAD DUP1 SWAP2 SUB SWAP1 LOG1 POP JUMP JUMPDEST PUSH2 0x8DF PUSH2 0xB9B JUMP JUMPDEST PUSH1 0x7 SLOAD DUP2 GT ISZERO PUSH2 0x931 JUMPI PUSH1 0x40 MLOAD PUSH3 0x461BCD PUSH1 0xE5 SHL DUP2 MSTORE PUSH1 0x20 PUSH1 0x4 DUP3 ADD MSTORE PUSH1 0x1C PUSH1 0x24 DUP3 ADD MSTORE PUSH32 0x496E73756666696369656E74206275796261636B207265736572766500000000 PUSH1 0x44 DUP3 ADD MSTORE PUSH1 0x64 ADD PUSH2 0x4EC JUMP JUMPDEST ADDRESS PUSH1 0x0 SWAP1 DUP2 MSTORE PUSH1 0x20 DUP2 SWAP1 MSTORE PUSH1 0x40 SWAP1 KECCAK256 SLOAD DUP2 GT ISZERO PUSH2 0x990 JUMPI PUSH1 0x40 MLOAD PUSH3 0x461BCD PUSH1 0xE5 SHL DUP2 MSTORE PUSH1 0x20 PUSH1 0x4 DUP3 ADD MSTORE PUSH1 0x1D PUSH1 0x24 DUP3 ADD MSTORE PUSH32 0x496E73756666696369656E7420636F6E74726163742062616C616E6365000000 PUSH1 0x44 DUP3 ADD MSTORE PUSH1 0x64 ADD PUSH2 0x4EC JUMP JUMPDEST PUSH2 0x99A ADDRESS DUP3 PUSH2 0xCDC JUMP JUMPDEST DUP1 PUSH1 0x7 PUSH1 0x0 DUP3 DUP3 SLOAD PUSH2 0x9AC SWAP2 SWAP1 PUSH2 0x1290 JUMP JUMPDEST SWAP3 POP POP DUP2 SWAP1 SSTORE POP DUP1 PUSH1 0x6 PUSH1 0x0 DUP3 DUP3 SLOAD PUSH2 0x9C5 SWAP2 SWAP1 PUSH2 0x1244 JUMP JUMPDEST SWAP1 SWAP2 SSTORE POP POP PUSH1 0x40 MLOAD DUP2 DUP2 MSTORE PUSH32 0xD2C5A6B66FBD4C28346666274DD95B77FD31D5C730DEB119439B2B5482DEAFC9 SWAP1 PUSH1 0x20 ADD PUSH2 0x8CC JUMP JUMPDEST PUSH2 0xA02 PUSH2 0xB9B JUMP JUMPDEST PUSH2 0xA0C PUSH1 0x0 PUSH2 0xD12 JUMP JUMPDEST JUMP JUMPDEST PUSH1 0x60 PUSH1 0x4 DUP1 SLOAD PUSH2 0x3F5 SWAP1 PUSH2 0x11F4 JUMP JUMPDEST PUSH1 0x0 DUP2 GT PUSH2 0xA6D JUMPI PUSH1 0x40 MLOAD PUSH3 0x461BCD PUSH1 0xE5 SHL DUP2 MSTORE PUSH1 0x20 PUSH1 0x4 DUP3 ADD DUP2 SWAP1 MSTORE PUSH1 0x24 DUP3 ADD MSTORE PUSH32 0x416D6F756E74206D7573742062652067726561746572207468616E207A65726F PUSH1 0x44 DUP3 ADD MSTORE PUSH1 0x64 ADD PUSH2 0x4EC JUMP JUMPDEST CALLER PUSH1 0x0 SWAP1 DUP2 MSTORE PUSH1 0x20 DUP2 SWAP1 MSTORE PUSH1 0x40 SWAP1 KECCAK256 SLOAD DUP2 GT ISZERO PUSH2 0xAC3 JUMPI PUSH1 0x40 MLOAD PUSH3 0x461BCD PUSH1 0xE5 SHL DUP2 MSTORE PUSH1 0x20 PUSH1 0x4 DUP3 ADD MSTORE PUSH1 0x14 PUSH1 0x24 DUP3 ADD MSTORE PUSH20 0x496E73756666696369656E742062616C616E6365 PUSH1 0x60 SHL PUSH1 0x44 DUP3 ADD MSTORE PUSH1 0x64 ADD PUSH2 0x4EC JUMP JUMPDEST PUSH2 0xACE CALLER ADDRESS DUP4 PUSH2 0xBC8 JUMP JUMPDEST CALLER PUSH1 0x0 SWAP1 DUP2 MSTORE PUSH1 0x8 PUSH1 0x20 MSTORE PUSH1 0x40 DUP2 KECCAK256 DUP1 SLOAD DUP4 SWAP3 SWAP1 PUSH2 0xAED SWAP1 DUP5 SWAP1 PUSH2 0x1244 JUMP JUMPDEST SWAP3 POP POP DUP2 SWAP1 SSTORE POP DUP1 PUSH1 0x9 PUSH1 0x0 DUP3 DUP3 SLOAD PUSH2 0xB06 SWAP2 SWAP1 PUSH2 0x1244 JUMP JUMPDEST SWAP1 SWAP2 SSTORE POP POP PUSH1 0x40 MLOAD DUP2 DUP2 MSTORE CALLER SWAP1 PUSH32 0xB539CA1E5C8D398DDF1C41C30166F33404941683BE4683319B57669A93DAD4EF SWAP1 PUSH1 0x20 ADD PUSH2 0x6AB JUMP JUMPDEST PUSH1 0x0 CALLER PUSH2 0x486 DUP2 DUP6 DUP6 PUSH2 0xBC8 JUMP JUMPDEST PUSH2 0xB53 PUSH2 0xB9B JUMP JUMPDEST PUSH1 0x1 PUSH1 0x1 PUSH1 0xA0 SHL SUB DUP2 AND PUSH2 0xB7D JUMPI PUSH1 0x40 MLOAD PUSH4 0x1E4FBDF7 PUSH1 0xE0 SHL DUP2 MSTORE PUSH1 0x0 PUSH1 0x4 DUP3 ADD MSTORE PUSH1 0x24 ADD PUSH2 0x4EC JUMP JUMPDEST PUSH2 0xB86 DUP2 PUSH2 0xD12 JUMP JUMPDEST POP JUMP JUMPDEST PUSH2 0xB96 DUP4 DUP4 DUP4 PUSH1 0x1 PUSH2 0xD64 JUMP JUMPDEST POP POP POP JUMP JUMPDEST PUSH1 0x5 SLOAD PUSH1 0x1 PUSH1 0x1 PUSH1 0xA0 SHL SUB AND CALLER EQ PUSH2 0xA0C JUMPI PUSH1 0x40 MLOAD PUSH4 0x118CDAA7 PUSH1 0xE0 SHL DUP2 MSTORE CALLER PUSH1 0x4 DUP3 ADD MSTORE PUSH1 0x24 ADD PUSH2 0x4EC JUMP JUMPDEST PUSH1 0x1 PUSH1 0x1 PUSH1 0xA0 SHL SUB DUP4 AND PUSH2 0xBF2 JUMPI PUSH1 0x40 MLOAD PUSH4 0x4B637E8F PUSH1 0xE1 SHL DUP2 MSTORE PUSH1 0x0 PUSH1 0x4 DUP3 ADD MSTORE PUSH1 0x24 ADD PUSH2 0x4EC JUMP JUMPDEST PUSH1 0x1 PUSH1 0x1 PUSH1 0xA0 SHL SUB DUP3 AND PUSH2 0xC1C JUMPI PUSH1 0x40 MLOAD PUSH4 0xEC442F05 PUSH1 0xE0 SHL DUP2 MSTORE PUSH1 0x0 PUSH1 0x4 DUP3 ADD MSTORE PUSH1 0x24 ADD PUSH2 0x4EC JUMP JUMPDEST PUSH2 0xB96 DUP4 DUP4 DUP4 PUSH2 0xE39 JUMP JUMPDEST PUSH1 0x1 PUSH1 0x1 PUSH1 0xA0 SHL SUB DUP4 DUP2 AND PUSH1 0x0 SWAP1 DUP2 MSTORE PUSH1 0x1 PUSH1 0x20 SWAP1 DUP2 MSTORE PUSH1 0x40 DUP1 DUP4 KECCAK256 SWAP4 DUP7 AND DUP4 MSTORE SWAP3 SWAP1 MSTORE KECCAK256 SLOAD PUSH1 0x0 NOT DUP2 LT ISZERO PUSH2 0xCA0 JUMPI DUP2 DUP2 LT ISZERO PUSH2 0xC91 JUMPI PUSH1 0x40 MLOAD PUSH4 0x7DC7A0D9 PUSH1 0xE1 SHL DUP2 MSTORE PUSH1 0x1 PUSH1 0x1 PUSH1 0xA0 SHL SUB DUP5 AND PUSH1 0x4 DUP3 ADD MSTORE PUSH1 0x24 DUP2 ADD DUP3 SWAP1 MSTORE PUSH1 0x44 DUP2 ADD DUP4 SWAP1 MSTORE PUSH1 0x64 ADD PUSH2 0x4EC JUMP JUMPDEST PUSH2 0xCA0 DUP5 DUP5 DUP5 DUP5 SUB PUSH1 0x0 PUSH2 0xD64 JUMP JUMPDEST POP POP POP POP JUMP JUMPDEST PUSH1 0x1 PUSH1 0x1 PUSH1 0xA0 SHL SUB DUP3 AND PUSH2 0xCD0 JUMPI PUSH1 0x40 MLOAD PUSH4 0xEC442F05 PUSH1 0xE0 SHL DUP2 MSTORE PUSH1 0x0 PUSH1 0x4 DUP3 ADD MSTORE PUSH1 0x24 ADD PUSH2 0x4EC JUMP JUMPDEST PUSH2 0x7B5 PUSH1 0x0 DUP4 DUP4 PUSH2 0xE39 JUMP JUMPDEST PUSH1 0x1 PUSH1 0x1 PUSH1 0xA0 SHL SUB DUP3 AND PUSH2 0xD06 JUMPI PUSH1 0x40 MLOAD PUSH4 0x4B637E8F PUSH1 0xE1 SHL DUP2 MSTORE PUSH1 0x0 PUSH1 0x4 DUP3 ADD MSTORE PUSH1 0x24 ADD PUSH2 0x4EC JUMP JUMPDEST PUSH2 0x7B5 DUP3 PUSH1 0x0 DUP4 PUSH2 0xE39 JUMP JUMPDEST PUSH1 0x5 DUP1 SLOAD PUSH1 0x1 PUSH1 0x1 PUSH1 0xA0 SHL SUB DUP4 DUP2 AND PUSH1 0x1 PUSH1 0x1 PUSH1 0xA0 SHL SUB NOT DUP4 AND DUP2 OR SWAP1 SWAP4 SSTORE PUSH1 0x40 MLOAD SWAP2 AND SWAP2 SWAP1 DUP3 SWAP1 PUSH32 0x8BE0079C531659141344CD1FD0A4F28419497F9722A3DAAFE3B4186F6B6457E0 SWAP1 PUSH1 0x0 SWAP1 LOG3 POP POP JUMP JUMPDEST PUSH1 0x1 PUSH1 0x1 PUSH1 0xA0 SHL SUB DUP5 AND PUSH2 0xD8E JUMPI PUSH1 0x40 MLOAD PUSH4 0xE602DF05 PUSH1 0xE0 SHL DUP2 MSTORE PUSH1 0x0 PUSH1 0x4 DUP3 ADD MSTORE PUSH1 0x24 ADD PUSH2 0x4EC JUMP JUMPDEST PUSH1 0x1 PUSH1 0x1 PUSH1 0xA0 SHL SUB DUP4 AND PUSH2 0xDB8 JUMPI PUSH1 0x40 MLOAD PUSH4 0x4A1406B1 PUSH1 0xE1 SHL DUP2 MSTORE PUSH1 0x0 PUSH1 0x4 DUP3 ADD MSTORE PUSH1 0x24 ADD PUSH2 0x4EC JUMP JUMPDEST PUSH1 0x1 PUSH1 0x1 PUSH1 0xA0 SHL SUB DUP1 DUP6 AND PUSH1 0x0 SWAP1 DUP2 MSTORE PUSH1 0x1 PUSH1 0x20 SWAP1 DUP2 MSTORE PUSH1 0x40 DUP1 DUP4 KECCAK256 SWAP4 DUP8 AND DUP4 MSTORE SWAP3 SWAP1 MSTORE KECCAK256 DUP3 SWAP1 SSTORE DUP1 ISZERO PUSH2 0xCA0 JUMPI DUP3 PUSH1 0x1 PUSH1 0x1 PUSH1 0xA0 SHL SUB AND DUP5 PUSH1 0x1 PUSH1 0x1 PUSH1 0xA0 SHL SUB AND PUSH32 0x8C5BE1E5EBEC7D5BD14F71427D1E84F3DD0314C0F7B2291E5B200AC8C7C3B925 DUP5 PUSH1 0x40 MLOAD PUSH2 0xE2B SWAP2 DUP2 MSTORE PUSH1 0x20 ADD SWAP1 JUMP JUMPDEST PUSH1 0x40 MLOAD DUP1 SWAP2 SUB SWAP1 LOG3 POP POP POP POP JUMP JUMPDEST PUSH2 0xE41 PUSH2 0xF61 JUMP JUMPDEST PUSH1 0x1 PUSH1 0x1 PUSH1 0xA0 SHL SUB DUP4 AND ISZERO DUP1 ISZERO SWAP1 PUSH2 0xE61 JUMPI POP PUSH1 0x1 PUSH1 0x1 PUSH1 0xA0 SHL SUB DUP3 AND ISZERO ISZERO JUMPDEST DUP1 ISZERO PUSH2 0xE7B JUMPI POP PUSH1 0x5 SLOAD PUSH1 0x1 PUSH1 0x1 PUSH1 0xA0 SHL SUB DUP5 DUP2 AND SWAP2 AND EQ ISZERO JUMPDEST ISZERO PUSH2 0xF56 JUMPI PUSH1 0x0 PUSH2 0x2710 PUSH2 0xE90 PUSH1 0x32 DUP5 PUSH2 0x1257 JUMP JUMPDEST PUSH2 0xE9A SWAP2 SWAP1 PUSH2 0x126E JUMP JUMPDEST SWAP1 POP PUSH1 0x0 PUSH2 0x2710 PUSH2 0xEAC PUSH1 0x32 DUP6 PUSH2 0x1257 JUMP JUMPDEST PUSH2 0xEB6 SWAP2 SWAP1 PUSH2 0x126E JUMP JUMPDEST SWAP1 POP DUP2 ISZERO PUSH2 0xF13 JUMPI PUSH2 0xEC8 DUP6 DUP4 PUSH2 0xCDC JUMP JUMPDEST DUP2 PUSH1 0x6 PUSH1 0x0 DUP3 DUP3 SLOAD PUSH2 0xEDA SWAP2 SWAP1 PUSH2 0x1244 JUMP JUMPDEST SWAP1 SWAP2 SSTORE POP POP PUSH1 0x40 MLOAD DUP3 DUP2 MSTORE PUSH32 0x6EF4855B666DCC7884561072E4358B28DFE01FEB1B7F4DCEBC00E62D50394AC7 SWAP1 PUSH1 0x20 ADD PUSH1 0x40 MLOAD DUP1 SWAP2 SUB SWAP1 LOG1 JUMPDEST DUP1 ISZERO PUSH2 0xF3C JUMPI PUSH2 0xF24 DUP6 ADDRESS DUP4 PUSH2 0xBC8 JUMP JUMPDEST DUP1 PUSH1 0xA PUSH1 0x0 DUP3 DUP3 SLOAD PUSH2 0xF36 SWAP2 SWAP1 PUSH2 0x1244 JUMP JUMPDEST SWAP1 SWAP2 SSTORE POP POP JUMPDEST DUP1 PUSH2 0xF47 DUP4 DUP6 PUSH2 0x1290 JUMP JUMPDEST PUSH2 0xF51 SWAP2 SWAP1 PUSH2 0x1290 JUMP JUMPDEST SWAP3 POP POP POP JUMPDEST PUSH2 0xB96 DUP4 DUP4 DUP4 PUSH2 0xF8C JUMP JUMPDEST PUSH1 0x5 SLOAD PUSH1 0x1 PUSH1 0xA0 SHL SWAP1 DIV PUSH1 0xFF AND ISZERO PUSH2 0xA0C JUMPI PUSH1 0x40 MLOAD PUSH4 0xD93C0665 PUSH1 0xE0 SHL DUP2 MSTORE PUSH1 0x4 ADD PUSH1 0x40 MLOAD DUP1 SWAP2 SUB SWAP1 REVERT JUMPDEST PUSH1 0x1 PUSH1 0x1 PUSH1 0xA0 SHL SUB DUP4 AND PUSH2 0xFB7 JUMPI DUP1 PUSH1 0x2 PUSH1 0x0 DUP3 DUP3 SLOAD PUSH2 0xFAC SWAP2 SWAP1 PUSH2 0x1244 JUMP JUMPDEST SWAP1 SWAP2 SSTORE POP PUSH2 0x1029 SWAP1 POP JUMP JUMPDEST PUSH1 0x1 PUSH1 0x1 PUSH1 0xA0 SHL SUB DUP4 AND PUSH1 0x0 SWAP1 DUP2 MSTORE PUSH1 0x20 DUP2 SWAP1 MSTORE PUSH1 0x40 SWAP1 KECCAK256 SLOAD DUP2 DUP2 LT ISZERO PUSH2 0x100A JUMPI PUSH1 0x40 MLOAD PUSH4 0x391434E3 PUSH1 0xE2 SHL DUP2 MSTORE PUSH1 0x1 PUSH1 0x1 PUSH1 0xA0 SHL SUB DUP6 AND PUSH1 0x4 DUP3 ADD MSTORE PUSH1 0x24 DUP2 ADD DUP3 SWAP1 MSTORE PUSH1 0x44 DUP2 ADD DUP4 SWAP1 MSTORE PUSH1 0x64 ADD PUSH2 0x4EC JUMP JUMPDEST PUSH1 0x1 PUSH1 0x1 PUSH1 0xA0 SHL SUB DUP5 AND PUSH1 0x0 SWAP1 DUP2 MSTORE PUSH1 0x20 DUP2 SWAP1 MSTORE PUSH1 0x40 SWAP1 KECCAK256 SWAP1 DUP3 SWAP1 SUB SWAP1 SSTORE JUMPDEST PUSH1 0x1 PUSH1 0x1 PUSH1 0xA0 SHL SUB DUP3 AND PUSH2 0x1045 JUMPI PUSH1 0x2 DUP1 SLOAD DUP3 SWAP1 SUB SWAP1 SSTORE PUSH2 0x1064 JUMP JUMPDEST PUSH1 0x1 PUSH1 0x1 PUSH1 0xA0 SHL SUB DUP3 AND PUSH1 0x0 SWAP1 DUP2 MSTORE PUSH1 0x20 DUP2 SWAP1 MSTORE PUSH1 0x40 SWAP1 KECCAK256 DUP1 SLOAD DUP3 ADD SWAP1 SSTORE JUMPDEST DUP2 PUSH1 0x1 PUSH1 0x1 PUSH1 0xA0 SHL SUB AND DUP4 PUSH1 0x1 PUSH1 0x1 PUSH1 0xA0 SHL SUB AND PUSH32 0xDDF252AD1BE2C89B69C2B068FC378DAA952BA7F163C4A11628F55A4DF523B3EF DUP4 PUSH1 0x40 MLOAD PUSH2 0x10A9 SWAP2 DUP2 MSTORE PUSH1 0x20 ADD SWAP1 JUMP JUMPDEST PUSH1 0x40 MLOAD DUP1 SWAP2 SUB SWAP1 LOG3 POP POP POP JUMP JUMPDEST PUSH1 0x0 PUSH1 0x20 DUP1 DUP4 MSTORE DUP4 MLOAD DUP1 DUP3 DUP6 ADD MSTORE PUSH1 0x0 JUMPDEST DUP2 DUP2 LT ISZERO PUSH2 0x10E3 JUMPI DUP6 DUP2 ADD DUP4 ADD MLOAD DUP6 DUP3 ADD PUSH1 0x40 ADD MSTORE DUP3 ADD PUSH2 0x10C7 JUMP JUMPDEST POP PUSH1 0x0 PUSH1 0x40 DUP3 DUP7 ADD ADD MSTORE PUSH1 0x40 PUSH1 0x1F NOT PUSH1 0x1F DUP4 ADD AND DUP6 ADD ADD SWAP3 POP POP POP SWAP3 SWAP2 POP POP JUMP JUMPDEST DUP1 CALLDATALOAD PUSH1 0x1 PUSH1 0x1 PUSH1 0xA0 SHL SUB DUP2 AND DUP2 EQ PUSH2 0x111B JUMPI PUSH1 0x0 DUP1 REVERT JUMPDEST SWAP2 SWAP1 POP JUMP JUMPDEST PUSH1 0x0 DUP1 PUSH1 0x40 DUP4 DUP6 SUB SLT ISZERO PUSH2 0x1133 JUMPI PUSH1 0x0 DUP1 REVERT JUMPDEST PUSH2 0x113C DUP4 PUSH2 0x1104 JUMP JUMPDEST SWAP5 PUSH1 0x20 SWAP4 SWAP1 SWAP4 ADD CALLDATALOAD SWAP4 POP POP POP JUMP JUMPDEST PUSH1 0x0 PUSH1 0x20 DUP3 DUP5 SUB SLT ISZERO PUSH2 0x115C JUMPI PUSH1 0x0 DUP1 REVERT JUMPDEST POP CALLDATALOAD SWAP2 SWAP1 POP JUMP JUMPDEST PUSH1 0x0 DUP1 PUSH1 0x0 PUSH1 0x60 DUP5 DUP7 SUB SLT ISZERO PUSH2 0x1178 JUMPI PUSH1 0x0 DUP1 REVERT JUMPDEST PUSH2 0x1181 DUP5 PUSH2 0x1104 JUMP JUMPDEST SWAP3 POP PUSH2 0x118F PUSH1 0x20 DUP6 ADD PUSH2 0x1104 JUMP JUMPDEST SWAP2 POP PUSH1 0x40 DUP5 ADD CALLDATALOAD SWAP1 POP SWAP3 POP SWAP3 POP SWAP3 JUMP JUMPDEST PUSH1 0x0 PUSH1 0x20 DUP3 DUP5 SUB SLT ISZERO PUSH2 0x11B1 JUMPI PUSH1 0x0 DUP1 REVERT JUMPDEST PUSH2 0x11BA DUP3 PUSH2 0x1104 JUMP JUMPDEST SWAP4 SWAP3 POP POP POP JUMP JUMPDEST PUSH1 0x0 DUP1 PUSH1 0x40 DUP4 DUP6 SUB SLT ISZERO PUSH2 0x11D4 JUMPI PUSH1 0x0 DUP1 REVERT JUMPDEST PUSH2 0x11DD DUP4 PUSH2 0x1104 JUMP JUMPDEST SWAP2 POP PUSH2 0x11EB PUSH1 0x20 DUP5 ADD PUSH2 0x1104 JUMP JUMPDEST SWAP1 POP SWAP3 POP SWAP3 SWAP1 POP JUMP JUMPDEST PUSH1 0x1 DUP2 DUP2 SHR SWAP1 DUP3 AND DUP1 PUSH2 0x1208 JUMPI PUSH1 0x7F DUP3 AND SWAP2 POP JUMPDEST PUSH1 0x20 DUP3 LT DUP2 SUB PUSH2 0x1228 JUMPI PUSH4 0x4E487B71 PUSH1 0xE0 SHL PUSH1 0x0 MSTORE PUSH1 0x22 PUSH1 0x4 MSTORE PUSH1 0x24 PUSH1 0x0 REVERT JUMPDEST POP SWAP2 SWAP1 POP JUMP JUMPDEST PUSH4 0x4E487B71 PUSH1 0xE0 SHL PUSH1 0x0 MSTORE PUSH1 0x11 PUSH1 0x4 MSTORE PUSH1 0x24 PUSH1 0x0 REVERT JUMPDEST DUP1 DUP3 ADD DUP1 DUP3 GT ISZERO PUSH2 0x48C JUMPI PUSH2 0x48C PUSH2 0x122E JUMP JUMPDEST DUP1 DUP3 MUL DUP2 ISZERO DUP3 DUP3 DIV DUP5 EQ OR PUSH2 0x48C JUMPI PUSH2 0x48C PUSH2 0x122E JUMP JUMPDEST PUSH1 0x0 DUP3 PUSH2 0x128B JUMPI PUSH4 0x4E487B71 PUSH1 0xE0 SHL PUSH1 0x0 MSTORE PUSH1 0x12 PUSH1 0x4 MSTORE PUSH1 0x24 PUSH1 0x0 REVERT JUMPDEST POP DIV SWAP1 JUMP JUMPDEST DUP2 DUP2 SUB DUP2 DUP2 GT ISZERO PUSH2 0x48C JUMPI PUSH2 0x48C PUSH2 0x122E JUMP JUMPDEST PUSH1 0x1 DUP2 DUP2 JUMPDEST DUP1 DUP6 GT ISZERO PUSH2 0x12DE JUMPI DUP2 PUSH1 0x0 NOT DIV DUP3 GT ISZERO PUSH2 0x12C4 JUMPI PUSH2 0x12C4 PUSH2 0x122E JUMP JUMPDEST DUP1 DUP6 AND ISZERO PUSH2 0x12D1 JUMPI SWAP2 DUP2 MUL SWAP2 JUMPDEST SWAP4 DUP5 SHR SWAP4 SWAP1 DUP1 MUL SWAP1 PUSH2 0x12A8 JUMP JUMPDEST POP SWAP3 POP SWAP3 SWAP1 POP JUMP JUMPDEST PUSH1 0x0 DUP3 PUSH2 0x12F5 JUMPI POP PUSH1 0x1 PUSH2 0x48C JUMP JUMPDEST DUP2 PUSH2 0x1302 JUMPI POP PUSH1 0x0 PUSH2 0x48C JUMP JUMPDEST DUP2 PUSH1 0x1 DUP2 EQ PUSH2 0x1318 JUMPI PUSH1 0x2 DUP2 EQ PUSH2 0x1322 JUMPI PUSH2 0x133E JUMP JUMPDEST PUSH1 0x1 SWAP2 POP POP PUSH2 0x48C JUMP JUMPDEST PUSH1 0xFF DUP5 GT ISZERO PUSH2 0x1333 JUMPI PUSH2 0x1333 PUSH2 0x122E JUMP JUMPDEST POP POP PUSH1 0x1 DUP3 SHL PUSH2 0x48C JUMP JUMPDEST POP PUSH1 0x20 DUP4 LT PUSH2 0x133 DUP4 LT AND PUSH1 0x4E DUP5 LT PUSH1 0xB DUP5 LT AND OR ISZERO PUSH2 0x1361 JUMPI POP DUP2 DUP2 EXP PUSH2 0x48C JUMP JUMPDEST PUSH2 0x136B DUP4 DUP4 PUSH2 0x12A3 JUMP JUMPDEST DUP1 PUSH1 0x0 NOT DIV DUP3 GT ISZERO PUSH2 0x137F JUMPI PUSH2 0x137F PUSH2 0x122E JUMP JUMPDEST MUL SWAP4 SWAP3 POP POP POP JUMP JUMPDEST PUSH1 0x0 PUSH2 0x11BA PUSH1 0xFF DUP5 AND DUP4 PUSH2 0x12E6 JUMP INVALID LOG2 PUSH5 0x6970667358 0x22 SLT KECCAK256 ORIGIN DUP6 DUP9 0xEA CALLDATACOPY DUP12 LOG3 SIGNEXTEND DUP7 JUMPDEST OR 0x4F JUMP DUP11 CREATE2 JUMPI PUSH10 0x3E6ED078C78B193AEAFB SWAP5 PUSH24 0xA2110B64736F6C6343000814003300000000000000000000 "},"methodIdentifiers":{"BURN_FEE()":"480df058","MAX_SUPPLY()":"32cb6b0c","REVENUE_FEE()":"4421bd1e","TRANSFER_FEE()":"36265192","addToBuybackReserve(uint256)":"0ec72f19","allowance(address,address)":"dd62ed3e","approve(address,uint256)":"095ea7b3","balanceOf(address)":"70a08231","buybackReserve()":"ff909560","claimRevenueShare()":"54dffd0d","decimals()":"313ce567","emergencyMint(address,uint256)":"43785dc9","executeBuyback(uint256)":"6869c673","getUserRevenueShare(address)":"2a1b6ba4","name()":"06fdde03","owner()":"8da5cb5b","paused()":"5c975abb","renounceOwnership()":"715018a6","revenuePool()":"7f753de6","stake(uint256)":"a694fc3a","stakingBalance(address)":"45bc78ab","symbol()":"95d89b41","totalBurned()":"d89135cd","totalStaked()":"817b1cd2","totalSupply()":"18160ddd","transfer(address,uint256)":"a9059cbb","transferFrom(address,address,uint256)":"23b872dd","transferOwnership(address)":"f2fde38b","unstake(uint256)":"2e17de78"}}}}}