{"contracts/StudyToken.sol":{"StudyToken":{"abi":[{"inputs":[],"stateMutability":"nonpayable","type":"constructor"},{"inputs":[{"internalType":"address","name":"spender","type":"address"},{"internalType":"uint256","name":"allowance","type":"uint256"},{"internalType":"uint256","name":"needed","type":"uint256"}],"name":"ERC20InsufficientAllowance","type":"error"},{"inputs":[{"internalType":"address","name":"sender","type":"address"},{"internalType":"uint256","name":"balance","type":"uint256"},{"internalType":"uint256","name":"needed","type":"uint256"}],"name":"ERC20InsufficientBalance","type":"error"},{"inputs":[{"internalType":"address","name":"approver","type":"address"}],"name":"ERC20InvalidApprover","type":"error"},{"inputs":[{"internalType":"address","name":"receiver","type":"address"}],"name":"ERC20InvalidReceiver","type":"error"},{"inputs":[{"internalType":"address","name":"sender","type":"address"}],"name":"ERC20InvalidSender","type":"error"},{"inputs":[{"internalType":"address","name":"spender","type":"address"}],"name":"ERC20InvalidSpender","type":"error"},{"inputs":[],"name":"EnforcedPause","type":"error"},{"inputs":[],"name":"ExpectedPause","type":"error"},{"inputs":[{"internalType":"address","name":"owner","type":"address"}],"name":"OwnableInvalidOwner","type":"error"},{"inputs":[{"internalType":"address","name":"account","type":"address"}],"name":"OwnableUnauthorizedAccount","type":"error"},{"anonymous":false,"inputs":[{"indexed":true,"internalType":"address","name":"owner","type":"address"},{"indexed":true,"internalType":"address","name":"spender","type":"address"},{"indexed":false,"internalType":"uint256","name":"value","type":"uint256"}],"name":"Approval","type":"event"},{"anonymous":false,"inputs":[{"indexed":false,"internalType":"uint256","name":"recipientCount","type":"uint256"},{"indexed":false,"internalType":"uint256","name":"amountPerRecipient","type":"uint256"},{"indexed":false,"internalType":"uint256","name":"totalAmount","type":"uint256"}],"name":"BatchDistribution","type":"event"},{"anonymous":false,"inputs":[{"indexed":false,"internalType":"uint256","name":"recipientCount","type":"uint256"},{"indexed":false,"internalType":"uint256","name":"totalAmount","type":"uint256"}],"name":"BatchDistributionCustom","type":"event"},{"anonymous":false,"inputs":[{"indexed":true,"internalType":"address","name":"user","type":"address"},{"indexed":false,"internalType":"uint256","name":"consecutiveDays","type":"uint256"},{"indexed":false,"internalType":"uint256","name":"bonusAmount","type":"uint256"}],"name":"ConsecutiveDayBonusClaimed","type":"event"},{"anonymous":false,"inputs":[{"indexed":true,"internalType":"address","name":"previousOwner","type":"address"},{"indexed":true,"internalType":"address","name":"newOwner","type":"address"}],"name":"OwnershipTransferred","type":"event"},{"anonymous":false,"inputs":[{"indexed":true,"internalType":"address","name":"from","type":"address"},{"indexed":true,"internalType":"address","name":"to","type":"address"},{"indexed":false,"internalType":"uint256","name":"amount","type":"uint256"}],"name":"P2PConversion","type":"event"},{"anonymous":false,"inputs":[{"indexed":false,"internalType":"address","name":"account","type":"address"}],"name":"Paused","type":"event"},{"anonymous":false,"inputs":[{"indexed":true,"internalType":"address","name":"user","type":"address"},{"indexed":false,"internalType":"uint256","name":"price","type":"uint256"}],"name":"PremiumSubscriptionPurchased","type":"event"},{"anonymous":false,"inputs":[{"indexed":true,"internalType":"address","name":"user","type":"address"},{"indexed":false,"internalType":"uint256","name":"sessionId","type":"uint256"},{"indexed":false,"internalType":"uint256","name":"reward","type":"uint256"}],"name":"QuizPassed","type":"event"},{"anonymous":false,"inputs":[{"indexed":true,"internalType":"address","name":"user","type":"address"},{"indexed":false,"internalType":"uint256","name":"sessionId","type":"uint256"},{"indexed":false,"internalType":"uint256","name":"reward","type":"uint256"}],"name":"SessionCompleted","type":"event"},{"anonymous":false,"inputs":[{"indexed":true,"internalType":"address","name":"user","type":"address"},{"indexed":false,"internalType":"uint256","name":"sessionId","type":"uint256"},{"indexed":false,"internalType":"uint256","name":"timestamp","type":"uint256"}],"name":"SessionStarted","type":"event"},{"anonymous":false,"inputs":[{"indexed":true,"internalType":"address","name":"user","type":"address"},{"indexed":false,"internalType":"uint256","name":"amount","type":"uint256"},{"indexed":false,"internalType":"uint256","name":"studyTime","type":"uint256"}],"name":"StudyRewardClaimed","type":"event"},{"anonymous":false,"inputs":[{"indexed":true,"internalType":"address","name":"from","type":"address"},{"indexed":true,"internalType":"address","name":"to","type":"address"},{"indexed":false,"internalType":"uint256","name":"value","type":"uint256"}],"name":"Transfer","type":"event"},{"anonymous":false,"inputs":[{"indexed":false,"internalType":"address","name":"account","type":"address"}],"name":"Unpaused","type":"event"},{"inputs":[],"name":"BASE_REWARD_RATE","outputs":[{"internalType":"uint256","name":"","type":"uint256"}],"stateMutability":"view","type":"function"},{"inputs":[],"name":"CONSECUTIVE_DAY_BONUS","outputs":[{"internalType":"uint256","name":"","type":"uint256"}],"stateMutability":"view","type":"function"},{"inputs":[],"name":"MAX_SUPPLY","outputs":[{"internalType":"uint256","name":"","type":"uint256"}],"stateMutability":"view","type":"function"},{"inputs":[],"name":"PREMIUM_REWARD_RATE","outputs":[{"internalType":"uint256","name":"","type":"uint256"}],"stateMutability":"view","type":"function"},{"inputs":[],"name":"PREMIUM_SUBSCRIPTION_PRICE","outputs":[{"internalType":"uint256","name":"","type":"uint256"}],"stateMutability":"view","type":"function"},{"inputs":[],"name":"QUIZ_PASS_REWARD","outputs":[{"internalType":"uint256","name":"","type":"uint256"}],"stateMutability":"view","type":"function"},{"inputs":[],"name":"SESSION_COMPLETION_REWARD","outputs":[{"internalType":"uint256","name":"","type":"uint256"}],"stateMutability":"view","type":"function"},{"inputs":[{"internalType":"address","name":"owner","type":"address"},{"internalType":"address","name":"spender","type":"address"}],"name":"allowance","outputs":[{"internalType":"uint256","name":"","type":"uint256"}],"stateMutability":"view","type":"function"},{"inputs":[{"internalType":"address","name":"spender","type":"address"},{"internalType":"uint256","name":"value","type":"uint256"}],"name":"approve","outputs":[{"internalType":"bool","name":"","type":"bool"}],"stateMutability":"nonpayable","type":"function"},{"inputs":[{"internalType":"address","name":"account","type":"address"}],"name":"balanceOf","outputs":[{"internalType":"uint256","name":"","type":"uint256"}],"stateMutability":"view","type":"function"},{"inputs":[{"internalType":"address","name":"user","type":"address"}],"name":"claimConsecutiveDayBonus","outputs":[],"stateMutability":"nonpayable","type":"function"},{"inputs":[{"internalType":"address","name":"user","type":"address"},{"internalType":"uint256","name":"studyTimeSeconds","type":"uint256"},{"internalType":"bool","name":"isPremium","type":"bool"}],"name":"claimStudyTimeReward","outputs":[],"stateMutability":"nonpayable","type":"function"},{"inputs":[{"internalType":"address","name":"user","type":"address"},{"internalType":"uint256","name":"sessionId","type":"uint256"},{"internalType":"uint256","name":"studyTimeSeconds","type":"uint256"},{"internalType":"bool","name":"hasEngagement","type":"bool"}],"name":"completeSession","outputs":[],"stateMutability":"nonpayable","type":"function"},{"inputs":[{"internalType":"address","name":"","type":"address"}],"name":"completedSessions","outputs":[{"internalType":"uint256","name":"","type":"uint256"}],"stateMutability":"view","type":"function"},{"inputs":[{"internalType":"address","name":"","type":"address"}],"name":"consecutiveStudyDays","outputs":[{"internalType":"uint256","name":"","type":"uint256"}],"stateMutability":"view","type":"function"},{"inputs":[],"name":"decimals","outputs":[{"internalType":"uint8","name":"","type":"uint8"}],"stateMutability":"pure","type":"function"},{"inputs":[{"internalType":"address[]","name":"recipients","type":"address[]"},{"internalType":"uint256","name":"amount","type":"uint256"}],"name":"distributeTokens","outputs":[],"stateMutability":"nonpayable","type":"function"},{"inputs":[{"internalType":"address[]","name":"recipients","type":"address[]"},{"internalType":"uint256[]","name":"amounts","type":"uint256[]"}],"name":"distributeTokensCustom","outputs":[],"stateMutability":"nonpayable","type":"function"},{"inputs":[{"internalType":"address","name":"to","type":"address"},{"internalType":"uint256","name":"amount","type":"uint256"}],"name":"emergencyMint","outputs":[],"stateMutability":"nonpayable","type":"function"},{"inputs":[{"internalType":"address","name":"user","type":"address"}],"name":"getUserConsecutiveDays","outputs":[{"internalType":"uint256","name":"","type":"uint256"}],"stateMutability":"view","type":"function"},{"inputs":[{"internalType":"address","name":"user","type":"address"}],"name":"getUserLastRewardClaim","outputs":[{"internalType":"uint256","name":"","type":"uint256"}],"stateMutability":"view","type":"function"},{"inputs":[{"internalType":"address","name":"user","type":"address"}],"name":"getUserLastStudyDate","outputs":[{"internalType":"uint256","name":"","type":"uint256"}],"stateMutability":"view","type":"function"},{"inputs":[{"internalType":"address","name":"user","type":"address"}],"name":"getUserSessionStats","outputs":[{"internalType":"uint256","name":"totalSessionsCount","type":"uint256"},{"internalType":"uint256","name":"completedSessionsCount","type":"uint256"},{"internalType":"uint256","name":"quizPassedSessionsCount","type":"uint256"}],"stateMutability":"view","type":"function"},{"inputs":[{"internalType":"address","name":"user","type":"address"}],"name":"getUserStudyRewards","outputs":[{"internalType":"uint256","name":"","type":"uint256"}],"stateMutability":"view","type":"function"},{"inputs":[{"internalType":"address","name":"","type":"address"}],"name":"lastRewardClaim","outputs":[{"internalType":"uint256","name":"","type":"uint256"}],"stateMutability":"view","type":"function"},{"inputs":[{"internalType":"address","name":"","type":"address"}],"name":"lastStudyDate","outputs":[{"internalType":"uint256","name":"","type":"uint256"}],"stateMutability":"view","type":"function"},{"inputs":[{"internalType":"address","name":"to","type":"address"},{"internalType":"uint256","name":"amount","type":"uint256"}],"name":"mintStudyReward","outputs":[],"stateMutability":"nonpayable","type":"function"},{"inputs":[],"name":"name","outputs":[{"internalType":"string","name":"","type":"string"}],"stateMutability":"view","type":"function"},{"inputs":[],"name":"owner","outputs":[{"internalType":"address","name":"","type":"address"}],"stateMutability":"view","type":"function"},{"inputs":[{"internalType":"address","name":"from","type":"address"},{"internalType":"address","name":"to","type":"address"},{"internalType":"uint256","name":"amount","type":"uint256"}],"name":"p2pConversion","outputs":[],"stateMutability":"nonpayable","type":"function"},{"inputs":[{"internalType":"address","name":"user","type":"address"},{"internalType":"uint256","name":"sessionId","type":"uint256"},{"internalType":"uint256","name":"quizScore","type":"uint256"}],"name":"passQuiz","outputs":[],"stateMutability":"nonpayable","type":"function"},{"inputs":[],"name":"pause","outputs":[],"stateMutability":"nonpayable","type":"function"},{"inputs":[],"name":"paused","outputs":[{"internalType":"bool","name":"","type":"bool"}],"stateMutability":"view","type":"function"},{"inputs":[{"internalType":"address","name":"user","type":"address"}],"name":"purchasePremiumSubscription","outputs":[],"stateMutability":"nonpayable","type":"function"},{"inputs":[{"internalType":"address","name":"","type":"address"}],"name":"quizPassedSessions","outputs":[{"internalType":"uint256","name":"","type":"uint256"}],"stateMutability":"view","type":"function"},{"inputs":[],"name":"renounceOwnership","outputs":[],"stateMutability":"nonpayable","type":"function"},{"inputs":[{"internalType":"address","name":"user","type":"address"},{"internalType":"uint256","name":"sessionId","type":"uint256"}],"name":"startSession","outputs":[],"stateMutability":"nonpayable","type":"function"},{"inputs":[{"internalType":"address","name":"","type":"address"}],"name":"studyTimeRewards","outputs":[{"internalType":"uint256","name":"","type":"uint256"}],"stateMutability":"view","type":"function"},{"inputs":[],"name":"symbol","outputs":[{"internalType":"string","name":"","type":"string"}],"stateMutability":"view","type":"function"},{"inputs":[{"internalType":"address","name":"","type":"address"}],"name":"totalSessions","outputs":[{"internalType":"uint256","name":"","type":"uint256"}],"stateMutability":"view","type":"function"},{"inputs":[],"name":"totalSupply","outputs":[{"internalType":"uint256","name":"","type":"uint256"}],"stateMutability":"view","type":"function"},{"inputs":[{"internalType":"address","name":"to","type":"address"},{"internalType":"uint256","name":"value","type":"uint256"}],"name":"transfer","outputs":[{"internalType":"bool","name":"","type":"bool"}],"stateMutability":"nonpayable","type":"function"},{"inputs":[{"internalType":"address","name":"from","type":"address"},{"internalType":"address","name":"to","type":"address"},{"internalType":"uint256","name":"value","type":"uint256"}],"name":"transferFrom","outputs":[{"internalType":"bool","name":"","type":"bool"}],"stateMutability":"nonpayable","type":"function"},{"inputs":[{"internalType":"address","name":"newOwner","type":"address"}],"name":"transferOwnership","outputs":[],"stateMutability":"nonpayable","type":"function"},{"inputs":[],"name":"unpause","outputs":[],"stateMutability":"nonpayable","type":"function"}],"evm":{"bytecode":{"linkReferences":{},"object":"60806040523480156200001157600080fd5b50336040518060400160405280600b81526020016a29ba3ab23c902a37b5b2b760a91b81525060405180604001604052806005815260200164535455445960d81b8152508160039081620000669190620003f0565b506004620000758282620003f0565b5050506001600160a01b038116620000a857604051631e4fbdf760e01b8152600060048201526024015b60405180910390fd5b620000b381620000e2565b50620000dc33620000c76012600a620005d1565b620000d690620f4240620005e9565b62000134565b62000619565b600580546001600160a01b038381166001600160a01b0319831681179093556040519116919082907f8be0079c531659141344cd1fd0a4f28419497f9722a3daafe3b4186f6b6457e090600090a35050565b6001600160a01b038216620001605760405163ec442f0560e01b8152600060048201526024016200009f565b6200016e6000838362000172565b5050565b6200017c620001e4565b62000190600554600160a01b900460ff1690565b15620001d25760405162461bcd60e51b815260206004820152601060248201526f14185d5cd8589b194e881c185d5cd95960821b60448201526064016200009f565b620001df83838362000219565b505050565b620001f8600554600160a01b900460ff1690565b15620002175760405163d93c066560e01b815260040160405180910390fd5b565b6001600160a01b038316620002485780600260008282546200023c919062000603565b90915550620002bc9050565b6001600160a01b038316600090815260208190526040902054818110156200029d5760405163391434e360e21b81526001600160a01b038516600482015260248101829052604481018390526064016200009f565b6001600160a01b03841660009081526020819052604090209082900390555b6001600160a01b038216620002da57600280548290039055620002f9565b6001600160a01b03821660009081526020819052604090208054820190555b816001600160a01b0316836001600160a01b03167fddf252ad1be2c89b69c2b068fc378daa952ba7f163c4a11628f55a4df523b3ef836040516200033f91815260200190565b60405180910390a3505050565b634e487b7160e01b600052604160045260246000fd5b600181811c908216806200037757607f821691505b6020821081036200039857634e487b7160e01b600052602260045260246000fd5b50919050565b601f821115620001df57600081815260208120601f850160051c81016020861015620003c75750805b601f850160051c820191505b81811015620003e857828155600101620003d3565b505050505050565b81516001600160401b038111156200040c576200040c6200034c565b62000424816200041d845462000362565b846200039e565b602080601f8311600181146200045c5760008415620004435750858301515b600019600386901b1c1916600185901b178555620003e8565b600085815260208120601f198616915b828110156200048d578886015182559484019460019091019084016200046c565b5085821015620004ac5787850151600019600388901b60f8161c191681555b5050505050600190811b01905550565b634e487b7160e01b600052601160045260246000fd5b600181815b8085111562000513578160001904821115620004f757620004f7620004bc565b808516156200050557918102915b93841c9390800290620004d7565b509250929050565b6000826200052c57506001620005cb565b816200053b57506000620005cb565b81600181146200055457600281146200055f576200057f565b6001915050620005cb565b60ff841115620005735762000573620004bc565b50506001821b620005cb565b5060208310610133831016604e8410600b8410161715620005a4575081810a620005cb565b620005b08383620004d2565b8060001904821115620005c757620005c7620004bc565b0290505b92915050565b6000620005e260ff8416836200051b565b9392505050565b8082028115828204841417620005cb57620005cb620004bc565b80820180821115620005cb57620005cb620004bc565b6123a480620006296000396000f3fe608060405234801561001057600080fd5b506004361061027f5760003560e01c806346662ddf1161015c5780639d9efb53116100ce578063c9fd7c2511610087578063c9fd7c2514610608578063d8ad52311461061b578063dd62ed3e1461063b578063eeee623c14610674578063f2fde38b1461069d578063fafed3b2146106b057600080fd5b80639d9efb531461057e578063a9059cbb14610591578063b2409bbb146105a4578063b84394c3146105c4578063bde9c09a146105ed578063c51ffdf4146105f557600080fd5b8063715018a611610120578063715018a6146104f95780638456cb59146105015780638da5cb5b14610509578063921cd6ca14610524578063944f71e61461054d57806395d89b411461057657600080fd5b806346662ddf1461043b5780635a988a231461045b5780635c975abb146104b65780636e9aef6c146104c857806370a08231146104d057600080fd5b806323b872dd116101f5578063313ce567116101b9578063313ce567146103c957806332cb6b0c146103d85780633d7924ae146103e05780633f4ba83a1461040057806342dc52ca1461040857806343785dc91461042857600080fd5b806323b872dd1461035d578063256fa2411461037057806326aa05c8146103835780632e1256fb146103965780632f149c5b146103b657600080fd5b80630df1bda8116102475780630df1bda81461030c5780630e40fe9f1461031f578063104708161461032757806311423a441461032f57806318160ddd146103425780631b8c9de41461034a57600080fd5b8063052239d714610284578063061014571461029957806306fdde03146102cc578063095ea7b3146102e15780630c1ee85914610304575b600080fd5b610297610292366004611e46565b6106b8565b005b6102b96102a7366004611e82565b60066020526000908152604090205481565b6040519081526020015b60405180910390f35b6102d4610842565b6040516102c39190611ea4565b6102f46102ef366004611ef2565b6108d4565b60405190151581526020016102c3565b6102b96108ee565b61029761031a366004611f1c565b610908565b6102b9610b59565b6102b9610b7d565b61029761033d366004611ef2565b610b94565b6002546102b9565b610297610358366004611f62565b610c33565b6102f461036b366004611f62565b610d86565b61029761037e366004611fea565b610daa565b610297610391366004612036565b610f72565b6102b96103a4366004611e82565b600b6020526000908152604090205481565b6102976103c4366004611e82565b6111e1565b604051601281526020016102c3565b6102b9611302565b6102b96103ee366004611e82565b60096020526000908152604090205481565b61029761131b565b6102b9610416366004611e82565b600a6020526000908152604090205481565b610297610436366004611ef2565b61132d565b6102b9610449366004611e82565b60086020526000908152604090205481565b61049b610469366004611e82565b6001600160a01b03166000908152600a6020908152604080832054600b835281842054600c9093529220549192909190565b604080519384526020840192909252908201526060016102c3565b600554600160a01b900460ff166102f4565b6102b9611414565b6102b96104de366004611e82565b6001600160a01b031660009081526020819052604090205490565b61029761142b565b61029761143d565b6005546040516001600160a01b0390911681526020016102c3565b6102b9610532366004611e82565b6001600160a01b031660009081526008602052604090205490565b6102b961055b366004611e82565b6001600160a01b031660009081526007602052604090205490565b6102d461144d565b61029761058c3660046120a2565b61145c565b6102f461059f366004611ef2565b6115c9565b6102b96105b2366004611e82565b600c6020526000908152604090205481565b6102b96105d2366004611e82565b6001600160a01b031660009081526009602052604090205490565b6102b96115d7565b610297610603366004611ef2565b6115f1565b610297610616366004611e82565b6116ba565b6102b9610629366004611e82565b60076020526000908152604090205481565b6102b96106493660046120d5565b6001600160a01b03918216600090815260016020908152604080832093909416825291909152205490565b6102b9610682366004611e82565b6001600160a01b031660009081526006602052604090205490565b6102976106ab366004611e82565b6117d3565b6102b9611811565b6106c0611828565b6001600160a01b0383166106ef5760405162461bcd60e51b81526004016106e690612108565b60405180910390fd5b6000821161074b5760405162461bcd60e51b8152602060048201526024808201527f53747564792074696d65206d7573742062652067726561746572207468616e206044820152637a65726f60e01b60648201526084016106e6565b60008161077b57610e106107616012600a612230565b61076c90600161223f565b6107769190612256565b61079f565b610e1061078a6012600a612230565b61079590600261223f565b61079f9190612256565b905060006107ad828561223f565b90506107b98582611855565b6001600160a01b038516600090815260066020526040812080548392906107e1908490612278565b90915550506001600160a01b03851660008181526007602090815260409182902042905581518481529081018790527f46967747bb1f1579bbac8937f261e0d96b56f10ab55bf3458fba94c74e7e45d6910160405180910390a25050505050565b6060600380546108519061228b565b80601f016020809104026020016040519081016040528092919081815260200182805461087d9061228b565b80156108ca5780601f1061089f576101008083540402835291602001916108ca565b820191906000526020600020905b8154815290600101906020018083116108ad57829003601f168201915b5050505050905090565b6000336108e281858561188b565b60019150505b92915050565b6108fa6012600a612230565b61090590600261223f565b81565b610910611828565b6001600160a01b0384166109365760405162461bcd60e51b81526004016106e690612108565b6104b08210156109885760405162461bcd60e51b815260206004820152601b60248201527f4d696e696d756d203230206d696e75746573207265717569726564000000000060448201526064016106e6565b806109d55760405162461bcd60e51b815260206004820152601b60248201527f4d75737420686176652070726f70657220656e676167656d656e74000000000060448201526064016106e6565b6001600160a01b0384166000908152600b602052604081208054916109f9836122c5565b9190505550610a078461189d565b6000610a156012600a612230565b610a2090600261223f565b6001600160a01b038616600090815260086020526040902054610a43919061223f565b9050600081610a546012600a612230565b610a5f90600a61223f565b610a699190612278565b9050610a758682611855565b6001600160a01b03861660009081526006602052604081208054839290610a9d908490612278565b90915550506001600160a01b03861660008181526007602090815260409182902042905581518881529081018490527f5948e5593b9f60e79646653d7bd7e88be2dc92a187d9da2a8fa4ca72cd19dc56910160405180910390a28115610b51576001600160a01b0386166000818152600860209081526040918290205482519081529081018590527fa519d944b5cdc3948b2305a1ddae2b87eb2ab4ea30c454e2c9e1b423f5417b18910160405180910390a25b505050505050565b610e10610b686012600a612230565b610b7390600161223f565b6109059190612256565b610b896012600a612230565b61090590606461223f565b610b9c611828565b6001600160a01b038216610bc25760405162461bcd60e51b81526004016106e690612108565b6001600160a01b0382166000908152600a60205260408120805491610be6836122c5565b9091555050604080518281524260208201526001600160a01b038416917f10db192bda3320a608015a66c352db52ed6407d3fdf9dcb5ac728b8a7ed9b2ee91015b60405180910390a25050565b610c3b611828565b6001600160a01b03831615801590610c5b57506001600160a01b03821615155b610c9b5760405162461bcd60e51b8152602060048201526011602482015270496e76616c69642061646472657373657360781b60448201526064016106e6565b60008111610cbb5760405162461bcd60e51b81526004016106e6906122de565b80610cdb846001600160a01b031660009081526020819052604090205490565b1015610d205760405162461bcd60e51b8152602060048201526014602482015273496e73756666696369656e742062616c616e636560601b60448201526064016106e6565b610d2a8382611975565b610d348282611855565b816001600160a01b0316836001600160a01b03167f28a9b8d463c04418869e8e75dfda2f6904873bb0d93bd85e76d2a1f7bc18536083604051610d7991815260200190565b60405180910390a3505050565b600033610d948582856119ab565b610d9f858585611a2a565b506001949350505050565b610db2611828565b81610dff5760405162461bcd60e51b815260206004820181905260248201527f526563697069656e74732061727261792063616e6e6f7420626520656d70747960448201526064016106e6565b60008111610e1f5760405162461bcd60e51b81526004016106e6906122de565b6000610e2b838361223f565b33600090815260208190526040902054909150811115610e5d5760405162461bcd60e51b81526004016106e690612313565b60005b83811015610f2a576000858583818110610e7c57610e7c612358565b9050602002016020810190610e919190611e82565b6001600160a01b031603610ee75760405162461bcd60e51b815260206004820152601b60248201527f43616e6e6f742073656e6420746f207a65726f2061646472657373000000000060448201526064016106e6565b610f1833868684818110610efd57610efd612358565b9050602002016020810190610f129190611e82565b85611a2a565b80610f22816122c5565b915050610e60565b5060408051848152602081018490529081018290527f617d1f92f8ebe68377709fa92cd3c2cb90153d5acd8390db69e0492406b14fa29060600160405180910390a150505050565b610f7a611828565b82610fc75760405162461bcd60e51b815260206004820181905260248201527f526563697069656e74732061727261792063616e6e6f7420626520656d70747960448201526064016106e6565b82811461100f5760405162461bcd60e51b8152602060048201526016602482015275082e4e4c2f2e640d8cadccee8d040dad2e6dac2e8c6d60531b60448201526064016106e6565b6000805b8281101561108b57600084848381811061102f5761102f612358565b90506020020135116110535760405162461bcd60e51b81526004016106e6906122de565b83838281811061106557611065612358565b90506020020135826110779190612278565b915080611083816122c5565b915050611013565b50336000908152602081905260409020548111156110bb5760405162461bcd60e51b81526004016106e690612313565b60005b848110156111a05760008686838181106110da576110da612358565b90506020020160208101906110ef9190611e82565b6001600160a01b0316036111455760405162461bcd60e51b815260206004820152601b60248201527f43616e6e6f742073656e6420746f207a65726f2061646472657373000000000060448201526064016106e6565b61118e3387878481811061115b5761115b612358565b90506020020160208101906111709190611e82565b86868581811061118257611182612358565b90506020020135611a2a565b80611198816122c5565b9150506110be565b5060408051858152602081018390527f9a89c1507d66648abc14bf8b86434e80b02997727cc0ad1dacbe57e85991841c910160405180910390a15050505050565b6111e9611828565b6001600160a01b03811661120f5760405162461bcd60e51b81526004016106e690612108565b6001600160a01b03811660009081526008602052604090205461126a5760405162461bcd60e51b81526020600482015260136024820152724e6f20636f6e7365637574697665206461797360681b60448201526064016106e6565b60006112786012600a612230565b61128390600261223f565b6001600160a01b0383166000908152600860205260409020546112a6919061223f565b90506112b28282611855565b6001600160a01b0382166000818152600860209081526040918290205482519081529081018490527fa519d944b5cdc3948b2305a1ddae2b87eb2ab4ea30c454e2c9e1b423f5417b189101610c27565b61130e6012600a612230565b610905906298968061223f565b611323611828565b61132b611a89565b565b611335611828565b6001600160a01b03821661138b5760405162461bcd60e51b815260206004820152601b60248201527f43616e6e6f74206d696e7420746f207a65726f2061646472657373000000000060448201526064016106e6565b6113976012600a612230565b6113a4906298968061223f565b816113ae60025490565b6113b89190612278565b11156114065760405162461bcd60e51b815260206004820152601760248201527f576f756c6420657863656564206d617820737570706c7900000000000000000060448201526064016106e6565b6114108282611855565b5050565b6114206012600a612230565b61090590600561223f565b611433611828565b61132b6000611ade565b611445611828565b61132b611b30565b6060600480546108519061228b565b611464611828565b6001600160a01b03831661148a5760405162461bcd60e51b81526004016106e690612108565b60468110156114db5760405162461bcd60e51b815260206004820152601f60248201527f4d7573742073636f7265206174206c656173742037302520746f20706173730060448201526064016106e6565b6001600160a01b0383166000908152600c602052604081208054916114ff836122c5565b909155506115259050836115156012600a612230565b61152090600561223f565b611855565b6115316012600a612230565b61153c90600561223f565b6001600160a01b03841660009081526006602052604081208054909190611564908490612278565b90915550506001600160a01b0383167f2ea3e42150c3d626523048dcb8f1e14c2ce2721af2ebaf663bf290f3ccd3608c836115a16012600a612230565b6115ac90600561223f565b6040805192835260208301919091520160405180910390a2505050565b6000336108e2818585611a2a565b610e106115e66012600a612230565b610b7390600261223f565b6115f9611828565b6001600160a01b03821661164f5760405162461bcd60e51b815260206004820152601b60248201527f43616e6e6f74206d696e7420746f207a65726f2061646472657373000000000060448201526064016106e6565b6000811161166f5760405162461bcd60e51b81526004016106e6906122de565b6116798282611855565b60408051828152600060208201526001600160a01b038416917f46967747bb1f1579bbac8937f261e0d96b56f10ab55bf3458fba94c74e7e45d69101610c27565b6116c2611828565b6001600160a01b0381166116e85760405162461bcd60e51b81526004016106e690612108565b6116f46012600a612230565b6116ff90606461223f565b6001600160a01b038216600090815260208190526040902054101561175d5760405162461bcd60e51b8152602060048201526014602482015273496e73756666696369656e742062616c616e636560601b60448201526064016106e6565b61177d8161176d6012600a612230565b61177890606461223f565b611975565b6001600160a01b0381167f15a04c1951705fd03aa7731af55ca5a7d93f472b3ca5de8f8762c054ed186d566117b46012600a612230565b6117bf90606461223f565b60405190815260200160405180910390a250565b6117db611828565b6001600160a01b03811661180557604051631e4fbdf760e01b8152600060048201526024016106e6565b61180e81611ade565b50565b61181d6012600a612230565b61090590600a61223f565b6005546001600160a01b0316331461132b5760405163118cdaa760e01b81523360048201526024016106e6565b6001600160a01b03821661187f5760405163ec442f0560e01b8152600060048201526024016106e6565b61141060008383611b73565b6118988383836001611bd3565b505050565b60006118ac6201518042612256565b6001600160a01b0383166000908152600960205260408120549192508190036118f0576001600160a01b038316600090815260086020526040902060019055611958565b8082036118fc57505050565b611907816001612278565b820361193b576001600160a01b0383166000908152600860205260408120805491611931836122c5565b9190505550611958565b6001600160a01b0383166000908152600860205260409020600190555b506001600160a01b03909116600090815260096020526040902055565b6001600160a01b03821661199f57604051634b637e8f60e11b8152600060048201526024016106e6565b61141082600083611b73565b6001600160a01b03838116600090815260016020908152604080832093861683529290522054600019811015611a245781811015611a1557604051637dc7a0d960e11b81526001600160a01b038416600482015260248101829052604481018390526064016106e6565b611a2484848484036000611bd3565b50505050565b6001600160a01b038316611a5457604051634b637e8f60e11b8152600060048201526024016106e6565b6001600160a01b038216611a7e5760405163ec442f0560e01b8152600060048201526024016106e6565b611898838383611b73565b611a91611ca8565b6005805460ff60a01b191690557f5db9ee0a495bf2e6ff9c91a7834c1ba4fdd244a5e8aa4e537bd38aeae4b073aa335b6040516001600160a01b03909116815260200160405180910390a1565b600580546001600160a01b038381166001600160a01b0319831681179093556040519116919082907f8be0079c531659141344cd1fd0a4f28419497f9722a3daafe3b4186f6b6457e090600090a35050565b611b38611cd2565b6005805460ff60a01b1916600160a01b1790557f62e78cea01bee320cd4e420270b5ea74000d11b0c9f74754ebdbfc544b05a258611ac13390565b611b7b611cd2565b600554600160a01b900460ff1615611bc85760405162461bcd60e51b815260206004820152601060248201526f14185d5cd8589b194e881c185d5cd95960821b60448201526064016106e6565b611898838383611cfd565b6001600160a01b038416611bfd5760405163e602df0560e01b8152600060048201526024016106e6565b6001600160a01b038316611c2757604051634a1406b160e11b8152600060048201526024016106e6565b6001600160a01b0380851660009081526001602090815260408083209387168352929052208290558015611a2457826001600160a01b0316846001600160a01b03167f8c5be1e5ebec7d5bd14f71427d1e84f3dd0314c0f7b2291e5b200ac8c7c3b92584604051611c9a91815260200190565b60405180910390a350505050565b600554600160a01b900460ff1661132b57604051638dfc202b60e01b815260040160405180910390fd5b600554600160a01b900460ff161561132b5760405163d93c066560e01b815260040160405180910390fd5b6001600160a01b038316611d28578060026000828254611d1d9190612278565b90915550611d9a9050565b6001600160a01b03831660009081526020819052604090205481811015611d7b5760405163391434e360e21b81526001600160a01b038516600482015260248101829052604481018390526064016106e6565b6001600160a01b03841660009081526020819052604090209082900390555b6001600160a01b038216611db657600280548290039055611dd5565b6001600160a01b03821660009081526020819052604090208054820190555b816001600160a01b0316836001600160a01b03167fddf252ad1be2c89b69c2b068fc378daa952ba7f163c4a11628f55a4df523b3ef83604051610d7991815260200190565b80356001600160a01b0381168114611e3157600080fd5b919050565b80358015158114611e3157600080fd5b600080600060608486031215611e5b57600080fd5b611e6484611e1a565b925060208401359150611e7960408501611e36565b90509250925092565b600060208284031215611e9457600080fd5b611e9d82611e1a565b9392505050565b600060208083528351808285015260005b81811015611ed157858101830151858201604001528201611eb5565b506000604082860101526040601f19601f8301168501019250505092915050565b60008060408385031215611f0557600080fd5b611f0e83611e1a565b946020939093013593505050565b60008060008060808587031215611f3257600080fd5b611f3b85611e1a565b93506020850135925060408501359150611f5760608601611e36565b905092959194509250565b600080600060608486031215611f7757600080fd5b611f8084611e1a565b9250611f8e60208501611e1a565b9150604084013590509250925092565b60008083601f840112611fb057600080fd5b50813567ffffffffffffffff811115611fc857600080fd5b6020830191508360208260051b8501011115611fe357600080fd5b9250929050565b600080600060408486031215611fff57600080fd5b833567ffffffffffffffff81111561201657600080fd5b61202286828701611f9e565b909790965060209590950135949350505050565b6000806000806040858703121561204c57600080fd5b843567ffffffffffffffff8082111561206457600080fd5b61207088838901611f9e565b9096509450602087013591508082111561208957600080fd5b5061209687828801611f9e565b95989497509550505050565b6000806000606084860312156120b757600080fd5b6120c084611e1a565b95602085013595506040909401359392505050565b600080604083850312156120e857600080fd5b6120f183611e1a565b91506120ff60208401611e1a565b90509250929050565b602080825260149082015273496e76616c69642075736572206164647265737360601b604082015260600190565b634e487b7160e01b600052601160045260246000fd5b600181815b8085111561218757816000190482111561216d5761216d612136565b8085161561217a57918102915b93841c9390800290612151565b509250929050565b60008261219e575060016108e8565b816121ab575060006108e8565b81600181146121c157600281146121cb576121e7565b60019150506108e8565b60ff8411156121dc576121dc612136565b50506001821b6108e8565b5060208310610133831016604e8410600b841016171561220a575081810a6108e8565b612214838361214c565b806000190482111561222857612228612136565b029392505050565b6000611e9d60ff84168361218f565b80820281158282048414176108e8576108e8612136565b60008261227357634e487b7160e01b600052601260045260246000fd5b500490565b808201808211156108e8576108e8612136565b600181811c9082168061229f57607f821691505b6020821081036122bf57634e487b7160e01b600052602260045260246000fd5b50919050565b6000600182016122d7576122d7612136565b5060010190565b6020808252818101527f416d6f756e74206d7573742062652067726561746572207468616e207a65726f604082015260600190565b60208082526025908201527f496e73756666696369656e742062616c616e636520666f7220646973747269626040820152643aba34b7b760d91b606082015260800190565b634e487b7160e01b600052603260045260246000fdfea26469706673582212209d1f018f51a626b28ffac75733a6b1ef0ae20cba2bf2d427645facebc138cadc64736f6c63430008140033","opcodes":"PUSH1 0x80 PUSH1 0x40 MSTORE CALLVALUE DUP1 ISZERO PUSH3 0x11 JUMPI PUSH1 0x0 DUP1 REVERT JUMPDEST POP CALLER PUSH1 0x40 MLOAD DUP1 PUSH1 0x40 ADD PUSH1 0x40 MSTORE DUP1 PUSH1 0xB DUP2 MSTORE PUSH1 0x20 ADD PUSH11 0x29BA3AB23C902A37B5B2B7 PUSH1 0xA9 SHL DUP2 MSTORE POP PUSH1 0x40 MLOAD DUP1 PUSH1 0x40 ADD PUSH1 0x40 MSTORE DUP1 PUSH1 0x5 DUP2 MSTORE PUSH1 0x20 ADD PUSH5 0x5354554459 PUSH1 0xD8 SHL DUP2 MSTORE POP DUP2 PUSH1 0x3 SWAP1 DUP2 PUSH3 0x66 SWAP2 SWAP1 PUSH3 0x3F0 JUMP JUMPDEST POP PUSH1 0x4 PUSH3 0x75 DUP3 DUP3 PUSH3 0x3F0 JUMP JUMPDEST POP POP POP PUSH1 0x1 PUSH1 0x1 PUSH1 0xA0 SHL SUB DUP2 AND PUSH3 0xA8 JUMPI PUSH1 0x40 MLOAD PUSH4 0x1E4FBDF7 PUSH1 0xE0 SHL DUP2 MSTORE PUSH1 0x0 PUSH1 0x4 DUP3 ADD MSTORE PUSH1 0x24 ADD JUMPDEST PUSH1 0x40 MLOAD DUP1 SWAP2 SUB SWAP1 REVERT JUMPDEST PUSH3 0xB3 DUP2 PUSH3 0xE2 JUMP JUMPDEST POP PUSH3 0xDC CALLER PUSH3 0xC7 PUSH1 0x12 PUSH1 0xA PUSH3 0x5D1 JUMP JUMPDEST PUSH3 0xD6 SWAP1 PUSH3 0xF4240 PUSH3 0x5E9 JUMP JUMPDEST PUSH3 0x134 JUMP JUMPDEST PUSH3 0x619 JUMP JUMPDEST PUSH1 0x5 DUP1 SLOAD PUSH1 0x1 PUSH1 0x1 PUSH1 0xA0 SHL SUB DUP4 DUP2 AND PUSH1 0x1 PUSH1 0x1 PUSH1 0xA0 SHL SUB NOT DUP4 AND DUP2 OR SWAP1 SWAP4 SSTORE PUSH1 0x40 MLOAD SWAP2 AND SWAP2 SWAP1 DUP3 SWAP1 PUSH32 0x8BE0079C531659141344CD1FD0A4F28419497F9722A3DAAFE3B4186F6B6457E0 SWAP1 PUSH1 0x0 SWAP1 LOG3 POP POP JUMP JUMPDEST PUSH1 0x1 PUSH1 0x1 PUSH1 0xA0 SHL SUB DUP3 AND PUSH3 0x160 JUMPI PUSH1 0x40 MLOAD PUSH4 0xEC442F05 PUSH1 0xE0 SHL DUP2 MSTORE PUSH1 0x0 PUSH1 0x4 DUP3 ADD MSTORE PUSH1 0x24 ADD PUSH3 0x9F JUMP JUMPDEST PUSH3 0x16E PUSH1 0x0 DUP4 DUP4 PUSH3 0x172 JUMP JUMPDEST POP POP JUMP JUMPDEST PUSH3 0x17C PUSH3 0x1E4 JUMP JUMPDEST PUSH3 0x190 PUSH1 0x5 SLOAD PUSH1 0x1 PUSH1 0xA0 SHL SWAP1 DIV PUSH1 0xFF AND SWAP1 JUMP JUMPDEST ISZERO PUSH3 0x1D2 JUMPI PUSH1 0x40 MLOAD PUSH3 0x461BCD PUSH1 0xE5 SHL DUP2 MSTORE PUSH1 0x20 PUSH1 0x4 DUP3 ADD MSTORE PUSH1 0x10 PUSH1 0x24 DUP3 ADD MSTORE PUSH16 0x14185D5CD8589B194E881C185D5CD959 PUSH1 0x82 SHL PUSH1 0x44 DUP3 ADD MSTORE PUSH1 0x64 ADD PUSH3 0x9F JUMP JUMPDEST PUSH3 0x1DF DUP4 DUP4 DUP4 PUSH3 0x219 JUMP JUMPDEST POP POP POP JUMP JUMPDEST PUSH3 0x1F8 PUSH1 0x5 SLOAD PUSH1 0x1 PUSH1 0xA0 SHL SWAP1 DIV PUSH1 0xFF AND SWAP1 JUMP JUMPDEST ISZERO PUSH3 0x217 JUMPI PUSH1 0x40 MLOAD PUSH4 0xD93C0665 PUSH1 0xE0 SHL DUP2 MSTORE PUSH1 0x4 ADD PUSH1 0x40 MLOAD DUP1 SWAP2 SUB SWAP1 REVERT JUMPDEST JUMP JUMPDEST PUSH1 0x1 PUSH1 0x1 PUSH1 0xA0 SHL SUB DUP4 AND PUSH3 0x248 JUMPI DUP1 PUSH1 0x2 PUSH1 0x0 DUP3 DUP3 SLOAD PUSH3 0x23C SWAP2 SWAP1 PUSH3 0x603 JUMP JUMPDEST SWAP1 SWAP2 SSTORE POP PUSH3 0x2BC SWAP1 POP JUMP JUMPDEST PUSH1 0x1 PUSH1 0x1 PUSH1 0xA0 SHL SUB DUP4 AND PUSH1 0x0 SWAP1 DUP2 MSTORE PUSH1 0x20 DUP2 SWAP1 MSTORE PUSH1 0x40 SWAP1 KECCAK256 SLOAD DUP2 DUP2 LT ISZERO PUSH3 0x29D JUMPI PUSH1 0x40 MLOAD PUSH4 0x391434E3 PUSH1 0xE2 SHL DUP2 MSTORE PUSH1 0x1 PUSH1 0x1 PUSH1 0xA0 SHL SUB DUP6 AND PUSH1 0x4 DUP3 ADD MSTORE PUSH1 0x24 DUP2 ADD DUP3 SWAP1 MSTORE PUSH1 0x44 DUP2 ADD DUP4 SWAP1 MSTORE PUSH1 0x64 ADD PUSH3 0x9F JUMP JUMPDEST PUSH1 0x1 PUSH1 0x1 PUSH1 0xA0 SHL SUB DUP5 AND PUSH1 0x0 SWAP1 DUP2 MSTORE PUSH1 0x20 DUP2 SWAP1 MSTORE PUSH1 0x40 SWAP1 KECCAK256 SWAP1 DUP3 SWAP1 SUB SWAP1 SSTORE JUMPDEST PUSH1 0x1 PUSH1 0x1 PUSH1 0xA0 SHL SUB DUP3 AND PUSH3 0x2DA JUMPI PUSH1 0x2 DUP1 SLOAD DUP3 SWAP1 SUB SWAP1 SSTORE PUSH3 0x2F9 JUMP JUMPDEST PUSH1 0x1 PUSH1 0x1 PUSH1 0xA0 SHL SUB DUP3 AND PUSH1 0x0 SWAP1 DUP2 MSTORE PUSH1 0x20 DUP2 SWAP1 MSTORE PUSH1 0x40 SWAP1 KECCAK256 DUP1 SLOAD DUP3 ADD SWAP1 SSTORE JUMPDEST DUP2 PUSH1 0x1 PUSH1 0x1 PUSH1 0xA0 SHL SUB AND DUP4 PUSH1 0x1 PUSH1 0x1 PUSH1 0xA0 SHL SUB AND PUSH32 0xDDF252AD1BE2C89B69C2B068FC378DAA952BA7F163C4A11628F55A4DF523B3EF DUP4 PUSH1 0x40 MLOAD PUSH3 0x33F SWAP2 DUP2 MSTORE PUSH1 0x20 ADD SWAP1 JUMP JUMPDEST PUSH1 0x40 MLOAD DUP1 SWAP2 SUB SWAP1 LOG3 POP POP POP JUMP JUMPDEST PUSH4 0x4E487B71 PUSH1 0xE0 SHL PUSH1 0x0 MSTORE PUSH1 0x41 PUSH1 0x4 MSTORE PUSH1 0x24 PUSH1 0x0 REVERT JUMPDEST PUSH1 0x1 DUP2 DUP2 SHR SWAP1 DUP3 AND DUP1 PUSH3 0x377 JUMPI PUSH1 0x7F DUP3 AND SWAP2 POP JUMPDEST PUSH1 0x20 DUP3 LT DUP2 SUB PUSH3 0x398 JUMPI PUSH4 0x4E487B71 PUSH1 0xE0 SHL PUSH1 0x0 MSTORE PUSH1 0x22 PUSH1 0x4 MSTORE PUSH1 0x24 PUSH1 0x0 REVERT JUMPDEST POP SWAP2 SWAP1 POP JUMP JUMPDEST PUSH1 0x1F DUP3 GT ISZERO PUSH3 0x1DF JUMPI PUSH1 0x0 DUP2 DUP2 MSTORE PUSH1 0x20 DUP2 KECCAK256 PUSH1 0x1F DUP6 ADD PUSH1 0x5 SHR DUP2 ADD PUSH1 0x20 DUP7 LT ISZERO PUSH3 0x3C7 JUMPI POP DUP1 JUMPDEST PUSH1 0x1F DUP6 ADD PUSH1 0x5 SHR DUP3 ADD SWAP2 POP JUMPDEST DUP2 DUP2 LT ISZERO PUSH3 0x3E8 JUMPI DUP3 DUP2 SSTORE PUSH1 0x1 ADD PUSH3 0x3D3 JUMP JUMPDEST POP POP POP POP POP POP JUMP JUMPDEST DUP2 MLOAD PUSH1 0x1 PUSH1 0x1 PUSH1 0x40 SHL SUB DUP2 GT ISZERO PUSH3 0x40C JUMPI PUSH3 0x40C PUSH3 0x34C JUMP JUMPDEST PUSH3 0x424 DUP2 PUSH3 0x41D DUP5 SLOAD PUSH3 0x362 JUMP JUMPDEST DUP5 PUSH3 0x39E JUMP JUMPDEST PUSH1 0x20 DUP1 PUSH1 0x1F DUP4 GT PUSH1 0x1 DUP2 EQ PUSH3 0x45C JUMPI PUSH1 0x0 DUP5 ISZERO PUSH3 0x443 JUMPI POP DUP6 DUP4 ADD MLOAD JUMPDEST PUSH1 0x0 NOT PUSH1 0x3 DUP7 SWAP1 SHL SHR NOT AND PUSH1 0x1 DUP6 SWAP1 SHL OR DUP6 SSTORE PUSH3 0x3E8 JUMP JUMPDEST PUSH1 0x0 DUP6 DUP2 MSTORE PUSH1 0x20 DUP2 KECCAK256 PUSH1 0x1F NOT DUP7 AND SWAP2 JUMPDEST DUP3 DUP2 LT ISZERO PUSH3 0x48D JUMPI DUP9 DUP7 ADD MLOAD DUP3 SSTORE SWAP5 DUP5 ADD SWAP5 PUSH1 0x1 SWAP1 SWAP2 ADD SWAP1 DUP5 ADD PUSH3 0x46C JUMP JUMPDEST POP DUP6 DUP3 LT ISZERO PUSH3 0x4AC JUMPI DUP8 DUP6 ADD MLOAD PUSH1 0x0 NOT PUSH1 0x3 DUP9 SWAP1 SHL PUSH1 0xF8 AND SHR NOT AND DUP2 SSTORE JUMPDEST POP POP POP POP POP PUSH1 0x1 SWAP1 DUP2 SHL ADD SWAP1 SSTORE POP JUMP JUMPDEST PUSH4 0x4E487B71 PUSH1 0xE0 SHL PUSH1 0x0 MSTORE PUSH1 0x11 PUSH1 0x4 MSTORE PUSH1 0x24 PUSH1 0x0 REVERT JUMPDEST PUSH1 0x1 DUP2 DUP2 JUMPDEST DUP1 DUP6 GT ISZERO PUSH3 0x513 JUMPI DUP2 PUSH1 0x0 NOT DIV DUP3 GT ISZERO PUSH3 0x4F7 JUMPI PUSH3 0x4F7 PUSH3 0x4BC JUMP JUMPDEST DUP1 DUP6 AND ISZERO PUSH3 0x505 JUMPI SWAP2 DUP2 MUL SWAP2 JUMPDEST SWAP4 DUP5 SHR SWAP4 SWAP1 DUP1 MUL SWAP1 PUSH3 0x4D7 JUMP JUMPDEST POP SWAP3 POP SWAP3 SWAP1 POP JUMP JUMPDEST PUSH1 0x0 DUP3 PUSH3 0x52C JUMPI POP PUSH1 0x1 PUSH3 0x5CB JUMP JUMPDEST DUP2 PUSH3 0x53B JUMPI POP PUSH1 0x0 PUSH3 0x5CB JUMP JUMPDEST DUP2 PUSH1 0x1 DUP2 EQ PUSH3 0x554 JUMPI PUSH1 0x2 DUP2 EQ PUSH3 0x55F JUMPI PUSH3 0x57F JUMP JUMPDEST PUSH1 0x1 SWAP2 POP POP PUSH3 0x5CB JUMP JUMPDEST PUSH1 0xFF DUP5 GT ISZERO PUSH3 0x573 JUMPI PUSH3 0x573 PUSH3 0x4BC JUMP JUMPDEST POP POP PUSH1 0x1 DUP3 SHL PUSH3 0x5CB JUMP JUMPDEST POP PUSH1 0x20 DUP4 LT PUSH2 0x133 DUP4 LT AND PUSH1 0x4E DUP5 LT PUSH1 0xB DUP5 LT AND OR ISZERO PUSH3 0x5A4 JUMPI POP DUP2 DUP2 EXP PUSH3 0x5CB JUMP JUMPDEST PUSH3 0x5B0 DUP4 DUP4 PUSH3 0x4D2 JUMP JUMPDEST DUP1 PUSH1 0x0 NOT DIV DUP3 GT ISZERO PUSH3 0x5C7 JUMPI PUSH3 0x5C7 PUSH3 0x4BC JUMP JUMPDEST MUL SWAP1 POP JUMPDEST SWAP3 SWAP2 POP POP JUMP JUMPDEST PUSH1 0x0 PUSH3 0x5E2 PUSH1 0xFF DUP5 AND DUP4 PUSH3 0x51B JUMP JUMPDEST SWAP4 SWAP3 POP POP POP JUMP JUMPDEST DUP1 DUP3 MUL DUP2 ISZERO DUP3 DUP3 DIV DUP5 EQ OR PUSH3 0x5CB JUMPI PUSH3 0x5CB PUSH3 0x4BC JUMP JUMPDEST DUP1 DUP3 ADD DUP1 DUP3 GT ISZERO PUSH3 0x5CB JUMPI PUSH3 0x5CB PUSH3 0x4BC JUMP JUMPDEST PUSH2 0x23A4 DUP1 PUSH3 0x629 PUSH1 0x0 CODECOPY PUSH1 0x0 RETURN INVALID PUSH1 0x80 PUSH1 0x40 MSTORE CALLVALUE DUP1 ISZERO PUSH2 0x10 JUMPI PUSH1 0x0 DUP1 REVERT JUMPDEST POP PUSH1 0x4 CALLDATASIZE LT PUSH2 0x27F JUMPI PUSH1 0x0 CALLDATALOAD PUSH1 0xE0 SHR DUP1 PUSH4 0x46662DDF GT PUSH2 0x15C JUMPI DUP1 PUSH4 0x9D9EFB53 GT PUSH2 0xCE JUMPI DUP1 PUSH4 0xC9FD7C25 GT PUSH2 0x87 JUMPI DUP1 PUSH4 0xC9FD7C25 EQ PUSH2 0x608 JUMPI DUP1 PUSH4 0xD8AD5231 EQ PUSH2 0x61B JUMPI DUP1 PUSH4 0xDD62ED3E EQ PUSH2 0x63B JUMPI DUP1 PUSH4 0xEEEE623C EQ PUSH2 0x674 JUMPI DUP1 PUSH4 0xF2FDE38B EQ PUSH2 0x69D JUMPI DUP1 PUSH4 0xFAFED3B2 EQ PUSH2 0x6B0 JUMPI PUSH1 0x0 DUP1 REVERT JUMPDEST DUP1 PUSH4 0x9D9EFB53 EQ PUSH2 0x57E JUMPI DUP1 PUSH4 0xA9059CBB EQ PUSH2 0x591 JUMPI DUP1 PUSH4 0xB2409BBB EQ PUSH2 0x5A4 JUMPI DUP1 PUSH4 0xB84394C3 EQ PUSH2 0x5C4 JUMPI DUP1 PUSH4 0xBDE9C09A EQ PUSH2 0x5ED JUMPI DUP1 PUSH4 0xC51FFDF4 EQ PUSH2 0x5F5 JUMPI PUSH1 0x0 DUP1 REVERT JUMPDEST DUP1 PUSH4 0x715018A6 GT PUSH2 0x120 JUMPI DUP1 PUSH4 0x715018A6 EQ PUSH2 0x4F9 JUMPI DUP1 PUSH4 0x8456CB59 EQ PUSH2 0x501 JUMPI DUP1 PUSH4 0x8DA5CB5B EQ PUSH2 0x509 JUMPI DUP1 PUSH4 0x921CD6CA EQ PUSH2 0x524 JUMPI DUP1 PUSH4 0x944F71E6 EQ PUSH2 0x54D JUMPI DUP1 PUSH4 0x95D89B41 EQ PUSH2 0x576 JUMPI PUSH1 0x0 DUP1 REVERT JUMPDEST DUP1 PUSH4 0x46662DDF EQ PUSH2 0x43B JUMPI DUP1 PUSH4 0x5A988A23 EQ PUSH2 0x45B JUMPI DUP1 PUSH4 0x5C975ABB EQ PUSH2 0x4B6 JUMPI DUP1 PUSH4 0x6E9AEF6C EQ PUSH2 0x4C8 JUMPI DUP1 PUSH4 0x70A08231 EQ PUSH2 0x4D0 JUMPI PUSH1 0x0 DUP1 REVERT JUMPDEST DUP1 PUSH4 0x23B872DD GT PUSH2 0x1F5 JUMPI DUP1 PUSH4 0x313CE567 GT PUSH2 0x1B9 JUMPI DUP1 PUSH4 0x313CE567 EQ PUSH2 0x3C9 JUMPI DUP1 PUSH4 0x32CB6B0C EQ PUSH2 0x3D8 JUMPI DUP1 PUSH4 0x3D7924AE EQ PUSH2 0x3E0 JUMPI DUP1 PUSH4 0x3F4BA83A EQ PUSH2 0x400 JUMPI DUP1 PUSH4 0x42DC52CA EQ PUSH2 0x408 JUMPI DUP1 PUSH4 0x43785DC9 EQ PUSH2 0x428 JUMPI PUSH1 0x0 DUP1 REVERT JUMPDEST DUP1 PUSH4 0x23B872DD EQ PUSH2 0x35D JUMPI DUP1 PUSH4 0x256FA241 EQ PUSH2 0x370 JUMPI DUP1 PUSH4 0x26AA05C8 EQ PUSH2 0x383 JUMPI DUP1 PUSH4 0x2E1256FB EQ PUSH2 0x396 JUMPI DUP1 PUSH4 0x2F149C5B EQ PUSH2 0x3B6 JUMPI PUSH1 0x0 DUP1 REVERT JUMPDEST DUP1 PUSH4 0xDF1BDA8 GT PUSH2 0x247 JUMPI DUP1 PUSH4 0xDF1BDA8 EQ PUSH2 0x30C JUMPI DUP1 PUSH4 0xE40FE9F EQ PUSH2 0x31F JUMPI DUP1 PUSH4 0x10470816 EQ PUSH2 0x327 JUMPI DUP1 PUSH4 0x11423A44 EQ PUSH2 0x32F JUMPI DUP1 PUSH4 0x18160DDD EQ PUSH2 0x342 JUMPI DUP1 PUSH4 0x1B8C9DE4 EQ PUSH2 0x34A JUMPI PUSH1 0x0 DUP1 REVERT JUMPDEST DUP1 PUSH4 0x52239D7 EQ PUSH2 0x284 JUMPI DUP1 PUSH4 0x6101457 EQ PUSH2 0x299 JUMPI DUP1 PUSH4 0x6FDDE03 EQ PUSH2 0x2CC JUMPI DUP1 PUSH4 0x95EA7B3 EQ PUSH2 0x2E1 JUMPI DUP1 PUSH4 0xC1EE859 EQ PUSH2 0x304 JUMPI JUMPDEST PUSH1 0x0 DUP1 REVERT JUMPDEST PUSH2 0x297 PUSH2 0x292 CALLDATASIZE PUSH1 0x4 PUSH2 0x1E46 JUMP JUMPDEST PUSH2 0x6B8 JUMP JUMPDEST STOP JUMPDEST PUSH2 0x2B9 PUSH2 0x2A7 CALLDATASIZE PUSH1 0x4 PUSH2 0x1E82 JUMP JUMPDEST PUSH1 0x6 PUSH1 0x20 MSTORE PUSH1 0x0 SWAP1 DUP2 MSTORE PUSH1 0x40 SWAP1 KECCAK256 SLOAD DUP2 JUMP JUMPDEST PUSH1 0x40 MLOAD SWAP1 DUP2 MSTORE PUSH1 0x20 ADD JUMPDEST PUSH1 0x40 MLOAD DUP1 SWAP2 SUB SWAP1 RETURN JUMPDEST PUSH2 0x2D4 PUSH2 0x842 JUMP JUMPDEST PUSH1 0x40 MLOAD PUSH2 0x2C3 SWAP2 SWAP1 PUSH2 0x1EA4 JUMP JUMPDEST PUSH2 0x2F4 PUSH2 0x2EF CALLDATASIZE PUSH1 0x4 PUSH2 0x1EF2 JUMP JUMPDEST PUSH2 0x8D4 JUMP JUMPDEST PUSH1 0x40 MLOAD SWAP1 ISZERO ISZERO DUP2 MSTORE PUSH1 0x20 ADD PUSH2 0x2C3 JUMP JUMPDEST PUSH2 0x2B9 PUSH2 0x8EE JUMP JUMPDEST PUSH2 0x297 PUSH2 0x31A CALLDATASIZE PUSH1 0x4 PUSH2 0x1F1C JUMP JUMPDEST PUSH2 0x908 JUMP JUMPDEST PUSH2 0x2B9 PUSH2 0xB59 JUMP JUMPDEST PUSH2 0x2B9 PUSH2 0xB7D JUMP JUMPDEST PUSH2 0x297 PUSH2 0x33D CALLDATASIZE PUSH1 0x4 PUSH2 0x1EF2 JUMP JUMPDEST PUSH2 0xB94 JUMP JUMPDEST PUSH1 0x2 SLOAD PUSH2 0x2B9 JUMP JUMPDEST PUSH2 0x297 PUSH2 0x358 CALLDATASIZE PUSH1 0x4 PUSH2 0x1F62 JUMP JUMPDEST PUSH2 0xC33 JUMP JUMPDEST PUSH2 0x2F4 PUSH2 0x36B CALLDATASIZE PUSH1 0x4 PUSH2 0x1F62 JUMP JUMPDEST PUSH2 0xD86 JUMP JUMPDEST PUSH2 0x297 PUSH2 0x37E CALLDATASIZE PUSH1 0x4 PUSH2 0x1FEA JUMP JUMPDEST PUSH2 0xDAA JUMP JUMPDEST PUSH2 0x297 PUSH2 0x391 CALLDATASIZE PUSH1 0x4 PUSH2 0x2036 JUMP JUMPDEST PUSH2 0xF72 JUMP JUMPDEST PUSH2 0x2B9 PUSH2 0x3A4 CALLDATASIZE PUSH1 0x4 PUSH2 0x1E82 JUMP JUMPDEST PUSH1 0xB PUSH1 0x20 MSTORE PUSH1 0x0 SWAP1 DUP2 MSTORE PUSH1 0x40 SWAP1 KECCAK256 SLOAD DUP2 JUMP JUMPDEST PUSH2 0x297 PUSH2 0x3C4 CALLDATASIZE PUSH1 0x4 PUSH2 0x1E82 JUMP JUMPDEST PUSH2 0x11E1 JUMP JUMPDEST PUSH1 0x40 MLOAD PUSH1 0x12 DUP2 MSTORE PUSH1 0x20 ADD PUSH2 0x2C3 JUMP JUMPDEST PUSH2 0x2B9 PUSH2 0x1302 JUMP JUMPDEST PUSH2 0x2B9 PUSH2 0x3EE CALLDATASIZE PUSH1 0x4 PUSH2 0x1E82 JUMP JUMPDEST PUSH1 0x9 PUSH1 0x20 MSTORE PUSH1 0x0 SWAP1 DUP2 MSTORE PUSH1 0x40 SWAP1 KECCAK256 SLOAD DUP2 JUMP JUMPDEST PUSH2 0x297 PUSH2 0x131B JUMP JUMPDEST PUSH2 0x2B9 PUSH2 0x416 CALLDATASIZE PUSH1 0x4 PUSH2 0x1E82 JUMP JUMPDEST PUSH1 0xA PUSH1 0x20 MSTORE PUSH1 0x0 SWAP1 DUP2 MSTORE PUSH1 0x40 SWAP1 KECCAK256 SLOAD DUP2 JUMP JUMPDEST PUSH2 0x297 PUSH2 0x436 CALLDATASIZE PUSH1 0x4 PUSH2 0x1EF2 JUMP JUMPDEST PUSH2 0x132D JUMP JUMPDEST PUSH2 0x2B9 PUSH2 0x449 CALLDATASIZE PUSH1 0x4 PUSH2 0x1E82 JUMP JUMPDEST PUSH1 0x8 PUSH1 0x20 MSTORE PUSH1 0x0 SWAP1 DUP2 MSTORE PUSH1 0x40 SWAP1 KECCAK256 SLOAD DUP2 JUMP JUMPDEST PUSH2 0x49B PUSH2 0x469 CALLDATASIZE PUSH1 0x4 PUSH2 0x1E82 JUMP JUMPDEST PUSH1 0x1 PUSH1 0x1 PUSH1 0xA0 SHL SUB AND PUSH1 0x0 SWAP1 DUP2 MSTORE PUSH1 0xA PUSH1 0x20 SWAP1 DUP2 MSTORE PUSH1 0x40 DUP1 DUP4 KECCAK256 SLOAD PUSH1 0xB DUP4 MSTORE DUP2 DUP5 KECCAK256 SLOAD PUSH1 0xC SWAP1 SWAP4 MSTORE SWAP3 KECCAK256 SLOAD SWAP2 SWAP3 SWAP1 SWAP2 SWAP1 JUMP JUMPDEST PUSH1 0x40 DUP1 MLOAD SWAP4 DUP5 MSTORE PUSH1 0x20 DUP5 ADD SWAP3 SWAP1 SWAP3 MSTORE SWAP1 DUP3 ADD MSTORE PUSH1 0x60 ADD PUSH2 0x2C3 JUMP JUMPDEST PUSH1 0x5 SLOAD PUSH1 0x1 PUSH1 0xA0 SHL SWAP1 DIV PUSH1 0xFF AND PUSH2 0x2F4 JUMP JUMPDEST PUSH2 0x2B9 PUSH2 0x1414 JUMP JUMPDEST PUSH2 0x2B9 PUSH2 0x4DE CALLDATASIZE PUSH1 0x4 PUSH2 0x1E82 JUMP JUMPDEST PUSH1 0x1 PUSH1 0x1 PUSH1 0xA0 SHL SUB AND PUSH1 0x0 SWAP1 DUP2 MSTORE PUSH1 0x20 DUP2 SWAP1 MSTORE PUSH1 0x40 SWAP1 KECCAK256 SLOAD SWAP1 JUMP JUMPDEST PUSH2 0x297 PUSH2 0x142B JUMP JUMPDEST PUSH2 0x297 PUSH2 0x143D JUMP JUMPDEST PUSH1 0x5 SLOAD PUSH1 0x40 MLOAD PUSH1 0x1 PUSH1 0x1 PUSH1 0xA0 SHL SUB SWAP1 SWAP2 AND DUP2 MSTORE PUSH1 0x20 ADD PUSH2 0x2C3 JUMP JUMPDEST PUSH2 0x2B9 PUSH2 0x532 CALLDATASIZE PUSH1 0x4 PUSH2 0x1E82 JUMP JUMPDEST PUSH1 0x1 PUSH1 0x1 PUSH1 0xA0 SHL SUB AND PUSH1 0x0 SWAP1 DUP2 MSTORE PUSH1 0x8 PUSH1 0x20 MSTORE PUSH1 0x40 SWAP1 KECCAK256 SLOAD SWAP1 JUMP JUMPDEST PUSH2 0x2B9 PUSH2 0x55B CALLDATASIZE PUSH1 0x4 PUSH2 0x1E82 JUMP JUMPDEST PUSH1 0x1 PUSH1 0x1 PUSH1 0xA0 SHL SUB AND PUSH1 0x0 SWAP1 DUP2 MSTORE PUSH1 0x7 PUSH1 0x20 MSTORE PUSH1 0x40 SWAP1 KECCAK256 SLOAD SWAP1 JUMP JUMPDEST PUSH2 0x2D4 PUSH2 0x144D JUMP JUMPDEST PUSH2 0x297 PUSH2 0x58C CALLDATASIZE PUSH1 0x4 PUSH2 0x20A2 JUMP JUMPDEST PUSH2 0x145C JUMP JUMPDEST PUSH2 0x2F4 PUSH2 0x59F CALLDATASIZE PUSH1 0x4 PUSH2 0x1EF2 JUMP JUMPDEST PUSH2 0x15C9 JUMP JUMPDEST PUSH2 0x2B9 PUSH2 0x5B2 CALLDATASIZE PUSH1 0x4 PUSH2 0x1E82 JUMP JUMPDEST PUSH1 0xC PUSH1 0x20 MSTORE PUSH1 0x0 SWAP1 DUP2 MSTORE PUSH1 0x40 SWAP1 KECCAK256 SLOAD DUP2 JUMP JUMPDEST PUSH2 0x2B9 PUSH2 0x5D2 CALLDATASIZE PUSH1 0x4 PUSH2 0x1E82 JUMP JUMPDEST PUSH1 0x1 PUSH1 0x1 PUSH1 0xA0 SHL SUB AND PUSH1 0x0 SWAP1 DUP2 MSTORE PUSH1 0x9 PUSH1 0x20 MSTORE PUSH1 0x40 SWAP1 KECCAK256 SLOAD SWAP1 JUMP JUMPDEST PUSH2 0x2B9 PUSH2 0x15D7 JUMP JUMPDEST PUSH2 0x297 PUSH2 0x603 CALLDATASIZE PUSH1 0x4 PUSH2 0x1EF2 JUMP JUMPDEST PUSH2 0x15F1 JUMP JUMPDEST PUSH2 0x297 PUSH2 0x616 CALLDATASIZE PUSH1 0x4 PUSH2 0x1E82 JUMP JUMPDEST PUSH2 0x16BA JUMP JUMPDEST PUSH2 0x2B9 PUSH2 0x629 CALLDATASIZE PUSH1 0x4 PUSH2 0x1E82 JUMP JUMPDEST PUSH1 0x7 PUSH1 0x20 MSTORE PUSH1 0x0 SWAP1 DUP2 MSTORE PUSH1 0x40 SWAP1 KECCAK256 SLOAD DUP2 JUMP JUMPDEST PUSH2 0x2B9 PUSH2 0x649 CALLDATASIZE PUSH1 0x4 PUSH2 0x20D5 JUMP JUMPDEST PUSH1 0x1 PUSH1 0x1 PUSH1 0xA0 SHL SUB SWAP2 DUP3 AND PUSH1 0x0 SWAP1 DUP2 MSTORE PUSH1 0x1 PUSH1 0x20 SWAP1 DUP2 MSTORE PUSH1 0x40 DUP1 DUP4 KECCAK256 SWAP4 SWAP1 SWAP5 AND DUP3 MSTORE SWAP2 SWAP1 SWAP2 MSTORE KECCAK256 SLOAD SWAP1 JUMP JUMPDEST PUSH2 0x2B9 PUSH2 0x682 CALLDATASIZE PUSH1 0x4 PUSH2 0x1E82 JUMP JUMPDEST PUSH1 0x1 PUSH1 0x1 PUSH1 0xA0 SHL SUB AND PUSH1 0x0 SWAP1 DUP2 MSTORE PUSH1 0x6 PUSH1 0x20 MSTORE PUSH1 0x40 SWAP1 KECCAK256 SLOAD SWAP1 JUMP JUMPDEST PUSH2 0x297 PUSH2 0x6AB CALLDATASIZE PUSH1 0x4 PUSH2 0x1E82 JUMP JUMPDEST PUSH2 0x17D3 JUMP JUMPDEST PUSH2 0x2B9 PUSH2 0x1811 JUMP JUMPDEST PUSH2 0x6C0 PUSH2 0x1828 JUMP JUMPDEST PUSH1 0x1 PUSH1 0x1 PUSH1 0xA0 SHL SUB DUP4 AND PUSH2 0x6EF JUMPI PUSH1 0x40 MLOAD PUSH3 0x461BCD PUSH1 0xE5 SHL DUP2 MSTORE PUSH1 0x4 ADD PUSH2 0x6E6 SWAP1 PUSH2 0x2108 JUMP JUMPDEST PUSH1 0x40 MLOAD DUP1 SWAP2 SUB SWAP1 REVERT JUMPDEST PUSH1 0x0 DUP3 GT PUSH2 0x74B JUMPI PUSH1 0x40 MLOAD PUSH3 0x461BCD PUSH1 0xE5 SHL DUP2 MSTORE PUSH1 0x20 PUSH1 0x4 DUP3 ADD MSTORE PUSH1 0x24 DUP1 DUP3 ADD MSTORE PUSH32 0x53747564792074696D65206D7573742062652067726561746572207468616E20 PUSH1 0x44 DUP3 ADD MSTORE PUSH4 0x7A65726F PUSH1 0xE0 SHL PUSH1 0x64 DUP3 ADD MSTORE PUSH1 0x84 ADD PUSH2 0x6E6 JUMP JUMPDEST PUSH1 0x0 DUP2 PUSH2 0x77B JUMPI PUSH2 0xE10 PUSH2 0x761 PUSH1 0x12 PUSH1 0xA PUSH2 0x2230 JUMP JUMPDEST PUSH2 0x76C SWAP1 PUSH1 0x1 PUSH2 0x223F JUMP JUMPDEST PUSH2 0x776 SWAP2 SWAP1 PUSH2 0x2256 JUMP JUMPDEST PUSH2 0x79F JUMP JUMPDEST PUSH2 0xE10 PUSH2 0x78A PUSH1 0x12 PUSH1 0xA PUSH2 0x2230 JUMP JUMPDEST PUSH2 0x795 SWAP1 PUSH1 0x2 PUSH2 0x223F JUMP JUMPDEST PUSH2 0x79F SWAP2 SWAP1 PUSH2 0x2256 JUMP JUMPDEST SWAP1 POP PUSH1 0x0 PUSH2 0x7AD DUP3 DUP6 PUSH2 0x223F JUMP JUMPDEST SWAP1 POP PUSH2 0x7B9 DUP6 DUP3 PUSH2 0x1855 JUMP JUMPDEST PUSH1 0x1 PUSH1 0x1 PUSH1 0xA0 SHL SUB DUP6 AND PUSH1 0x0 SWAP1 DUP2 MSTORE PUSH1 0x6 PUSH1 0x20 MSTORE PUSH1 0x40 DUP2 KECCAK256 DUP1 SLOAD DUP4 SWAP3 SWAP1 PUSH2 0x7E1 SWAP1 DUP5 SWAP1 PUSH2 0x2278 JUMP JUMPDEST SWAP1 SWAP2 SSTORE POP POP PUSH1 0x1 PUSH1 0x1 PUSH1 0xA0 SHL SUB DUP6 AND PUSH1 0x0 DUP2 DUP2 MSTORE PUSH1 0x7 PUSH1 0x20 SWAP1 DUP2 MSTORE PUSH1 0x40 SWAP2 DUP3 SWAP1 KECCAK256 TIMESTAMP SWAP1 SSTORE DUP2 MLOAD DUP5 DUP2 MSTORE SWAP1 DUP2 ADD DUP8 SWAP1 MSTORE PUSH32 0x46967747BB1F1579BBAC8937F261E0D96B56F10AB55BF3458FBA94C74E7E45D6 SWAP2 ADD PUSH1 0x40 MLOAD DUP1 SWAP2 SUB SWAP1 LOG2 POP POP POP POP POP JUMP JUMPDEST PUSH1 0x60 PUSH1 0x3 DUP1 SLOAD PUSH2 0x851 SWAP1 PUSH2 0x228B JUMP JUMPDEST DUP1 PUSH1 0x1F ADD PUSH1 0x20 DUP1 SWAP2 DIV MUL PUSH1 0x20 ADD PUSH1 0x40 MLOAD SWAP1 DUP2 ADD PUSH1 0x40 MSTORE DUP1 SWAP3 SWAP2 SWAP1 DUP2 DUP2 MSTORE PUSH1 0x20 ADD DUP3 DUP1 SLOAD PUSH2 0x87D SWAP1 PUSH2 0x228B JUMP JUMPDEST DUP1 ISZERO PUSH2 0x8CA JUMPI DUP1 PUSH1 0x1F LT PUSH2 0x89F JUMPI PUSH2 0x100 DUP1 DUP4 SLOAD DIV MUL DUP4 MSTORE SWAP2 PUSH1 0x20 ADD SWAP2 PUSH2 0x8CA JUMP JUMPDEST DUP3 ADD SWAP2 SWAP1 PUSH1 0x0 MSTORE PUSH1 0x20 PUSH1 0x0 KECCAK256 SWAP1 JUMPDEST DUP2 SLOAD DUP2 MSTORE SWAP1 PUSH1 0x1 ADD SWAP1 PUSH1 0x20 ADD DUP1 DUP4 GT PUSH2 0x8AD JUMPI DUP3 SWAP1 SUB PUSH1 0x1F AND DUP3 ADD SWAP2 JUMPDEST POP POP POP POP POP SWAP1 POP SWAP1 JUMP JUMPDEST PUSH1 0x0 CALLER PUSH2 0x8E2 DUP2 DUP6 DUP6 PUSH2 0x188B JUMP JUMPDEST PUSH1 0x1 SWAP2 POP POP JUMPDEST SWAP3 SWAP2 POP POP JUMP JUMPDEST PUSH2 0x8FA PUSH1 0x12 PUSH1 0xA PUSH2 0x2230 JUMP JUMPDEST PUSH2 0x905 SWAP1 PUSH1 0x2 PUSH2 0x223F JUMP JUMPDEST DUP2 JUMP JUMPDEST PUSH2 0x910 PUSH2 0x1828 JUMP JUMPDEST PUSH1 0x1 PUSH1 0x1 PUSH1 0xA0 SHL SUB DUP5 AND PUSH2 0x936 JUMPI PUSH1 0x40 MLOAD PUSH3 0x461BCD PUSH1 0xE5 SHL DUP2 MSTORE PUSH1 0x4 ADD PUSH2 0x6E6 SWAP1 PUSH2 0x2108 JUMP JUMPDEST PUSH2 0x4B0 DUP3 LT ISZERO PUSH2 0x988 JUMPI PUSH1 0x40 MLOAD PUSH3 0x461BCD PUSH1 0xE5 SHL DUP2 MSTORE PUSH1 0x20 PUSH1 0x4 DUP3 ADD MSTORE PUSH1 0x1B PUSH1 0x24 DUP3 ADD MSTORE PUSH32 0x4D696E696D756D203230206D696E757465732072657175697265640000000000 PUSH1 0x44 DUP3 ADD MSTORE PUSH1 0x64 ADD PUSH2 0x6E6 JUMP JUMPDEST DUP1 PUSH2 0x9D5 JUMPI PUSH1 0x40 MLOAD PUSH3 0x461BCD PUSH1 0xE5 SHL DUP2 MSTORE PUSH1 0x20 PUSH1 0x4 DUP3 ADD MSTORE PUSH1 0x1B PUSH1 0x24 DUP3 ADD MSTORE PUSH32 0x4D75737420686176652070726F70657220656E676167656D656E740000000000 PUSH1 0x44 DUP3 ADD MSTORE PUSH1 0x64 ADD PUSH2 0x6E6 JUMP JUMPDEST PUSH1 0x1 PUSH1 0x1 PUSH1 0xA0 SHL SUB DUP5 AND PUSH1 0x0 SWAP1 DUP2 MSTORE PUSH1 0xB PUSH1 0x20 MSTORE PUSH1 0x40 DUP2 KECCAK256 DUP1 SLOAD SWAP2 PUSH2 0x9F9 DUP4 PUSH2 0x22C5 JUMP JUMPDEST SWAP2 SWAP1 POP SSTORE POP PUSH2 0xA07 DUP5 PUSH2 0x189D JUMP JUMPDEST PUSH1 0x0 PUSH2 0xA15 PUSH1 0x12 PUSH1 0xA PUSH2 0x2230 JUMP JUMPDEST PUSH2 0xA20 SWAP1 PUSH1 0x2 PUSH2 0x223F JUMP JUMPDEST PUSH1 0x1 PUSH1 0x1 PUSH1 0xA0 SHL SUB DUP7 AND PUSH1 0x0 SWAP1 DUP2 MSTORE PUSH1 0x8 PUSH1 0x20 MSTORE PUSH1 0x40 SWAP1 KECCAK256 SLOAD PUSH2 0xA43 SWAP2 SWAP1 PUSH2 0x223F JUMP JUMPDEST SWAP1 POP PUSH1 0x0 DUP2 PUSH2 0xA54 PUSH1 0x12 PUSH1 0xA PUSH2 0x2230 JUMP JUMPDEST PUSH2 0xA5F SWAP1 PUSH1 0xA PUSH2 0x223F JUMP JUMPDEST PUSH2 0xA69 SWAP2 SWAP1 PUSH2 0x2278 JUMP JUMPDEST SWAP1 POP PUSH2 0xA75 DUP7 DUP3 PUSH2 0x1855 JUMP JUMPDEST PUSH1 0x1 PUSH1 0x1 PUSH1 0xA0 SHL SUB DUP7 AND PUSH1 0x0 SWAP1 DUP2 MSTORE PUSH1 0x6 PUSH1 0x20 MSTORE PUSH1 0x40 DUP2 KECCAK256 DUP1 SLOAD DUP4 SWAP3 SWAP1 PUSH2 0xA9D SWAP1 DUP5 SWAP1 PUSH2 0x2278 JUMP JUMPDEST SWAP1 SWAP2 SSTORE POP POP PUSH1 0x1 PUSH1 0x1 PUSH1 0xA0 SHL SUB DUP7 AND PUSH1 0x0 DUP2 DUP2 MSTORE PUSH1 0x7 PUSH1 0x20 SWAP1 DUP2 MSTORE PUSH1 0x40 SWAP2 DUP3 SWAP1 KECCAK256 TIMESTAMP SWAP1 SSTORE DUP2 MLOAD DUP9 DUP2 MSTORE SWAP1 DUP2 ADD DUP5 SWAP1 MSTORE PUSH32 0x5948E5593B9F60E79646653D7BD7E88BE2DC92A187D9DA2A8FA4CA72CD19DC56 SWAP2 ADD PUSH1 0x40 MLOAD DUP1 SWAP2 SUB SWAP1 LOG2 DUP2 ISZERO PUSH2 0xB51 JUMPI PUSH1 0x1 PUSH1 0x1 PUSH1 0xA0 SHL SUB DUP7 AND PUSH1 0x0 DUP2 DUP2 MSTORE PUSH1 0x8 PUSH1 0x20 SWAP1 DUP2 MSTORE PUSH1 0x40 SWAP2 DUP3 SWAP1 KECCAK256 SLOAD DUP3 MLOAD SWAP1 DUP2 MSTORE SWAP1 DUP2 ADD DUP6 SWAP1 MSTORE PUSH32 0xA519D944B5CDC3948B2305A1DDAE2B87EB2AB4EA30C454E2C9E1B423F5417B18 SWAP2 ADD PUSH1 0x40 MLOAD DUP1 SWAP2 SUB SWAP1 LOG2 JUMPDEST POP POP POP POP POP POP JUMP JUMPDEST PUSH2 0xE10 PUSH2 0xB68 PUSH1 0x12 PUSH1 0xA PUSH2 0x2230 JUMP JUMPDEST PUSH2 0xB73 SWAP1 PUSH1 0x1 PUSH2 0x223F JUMP JUMPDEST PUSH2 0x905 SWAP2 SWAP1 PUSH2 0x2256 JUMP JUMPDEST PUSH2 0xB89 PUSH1 0x12 PUSH1 0xA PUSH2 0x2230 JUMP JUMPDEST PUSH2 0x905 SWAP1 PUSH1 0x64 PUSH2 0x223F JUMP JUMPDEST PUSH2 0xB9C PUSH2 0x1828 JUMP JUMPDEST PUSH1 0x1 PUSH1 0x1 PUSH1 0xA0 SHL SUB DUP3 AND PUSH2 0xBC2 JUMPI PUSH1 0x40 MLOAD PUSH3 0x461BCD PUSH1 0xE5 SHL DUP2 MSTORE PUSH1 0x4 ADD PUSH2 0x6E6 SWAP1 PUSH2 0x2108 JUMP JUMPDEST PUSH1 0x1 PUSH1 0x1 PUSH1 0xA0 SHL SUB DUP3 AND PUSH1 0x0 SWAP1 DUP2 MSTORE PUSH1 0xA PUSH1 0x20 MSTORE PUSH1 0x40 DUP2 KECCAK256 DUP1 SLOAD SWAP2 PUSH2 0xBE6 DUP4 PUSH2 0x22C5 JUMP JUMPDEST SWAP1 SWAP2 SSTORE POP POP PUSH1 0x40 DUP1 MLOAD DUP3 DUP2 MSTORE TIMESTAMP PUSH1 0x20 DUP3 ADD MSTORE PUSH1 0x1 PUSH1 0x1 PUSH1 0xA0 SHL SUB DUP5 AND SWAP2 PUSH32 0x10DB192BDA3320A608015A66C352DB52ED6407D3FDF9DCB5AC728B8A7ED9B2EE SWAP2 ADD JUMPDEST PUSH1 0x40 MLOAD DUP1 SWAP2 SUB SWAP1 LOG2 POP POP JUMP JUMPDEST PUSH2 0xC3B PUSH2 0x1828 JUMP JUMPDEST PUSH1 0x1 PUSH1 0x1 PUSH1 0xA0 SHL SUB DUP4 AND ISZERO DUP1 ISZERO SWAP1 PUSH2 0xC5B JUMPI POP PUSH1 0x1 PUSH1 0x1 PUSH1 0xA0 SHL SUB DUP3 AND ISZERO ISZERO JUMPDEST PUSH2 0xC9B JUMPI PUSH1 0x40 MLOAD PUSH3 0x461BCD PUSH1 0xE5 SHL DUP2 MSTORE PUSH1 0x20 PUSH1 0x4 DUP3 ADD MSTORE PUSH1 0x11 PUSH1 0x24 DUP3 ADD MSTORE PUSH17 0x496E76616C696420616464726573736573 PUSH1 0x78 SHL PUSH1 0x44 DUP3 ADD MSTORE PUSH1 0x64 ADD PUSH2 0x6E6 JUMP JUMPDEST PUSH1 0x0 DUP2 GT PUSH2 0xCBB JUMPI PUSH1 0x40 MLOAD PUSH3 0x461BCD PUSH1 0xE5 SHL DUP2 MSTORE PUSH1 0x4 ADD PUSH2 0x6E6 SWAP1 PUSH2 0x22DE JUMP JUMPDEST DUP1 PUSH2 0xCDB DUP5 PUSH1 0x1 PUSH1 0x1 PUSH1 0xA0 SHL SUB AND PUSH1 0x0 SWAP1 DUP2 MSTORE PUSH1 0x20 DUP2 SWAP1 MSTORE PUSH1 0x40 SWAP1 KECCAK256 SLOAD SWAP1 JUMP JUMPDEST LT ISZERO PUSH2 0xD20 JUMPI PUSH1 0x40 MLOAD PUSH3 0x461BCD PUSH1 0xE5 SHL DUP2 MSTORE PUSH1 0x20 PUSH1 0x4 DUP3 ADD MSTORE PUSH1 0x14 PUSH1 0x24 DUP3 ADD MSTORE PUSH20 0x496E73756666696369656E742062616C616E6365 PUSH1 0x60 SHL PUSH1 0x44 DUP3 ADD MSTORE PUSH1 0x64 ADD PUSH2 0x6E6 JUMP JUMPDEST PUSH2 0xD2A DUP4 DUP3 PUSH2 0x1975 JUMP JUMPDEST PUSH2 0xD34 DUP3 DUP3 PUSH2 0x1855 JUMP JUMPDEST DUP2 PUSH1 0x1 PUSH1 0x1 PUSH1 0xA0 SHL SUB AND DUP4 PUSH1 0x1 PUSH1 0x1 PUSH1 0xA0 SHL SUB AND PUSH32 0x28A9B8D463C04418869E8E75DFDA2F6904873BB0D93BD85E76D2A1F7BC185360 DUP4 PUSH1 0x40 MLOAD PUSH2 0xD79 SWAP2 DUP2 MSTORE PUSH1 0x20 ADD SWAP1 JUMP JUMPDEST PUSH1 0x40 MLOAD DUP1 SWAP2 SUB SWAP1 LOG3 POP POP POP JUMP JUMPDEST PUSH1 0x0 CALLER PUSH2 0xD94 DUP6 DUP3 DUP6 PUSH2 0x19AB JUMP JUMPDEST PUSH2 0xD9F DUP6 DUP6 DUP6 PUSH2 0x1A2A JUMP JUMPDEST POP PUSH1 0x1 SWAP5 SWAP4 POP POP POP POP JUMP JUMPDEST PUSH2 0xDB2 PUSH2 0x1828 JUMP JUMPDEST DUP2 PUSH2 0xDFF JUMPI PUSH1 0x40 MLOAD PUSH3 0x461BCD PUSH1 0xE5 SHL DUP2 MSTORE PUSH1 0x20 PUSH1 0x4 DUP3 ADD DUP2 SWAP1 MSTORE PUSH1 0x24 DUP3 ADD MSTORE PUSH32 0x526563697069656E74732061727261792063616E6E6F7420626520656D707479 PUSH1 0x44 DUP3 ADD MSTORE PUSH1 0x64 ADD PUSH2 0x6E6 JUMP JUMPDEST PUSH1 0x0 DUP2 GT PUSH2 0xE1F JUMPI PUSH1 0x40 MLOAD PUSH3 0x461BCD PUSH1 0xE5 SHL DUP2 MSTORE PUSH1 0x4 ADD PUSH2 0x6E6 SWAP1 PUSH2 0x22DE JUMP JUMPDEST PUSH1 0x0 PUSH2 0xE2B DUP4 DUP4 PUSH2 0x223F JUMP JUMPDEST CALLER PUSH1 0x0 SWAP1 DUP2 MSTORE PUSH1 0x20 DUP2 SWAP1 MSTORE PUSH1 0x40 SWAP1 KECCAK256 SLOAD SWAP1 SWAP2 POP DUP2 GT ISZERO PUSH2 0xE5D JUMPI PUSH1 0x40 MLOAD PUSH3 0x461BCD PUSH1 0xE5 SHL DUP2 MSTORE PUSH1 0x4 ADD PUSH2 0x6E6 SWAP1 PUSH2 0x2313 JUMP JUMPDEST PUSH1 0x0 JUMPDEST DUP4 DUP2 LT ISZERO PUSH2 0xF2A JUMPI PUSH1 0x0 DUP6 DUP6 DUP4 DUP2 DUP2 LT PUSH2 0xE7C JUMPI PUSH2 0xE7C PUSH2 0x2358 JUMP JUMPDEST SWAP1 POP PUSH1 0x20 MUL ADD PUSH1 0x20 DUP2 ADD SWAP1 PUSH2 0xE91 SWAP2 SWAP1 PUSH2 0x1E82 JUMP JUMPDEST PUSH1 0x1 PUSH1 0x1 PUSH1 0xA0 SHL SUB AND SUB PUSH2 0xEE7 JUMPI PUSH1 0x40 MLOAD PUSH3 0x461BCD PUSH1 0xE5 SHL DUP2 MSTORE PUSH1 0x20 PUSH1 0x4 DUP3 ADD MSTORE PUSH1 0x1B PUSH1 0x24 DUP3 ADD MSTORE PUSH32 0x43616E6E6F742073656E6420746F207A65726F20616464726573730000000000 PUSH1 0x44 DUP3 ADD MSTORE PUSH1 0x64 ADD PUSH2 0x6E6 JUMP JUMPDEST PUSH2 0xF18 CALLER DUP7 DUP7 DUP5 DUP2 DUP2 LT PUSH2 0xEFD JUMPI PUSH2 0xEFD PUSH2 0x2358 JUMP JUMPDEST SWAP1 POP PUSH1 0x20 MUL ADD PUSH1 0x20 DUP2 ADD SWAP1 PUSH2 0xF12 SWAP2 SWAP1 PUSH2 0x1E82 JUMP JUMPDEST DUP6 PUSH2 0x1A2A JUMP JUMPDEST DUP1 PUSH2 0xF22 DUP2 PUSH2 0x22C5 JUMP JUMPDEST SWAP2 POP POP PUSH2 0xE60 JUMP JUMPDEST POP PUSH1 0x40 DUP1 MLOAD DUP5 DUP2 MSTORE PUSH1 0x20 DUP2 ADD DUP5 SWAP1 MSTORE SWAP1 DUP2 ADD DUP3 SWAP1 MSTORE PUSH32 0x617D1F92F8EBE68377709FA92CD3C2CB90153D5ACD8390DB69E0492406B14FA2 SWAP1 PUSH1 0x60 ADD PUSH1 0x40 MLOAD DUP1 SWAP2 SUB SWAP1 LOG1 POP POP POP POP JUMP JUMPDEST PUSH2 0xF7A PUSH2 0x1828 JUMP JUMPDEST DUP3 PUSH2 0xFC7 JUMPI PUSH1 0x40 MLOAD PUSH3 0x461BCD PUSH1 0xE5 SHL DUP2 MSTORE PUSH1 0x20 PUSH1 0x4 DUP3 ADD DUP2 SWAP1 MSTORE PUSH1 0x24 DUP3 ADD MSTORE PUSH32 0x526563697069656E74732061727261792063616E6E6F7420626520656D707479 PUSH1 0x44 DUP3 ADD MSTORE PUSH1 0x64 ADD PUSH2 0x6E6 JUMP JUMPDEST DUP3 DUP2 EQ PUSH2 0x100F JUMPI PUSH1 0x40 MLOAD PUSH3 0x461BCD PUSH1 0xE5 SHL DUP2 MSTORE PUSH1 0x20 PUSH1 0x4 DUP3 ADD MSTORE PUSH1 0x16 PUSH1 0x24 DUP3 ADD MSTORE PUSH22 0x82E4E4C2F2E640D8CADCCEE8D040DAD2E6DAC2E8C6D PUSH1 0x53 SHL PUSH1 0x44 DUP3 ADD MSTORE PUSH1 0x64 ADD PUSH2 0x6E6 JUMP JUMPDEST PUSH1 0x0 DUP1 JUMPDEST DUP3 DUP2 LT ISZERO PUSH2 0x108B JUMPI PUSH1 0x0 DUP5 DUP5 DUP4 DUP2 DUP2 LT PUSH2 0x102F JUMPI PUSH2 0x102F PUSH2 0x2358 JUMP JUMPDEST SWAP1 POP PUSH1 0x20 MUL ADD CALLDATALOAD GT PUSH2 0x1053 JUMPI PUSH1 0x40 MLOAD PUSH3 0x461BCD PUSH1 0xE5 SHL DUP2 MSTORE PUSH1 0x4 ADD PUSH2 0x6E6 SWAP1 PUSH2 0x22DE JUMP JUMPDEST DUP4 DUP4 DUP3 DUP2 DUP2 LT PUSH2 0x1065 JUMPI PUSH2 0x1065 PUSH2 0x2358 JUMP JUMPDEST SWAP1 POP PUSH1 0x20 MUL ADD CALLDATALOAD DUP3 PUSH2 0x1077 SWAP2 SWAP1 PUSH2 0x2278 JUMP JUMPDEST SWAP2 POP DUP1 PUSH2 0x1083 DUP2 PUSH2 0x22C5 JUMP JUMPDEST SWAP2 POP POP PUSH2 0x1013 JUMP JUMPDEST POP CALLER PUSH1 0x0 SWAP1 DUP2 MSTORE PUSH1 0x20 DUP2 SWAP1 MSTORE PUSH1 0x40 SWAP1 KECCAK256 SLOAD DUP2 GT ISZERO PUSH2 0x10BB JUMPI PUSH1 0x40 MLOAD PUSH3 0x461BCD PUSH1 0xE5 SHL DUP2 MSTORE PUSH1 0x4 ADD PUSH2 0x6E6 SWAP1 PUSH2 0x2313 JUMP JUMPDEST PUSH1 0x0 JUMPDEST DUP5 DUP2 LT ISZERO PUSH2 0x11A0 JUMPI PUSH1 0x0 DUP7 DUP7 DUP4 DUP2 DUP2 LT PUSH2 0x10DA JUMPI PUSH2 0x10DA PUSH2 0x2358 JUMP JUMPDEST SWAP1 POP PUSH1 0x20 MUL ADD PUSH1 0x20 DUP2 ADD SWAP1 PUSH2 0x10EF SWAP2 SWAP1 PUSH2 0x1E82 JUMP JUMPDEST PUSH1 0x1 PUSH1 0x1 PUSH1 0xA0 SHL SUB AND SUB PUSH2 0x1145 JUMPI PUSH1 0x40 MLOAD PUSH3 0x461BCD PUSH1 0xE5 SHL DUP2 MSTORE PUSH1 0x20 PUSH1 0x4 DUP3 ADD MSTORE PUSH1 0x1B PUSH1 0x24 DUP3 ADD MSTORE PUSH32 0x43616E6E6F742073656E6420746F207A65726F20616464726573730000000000 PUSH1 0x44 DUP3 ADD MSTORE PUSH1 0x64 ADD PUSH2 0x6E6 JUMP JUMPDEST PUSH2 0x118E CALLER DUP8 DUP8 DUP5 DUP2 DUP2 LT PUSH2 0x115B JUMPI PUSH2 0x115B PUSH2 0x2358 JUMP JUMPDEST SWAP1 POP PUSH1 0x20 MUL ADD PUSH1 0x20 DUP2 ADD SWAP1 PUSH2 0x1170 SWAP2 SWAP1 PUSH2 0x1E82 JUMP JUMPDEST DUP7 DUP7 DUP6 DUP2 DUP2 LT PUSH2 0x1182 JUMPI PUSH2 0x1182 PUSH2 0x2358 JUMP JUMPDEST SWAP1 POP PUSH1 0x20 MUL ADD CALLDATALOAD PUSH2 0x1A2A JUMP JUMPDEST DUP1 PUSH2 0x1198 DUP2 PUSH2 0x22C5 JUMP JUMPDEST SWAP2 POP POP PUSH2 0x10BE JUMP JUMPDEST POP PUSH1 0x40 DUP1 MLOAD DUP6 DUP2 MSTORE PUSH1 0x20 DUP2 ADD DUP4 SWAP1 MSTORE PUSH32 0x9A89C1507D66648ABC14BF8B86434E80B02997727CC0AD1DACBE57E85991841C SWAP2 ADD PUSH1 0x40 MLOAD DUP1 SWAP2 SUB SWAP1 LOG1 POP POP POP POP POP JUMP JUMPDEST PUSH2 0x11E9 PUSH2 0x1828 JUMP JUMPDEST PUSH1 0x1 PUSH1 0x1 PUSH1 0xA0 SHL SUB DUP2 AND PUSH2 0x120F JUMPI PUSH1 0x40 MLOAD PUSH3 0x461BCD PUSH1 0xE5 SHL DUP2 MSTORE PUSH1 0x4 ADD PUSH2 0x6E6 SWAP1 PUSH2 0x2108 JUMP JUMPDEST PUSH1 0x1 PUSH1 0x1 PUSH1 0xA0 SHL SUB DUP2 AND PUSH1 0x0 SWAP1 DUP2 MSTORE PUSH1 0x8 PUSH1 0x20 MSTORE PUSH1 0x40 SWAP1 KECCAK256 SLOAD PUSH2 0x126A JUMPI PUSH1 0x40 MLOAD PUSH3 0x461BCD PUSH1 0xE5 SHL DUP2 MSTORE PUSH1 0x20 PUSH1 0x4 DUP3 ADD MSTORE PUSH1 0x13 PUSH1 0x24 DUP3 ADD MSTORE PUSH19 0x4E6F20636F6E73656375746976652064617973 PUSH1 0x68 SHL PUSH1 0x44 DUP3 ADD MSTORE PUSH1 0x64 ADD PUSH2 0x6E6 JUMP JUMPDEST PUSH1 0x0 PUSH2 0x1278 PUSH1 0x12 PUSH1 0xA PUSH2 0x2230 JUMP JUMPDEST PUSH2 0x1283 SWAP1 PUSH1 0x2 PUSH2 0x223F JUMP JUMPDEST PUSH1 0x1 PUSH1 0x1 PUSH1 0xA0 SHL SUB DUP4 AND PUSH1 0x0 SWAP1 DUP2 MSTORE PUSH1 0x8 PUSH1 0x20 MSTORE PUSH1 0x40 SWAP1 KECCAK256 SLOAD PUSH2 0x12A6 SWAP2 SWAP1 PUSH2 0x223F JUMP JUMPDEST SWAP1 POP PUSH2 0x12B2 DUP3 DUP3 PUSH2 0x1855 JUMP JUMPDEST PUSH1 0x1 PUSH1 0x1 PUSH1 0xA0 SHL SUB DUP3 AND PUSH1 0x0 DUP2 DUP2 MSTORE PUSH1 0x8 PUSH1 0x20 SWAP1 DUP2 MSTORE PUSH1 0x40 SWAP2 DUP3 SWAP1 KECCAK256 SLOAD DUP3 MLOAD SWAP1 DUP2 MSTORE SWAP1 DUP2 ADD DUP5 SWAP1 MSTORE PUSH32 0xA519D944B5CDC3948B2305A1DDAE2B87EB2AB4EA30C454E2C9E1B423F5417B18 SWAP2 ADD PUSH2 0xC27 JUMP JUMPDEST PUSH2 0x130E PUSH1 0x12 PUSH1 0xA PUSH2 0x2230 JUMP JUMPDEST PUSH2 0x905 SWAP1 PUSH3 0x989680 PUSH2 0x223F JUMP JUMPDEST PUSH2 0x1323 PUSH2 0x1828 JUMP JUMPDEST PUSH2 0x132B PUSH2 0x1A89 JUMP JUMPDEST JUMP JUMPDEST PUSH2 0x1335 PUSH2 0x1828 JUMP JUMPDEST PUSH1 0x1 PUSH1 0x1 PUSH1 0xA0 SHL SUB DUP3 AND PUSH2 0x138B JUMPI PUSH1 0x40 MLOAD PUSH3 0x461BCD PUSH1 0xE5 SHL DUP2 MSTORE PUSH1 0x20 PUSH1 0x4 DUP3 ADD MSTORE PUSH1 0x1B PUSH1 0x24 DUP3 ADD MSTORE PUSH32 0x43616E6E6F74206D696E7420746F207A65726F20616464726573730000000000 PUSH1 0x44 DUP3 ADD MSTORE PUSH1 0x64 ADD PUSH2 0x6E6 JUMP JUMPDEST PUSH2 0x1397 PUSH1 0x12 PUSH1 0xA PUSH2 0x2230 JUMP JUMPDEST PUSH2 0x13A4 SWAP1 PUSH3 0x989680 PUSH2 0x223F JUMP JUMPDEST DUP2 PUSH2 0x13AE PUSH1 0x2 SLOAD SWAP1 JUMP JUMPDEST PUSH2 0x13B8 SWAP2 SWAP1 PUSH2 0x2278 JUMP JUMPDEST GT ISZERO PUSH2 0x1406 JUMPI PUSH1 0x40 MLOAD PUSH3 0x461BCD PUSH1 0xE5 SHL DUP2 MSTORE PUSH1 0x20 PUSH1 0x4 DUP3 ADD MSTORE PUSH1 0x17 PUSH1 0x24 DUP3 ADD MSTORE PUSH32 0x576F756C6420657863656564206D617820737570706C79000000000000000000 PUSH1 0x44 DUP3 ADD MSTORE PUSH1 0x64 ADD PUSH2 0x6E6 JUMP JUMPDEST PUSH2 0x1410 DUP3 DUP3 PUSH2 0x1855 JUMP JUMPDEST POP POP JUMP JUMPDEST PUSH2 0x1420 PUSH1 0x12 PUSH1 0xA PUSH2 0x2230 JUMP JUMPDEST PUSH2 0x905 SWAP1 PUSH1 0x5 PUSH2 0x223F JUMP JUMPDEST PUSH2 0x1433 PUSH2 0x1828 JUMP JUMPDEST PUSH2 0x132B PUSH1 0x0 PUSH2 0x1ADE JUMP JUMPDEST PUSH2 0x1445 PUSH2 0x1828 JUMP JUMPDEST PUSH2 0x132B PUSH2 0x1B30 JUMP JUMPDEST PUSH1 0x60 PUSH1 0x4 DUP1 SLOAD PUSH2 0x851 SWAP1 PUSH2 0x228B JUMP JUMPDEST PUSH2 0x1464 PUSH2 0x1828 JUMP JUMPDEST PUSH1 0x1 PUSH1 0x1 PUSH1 0xA0 SHL SUB DUP4 AND PUSH2 0x148A JUMPI PUSH1 0x40 MLOAD PUSH3 0x461BCD PUSH1 0xE5 SHL DUP2 MSTORE PUSH1 0x4 ADD PUSH2 0x6E6 SWAP1 PUSH2 0x2108 JUMP JUMPDEST PUSH1 0x46 DUP2 LT ISZERO PUSH2 0x14DB JUMPI PUSH1 0x40 MLOAD PUSH3 0x461BCD PUSH1 0xE5 SHL DUP2 MSTORE PUSH1 0x20 PUSH1 0x4 DUP3 ADD MSTORE PUSH1 0x1F PUSH1 0x24 DUP3 ADD MSTORE PUSH32 0x4D7573742073636F7265206174206C656173742037302520746F207061737300 PUSH1 0x44 DUP3 ADD MSTORE PUSH1 0x64 ADD PUSH2 0x6E6 JUMP JUMPDEST PUSH1 0x1 PUSH1 0x1 PUSH1 0xA0 SHL SUB DUP4 AND PUSH1 0x0 SWAP1 DUP2 MSTORE PUSH1 0xC PUSH1 0x20 MSTORE PUSH1 0x40 DUP2 KECCAK256 DUP1 SLOAD SWAP2 PUSH2 0x14FF DUP4 PUSH2 0x22C5 JUMP JUMPDEST SWAP1 SWAP2 SSTORE POP PUSH2 0x1525 SWAP1 POP DUP4 PUSH2 0x1515 PUSH1 0x12 PUSH1 0xA PUSH2 0x2230 JUMP JUMPDEST PUSH2 0x1520 SWAP1 PUSH1 0x5 PUSH2 0x223F JUMP JUMPDEST PUSH2 0x1855 JUMP JUMPDEST PUSH2 0x1531 PUSH1 0x12 PUSH1 0xA PUSH2 0x2230 JUMP JUMPDEST PUSH2 0x153C SWAP1 PUSH1 0x5 PUSH2 0x223F JUMP JUMPDEST PUSH1 0x1 PUSH1 0x1 PUSH1 0xA0 SHL SUB DUP5 AND PUSH1 0x0 SWAP1 DUP2 MSTORE PUSH1 0x6 PUSH1 0x20 MSTORE PUSH1 0x40 DUP2 KECCAK256 DUP1 SLOAD SWAP1 SWAP2 SWAP1 PUSH2 0x1564 SWAP1 DUP5 SWAP1 PUSH2 0x2278 JUMP JUMPDEST SWAP1 SWAP2 SSTORE POP POP PUSH1 0x1 PUSH1 0x1 PUSH1 0xA0 SHL SUB DUP4 AND PUSH32 0x2EA3E42150C3D626523048DCB8F1E14C2CE2721AF2EBAF663BF290F3CCD3608C DUP4 PUSH2 0x15A1 PUSH1 0x12 PUSH1 0xA PUSH2 0x2230 JUMP JUMPDEST PUSH2 0x15AC SWAP1 PUSH1 0x5 PUSH2 0x223F JUMP JUMPDEST PUSH1 0x40 DUP1 MLOAD SWAP3 DUP4 MSTORE PUSH1 0x20 DUP4 ADD SWAP2 SWAP1 SWAP2 MSTORE ADD PUSH1 0x40 MLOAD DUP1 SWAP2 SUB SWAP1 LOG2 POP POP POP JUMP JUMPDEST PUSH1 0x0 CALLER PUSH2 0x8E2 DUP2 DUP6 DUP6 PUSH2 0x1A2A JUMP JUMPDEST PUSH2 0xE10 PUSH2 0x15E6 PUSH1 0x12 PUSH1 0xA PUSH2 0x2230 JUMP JUMPDEST PUSH2 0xB73 SWAP1 PUSH1 0x2 PUSH2 0x223F JUMP JUMPDEST PUSH2 0x15F9 PUSH2 0x1828 JUMP JUMPDEST PUSH1 0x1 PUSH1 0x1 PUSH1 0xA0 SHL SUB DUP3 AND PUSH2 0x164F JUMPI PUSH1 0x40 MLOAD PUSH3 0x461BCD PUSH1 0xE5 SHL DUP2 MSTORE PUSH1 0x20 PUSH1 0x4 DUP3 ADD MSTORE PUSH1 0x1B PUSH1 0x24 DUP3 ADD MSTORE PUSH32 0x43616E6E6F74206D696E7420746F207A65726F20616464726573730000000000 PUSH1 0x44 DUP3 ADD MSTORE PUSH1 0x64 ADD PUSH2 0x6E6 JUMP JUMPDEST PUSH1 0x0 DUP2 GT PUSH2 0x166F JUMPI PUSH1 0x40 MLOAD PUSH3 0x461BCD PUSH1 0xE5 SHL DUP2 MSTORE PUSH1 0x4 ADD PUSH2 0x6E6 SWAP1 PUSH2 0x22DE JUMP JUMPDEST PUSH2 0x1679 DUP3 DUP3 PUSH2 0x1855 JUMP JUMPDEST PUSH1 0x40 DUP1 MLOAD DUP3 DUP2 MSTORE PUSH1 0x0 PUSH1 0x20 DUP3 ADD MSTORE PUSH1 0x1 PUSH1 0x1 PUSH1 0xA0 SHL SUB DUP5 AND SWAP2 PUSH32 0x46967747BB1F1579BBAC8937F261E0D96B56F10AB55BF3458FBA94C74E7E45D6 SWAP2 ADD PUSH2 0xC27 JUMP JUMPDEST PUSH2 0x16C2 PUSH2 0x1828 JUMP JUMPDEST PUSH1 0x1 PUSH1 0x1 PUSH1 0xA0 SHL SUB DUP2 AND PUSH2 0x16E8 JUMPI PUSH1 0x40 MLOAD PUSH3 0x461BCD PUSH1 0xE5 SHL DUP2 MSTORE PUSH1 0x4 ADD PUSH2 0x6E6 SWAP1 PUSH2 0x2108 JUMP JUMPDEST PUSH2 0x16F4 PUSH1 0x12 PUSH1 0xA PUSH2 0x2230 JUMP JUMPDEST PUSH2 0x16FF SWAP1 PUSH1 0x64 PUSH2 0x223F JUMP JUMPDEST PUSH1 0x1 PUSH1 0x1 PUSH1 0xA0 SHL SUB DUP3 AND PUSH1 0x0 SWAP1 DUP2 MSTORE PUSH1 0x20 DUP2 SWAP1 MSTORE PUSH1 0x40 SWAP1 KECCAK256 SLOAD LT ISZERO PUSH2 0x175D JUMPI PUSH1 0x40 MLOAD PUSH3 0x461BCD PUSH1 0xE5 SHL DUP2 MSTORE PUSH1 0x20 PUSH1 0x4 DUP3 ADD MSTORE PUSH1 0x14 PUSH1 0x24 DUP3 ADD MSTORE PUSH20 0x496E73756666696369656E742062616C616E6365 PUSH1 0x60 SHL PUSH1 0x44 DUP3 ADD MSTORE PUSH1 0x64 ADD PUSH2 0x6E6 JUMP JUMPDEST PUSH2 0x177D DUP2 PUSH2 0x176D PUSH1 0x12 PUSH1 0xA PUSH2 0x2230 JUMP JUMPDEST PUSH2 0x1778 SWAP1 PUSH1 0x64 PUSH2 0x223F JUMP JUMPDEST PUSH2 0x1975 JUMP JUMPDEST PUSH1 0x1 PUSH1 0x1 PUSH1 0xA0 SHL SUB DUP2 AND PUSH32 0x15A04C1951705FD03AA7731AF55CA5A7D93F472B3CA5DE8F8762C054ED186D56 PUSH2 0x17B4 PUSH1 0x12 PUSH1 0xA PUSH2 0x2230 JUMP JUMPDEST PUSH2 0x17BF SWAP1 PUSH1 0x64 PUSH2 0x223F JUMP JUMPDEST PUSH1 0x40 MLOAD SWAP1 DUP2 MSTORE PUSH1 0x20 ADD PUSH1 0x40 MLOAD DUP1 SWAP2 SUB SWAP1 LOG2 POP JUMP JUMPDEST PUSH2 0x17DB PUSH2 0x1828 JUMP JUMPDEST PUSH1 0x1 PUSH1 0x1 PUSH1 0xA0 SHL SUB DUP2 AND PUSH2 0x1805 JUMPI PUSH1 0x40 MLOAD PUSH4 0x1E4FBDF7 PUSH1 0xE0 SHL DUP2 MSTORE PUSH1 0x0 PUSH1 0x4 DUP3 ADD MSTORE PUSH1 0x24 ADD PUSH2 0x6E6 JUMP JUMPDEST PUSH2 0x180E DUP2 PUSH2 0x1ADE JUMP JUMPDEST POP JUMP JUMPDEST PUSH2 0x181D PUSH1 0x12 PUSH1 0xA PUSH2 0x2230 JUMP JUMPDEST PUSH2 0x905 SWAP1 PUSH1 0xA PUSH2 0x223F JUMP JUMPDEST PUSH1 0x5 SLOAD PUSH1 0x1 PUSH1 0x1 PUSH1 0xA0 SHL SUB AND CALLER EQ PUSH2 0x132B JUMPI PUSH1 0x40 MLOAD PUSH4 0x118CDAA7 PUSH1 0xE0 SHL DUP2 MSTORE CALLER PUSH1 0x4 DUP3 ADD MSTORE PUSH1 0x24 ADD PUSH2 0x6E6 JUMP JUMPDEST PUSH1 0x1 PUSH1 0x1 PUSH1 0xA0 SHL SUB DUP3 AND PUSH2 0x187F JUMPI PUSH1 0x40 MLOAD PUSH4 0xEC442F05 PUSH1 0xE0 SHL DUP2 MSTORE PUSH1 0x0 PUSH1 0x4 DUP3 ADD MSTORE PUSH1 0x24 ADD PUSH2 0x6E6 JUMP JUMPDEST PUSH2 0x1410 PUSH1 0x0 DUP4 DUP4 PUSH2 0x1B73 JUMP JUMPDEST PUSH2 0x1898 DUP4 DUP4 DUP4 PUSH1 0x1 PUSH2 0x1BD3 JUMP JUMPDEST POP POP POP JUMP JUMPDEST PUSH1 0x0 PUSH2 0x18AC PUSH3 0x15180 TIMESTAMP PUSH2 0x2256 JUMP JUMPDEST PUSH1 0x1 PUSH1 0x1 PUSH1 0xA0 SHL SUB DUP4 AND PUSH1 0x0 SWAP1 DUP2 MSTORE PUSH1 0x9 PUSH1 0x20 MSTORE PUSH1 0x40 DUP2 KECCAK256 SLOAD SWAP2 SWAP3 POP DUP2 SWAP1 SUB PUSH2 0x18F0 JUMPI PUSH1 0x1 PUSH1 0x1 PUSH1 0xA0 SHL SUB DUP4 AND PUSH1 0x0 SWAP1 DUP2 MSTORE PUSH1 0x8 PUSH1 0x20 MSTORE PUSH1 0x40 SWAP1 KECCAK256 PUSH1 0x1 SWAP1 SSTORE PUSH2 0x1958 JUMP JUMPDEST DUP1 DUP3 SUB PUSH2 0x18FC JUMPI POP POP POP JUMP JUMPDEST PUSH2 0x1907 DUP2 PUSH1 0x1 PUSH2 0x2278 JUMP JUMPDEST DUP3 SUB PUSH2 0x193B JUMPI PUSH1 0x1 PUSH1 0x1 PUSH1 0xA0 SHL SUB DUP4 AND PUSH1 0x0 SWAP1 DUP2 MSTORE PUSH1 0x8 PUSH1 0x20 MSTORE PUSH1 0x40 DUP2 KECCAK256 DUP1 SLOAD SWAP2 PUSH2 0x1931 DUP4 PUSH2 0x22C5 JUMP JUMPDEST SWAP2 SWAP1 POP SSTORE POP PUSH2 0x1958 JUMP JUMPDEST PUSH1 0x1 PUSH1 0x1 PUSH1 0xA0 SHL SUB DUP4 AND PUSH1 0x0 SWAP1 DUP2 MSTORE PUSH1 0x8 PUSH1 0x20 MSTORE PUSH1 0x40 SWAP1 KECCAK256 PUSH1 0x1 SWAP1 SSTORE JUMPDEST POP PUSH1 0x1 PUSH1 0x1 PUSH1 0xA0 SHL SUB SWAP1 SWAP2 AND PUSH1 0x0 SWAP1 DUP2 MSTORE PUSH1 0x9 PUSH1 0x20 MSTORE PUSH1 0x40 SWAP1 KECCAK256 SSTORE JUMP JUMPDEST PUSH1 0x1 PUSH1 0x1 PUSH1 0xA0 SHL SUB DUP3 AND PUSH2 0x199F JUMPI PUSH1 0x40 MLOAD PUSH4 0x4B637E8F PUSH1 0xE1 SHL DUP2 MSTORE PUSH1 0x0 PUSH1 0x4 DUP3 ADD MSTORE PUSH1 0x24 ADD PUSH2 0x6E6 JUMP JUMPDEST PUSH2 0x1410 DUP3 PUSH1 0x0 DUP4 PUSH2 0x1B73 JUMP JUMPDEST PUSH1 0x1 PUSH1 0x1 PUSH1 0xA0 SHL SUB DUP4 DUP2 AND PUSH1 0x0 SWAP1 DUP2 MSTORE PUSH1 0x1 PUSH1 0x20 SWAP1 DUP2 MSTORE PUSH1 0x40 DUP1 DUP4 KECCAK256 SWAP4 DUP7 AND DUP4 MSTORE SWAP3 SWAP1 MSTORE KECCAK256 SLOAD PUSH1 0x0 NOT DUP2 LT ISZERO PUSH2 0x1A24 JUMPI DUP2 DUP2 LT ISZERO PUSH2 0x1A15 JUMPI PUSH1 0x40 MLOAD PUSH4 0x7DC7A0D9 PUSH1 0xE1 SHL DUP2 MSTORE PUSH1 0x1 PUSH1 0x1 PUSH1 0xA0 SHL SUB DUP5 AND PUSH1 0x4 DUP3 ADD MSTORE PUSH1 0x24 DUP2 ADD DUP3 SWAP1 MSTORE PUSH1 0x44 DUP2 ADD DUP4 SWAP1 MSTORE PUSH1 0x64 ADD PUSH2 0x6E6 JUMP JUMPDEST PUSH2 0x1A24 DUP5 DUP5 DUP5 DUP5 SUB PUSH1 0x0 PUSH2 0x1BD3 JUMP JUMPDEST POP POP POP POP JUMP JUMPDEST PUSH1 0x1 PUSH1 0x1 PUSH1 0xA0 SHL SUB DUP4 AND PUSH2 0x1A54 JUMPI PUSH1 0x40 MLOAD PUSH4 0x4B637E8F PUSH1 0xE1 SHL DUP2 MSTORE PUSH1 0x0 PUSH1 0x4 DUP3 ADD MSTORE PUSH1 0x24 ADD PUSH2 0x6E6 JUMP JUMPDEST PUSH1 0x1 PUSH1 0x1 PUSH1 0xA0 SHL SUB DUP3 AND PUSH2 0x1A7E JUMPI PUSH1 0x40 MLOAD PUSH4 0xEC442F05 PUSH1 0xE0 SHL DUP2 MSTORE PUSH1 0x0 PUSH1 0x4 DUP3 ADD MSTORE PUSH1 0x24 ADD PUSH2 0x6E6 JUMP JUMPDEST PUSH2 0x1898 DUP4 DUP4 DUP4 PUSH2 0x1B73 JUMP JUMPDEST PUSH2 0x1A91 PUSH2 0x1CA8 JUMP JUMPDEST PUSH1 0x5 DUP1 SLOAD PUSH1 0xFF PUSH1 0xA0 SHL NOT AND SWAP1 SSTORE PUSH32 0x5DB9EE0A495BF2E6FF9C91A7834C1BA4FDD244A5E8AA4E537BD38AEAE4B073AA CALLER JUMPDEST PUSH1 0x40 MLOAD PUSH1 0x1 PUSH1 0x1 PUSH1 0xA0 SHL SUB SWAP1 SWAP2 AND DUP2 MSTORE PUSH1 0x20 ADD PUSH1 0x40 MLOAD DUP1 SWAP2 SUB SWAP1 LOG1 JUMP JUMPDEST PUSH1 0x5 DUP1 SLOAD PUSH1 0x1 PUSH1 0x1 PUSH1 0xA0 SHL SUB DUP4 DUP2 AND PUSH1 0x1 PUSH1 0x1 PUSH1 0xA0 SHL SUB NOT DUP4 AND DUP2 OR SWAP1 SWAP4 SSTORE PUSH1 0x40 MLOAD SWAP2 AND SWAP2 SWAP1 DUP3 SWAP1 PUSH32 0x8BE0079C531659141344CD1FD0A4F28419497F9722A3DAAFE3B4186F6B6457E0 SWAP1 PUSH1 0x0 SWAP1 LOG3 POP POP JUMP JUMPDEST PUSH2 0x1B38 PUSH2 0x1CD2 JUMP JUMPDEST PUSH1 0x5 DUP1 SLOAD PUSH1 0xFF PUSH1 0xA0 SHL NOT AND PUSH1 0x1 PUSH1 0xA0 SHL OR SWAP1 SSTORE PUSH32 0x62E78CEA01BEE320CD4E420270B5EA74000D11B0C9F74754EBDBFC544B05A258 PUSH2 0x1AC1 CALLER SWAP1 JUMP JUMPDEST PUSH2 0x1B7B PUSH2 0x1CD2 JUMP JUMPDEST PUSH1 0x5 SLOAD PUSH1 0x1 PUSH1 0xA0 SHL SWAP1 DIV PUSH1 0xFF AND ISZERO PUSH2 0x1BC8 JUMPI PUSH1 0x40 MLOAD PUSH3 0x461BCD PUSH1 0xE5 SHL DUP2 MSTORE PUSH1 0x20 PUSH1 0x4 DUP3 ADD MSTORE PUSH1 0x10 PUSH1 0x24 DUP3 ADD MSTORE PUSH16 0x14185D5CD8589B194E881C185D5CD959 PUSH1 0x82 SHL PUSH1 0x44 DUP3 ADD MSTORE PUSH1 0x64 ADD PUSH2 0x6E6 JUMP JUMPDEST PUSH2 0x1898 DUP4 DUP4 DUP4 PUSH2 0x1CFD JUMP JUMPDEST PUSH1 0x1 PUSH1 0x1 PUSH1 0xA0 SHL SUB DUP5 AND PUSH2 0x1BFD JUMPI PUSH1 0x40 MLOAD PUSH4 0xE602DF05 PUSH1 0xE0 SHL DUP2 MSTORE PUSH1 0x0 PUSH1 0x4 DUP3 ADD MSTORE PUSH1 0x24 ADD PUSH2 0x6E6 JUMP JUMPDEST PUSH1 0x1 PUSH1 0x1 PUSH1 0xA0 SHL SUB DUP4 AND PUSH2 0x1C27 JUMPI PUSH1 0x40 MLOAD PUSH4 0x4A1406B1 PUSH1 0xE1 SHL DUP2 MSTORE PUSH1 0x0 PUSH1 0x4 DUP3 ADD MSTORE PUSH1 0x24 ADD PUSH2 0x6E6 JUMP JUMPDEST PUSH1 0x1 PUSH1 0x1 PUSH1 0xA0 SHL SUB DUP1 DUP6 AND PUSH1 0x0 SWAP1 DUP2 MSTORE PUSH1 0x1 PUSH1 0x20 SWAP1 DUP2 MSTORE PUSH1 0x40 DUP1 DUP4 KECCAK256 SWAP4 DUP8 AND DUP4 MSTORE SWAP3 SWAP1 MSTORE KECCAK256 DUP3 SWAP1 SSTORE DUP1 ISZERO PUSH2 0x1A24 JUMPI DUP3 PUSH1 0x1 PUSH1 0x1 PUSH1 0xA0 SHL SUB AND DUP5 PUSH1 0x1 PUSH1 0x1 PUSH1 0xA0 SHL SUB AND PUSH32 0x8C5BE1E5EBEC7D5BD14F71427D1E84F3DD0314C0F7B2291E5B200AC8C7C3B925 DUP5 PUSH1 0x40 MLOAD PUSH2 0x1C9A SWAP2 DUP2 MSTORE PUSH1 0x20 ADD SWAP1 JUMP JUMPDEST PUSH1 0x40 MLOAD DUP1 SWAP2 SUB SWAP1 LOG3 POP POP POP POP JUMP JUMPDEST PUSH1 0x5 SLOAD PUSH1 0x1 PUSH1 0xA0 SHL SWAP1 DIV PUSH1 0xFF AND PUSH2 0x132B JUMPI PUSH1 0x40 MLOAD PUSH4 0x8DFC202B PUSH1 0xE0 SHL DUP2 MSTORE PUSH1 0x4 ADD PUSH1 0x40 MLOAD DUP1 SWAP2 SUB SWAP1 REVERT JUMPDEST PUSH1 0x5 SLOAD PUSH1 0x1 PUSH1 0xA0 SHL SWAP1 DIV PUSH1 0xFF AND ISZERO PUSH2 0x132B JUMPI PUSH1 0x40 MLOAD PUSH4 0xD93C0665 PUSH1 0xE0 SHL DUP2 MSTORE PUSH1 0x4 ADD PUSH1 0x40 MLOAD DUP1 SWAP2 SUB SWAP1 REVERT JUMPDEST PUSH1 0x1 PUSH1 0x1 PUSH1 0xA0 SHL SUB DUP4 AND PUSH2 0x1D28 JUMPI DUP1 PUSH1 0x2 PUSH1 0x0 DUP3 DUP3 SLOAD PUSH2 0x1D1D SWAP2 SWAP1 PUSH2 0x2278 JUMP JUMPDEST SWAP1 SWAP2 SSTORE POP PUSH2 0x1D9A SWAP1 POP JUMP JUMPDEST PUSH1 0x1 PUSH1 0x1 PUSH1 0xA0 SHL SUB DUP4 AND PUSH1 0x0 SWAP1 DUP2 MSTORE PUSH1 0x20 DUP2 SWAP1 MSTORE PUSH1 0x40 SWAP1 KECCAK256 SLOAD DUP2 DUP2 LT ISZERO PUSH2 0x1D7B JUMPI PUSH1 0x40 MLOAD PUSH4 0x391434E3 PUSH1 0xE2 SHL DUP2 MSTORE PUSH1 0x1 PUSH1 0x1 PUSH1 0xA0 SHL SUB DUP6 AND PUSH1 0x4 DUP3 ADD MSTORE PUSH1 0x24 DUP2 ADD DUP3 SWAP1 MSTORE PUSH1 0x44 DUP2 ADD DUP4 SWAP1 MSTORE PUSH1 0x64 ADD PUSH2 0x6E6 JUMP JUMPDEST PUSH1 0x1 PUSH1 0x1 PUSH1 0xA0 SHL SUB DUP5 AND PUSH1 0x0 SWAP1 DUP2 MSTORE PUSH1 0x20 DUP2 SWAP1 MSTORE PUSH1 0x40 SWAP1 KECCAK256 SWAP1 DUP3 SWAP1 SUB SWAP1 SSTORE JUMPDEST PUSH1 0x1 PUSH1 0x1 PUSH1 0xA0 SHL SUB DUP3 AND PUSH2 0x1DB6 JUMPI PUSH1 0x2 DUP1 SLOAD DUP3 SWAP1 SUB SWAP1 SSTORE PUSH2 0x1DD5 JUMP JUMPDEST PUSH1 0x1 PUSH1 0x1 PUSH1 0xA0 SHL SUB DUP3 AND PUSH1 0x0 SWAP1 DUP2 MSTORE PUSH1 0x20 DUP2 SWAP1 MSTORE PUSH1 0x40 SWAP1 KECCAK256 DUP1 SLOAD DUP3 ADD SWAP1 SSTORE JUMPDEST DUP2 PUSH1 0x1 PUSH1 0x1 PUSH1 0xA0 SHL SUB AND DUP4 PUSH1 0x1 PUSH1 0x1 PUSH1 0xA0 SHL SUB AND PUSH32 0xDDF252AD1BE2C89B69C2B068FC378DAA952BA7F163C4A11628F55A4DF523B3EF DUP4 PUSH1 0x40 MLOAD PUSH2 0xD79 SWAP2 DUP2 MSTORE PUSH1 0x20 ADD SWAP1 JUMP JUMPDEST DUP1 CALLDATALOAD PUSH1 0x1 PUSH1 0x1 PUSH1 0xA0 SHL SUB DUP2 AND DUP2 EQ PUSH2 0x1E31 JUMPI PUSH1 0x0 DUP1 REVERT JUMPDEST SWAP2 SWAP1 POP JUMP JUMPDEST DUP1 CALLDATALOAD DUP1 ISZERO ISZERO DUP2 EQ PUSH2 0x1E31 JUMPI PUSH1 0x0 DUP1 REVERT JUMPDEST PUSH1 0x0 DUP1 PUSH1 0x0 PUSH1 0x60 DUP5 DUP7 SUB SLT ISZERO PUSH2 0x1E5B JUMPI PUSH1 0x0 DUP1 REVERT JUMPDEST PUSH2 0x1E64 DUP5 PUSH2 0x1E1A JUMP JUMPDEST SWAP3 POP PUSH1 0x20 DUP5 ADD CALLDATALOAD SWAP2 POP PUSH2 0x1E79 PUSH1 0x40 DUP6 ADD PUSH2 0x1E36 JUMP JUMPDEST SWAP1 POP SWAP3 POP SWAP3 POP SWAP3 JUMP JUMPDEST PUSH1 0x0 PUSH1 0x20 DUP3 DUP5 SUB SLT ISZERO PUSH2 0x1E94 JUMPI PUSH1 0x0 DUP1 REVERT JUMPDEST PUSH2 0x1E9D DUP3 PUSH2 0x1E1A JUMP JUMPDEST SWAP4 SWAP3 POP POP POP JUMP JUMPDEST PUSH1 0x0 PUSH1 0x20 DUP1 DUP4 MSTORE DUP4 MLOAD DUP1 DUP3 DUP6 ADD MSTORE PUSH1 0x0 JUMPDEST DUP2 DUP2 LT ISZERO PUSH2 0x1ED1 JUMPI DUP6 DUP2 ADD DUP4 ADD MLOAD DUP6 DUP3 ADD PUSH1 0x40 ADD MSTORE DUP3 ADD PUSH2 0x1EB5 JUMP JUMPDEST POP PUSH1 0x0 PUSH1 0x40 DUP3 DUP7 ADD ADD MSTORE PUSH1 0x40 PUSH1 0x1F NOT PUSH1 0x1F DUP4 ADD AND DUP6 ADD ADD SWAP3 POP POP POP SWAP3 SWAP2 POP POP JUMP JUMPDEST PUSH1 0x0 DUP1 PUSH1 0x40 DUP4 DUP6 SUB SLT ISZERO PUSH2 0x1F05 JUMPI PUSH1 0x0 DUP1 REVERT JUMPDEST PUSH2 0x1F0E DUP4 PUSH2 0x1E1A JUMP JUMPDEST SWAP5 PUSH1 0x20 SWAP4 SWAP1 SWAP4 ADD CALLDATALOAD SWAP4 POP POP POP JUMP JUMPDEST PUSH1 0x0 DUP1 PUSH1 0x0 DUP1 PUSH1 0x80 DUP6 DUP8 SUB SLT ISZERO PUSH2 0x1F32 JUMPI PUSH1 0x0 DUP1 REVERT JUMPDEST PUSH2 0x1F3B DUP6 PUSH2 0x1E1A JUMP JUMPDEST SWAP4 POP PUSH1 0x20 DUP6 ADD CALLDATALOAD SWAP3 POP PUSH1 0x40 DUP6 ADD CALLDATALOAD SWAP2 POP PUSH2 0x1F57 PUSH1 0x60 DUP7 ADD PUSH2 0x1E36 JUMP JUMPDEST SWAP1 POP SWAP3 SWAP6 SWAP2 SWAP5 POP SWAP3 POP JUMP JUMPDEST PUSH1 0x0 DUP1 PUSH1 0x0 PUSH1 0x60 DUP5 DUP7 SUB SLT ISZERO PUSH2 0x1F77 JUMPI PUSH1 0x0 DUP1 REVERT JUMPDEST PUSH2 0x1F80 DUP5 PUSH2 0x1E1A JUMP JUMPDEST SWAP3 POP PUSH2 0x1F8E PUSH1 0x20 DUP6 ADD PUSH2 0x1E1A JUMP JUMPDEST SWAP2 POP PUSH1 0x40 DUP5 ADD CALLDATALOAD SWAP1 POP SWAP3 POP SWAP3 POP SWAP3 JUMP JUMPDEST PUSH1 0x0 DUP1 DUP4 PUSH1 0x1F DUP5 ADD SLT PUSH2 0x1FB0 JUMPI PUSH1 0x0 DUP1 REVERT JUMPDEST POP DUP2 CALLDATALOAD PUSH8 0xFFFFFFFFFFFFFFFF DUP2 GT ISZERO PUSH2 0x1FC8 JUMPI PUSH1 0x0 DUP1 REVERT JUMPDEST PUSH1 0x20 DUP4 ADD SWAP2 POP DUP4 PUSH1 0x20 DUP3 PUSH1 0x5 SHL DUP6 ADD ADD GT ISZERO PUSH2 0x1FE3 JUMPI PUSH1 0x0 DUP1 REVERT JUMPDEST SWAP3 POP SWAP3 SWAP1 POP JUMP JUMPDEST PUSH1 0x0 DUP1 PUSH1 0x0 PUSH1 0x40 DUP5 DUP7 SUB SLT ISZERO PUSH2 0x1FFF JUMPI PUSH1 0x0 DUP1 REVERT JUMPDEST DUP4 CALLDATALOAD PUSH8 0xFFFFFFFFFFFFFFFF DUP2 GT ISZERO PUSH2 0x2016 JUMPI PUSH1 0x0 DUP1 REVERT JUMPDEST PUSH2 0x2022 DUP7 DUP3 DUP8 ADD PUSH2 0x1F9E JUMP JUMPDEST SWAP1 SWAP8 SWAP1 SWAP7 POP PUSH1 0x20 SWAP6 SWAP1 SWAP6 ADD CALLDATALOAD SWAP5 SWAP4 POP POP POP POP JUMP JUMPDEST PUSH1 0x0 DUP1 PUSH1 0x0 DUP1 PUSH1 0x40 DUP6 DUP8 SUB SLT ISZERO PUSH2 0x204C JUMPI PUSH1 0x0 DUP1 REVERT JUMPDEST DUP5 CALLDATALOAD PUSH8 0xFFFFFFFFFFFFFFFF DUP1 DUP3 GT ISZERO PUSH2 0x2064 JUMPI PUSH1 0x0 DUP1 REVERT JUMPDEST PUSH2 0x2070 DUP9 DUP4 DUP10 ADD PUSH2 0x1F9E JUMP JUMPDEST SWAP1 SWAP7 POP SWAP5 POP PUSH1 0x20 DUP8 ADD CALLDATALOAD SWAP2 POP DUP1 DUP3 GT ISZERO PUSH2 0x2089 JUMPI PUSH1 0x0 DUP1 REVERT JUMPDEST POP PUSH2 0x2096 DUP8 DUP3 DUP9 ADD PUSH2 0x1F9E JUMP JUMPDEST SWAP6 SWAP9 SWAP5 SWAP8 POP SWAP6 POP POP POP POP JUMP JUMPDEST PUSH1 0x0 DUP1 PUSH1 0x0 PUSH1 0x60 DUP5 DUP7 SUB SLT ISZERO PUSH2 0x20B7 JUMPI PUSH1 0x0 DUP1 REVERT JUMPDEST PUSH2 0x20C0 DUP5 PUSH2 0x1E1A JUMP JUMPDEST SWAP6 PUSH1 0x20 DUP6 ADD CALLDATALOAD SWAP6 POP PUSH1 0x40 SWAP1 SWAP5 ADD CALLDATALOAD SWAP4 SWAP3 POP POP POP JUMP JUMPDEST PUSH1 0x0 DUP1 PUSH1 0x40 DUP4 DUP6 SUB SLT ISZERO PUSH2 0x20E8 JUMPI PUSH1 0x0 DUP1 REVERT JUMPDEST PUSH2 0x20F1 DUP4 PUSH2 0x1E1A JUMP JUMPDEST SWAP2 POP PUSH2 0x20FF PUSH1 0x20 DUP5 ADD PUSH2 0x1E1A JUMP JUMPDEST SWAP1 POP SWAP3 POP SWAP3 SWAP1 POP JUMP JUMPDEST PUSH1 0x20 DUP1 DUP3 MSTORE PUSH1 0x14 SWAP1 DUP3 ADD MSTORE PUSH20 0x496E76616C696420757365722061646472657373 PUSH1 0x60 SHL PUSH1 0x40 DUP3 ADD MSTORE PUSH1 0x60 ADD SWAP1 JUMP JUMPDEST PUSH4 0x4E487B71 PUSH1 0xE0 SHL PUSH1 0x0 MSTORE PUSH1 0x11 PUSH1 0x4 MSTORE PUSH1 0x24 PUSH1 0x0 REVERT JUMPDEST PUSH1 0x1 DUP2 DUP2 JUMPDEST DUP1 DUP6 GT ISZERO PUSH2 0x2187 JUMPI DUP2 PUSH1 0x0 NOT DIV DUP3 GT ISZERO PUSH2 0x216D JUMPI PUSH2 0x216D PUSH2 0x2136 JUMP JUMPDEST DUP1 DUP6 AND ISZERO PUSH2 0x217A JUMPI SWAP2 DUP2 MUL SWAP2 JUMPDEST SWAP4 DUP5 SHR SWAP4 SWAP1 DUP1 MUL SWAP1 PUSH2 0x2151 JUMP JUMPDEST POP SWAP3 POP SWAP3 SWAP1 POP JUMP JUMPDEST PUSH1 0x0 DUP3 PUSH2 0x219E JUMPI POP PUSH1 0x1 PUSH2 0x8E8 JUMP JUMPDEST DUP2 PUSH2 0x21AB JUMPI POP PUSH1 0x0 PUSH2 0x8E8 JUMP JUMPDEST DUP2 PUSH1 0x1 DUP2 EQ PUSH2 0x21C1 JUMPI PUSH1 0x2 DUP2 EQ PUSH2 0x21CB JUMPI PUSH2 0x21E7 JUMP JUMPDEST PUSH1 0x1 SWAP2 POP POP PUSH2 0x8E8 JUMP JUMPDEST PUSH1 0xFF DUP5 GT ISZERO PUSH2 0x21DC JUMPI PUSH2 0x21DC PUSH2 0x2136 JUMP JUMPDEST POP POP PUSH1 0x1 DUP3 SHL PUSH2 0x8E8 JUMP JUMPDEST POP PUSH1 0x20 DUP4 LT PUSH2 0x133 DUP4 LT AND PUSH1 0x4E DUP5 LT PUSH1 0xB DUP5 LT AND OR ISZERO PUSH2 0x220A JUMPI POP DUP2 DUP2 EXP PUSH2 0x8E8 JUMP JUMPDEST PUSH2 0x2214 DUP4 DUP4 PUSH2 0x214C JUMP JUMPDEST DUP1 PUSH1 0x0 NOT DIV DUP3 GT ISZERO PUSH2 0x2228 JUMPI PUSH2 0x2228 PUSH2 0x2136 JUMP JUMPDEST MUL SWAP4 SWAP3 POP POP POP JUMP JUMPDEST PUSH1 0x0 PUSH2 0x1E9D PUSH1 0xFF DUP5 AND DUP4 PUSH2 0x218F JUMP JUMPDEST DUP1 DUP3 MUL DUP2 ISZERO DUP3 DUP3 DIV DUP5 EQ OR PUSH2 0x8E8 JUMPI PUSH2 0x8E8 PUSH2 0x2136 JUMP JUMPDEST PUSH1 0x0 DUP3 PUSH2 0x2273 JUMPI PUSH4 0x4E487B71 PUSH1 0xE0 SHL PUSH1 0x0 MSTORE PUSH1 0x12 PUSH1 0x4 MSTORE PUSH1 0x24 PUSH1 0x0 REVERT JUMPDEST POP DIV SWAP1 JUMP JUMPDEST DUP1 DUP3 ADD DUP1 DUP3 GT ISZERO PUSH2 0x8E8 JUMPI PUSH2 0x8E8 PUSH2 0x2136 JUMP JUMPDEST PUSH1 0x1 DUP2 DUP2 SHR SWAP1 DUP3 AND DUP1 PUSH2 0x229F JUMPI PUSH1 0x7F DUP3 AND SWAP2 POP JUMPDEST PUSH1 0x20 DUP3 LT DUP2 SUB PUSH2 0x22BF JUMPI PUSH4 0x4E487B71 PUSH1 0xE0 SHL PUSH1 0x0 MSTORE PUSH1 0x22 PUSH1 0x4 MSTORE PUSH1 0x24 PUSH1 0x0 REVERT JUMPDEST POP SWAP2 SWAP1 POP JUMP JUMPDEST PUSH1 0x0 PUSH1 0x1 DUP3 ADD PUSH2 0x22D7 JUMPI PUSH2 0x22D7 PUSH2 0x2136 JUMP JUMPDEST POP PUSH1 0x1 ADD SWAP1 JUMP JUMPDEST PUSH1 0x20 DUP1 DUP3 MSTORE DUP2 DUP2 ADD MSTORE PUSH32 0x416D6F756E74206D7573742062652067726561746572207468616E207A65726F PUSH1 0x40 DUP3 ADD MSTORE PUSH1 0x60 ADD SWAP1 JUMP JUMPDEST PUSH1 0x20 DUP1 DUP3 MSTORE PUSH1 0x25 SWAP1 DUP3 ADD MSTORE PUSH32 0x496E73756666696369656E742062616C616E636520666F722064697374726962 PUSH1 0x40 DUP3 ADD MSTORE PUSH5 0x3ABA34B7B7 PUSH1 0xD9 SHL PUSH1 0x60 DUP3 ADD MSTORE PUSH1 0x80 ADD SWAP1 JUMP JUMPDEST PUSH4 0x4E487B71 PUSH1 0xE0 SHL PUSH1 0x0 MSTORE PUSH1 0x32 PUSH1 0x4 MSTORE PUSH1 0x24 PUSH1 0x0 REVERT INVALID LOG2 PUSH5 0x6970667358 0x22 SLT KECCAK256 SWAP14 0x1F ADD DUP16 MLOAD 0xA6 0x26 0xB2 DUP16 STATICCALL 0xC7 JUMPI CALLER 0xA6 0xB1 0xEF EXP 0xE2 0xC 0xBA 0x2B CALLCODE 0xD4 0x27 PUSH5 0x5FACEBC138 0xCA 0xDC PUSH5 0x736F6C6343 STOP ADDMOD EQ STOP CALLER "},"methodIdentifiers":{"BASE_REWARD_RATE()":"0e40fe9f","CONSECUTIVE_DAY_BONUS()":"0c1ee859","MAX_SUPPLY()":"32cb6b0c","PREMIUM_REWARD_RATE()":"bde9c09a","PREMIUM_SUBSCRIPTION_PRICE()":"10470816","QUIZ_PASS_REWARD()":"6e9aef6c","SESSION_COMPLETION_REWARD()":"fafed3b2","allowance(address,address)":"dd62ed3e","approve(address,uint256)":"095ea7b3","balanceOf(address)":"70a08231","claimConsecutiveDayBonus(address)":"2f149c5b","claimStudyTimeReward(address,uint256,bool)":"052239d7","completeSession(address,uint256,uint256,bool)":"0df1bda8","completedSessions(address)":"2e1256fb","consecutiveStudyDays(address)":"46662ddf","decimals()":"313ce567","distributeTokens(address[],uint256)":"256fa241","distributeTokensCustom(address[],uint256[])":"26aa05c8","emergencyMint(address,uint256)":"43785dc9","getUserConsecutiveDays(address)":"921cd6ca","getUserLastRewardClaim(address)":"944f71e6","getUserLastStudyDate(address)":"b84394c3","getUserSessionStats(address)":"5a988a23","getUserStudyRewards(address)":"eeee623c","lastRewardClaim(address)":"d8ad5231","lastStudyDate(address)":"3d7924ae","mintStudyReward(address,uint256)":"c51ffdf4","name()":"06fdde03","owner()":"8da5cb5b","p2pConversion(address,address,uint256)":"1b8c9de4","passQuiz(address,uint256,uint256)":"9d9efb53","pause()":"8456cb59","paused()":"5c975abb","purchasePremiumSubscription(address)":"c9fd7c25","quizPassedSessions(address)":"b2409bbb","renounceOwnership()":"715018a6","startSession(address,uint256)":"11423a44","studyTimeRewards(address)":"06101457","symbol()":"95d89b41","totalSessions(address)":"42dc52ca","totalSupply()":"18160ddd","transfer(address,uint256)":"a9059cbb","transferFrom(address,address,uint256)":"23b872dd","transferOwnership(address)":"f2fde38b","unpause()":"3f4ba83a"}}}}}