{
  "_format": "hh-sol-artifact-1",
  "contractName": "StudyStaking",
  "sourceName": "contracts/StudyStaking.sol",
  "abi": [
    {
      "inputs": [
        {
          "internalType": "address",
          "name": "_stakingToken",
          "type": "address"
        }
      ],
      "stateMutability": "nonpayable",
      "type": "constructor"
    },
    {
      "inputs": [],
      "name": "EnforcedPause",
      "type": "error"
    },
    {
      "inputs": [],
      "name": "ExpectedPause",
      "type": "error"
    },
    {
      "inputs": [
        {
          "internalType": "address",
          "name": "owner",
          "type": "address"
        }
      ],
      "name": "OwnableInvalidOwner",
      "type": "error"
    },
    {
      "inputs": [
        {
          "internalType": "address",
          "name": "account",
          "type": "address"
        }
      ],
      "name": "OwnableUnauthorizedAccount",
      "type": "error"
    },
    {
      "inputs": [],
      "name": "ReentrancyGuardReentrantCall",
      "type": "error"
    },
    {
      "inputs": [
        {
          "internalType": "address",
          "name": "token",
          "type": "address"
        }
      ],
      "name": "SafeERC20FailedOperation",
      "type": "error"
    },
    {
      "anonymous": false,
      "inputs": [
        {
          "indexed": true,
          "internalType": "address",
          "name": "previousOwner",
          "type": "address"
        },
        {
          "indexed": true,
          "internalType": "address",
          "name": "newOwner",
          "type": "address"
        }
      ],
      "name": "OwnershipTransferred",
      "type": "event"
    },
    {
      "anonymous": false,
      "inputs": [
        {
          "indexed": false,
          "internalType": "address",
          "name": "account",
          "type": "address"
        }
      ],
      "name": "Paused",
      "type": "event"
    },
    {
      "anonymous": false,
      "inputs": [
        {
          "indexed": true,
          "internalType": "uint256",
          "name": "poolId",
          "type": "uint256"
        },
        {
          "indexed": false,
          "internalType": "uint256",
          "name": "rewardRate",
          "type": "uint256"
        }
      ],
      "name": "PoolCreated",
      "type": "event"
    },
    {
      "anonymous": false,
      "inputs": [
        {
          "indexed": true,
          "internalType": "uint256",
          "name": "poolId",
          "type": "uint256"
        },
        {
          "indexed": false,
          "internalType": "uint256",
          "name": "newRewardRate",
          "type": "uint256"
        }
      ],
      "name": "PoolUpdated",
      "type": "event"
    },
    {
      "anonymous": false,
      "inputs": [
        {
          "indexed": true,
          "internalType": "address",
          "name": "user",
          "type": "address"
        },
        {
          "indexed": true,
          "internalType": "uint256",
          "name": "poolId",
          "type": "uint256"
        },
        {
          "indexed": false,
          "internalType": "uint256",
          "name": "amount",
          "type": "uint256"
        }
      ],
      "name": "RewardsClaimed",
      "type": "event"
    },
    {
      "anonymous": false,
      "inputs": [
        {
          "indexed": true,
          "internalType": "address",
          "name": "user",
          "type": "address"
        },
        {
          "indexed": true,
          "internalType": "uint256",
          "name": "poolId",
          "type": "uint256"
        },
        {
          "indexed": false,
          "internalType": "uint256",
          "name": "amount",
          "type": "uint256"
        }
      ],
      "name": "Staked",
      "type": "event"
    },
    {
      "anonymous": false,
      "inputs": [
        {
          "indexed": false,
          "internalType": "address",
          "name": "account",
          "type": "address"
        }
      ],
      "name": "Unpaused",
      "type": "event"
    },
    {
      "anonymous": false,
      "inputs": [
        {
          "indexed": true,
          "internalType": "address",
          "name": "user",
          "type": "address"
        },
        {
          "indexed": true,
          "internalType": "uint256",
          "name": "poolId",
          "type": "uint256"
        },
        {
          "indexed": false,
          "internalType": "uint256",
          "name": "amount",
          "type": "uint256"
        }
      ],
      "name": "Unstaked",
      "type": "event"
    },
    {
      "inputs": [],
      "name": "LONG_TERM_DURATION",
      "outputs": [
        {
          "internalType": "uint256",
          "name": "",
          "type": "uint256"
        }
      ],
      "stateMutability": "view",
      "type": "function"
    },
    {
      "inputs": [],
      "name": "LONG_TERM_POOL",
      "outputs": [
        {
          "internalType": "uint256",
          "name": "",
          "type": "uint256"
        }
      ],
      "stateMutability": "view",
      "type": "function"
    },
    {
      "inputs": [],
      "name": "MEDIUM_TERM_DURATION",
      "outputs": [
        {
          "internalType": "uint256",
          "name": "",
          "type": "uint256"
        }
      ],
      "stateMutability": "view",
      "type": "function"
    },
    {
      "inputs": [],
      "name": "MEDIUM_TERM_POOL",
      "outputs": [
        {
          "internalType": "uint256",
          "name": "",
          "type": "uint256"
        }
      ],
      "stateMutability": "view",
      "type": "function"
    },
    {
      "inputs": [],
      "name": "SHORT_TERM_DURATION",
      "outputs": [
        {
          "internalType": "uint256",
          "name": "",
          "type": "uint256"
        }
      ],
      "stateMutability": "view",
      "type": "function"
    },
    {
      "inputs": [],
      "name": "SHORT_TERM_POOL",
      "outputs": [
        {
          "internalType": "uint256",
          "name": "",
          "type": "uint256"
        }
      ],
      "stateMutability": "view",
      "type": "function"
    },
    {
      "inputs": [
        {
          "internalType": "uint256",
          "name": "poolId",
          "type": "uint256"
        }
      ],
      "name": "claimRewards",
      "outputs": [],
      "stateMutability": "nonpayable",
      "type": "function"
    },
    {
      "inputs": [
        {
          "internalType": "uint256",
          "name": "amount",
          "type": "uint256"
        }
      ],
      "name": "emergencyWithdraw",
      "outputs": [],
      "stateMutability": "nonpayable",
      "type": "function"
    },
    {
      "inputs": [
        {
          "internalType": "address",
          "name": "user",
          "type": "address"
        },
        {
          "internalType": "uint256",
          "name": "poolId",
          "type": "uint256"
        }
      ],
      "name": "getPendingRewards",
      "outputs": [
        {
          "internalType": "uint256",
          "name": "",
          "type": "uint256"
        }
      ],
      "stateMutability": "view",
      "type": "function"
    },
    {
      "inputs": [
        {
          "internalType": "uint256",
          "name": "poolId",
          "type": "uint256"
        }
      ],
      "name": "getPoolInfo",
      "outputs": [
        {
          "components": [
            {
              "internalType": "uint256",
              "name": "totalStaked",
              "type": "uint256"
            },
            {
              "internalType": "uint256",
              "name": "rewardRate",
              "type": "uint256"
            },
            {
              "internalType": "uint256",
              "name": "lastUpdateTime",
              "type": "uint256"
            },
            {
              "internalType": "uint256",
              "name": "rewardPerTokenStored",
              "type": "uint256"
            },
            {
              "internalType": "bool",
              "name": "isActive",
              "type": "bool"
            }
          ],
          "internalType": "struct StudyStaking.StakingPool",
          "name": "",
          "type": "tuple"
        }
      ],
      "stateMutability": "view",
      "type": "function"
    },
    {
      "inputs": [
        {
          "internalType": "address",
          "name": "user",
          "type": "address"
        },
        {
          "internalType": "uint256",
          "name": "poolId",
          "type": "uint256"
        }
      ],
      "name": "getUserStake",
      "outputs": [
        {
          "components": [
            {
              "internalType": "uint256",
              "name": "amount",
              "type": "uint256"
            },
            {
              "internalType": "uint256",
              "name": "rewardDebt",
              "type": "uint256"
            },
            {
              "internalType": "uint256",
              "name": "lastStakeTime",
              "type": "uint256"
            },
            {
              "internalType": "uint256",
              "name": "totalRewardsClaimed",
              "type": "uint256"
            }
          ],
          "internalType": "struct StudyStaking.UserStake",
          "name": "",
          "type": "tuple"
        }
      ],
      "stateMutability": "view",
      "type": "function"
    },
    {
      "inputs": [],
      "name": "owner",
      "outputs": [
        {
          "internalType": "address",
          "name": "",
          "type": "address"
        }
      ],
      "stateMutability": "view",
      "type": "function"
    },
    {
      "inputs": [],
      "name": "pause",
      "outputs": [],
      "stateMutability": "nonpayable",
      "type": "function"
    },
    {
      "inputs": [],
      "name": "paused",
      "outputs": [
        {
          "internalType": "bool",
          "name": "",
          "type": "bool"
        }
      ],
      "stateMutability": "view",
      "type": "function"
    },
    {
      "inputs": [],
      "name": "renounceOwnership",
      "outputs": [],
      "stateMutability": "nonpayable",
      "type": "function"
    },
    {
      "inputs": [
        {
          "internalType": "uint256",
          "name": "poolId",
          "type": "uint256"
        },
        {
          "internalType": "bool",
          "name": "isActive",
          "type": "bool"
        }
      ],
      "name": "setPoolActive",
      "outputs": [],
      "stateMutability": "nonpayable",
      "type": "function"
    },
    {
      "inputs": [
        {
          "internalType": "uint256",
          "name": "poolId",
          "type": "uint256"
        },
        {
          "internalType": "uint256",
          "name": "amount",
          "type": "uint256"
        }
      ],
      "name": "stake",
      "outputs": [],
      "stateMutability": "nonpayable",
      "type": "function"
    },
    {
      "inputs": [
        {
          "internalType": "uint256",
          "name": "",
          "type": "uint256"
        }
      ],
      "name": "stakingPools",
      "outputs": [
        {
          "internalType": "uint256",
          "name": "totalStaked",
          "type": "uint256"
        },
        {
          "internalType": "uint256",
          "name": "rewardRate",
          "type": "uint256"
        },
        {
          "internalType": "uint256",
          "name": "lastUpdateTime",
          "type": "uint256"
        },
        {
          "internalType": "uint256",
          "name": "rewardPerTokenStored",
          "type": "uint256"
        },
        {
          "internalType": "bool",
          "name": "isActive",
          "type": "bool"
        }
      ],
      "stateMutability": "view",
      "type": "function"
    },
    {
      "inputs": [],
      "name": "stakingToken",
      "outputs": [
        {
          "internalType": "contract IERC20",
          "name": "",
          "type": "address"
        }
      ],
      "stateMutability": "view",
      "type": "function"
    },
    {
      "inputs": [
        {
          "internalType": "address",
          "name": "newOwner",
          "type": "address"
        }
      ],
      "name": "transferOwnership",
      "outputs": [],
      "stateMutability": "nonpayable",
      "type": "function"
    },
    {
      "inputs": [],
      "name": "unpause",
      "outputs": [],
      "stateMutability": "nonpayable",
      "type": "function"
    },
    {
      "inputs": [
        {
          "internalType": "uint256",
          "name": "poolId",
          "type": "uint256"
        },
        {
          "internalType": "uint256",
          "name": "amount",
          "type": "uint256"
        }
      ],
      "name": "unstake",
      "outputs": [],
      "stateMutability": "nonpayable",
      "type": "function"
    },
    {
      "inputs": [
        {
          "internalType": "uint256",
          "name": "poolId",
          "type": "uint256"
        },
        {
          "internalType": "uint256",
          "name": "newRewardRate",
          "type": "uint256"
        }
      ],
      "name": "updatePoolRewardRate",
      "outputs": [],
      "stateMutability": "nonpayable",
      "type": "function"
    },
    {
      "inputs": [
        {
          "internalType": "address",
          "name": "",
          "type": "address"
        },
        {
          "internalType": "uint256",
          "name": "",
          "type": "uint256"
        }
      ],
      "name": "userStakes",
      "outputs": [
        {
          "internalType": "uint256",
          "name": "amount",
          "type": "uint256"
        },
        {
          "internalType": "uint256",
          "name": "rewardDebt",
          "type": "uint256"
        },
        {
          "internalType": "uint256",
          "name": "lastStakeTime",
          "type": "uint256"
        },
        {
          "internalType": "uint256",
          "name": "totalRewardsClaimed",
          "type": "uint256"
        }
      ],
      "stateMutability": "view",
      "type": "function"
    }
  ],
  "bytecode": "0x60a060405234801561001057600080fd5b506040516200188b3803806200188b833981016040819052610031916103f0565b338061005857604051631e4fbdf760e01b8152600060048201526024015b60405180910390fd5b610061816103a0565b50600180556001600160a01b0381166100bc5760405162461bcd60e51b815260206004820152601d60248201527f496e76616c6964207374616b696e6720746f6b656e2061646472657373000000604482015260640161004f565b6001600160a01b031660809081526040805160a080820183526000808352623a0ff760208085019182524285870181815260608088018681526001898c0181815288805260038088529a517f3617319a054d772f909f7c479a2cebe5066e836a939412e32403c99029b92eff5596517f3617319a054d772f909f7c479a2cebe5066e836a939412e32403c99029b92f005592517f3617319a054d772f909f7c479a2cebe5066e836a939412e32403c99029b92f0155517f3617319a054d772f909f7c479a2cebe5066e836a939412e32403c99029b92f025593517f3617319a054d772f909f7c479a2cebe5066e836a939412e32403c99029b92f03805491151560ff1992831617905588518088018a52868152624893f4818601908152818b01858152828801898152838e01868152868b528c895293517fa15bc60c955c405d20d9149c709e2460f1c2d9a497496a7f46004d1772c3054c5591517fa15bc60c955c405d20d9149c709e2460f1c2d9a497496a7f46004d1772c3054d55517fa15bc60c955c405d20d9149c709e2460f1c2d9a497496a7f46004d1772c3054e55517fa15bc60c955c405d20d9149c709e2460f1c2d9a497496a7f46004d1772c3054f55517fa15bc60c955c405d20d9149c709e2460f1c2d9a497496a7f46004d1772c305508054911515918316919091179055885196870189528587526260c546878501908152988701928352938601858152988601908152600290945294905291517fc3a24b0501bd2c13a7e57f2db4369ec4c223447539fc0724a9d55ac4a06ebd4d5592517fc3a24b0501bd2c13a7e57f2db4369ec4c223447539fc0724a9d55ac4a06ebd4e5590517fc3a24b0501bd2c13a7e57f2db4369ec4c223447539fc0724a9d55ac4a06ebd4f5591517fc3a24b0501bd2c13a7e57f2db4369ec4c223447539fc0724a9d55ac4a06ebd5055517fc3a24b0501bd2c13a7e57f2db4369ec4c223447539fc0724a9d55ac4a06ebd51805491151591909216179055610420565b600080546001600160a01b038381166001600160a01b0319831681178455604051919092169283917f8be0079c531659141344cd1fd0a4f28419497f9722a3daafe3b4186f6b6457e09190a35050565b60006020828403121561040257600080fd5b81516001600160a01b038116811461041957600080fd5b9392505050565b60805161142562000466600039600081816102b6015281816105890152818161074b01528181610884015281816108f201528181610b820152610c4a01526114256000f3fe608060405234801561001057600080fd5b50600436106101585760003560e01c80637b0472f0116100c3578063cac7cda11161007c578063cac7cda114610397578063cec695fa146103a1578063e1a07efd146103e7578063e4e7c6b4146103f1578063ea17fa9314610404578063f2fde38b1461041757600080fd5b80637b0472f0146102f05780638456cb59146103035780638c86adc51461030b5780638da5cb5b146103135780639e2c8a5b14610324578063b5d5b5fa1461033757600080fd5b80635312ea8e116101155780635312ea8e1461020b5780635aad6cf01461021e5780635c975abb14610289578063628b63191461029f578063715018a6146102a957806372f702f3146102b157600080fd5b80630962ef791461015d5780632f380b3514610172578063371d6259146101d25780633f4ba83a146101e55780633f6a5d79146101ed578063492275f114610203575b600080fd5b61017061016b36600461127d565b61042a565b005b61018561018036600461127d565b6105f5565b6040516101c99190600060a0820190508251825260208301516020830152604083015160408301526060830151606083015260808301511515608083015292915050565b60405180910390f35b6101706101e0366004611296565b61067c565b610170610712565b6101f5600181565b6040519081526020016101c9565b6101f5600081565b61017061021936600461127d565b610724565b61025f61022c36600461127d565b60036020819052600091825260409091208054600182015460028301549383015460049093015491939092909160ff1685565b6040805195865260208601949094529284019190915260608301521515608082015260a0016101c9565b60025460ff1660405190151581526020016101c9565b6101f562278d0081565b610170610772565b6102d87f000000000000000000000000000000000000000000000000000000000000000081565b6040516001600160a01b0390911681526020016101c9565b6101706102fe366004611296565b610784565b6101706109c1565b6101f5600281565b6000546001600160a01b03166102d8565b610170610332366004611296565b6109d1565b6103776103453660046112d4565b600460209081526000928352604080842090915290825290208054600182015460028301546003909301549192909184565b6040805194855260208501939093529183015260608201526080016101c9565b6101f56276a70081565b6103b46103af3660046112d4565b610cb4565b6040516101c991908151815260208083015190820152604080830151908201526060918201519181019190915260800190565b6101f562093a8081565b6101f56103ff3660046112d4565b610d3a565b6101706104123660046112fe565b610d4d565b610170610425366004611333565b610d78565b610432610db3565b61043a610ddd565b60008181526003602052604090206004015460ff166104745760405162461bcd60e51b815260040161046b9061134e565b60405180910390fd5b336000908152600460209081526040808320848452909152902080546104cf5760405162461bcd60e51b815260206004820152601060248201526f4e6f207374616b656420746f6b656e7360801b604482015260640161046b565b6104d882610e01565b60006104e43384610e9f565b90506000811161052c5760405162461bcd60e51b81526020600482015260136024820152724e6f207265776172647320746f20636c61696d60681b604482015260640161046b565b808260030160008282546105409190611390565b9091555050600083815260036020819052604090912001548254670de0b6b3a76400009161056d916113a3565b61057791906113ba565b60018301556105b06001600160a01b037f0000000000000000000000000000000000000000000000000000000000000000163383610ffd565b604051818152839033907fdacbdde355ba930696a362ea6738feb9f8bd52dfb3d81947558fd3217e23e3259060200160405180910390a350506105f260018055565b50565b6106296040518060a00160405280600081526020016000815260200160008152602001600081526020016000151581525090565b50600090815260036020818152604092839020835160a0810185528154815260018201549281019290925260028101549382019390935290820154606082015260049091015460ff161515608082015290565b610684611061565b60008281526003602052604090206004015460ff166106b55760405162461bcd60e51b815260040161046b9061134e565b6106be82610e01565b600082815260036020526040908190206001018290555182907f7fa9647ec1cc14e3822b46d05a2b9d4e019bde8875c0088c46b6503d71bf1722906107069084815260200190565b60405180910390a25050565b61071a611061565b61072261108e565b565b61072c611061565b6105f26107416000546001600160a01b031690565b6001600160a01b037f0000000000000000000000000000000000000000000000000000000000000000169083610ffd565b61077a611061565b61072260006110e0565b61078c610db3565b610794610ddd565b60008281526003602052604090206004015460ff166107c55760405162461bcd60e51b815260040161046b9061134e565b600081116108155760405162461bcd60e51b815260206004820181905260248201527f416d6f756e74206d7573742062652067726561746572207468616e207a65726f604482015260640161046b565b60008281526003602090815260408083203384526004835281842086855290925290912061084284610e01565b8054156108e55760006108553386610e9f565b905080156108e357808260030160008282546108719190611390565b909155506108ab90506001600160a01b037f0000000000000000000000000000000000000000000000000000000000000000163383610ffd565b604051818152859033907fdacbdde355ba930696a362ea6738feb9f8bd52dfb3d81947558fd3217e23e3259060200160405180910390a35b505b61091a6001600160a01b037f000000000000000000000000000000000000000000000000000000000000000016333086611130565b8281600001600082825461092e9190611390565b909155505060038201548154670de0b6b3a76400009161094d916113a3565b61095791906113ba565b6001820155426002820155815483908390600090610976908490611390565b9091555050604051838152849033907f1449c6dd7851abc30abf37f57715f492010519147cc2652fbc38202c18a6ee909060200160405180910390a350506109bd60018055565b5050565b6109c9611061565b61072261116f565b6109d9610db3565b6109e1610ddd565b60008281526003602052604090206004015460ff16610a125760405162461bcd60e51b815260040161046b9061134e565b60008111610a625760405162461bcd60e51b815260206004820181905260248201527f416d6f756e74206d7573742062652067726561746572207468616e207a65726f604482015260640161046b565b6000828152600360209081526040808320338452600483528184208685529092529091208054831115610ad75760405162461bcd60e51b815260206004820152601a60248201527f496e73756666696369656e74207374616b656420616d6f756e74000000000000604482015260640161046b565b610ae0846111ac565b8160020154610aef9190611390565b421015610b3e5760405162461bcd60e51b815260206004820181905260248201527f4d696e696d756d207374616b696e67206475726174696f6e206e6f74206d6574604482015260640161046b565b610b4784610e01565b6000610b533386610e9f565b90508015610be15780826003016000828254610b6f9190611390565b90915550610ba990506001600160a01b037f0000000000000000000000000000000000000000000000000000000000000000163383610ffd565b604051818152859033907fdacbdde355ba930696a362ea6738feb9f8bd52dfb3d81947558fd3217e23e3259060200160405180910390a35b83826000016000828254610bf591906113dc565b909155505060038301548254670de0b6b3a764000091610c14916113a3565b610c1e91906113ba565b6001830155825484908490600090610c379084906113dc565b90915550610c7190506001600160a01b037f0000000000000000000000000000000000000000000000000000000000000000163386610ffd565b604051848152859033907f7fc4727e062e336010f2c282598ef5f14facb3de68cf8195c2f23e1454b2b74e9060200160405180910390a35050506109bd60018055565b610cdf6040518060800160405280600081526020016000815260200160008152602001600081525090565b506001600160a01b038216600090815260046020908152604080832084845282529182902082516080810184528154815260018201549281019290925260028101549282019290925260039091015460608201525b92915050565b6000610d468383610e9f565b9392505050565b610d55611061565b600091825260036020526040909120600401805460ff1916911515919091179055565b610d80611061565b6001600160a01b038116610daa57604051631e4fbdf760e01b81526000600482015260240161046b565b6105f2816110e0565b600260015403610dd657604051633ee5aeb560e01b815260040160405180910390fd5b6002600155565b60025460ff16156107225760405163d93c066560e01b815260040160405180910390fd5b600081815260036020526040902060028101544211610e1e575050565b8054600003610e31574260029091015550565b6000816002015442610e4391906113dc565b90506000826001015482610e5791906113a3565b8354909150610e6e82670de0b6b3a76400006113a3565b610e7891906113ba565b836003016000828254610e8b9190611390565b909155505042600290930192909255505050565b6001600160a01b0382166000908152600460209081526040808320848452825280832081516080810183528154808252600183015494820194909452600282015492810192909252600301546060820152908203610f01576000915050610d34565b600083815260036020818152604092839020835160a081018552815481526001820154928101929092526002810154938201849052918201546060820181905260049092015460ff16151560808201529142118015610f605750815115155b15610fbb576000826040015142610f7791906113dc565b90506000836020015182610f8b91906113a3565b8451909150610fa282670de0b6b3a76400006113a3565b610fac91906113ba565b610fb69084611390565b925050505b6000670de0b6b3a7640000828560000151610fd691906113a3565b610fe091906113ba565b9050836020015181610ff291906113dc565b979650505050505050565b6040516001600160a01b0383811660248301526044820183905261105c91859182169063a9059cbb906064015b604051602081830303815290604052915060e01b6020820180516001600160e01b0383818316178352505050506111e9565b505050565b6000546001600160a01b031633146107225760405163118cdaa760e01b815233600482015260240161046b565b61109661125a565b6002805460ff191690557f5db9ee0a495bf2e6ff9c91a7834c1ba4fdd244a5e8aa4e537bd38aeae4b073aa335b6040516001600160a01b03909116815260200160405180910390a1565b600080546001600160a01b038381166001600160a01b0319831681178455604051919092169283917f8be0079c531659141344cd1fd0a4f28419497f9722a3daafe3b4186f6b6457e09190a35050565b6040516001600160a01b0384811660248301528381166044830152606482018390526111699186918216906323b872dd9060840161102a565b50505050565b611177610ddd565b6002805460ff191660011790557f62e78cea01bee320cd4e420270b5ea74000d11b0c9f74754ebdbfc544b05a2586110c33390565b6000816111bd575062093a80919050565b600182036111cf575062278d00919050565b600282036111e157506276a700919050565b506000919050565b600080602060008451602086016000885af18061120c576040513d6000823e3d81fd5b50506000513d91508115611224578060011415611231565b6001600160a01b0384163b155b1561116957604051635274afe760e01b81526001600160a01b038516600482015260240161046b565b60025460ff1661072257604051638dfc202b60e01b815260040160405180910390fd5b60006020828403121561128f57600080fd5b5035919050565b600080604083850312156112a957600080fd5b50508035926020909101359150565b80356001600160a01b03811681146112cf57600080fd5b919050565b600080604083850312156112e757600080fd5b6112f0836112b8565b946020939093013593505050565b6000806040838503121561131157600080fd5b823591506020830135801515811461132857600080fd5b809150509250929050565b60006020828403121561134557600080fd5b610d46826112b8565b602080825260129082015271506f6f6c206973206e6f742061637469766560701b604082015260600190565b634e487b7160e01b600052601160045260246000fd5b80820180821115610d3457610d3461137a565b8082028115828204841417610d3457610d3461137a565b6000826113d757634e487b7160e01b600052601260045260246000fd5b500490565b81810381811115610d3457610d3461137a56fea2646970667358221220e8dfab1fbfd08ffd2f92808a78daf96115dbb6821e96571a9231dab635a18cec64736f6c63430008140033",
  "linkReferences": {},
  "deployedLinkReferences": {}
}