{
  "_format": "hh-sol-artifact-1",
  "contractName": "StudyTokenV2",
  "sourceName": "contracts/StudyTokenV2.sol",
  "abi": [
    {
      "inputs": [],
      "stateMutability": "nonpayable",
      "type": "constructor"
    },
    {
      "inputs": [
        {
          "internalType": "address",
          "name": "spender",
          "type": "address"
        },
        {
          "internalType": "uint256",
          "name": "allowance",
          "type": "uint256"
        },
        {
          "internalType": "uint256",
          "name": "needed",
          "type": "uint256"
        }
      ],
      "name": "ERC20InsufficientAllowance",
      "type": "error"
    },
    {
      "inputs": [
        {
          "internalType": "address",
          "name": "sender",
          "type": "address"
        },
        {
          "internalType": "uint256",
          "name": "balance",
          "type": "uint256"
        },
        {
          "internalType": "uint256",
          "name": "needed",
          "type": "uint256"
        }
      ],
      "name": "ERC20InsufficientBalance",
      "type": "error"
    },
    {
      "inputs": [
        {
          "internalType": "address",
          "name": "approver",
          "type": "address"
        }
      ],
      "name": "ERC20InvalidApprover",
      "type": "error"
    },
    {
      "inputs": [
        {
          "internalType": "address",
          "name": "receiver",
          "type": "address"
        }
      ],
      "name": "ERC20InvalidReceiver",
      "type": "error"
    },
    {
      "inputs": [
        {
          "internalType": "address",
          "name": "sender",
          "type": "address"
        }
      ],
      "name": "ERC20InvalidSender",
      "type": "error"
    },
    {
      "inputs": [
        {
          "internalType": "address",
          "name": "spender",
          "type": "address"
        }
      ],
      "name": "ERC20InvalidSpender",
      "type": "error"
    },
    {
      "inputs": [],
      "name": "EnforcedPause",
      "type": "error"
    },
    {
      "inputs": [],
      "name": "ExpectedPause",
      "type": "error"
    },
    {
      "inputs": [
        {
          "internalType": "address",
          "name": "owner",
          "type": "address"
        }
      ],
      "name": "OwnableInvalidOwner",
      "type": "error"
    },
    {
      "inputs": [
        {
          "internalType": "address",
          "name": "account",
          "type": "address"
        }
      ],
      "name": "OwnableUnauthorizedAccount",
      "type": "error"
    },
    {
      "anonymous": false,
      "inputs": [
        {
          "indexed": true,
          "internalType": "address",
          "name": "owner",
          "type": "address"
        },
        {
          "indexed": true,
          "internalType": "address",
          "name": "spender",
          "type": "address"
        },
        {
          "indexed": false,
          "internalType": "uint256",
          "name": "value",
          "type": "uint256"
        }
      ],
      "name": "Approval",
      "type": "event"
    },
    {
      "anonymous": false,
      "inputs": [
        {
          "indexed": false,
          "internalType": "uint256",
          "name": "amount",
          "type": "uint256"
        }
      ],
      "name": "BuybackExecuted",
      "type": "event"
    },
    {
      "anonymous": false,
      "inputs": [
        {
          "indexed": true,
          "internalType": "address",
          "name": "previousOwner",
          "type": "address"
        },
        {
          "indexed": true,
          "internalType": "address",
          "name": "newOwner",
          "type": "address"
        }
      ],
      "name": "OwnershipTransferred",
      "type": "event"
    },
    {
      "anonymous": false,
      "inputs": [
        {
          "indexed": false,
          "internalType": "address",
          "name": "account",
          "type": "address"
        }
      ],
      "name": "Paused",
      "type": "event"
    },
    {
      "anonymous": false,
      "inputs": [
        {
          "indexed": false,
          "internalType": "uint256",
          "name": "amount",
          "type": "uint256"
        }
      ],
      "name": "RevenueDistributed",
      "type": "event"
    },
    {
      "anonymous": false,
      "inputs": [
        {
          "indexed": false,
          "internalType": "uint256",
          "name": "amount",
          "type": "uint256"
        }
      ],
      "name": "TokensBurned",
      "type": "event"
    },
    {
      "anonymous": false,
      "inputs": [
        {
          "indexed": true,
          "internalType": "address",
          "name": "user",
          "type": "address"
        },
        {
          "indexed": false,
          "internalType": "uint256",
          "name": "amount",
          "type": "uint256"
        }
      ],
      "name": "TokensStaked",
      "type": "event"
    },
    {
      "anonymous": false,
      "inputs": [
        {
          "indexed": true,
          "internalType": "address",
          "name": "user",
          "type": "address"
        },
        {
          "indexed": false,
          "internalType": "uint256",
          "name": "amount",
          "type": "uint256"
        }
      ],
      "name": "TokensUnstaked",
      "type": "event"
    },
    {
      "anonymous": false,
      "inputs": [
        {
          "indexed": true,
          "internalType": "address",
          "name": "from",
          "type": "address"
        },
        {
          "indexed": true,
          "internalType": "address",
          "name": "to",
          "type": "address"
        },
        {
          "indexed": false,
          "internalType": "uint256",
          "name": "value",
          "type": "uint256"
        }
      ],
      "name": "Transfer",
      "type": "event"
    },
    {
      "anonymous": false,
      "inputs": [
        {
          "indexed": false,
          "internalType": "address",
          "name": "account",
          "type": "address"
        }
      ],
      "name": "Unpaused",
      "type": "event"
    },
    {
      "inputs": [],
      "name": "BURN_FEE",
      "outputs": [
        {
          "internalType": "uint256",
          "name": "",
          "type": "uint256"
        }
      ],
      "stateMutability": "view",
      "type": "function"
    },
    {
      "inputs": [],
      "name": "MAX_SUPPLY",
      "outputs": [
        {
          "internalType": "uint256",
          "name": "",
          "type": "uint256"
        }
      ],
      "stateMutability": "view",
      "type": "function"
    },
    {
      "inputs": [],
      "name": "REVENUE_FEE",
      "outputs": [
        {
          "internalType": "uint256",
          "name": "",
          "type": "uint256"
        }
      ],
      "stateMutability": "view",
      "type": "function"
    },
    {
      "inputs": [],
      "name": "TRANSFER_FEE",
      "outputs": [
        {
          "internalType": "uint256",
          "name": "",
          "type": "uint256"
        }
      ],
      "stateMutability": "view",
      "type": "function"
    },
    {
      "inputs": [
        {
          "internalType": "uint256",
          "name": "amount",
          "type": "uint256"
        }
      ],
      "name": "addToBuybackReserve",
      "outputs": [],
      "stateMutability": "nonpayable",
      "type": "function"
    },
    {
      "inputs": [
        {
          "internalType": "address",
          "name": "owner",
          "type": "address"
        },
        {
          "internalType": "address",
          "name": "spender",
          "type": "address"
        }
      ],
      "name": "allowance",
      "outputs": [
        {
          "internalType": "uint256",
          "name": "",
          "type": "uint256"
        }
      ],
      "stateMutability": "view",
      "type": "function"
    },
    {
      "inputs": [
        {
          "internalType": "address",
          "name": "spender",
          "type": "address"
        },
        {
          "internalType": "uint256",
          "name": "value",
          "type": "uint256"
        }
      ],
      "name": "approve",
      "outputs": [
        {
          "internalType": "bool",
          "name": "",
          "type": "bool"
        }
      ],
      "stateMutability": "nonpayable",
      "type": "function"
    },
    {
      "inputs": [
        {
          "internalType": "address",
          "name": "account",
          "type": "address"
        }
      ],
      "name": "balanceOf",
      "outputs": [
        {
          "internalType": "uint256",
          "name": "",
          "type": "uint256"
        }
      ],
      "stateMutability": "view",
      "type": "function"
    },
    {
      "inputs": [],
      "name": "buybackReserve",
      "outputs": [
        {
          "internalType": "uint256",
          "name": "",
          "type": "uint256"
        }
      ],
      "stateMutability": "view",
      "type": "function"
    },
    {
      "inputs": [],
      "name": "claimRevenueShare",
      "outputs": [],
      "stateMutability": "nonpayable",
      "type": "function"
    },
    {
      "inputs": [],
      "name": "decimals",
      "outputs": [
        {
          "internalType": "uint8",
          "name": "",
          "type": "uint8"
        }
      ],
      "stateMutability": "pure",
      "type": "function"
    },
    {
      "inputs": [
        {
          "internalType": "address",
          "name": "to",
          "type": "address"
        },
        {
          "internalType": "uint256",
          "name": "amount",
          "type": "uint256"
        }
      ],
      "name": "emergencyMint",
      "outputs": [],
      "stateMutability": "nonpayable",
      "type": "function"
    },
    {
      "inputs": [
        {
          "internalType": "uint256",
          "name": "amount",
          "type": "uint256"
        }
      ],
      "name": "executeBuyback",
      "outputs": [],
      "stateMutability": "nonpayable",
      "type": "function"
    },
    {
      "inputs": [
        {
          "internalType": "address",
          "name": "user",
          "type": "address"
        }
      ],
      "name": "getUserRevenueShare",
      "outputs": [
        {
          "internalType": "uint256",
          "name": "",
          "type": "uint256"
        }
      ],
      "stateMutability": "view",
      "type": "function"
    },
    {
      "inputs": [],
      "name": "name",
      "outputs": [
        {
          "internalType": "string",
          "name": "",
          "type": "string"
        }
      ],
      "stateMutability": "view",
      "type": "function"
    },
    {
      "inputs": [],
      "name": "owner",
      "outputs": [
        {
          "internalType": "address",
          "name": "",
          "type": "address"
        }
      ],
      "stateMutability": "view",
      "type": "function"
    },
    {
      "inputs": [],
      "name": "paused",
      "outputs": [
        {
          "internalType": "bool",
          "name": "",
          "type": "bool"
        }
      ],
      "stateMutability": "view",
      "type": "function"
    },
    {
      "inputs": [],
      "name": "renounceOwnership",
      "outputs": [],
      "stateMutability": "nonpayable",
      "type": "function"
    },
    {
      "inputs": [],
      "name": "revenuePool",
      "outputs": [
        {
          "internalType": "uint256",
          "name": "",
          "type": "uint256"
        }
      ],
      "stateMutability": "view",
      "type": "function"
    },
    {
      "inputs": [
        {
          "internalType": "uint256",
          "name": "amount",
          "type": "uint256"
        }
      ],
      "name": "stake",
      "outputs": [],
      "stateMutability": "nonpayable",
      "type": "function"
    },
    {
      "inputs": [
        {
          "internalType": "address",
          "name": "",
          "type": "address"
        }
      ],
      "name": "stakingBalance",
      "outputs": [
        {
          "internalType": "uint256",
          "name": "",
          "type": "uint256"
        }
      ],
      "stateMutability": "view",
      "type": "function"
    },
    {
      "inputs": [],
      "name": "symbol",
      "outputs": [
        {
          "internalType": "string",
          "name": "",
          "type": "string"
        }
      ],
      "stateMutability": "view",
      "type": "function"
    },
    {
      "inputs": [],
      "name": "totalBurned",
      "outputs": [
        {
          "internalType": "uint256",
          "name": "",
          "type": "uint256"
        }
      ],
      "stateMutability": "view",
      "type": "function"
    },
    {
      "inputs": [],
      "name": "totalStaked",
      "outputs": [
        {
          "internalType": "uint256",
          "name": "",
          "type": "uint256"
        }
      ],
      "stateMutability": "view",
      "type": "function"
    },
    {
      "inputs": [],
      "name": "totalSupply",
      "outputs": [
        {
          "internalType": "uint256",
          "name": "",
          "type": "uint256"
        }
      ],
      "stateMutability": "view",
      "type": "function"
    },
    {
      "inputs": [
        {
          "internalType": "address",
          "name": "to",
          "type": "address"
        },
        {
          "internalType": "uint256",
          "name": "value",
          "type": "uint256"
        }
      ],
      "name": "transfer",
      "outputs": [
        {
          "internalType": "bool",
          "name": "",
          "type": "bool"
        }
      ],
      "stateMutability": "nonpayable",
      "type": "function"
    },
    {
      "inputs": [
        {
          "internalType": "address",
          "name": "from",
          "type": "address"
        },
        {
          "internalType": "address",
          "name": "to",
          "type": "address"
        },
        {
          "internalType": "uint256",
          "name": "value",
          "type": "uint256"
        }
      ],
      "name": "transferFrom",
      "outputs": [
        {
          "internalType": "bool",
          "name": "",
          "type": "bool"
        }
      ],
      "stateMutability": "nonpayable",
      "type": "function"
    },
    {
      "inputs": [
        {
          "internalType": "address",
          "name": "newOwner",
          "type": "address"
        }
      ],
      "name": "transferOwnership",
      "outputs": [],
      "stateMutability": "nonpayable",
      "type": "function"
    },
    {
      "inputs": [
        {
          "internalType": "uint256",
          "name": "amount",
          "type": "uint256"
        }
      ],
      "name": "unstake",
      "outputs": [],
      "stateMutability": "nonpayable",
      "type": "function"
    }
  ],
  "bytecode": "0x60806040523480156200001157600080fd5b50336040518060400160405280600e81526020016d29ba3ab23c902a37b5b2b7102b1960911b8152506040518060400160405280600781526020016629aa2aa22cab1960c91b81525081600390816200006b91906200056c565b5060046200007a82826200056c565b5050506001600160a01b038116620000ad57604051631e4fbdf760e01b8152600060048201526024015b60405180910390fd5b620000b881620000e7565b50620000e133620000cc6012600a6200074d565b620000db90620f424062000765565b62000139565b620007ce565b600580546001600160a01b038381166001600160a01b0319831681179093556040519116919082907f8be0079c531659141344cd1fd0a4f28419497f9722a3daafe3b4186f6b6457e090600090a35050565b6001600160a01b038216620001655760405163ec442f0560e01b815260006004820152602401620000a4565b620001736000838362000177565b5050565b62000181620002c1565b6001600160a01b03831615801590620001a257506001600160a01b03821615155b8015620001bd57506005546001600160a01b03848116911614155b15620002af576000612710620001d560328462000765565b620001e191906200077f565b90506000612710620001f560328562000765565b6200020191906200077f565b905081156200026357620002168583620002f6565b81600660008282546200022a9190620007a2565b90915550506040518281527f6ef4855b666dcc7884561072e4358b28dfe01feb1b7f4dcebc00e62d50394ac79060200160405180910390a15b801562000291576200027785308362000330565b80600a60008282546200028b9190620007a2565b90915550505b806200029e8385620007b8565b620002aa9190620007b8565b925050505b620002bc83838362000395565b505050565b620002d5600554600160a01b900460ff1690565b15620002f45760405163d93c066560e01b815260040160405180910390fd5b565b6001600160a01b0382166200032257604051634b637e8f60e11b815260006004820152602401620000a4565b620001738260008362000177565b6001600160a01b0383166200035c57604051634b637e8f60e11b815260006004820152602401620000a4565b6001600160a01b038216620003885760405163ec442f0560e01b815260006004820152602401620000a4565b620002bc83838362000177565b6001600160a01b038316620003c4578060026000828254620003b89190620007a2565b90915550620004389050565b6001600160a01b03831660009081526020819052604090205481811015620004195760405163391434e360e21b81526001600160a01b03851660048201526024810182905260448101839052606401620000a4565b6001600160a01b03841660009081526020819052604090209082900390555b6001600160a01b038216620004565760028054829003905562000475565b6001600160a01b03821660009081526020819052604090208054820190555b816001600160a01b0316836001600160a01b03167fddf252ad1be2c89b69c2b068fc378daa952ba7f163c4a11628f55a4df523b3ef83604051620004bb91815260200190565b60405180910390a3505050565b634e487b7160e01b600052604160045260246000fd5b600181811c90821680620004f357607f821691505b6020821081036200051457634e487b7160e01b600052602260045260246000fd5b50919050565b601f821115620002bc57600081815260208120601f850160051c81016020861015620005435750805b601f850160051c820191505b8181101562000564578281556001016200054f565b505050505050565b81516001600160401b03811115620005885762000588620004c8565b620005a081620005998454620004de565b846200051a565b602080601f831160018114620005d85760008415620005bf5750858301515b600019600386901b1c1916600185901b17855562000564565b600085815260208120601f198616915b828110156200060957888601518255948401946001909101908401620005e8565b5085821015620006285787850151600019600388901b60f8161c191681555b5050505050600190811b01905550565b634e487b7160e01b600052601160045260246000fd5b600181815b808511156200068f57816000190482111562000673576200067362000638565b808516156200068157918102915b93841c939080029062000653565b509250929050565b600082620006a85750600162000747565b81620006b75750600062000747565b8160018114620006d05760028114620006db57620006fb565b600191505062000747565b60ff841115620006ef57620006ef62000638565b50506001821b62000747565b5060208310610133831016604e8410600b841016171562000720575081810a62000747565b6200072c83836200064e565b806000190482111562000743576200074362000638565b0290505b92915050565b60006200075e60ff84168362000697565b9392505050565b808202811582820484141762000747576200074762000638565b6000826200079d57634e487b7160e01b600052601260045260246000fd5b500490565b8082018082111562000747576200074762000638565b8181038181111562000747576200074762000638565b6113cc80620007de6000396000f3fe608060405234801561001057600080fd5b50600436106101cf5760003560e01c806354dffd0d116101045780638da5cb5b116100a2578063d89135cd11610071578063d89135cd14610388578063dd62ed3e14610391578063f2fde38b146103ca578063ff909560146103dd57600080fd5b80638da5cb5b1461033f57806395d89b411461035a578063a694fc3a14610362578063a9059cbb1461037557600080fd5b806370a08231116100de57806370a08231146102fc578063715018a6146103255780637f753de61461032d578063817b1cd21461033657600080fd5b806354dffd0d146102cf5780635c975abb146102d75780636869c673146102e957600080fd5b8063313ce5671161017157806343785dc91161014b57806343785dc9146102945780634421bd1e146102a757806345bc78ab146102af578063480df058146102a757600080fd5b8063313ce5671461027557806332cb6b0c14610284578063362651921461028c57600080fd5b806318160ddd116101ad57806318160ddd1461022a57806323b872dd1461023c5780632a1b6ba41461024f5780632e17de781461026257600080fd5b806306fdde03146101d4578063095ea7b3146101f25780630ec72f1914610215575b600080fd5b6101dc6103e6565b6040516101e991906110b6565b60405180910390f35b610205610200366004611120565b610478565b60405190151581526020016101e9565b61022861022336600461114a565b610492565b005b6002545b6040519081526020016101e9565b61020561024a366004611163565b61051a565b61022e61025d36600461119f565b61053e565b61022861027036600461114a565b610585565b604051601281526020016101e9565b61022e6106b6565b61022e606481565b6102286102a2366004611120565b6106d2565b61022e603281565b61022e6102bd36600461119f565b60086020526000908152604090205481565b6102286107b9565b600554600160a01b900460ff16610205565b6102286102f736600461114a565b6108d7565b61022e61030a36600461119f565b6001600160a01b031660009081526020819052604090205490565b6102286109fa565b61022e600a5481565b61022e60095481565b6005546040516001600160a01b0390911681526020016101e9565b6101dc610a0e565b61022861037036600461114a565b610a1d565b610205610383366004611120565b610b3d565b61022e60065481565b61022e61039f3660046111c1565b6001600160a01b03918216600090815260016020908152604080832093909416825291909152205490565b6102286103d836600461119f565b610b4b565b61022e60075481565b6060600380546103f5906111f4565b80601f0160208091040260200160405190810160405280929190818152602001828054610421906111f4565b801561046e5780601f106104435761010080835404028352916020019161046e565b820191906000526020600020905b81548152906001019060200180831161045157829003601f168201915b5050505050905090565b600033610486818585610b89565b60019150505b92915050565b61049a610b9b565b336000908152602081905260409020548111156104f55760405162461bcd60e51b8152602060048201526014602482015273496e73756666696369656e742062616c616e636560601b60448201526064015b60405180910390fd5b610500333083610bc8565b80600760008282546105129190611244565b909155505050565b600033610528858285610c27565b610533858585610bc8565b506001949350505050565b600060095460000361055257506000919050565b6009546001600160a01b038316600090815260086020526040902054600a5461057b9190611257565b61048c919061126e565b600081116105d55760405162461bcd60e51b815260206004820181905260248201527f416d6f756e74206d7573742062652067726561746572207468616e207a65726f60448201526064016104ec565b336000908152600860205260409020548111156106345760405162461bcd60e51b815260206004820152601b60248201527f496e73756666696369656e74207374616b65642062616c616e6365000000000060448201526064016104ec565b3360009081526008602052604081208054839290610653908490611290565b92505081905550806009600082825461066c9190611290565b9091555061067d9050303383610bc8565b60405181815233907f9845e367b683334e5c0b12d7b81721ac518e649376fa65e3d68324e8f34f2679906020015b60405180910390a250565b6106c26012600a611387565b6106cf9062989680611257565b81565b6106da610b9b565b6001600160a01b0382166107305760405162461bcd60e51b815260206004820152601b60248201527f43616e6e6f74206d696e7420746f207a65726f2061646472657373000000000060448201526064016104ec565b61073c6012600a611387565b6107499062989680611257565b8161075360025490565b61075d9190611244565b11156107ab5760405162461bcd60e51b815260206004820152601760248201527f576f756c6420657863656564206d617820737570706c7900000000000000000060448201526064016104ec565b6107b58282610ca6565b5050565b336000908152600860205260409020546108085760405162461bcd60e51b815260206004820152601060248201526f4e6f207374616b656420746f6b656e7360801b60448201526064016104ec565b60095433600090815260086020526040812054600a5491929161082b9190611257565b610835919061126e565b90506000811161087d5760405162461bcd60e51b81526020600482015260136024820152724e6f20726576656e756520746f20636c61696d60681b60448201526064016104ec565b80600a600082825461088f9190611290565b909155506108a09050303383610bc8565b6040518181527f4af957e83bae9af28d97033ead523ed57c0f21e021037b85ec168f156ab3b7a0906020015b60405180910390a150565b6108df610b9b565b6007548111156109315760405162461bcd60e51b815260206004820152601c60248201527f496e73756666696369656e74206275796261636b20726573657276650000000060448201526064016104ec565b306000908152602081905260409020548111156109905760405162461bcd60e51b815260206004820152601d60248201527f496e73756666696369656e7420636f6e74726163742062616c616e636500000060448201526064016104ec565b61099a3082610cdc565b80600760008282546109ac9190611290565b9250508190555080600660008282546109c59190611244565b90915550506040518181527fd2c5a6b66fbd4c28346666274dd95b77fd31d5c730deb119439b2b5482deafc9906020016108cc565b610a02610b9b565b610a0c6000610d12565b565b6060600480546103f5906111f4565b60008111610a6d5760405162461bcd60e51b815260206004820181905260248201527f416d6f756e74206d7573742062652067726561746572207468616e207a65726f60448201526064016104ec565b33600090815260208190526040902054811115610ac35760405162461bcd60e51b8152602060048201526014602482015273496e73756666696369656e742062616c616e636560601b60448201526064016104ec565b610ace333083610bc8565b3360009081526008602052604081208054839290610aed908490611244565b925050819055508060096000828254610b069190611244565b909155505060405181815233907fb539ca1e5c8d398ddf1c41c30166f33404941683be4683319b57669a93dad4ef906020016106ab565b600033610486818585610bc8565b610b53610b9b565b6001600160a01b038116610b7d57604051631e4fbdf760e01b8152600060048201526024016104ec565b610b8681610d12565b50565b610b968383836001610d64565b505050565b6005546001600160a01b03163314610a0c5760405163118cdaa760e01b81523360048201526024016104ec565b6001600160a01b038316610bf257604051634b637e8f60e11b8152600060048201526024016104ec565b6001600160a01b038216610c1c5760405163ec442f0560e01b8152600060048201526024016104ec565b610b96838383610e39565b6001600160a01b03838116600090815260016020908152604080832093861683529290522054600019811015610ca05781811015610c9157604051637dc7a0d960e11b81526001600160a01b038416600482015260248101829052604481018390526064016104ec565b610ca084848484036000610d64565b50505050565b6001600160a01b038216610cd05760405163ec442f0560e01b8152600060048201526024016104ec565b6107b560008383610e39565b6001600160a01b038216610d0657604051634b637e8f60e11b8152600060048201526024016104ec565b6107b582600083610e39565b600580546001600160a01b038381166001600160a01b0319831681179093556040519116919082907f8be0079c531659141344cd1fd0a4f28419497f9722a3daafe3b4186f6b6457e090600090a35050565b6001600160a01b038416610d8e5760405163e602df0560e01b8152600060048201526024016104ec565b6001600160a01b038316610db857604051634a1406b160e11b8152600060048201526024016104ec565b6001600160a01b0380851660009081526001602090815260408083209387168352929052208290558015610ca057826001600160a01b0316846001600160a01b03167f8c5be1e5ebec7d5bd14f71427d1e84f3dd0314c0f7b2291e5b200ac8c7c3b92584604051610e2b91815260200190565b60405180910390a350505050565b610e41610f61565b6001600160a01b03831615801590610e6157506001600160a01b03821615155b8015610e7b57506005546001600160a01b03848116911614155b15610f56576000612710610e90603284611257565b610e9a919061126e565b90506000612710610eac603285611257565b610eb6919061126e565b90508115610f1357610ec88583610cdc565b8160066000828254610eda9190611244565b90915550506040518281527f6ef4855b666dcc7884561072e4358b28dfe01feb1b7f4dcebc00e62d50394ac79060200160405180910390a15b8015610f3c57610f24853083610bc8565b80600a6000828254610f369190611244565b90915550505b80610f478385611290565b610f519190611290565b925050505b610b96838383610f8c565b600554600160a01b900460ff1615610a0c5760405163d93c066560e01b815260040160405180910390fd5b6001600160a01b038316610fb7578060026000828254610fac9190611244565b909155506110299050565b6001600160a01b0383166000908152602081905260409020548181101561100a5760405163391434e360e21b81526001600160a01b038516600482015260248101829052604481018390526064016104ec565b6001600160a01b03841660009081526020819052604090209082900390555b6001600160a01b03821661104557600280548290039055611064565b6001600160a01b03821660009081526020819052604090208054820190555b816001600160a01b0316836001600160a01b03167fddf252ad1be2c89b69c2b068fc378daa952ba7f163c4a11628f55a4df523b3ef836040516110a991815260200190565b60405180910390a3505050565b600060208083528351808285015260005b818110156110e3578581018301518582016040015282016110c7565b506000604082860101526040601f19601f8301168501019250505092915050565b80356001600160a01b038116811461111b57600080fd5b919050565b6000806040838503121561113357600080fd5b61113c83611104565b946020939093013593505050565b60006020828403121561115c57600080fd5b5035919050565b60008060006060848603121561117857600080fd5b61118184611104565b925061118f60208501611104565b9150604084013590509250925092565b6000602082840312156111b157600080fd5b6111ba82611104565b9392505050565b600080604083850312156111d457600080fd5b6111dd83611104565b91506111eb60208401611104565b90509250929050565b600181811c9082168061120857607f821691505b60208210810361122857634e487b7160e01b600052602260045260246000fd5b50919050565b634e487b7160e01b600052601160045260246000fd5b8082018082111561048c5761048c61122e565b808202811582820484141761048c5761048c61122e565b60008261128b57634e487b7160e01b600052601260045260246000fd5b500490565b8181038181111561048c5761048c61122e565b600181815b808511156112de5781600019048211156112c4576112c461122e565b808516156112d157918102915b93841c93908002906112a8565b509250929050565b6000826112f55750600161048c565b816113025750600061048c565b816001811461131857600281146113225761133e565b600191505061048c565b60ff8411156113335761133361122e565b50506001821b61048c565b5060208310610133831016604e8410600b8410161715611361575081810a61048c565b61136b83836112a3565b806000190482111561137f5761137f61122e565b029392505050565b60006111ba60ff8416836112e656fea2646970667358221220328588ea378ba30b865b174f568af557693e6ed078c78b193aeafb9477a2110b64736f6c63430008140033",
  "linkReferences": {},
  "deployedLinkReferences": {}
}