{
  "_format": "hh-sol-artifact-1",
  "contractName": "SessionManager",
  "sourceName": "contracts/SessionManager.sol",
  "abi": [
    {
      "inputs": [
        {
          "internalType": "address",
          "name": "_studyToken",
          "type": "address"
        }
      ],
      "stateMutability": "nonpayable",
      "type": "constructor"
    },
    {
      "inputs": [],
      "name": "EnforcedPause",
      "type": "error"
    },
    {
      "inputs": [],
      "name": "ExpectedPause",
      "type": "error"
    },
    {
      "inputs": [
        {
          "internalType": "address",
          "name": "owner",
          "type": "address"
        }
      ],
      "name": "OwnableInvalidOwner",
      "type": "error"
    },
    {
      "inputs": [
        {
          "internalType": "address",
          "name": "account",
          "type": "address"
        }
      ],
      "name": "OwnableUnauthorizedAccount",
      "type": "error"
    },
    {
      "anonymous": false,
      "inputs": [
        {
          "indexed": true,
          "internalType": "uint256",
          "name": "sessionId",
          "type": "uint256"
        },
        {
          "indexed": true,
          "internalType": "address",
          "name": "user",
          "type": "address"
        },
        {
          "indexed": false,
          "internalType": "uint256",
          "name": "timestamp",
          "type": "uint256"
        }
      ],
      "name": "EngagementCheck",
      "type": "event"
    },
    {
      "anonymous": false,
      "inputs": [
        {
          "indexed": true,
          "internalType": "address",
          "name": "previousOwner",
          "type": "address"
        },
        {
          "indexed": true,
          "internalType": "address",
          "name": "newOwner",
          "type": "address"
        }
      ],
      "name": "OwnershipTransferred",
      "type": "event"
    },
    {
      "anonymous": false,
      "inputs": [
        {
          "indexed": false,
          "internalType": "address",
          "name": "account",
          "type": "address"
        }
      ],
      "name": "Paused",
      "type": "event"
    },
    {
      "anonymous": false,
      "inputs": [
        {
          "indexed": true,
          "internalType": "uint256",
          "name": "sessionId",
          "type": "uint256"
        },
        {
          "indexed": true,
          "internalType": "address",
          "name": "user",
          "type": "address"
        },
        {
          "indexed": false,
          "internalType": "uint256",
          "name": "score",
          "type": "uint256"
        },
        {
          "indexed": false,
          "internalType": "bool",
          "name": "passed",
          "type": "bool"
        }
      ],
      "name": "QuizCompleted",
      "type": "event"
    },
    {
      "anonymous": false,
      "inputs": [
        {
          "indexed": true,
          "internalType": "uint256",
          "name": "sessionId",
          "type": "uint256"
        },
        {
          "indexed": true,
          "internalType": "address",
          "name": "user",
          "type": "address"
        },
        {
          "indexed": false,
          "internalType": "uint256",
          "name": "duration",
          "type": "uint256"
        }
      ],
      "name": "SessionAbandoned",
      "type": "event"
    },
    {
      "anonymous": false,
      "inputs": [
        {
          "indexed": true,
          "internalType": "uint256",
          "name": "sessionId",
          "type": "uint256"
        },
        {
          "indexed": true,
          "internalType": "address",
          "name": "user",
          "type": "address"
        },
        {
          "indexed": false,
          "internalType": "uint256",
          "name": "studyTime",
          "type": "uint256"
        },
        {
          "indexed": false,
          "internalType": "bool",
          "name": "hasEngagement",
          "type": "bool"
        }
      ],
      "name": "SessionCompleted",
      "type": "event"
    },
    {
      "anonymous": false,
      "inputs": [
        {
          "indexed": true,
          "internalType": "uint256",
          "name": "sessionId",
          "type": "uint256"
        },
        {
          "indexed": true,
          "internalType": "address",
          "name": "user",
          "type": "address"
        },
        {
          "indexed": false,
          "internalType": "string",
          "name": "topic",
          "type": "string"
        }
      ],
      "name": "SessionStarted",
      "type": "event"
    },
    {
      "anonymous": false,
      "inputs": [
        {
          "indexed": false,
          "internalType": "address",
          "name": "account",
          "type": "address"
        }
      ],
      "name": "Unpaused",
      "type": "event"
    },
    {
      "inputs": [],
      "name": "ENGAGEMENT_INTERVAL",
      "outputs": [
        {
          "internalType": "uint256",
          "name": "",
          "type": "uint256"
        }
      ],
      "stateMutability": "view",
      "type": "function"
    },
    {
      "inputs": [],
      "name": "MIN_ENGAGEMENT_CHECKS",
      "outputs": [
        {
          "internalType": "uint256",
          "name": "",
          "type": "uint256"
        }
      ],
      "stateMutability": "view",
      "type": "function"
    },
    {
      "inputs": [],
      "name": "MIN_SESSION_DURATION",
      "outputs": [
        {
          "internalType": "uint256",
          "name": "",
          "type": "uint256"
        }
      ],
      "stateMutability": "view",
      "type": "function"
    },
    {
      "inputs": [],
      "name": "QUIZ_PASSING_SCORE",
      "outputs": [
        {
          "internalType": "uint256",
          "name": "",
          "type": "uint256"
        }
      ],
      "stateMutability": "view",
      "type": "function"
    },
    {
      "inputs": [
        {
          "internalType": "uint256",
          "name": "sessionId",
          "type": "uint256"
        },
        {
          "internalType": "address",
          "name": "user",
          "type": "address"
        }
      ],
      "name": "abandonSession",
      "outputs": [],
      "stateMutability": "nonpayable",
      "type": "function"
    },
    {
      "inputs": [
        {
          "internalType": "uint256",
          "name": "sessionId",
          "type": "uint256"
        }
      ],
      "name": "checkEngagement",
      "outputs": [
        {
          "internalType": "bool",
          "name": "",
          "type": "bool"
        }
      ],
      "stateMutability": "view",
      "type": "function"
    },
    {
      "inputs": [
        {
          "internalType": "uint256",
          "name": "sessionId",
          "type": "uint256"
        },
        {
          "internalType": "address",
          "name": "user",
          "type": "address"
        },
        {
          "internalType": "uint256",
          "name": "quizScore",
          "type": "uint256"
        }
      ],
      "name": "completeSession",
      "outputs": [],
      "stateMutability": "nonpayable",
      "type": "function"
    },
    {
      "inputs": [
        {
          "internalType": "address",
          "name": "user",
          "type": "address"
        }
      ],
      "name": "getActiveSessions",
      "outputs": [
        {
          "internalType": "uint256[]",
          "name": "",
          "type": "uint256[]"
        }
      ],
      "stateMutability": "view",
      "type": "function"
    },
    {
      "inputs": [
        {
          "internalType": "uint256",
          "name": "sessionId",
          "type": "uint256"
        }
      ],
      "name": "getNextEngagementTime",
      "outputs": [
        {
          "internalType": "uint256",
          "name": "",
          "type": "uint256"
        }
      ],
      "stateMutability": "view",
      "type": "function"
    },
    {
      "inputs": [
        {
          "internalType": "uint256",
          "name": "sessionId",
          "type": "uint256"
        }
      ],
      "name": "getSession",
      "outputs": [
        {
          "components": [
            {
              "internalType": "uint256",
              "name": "sessionId",
              "type": "uint256"
            },
            {
              "internalType": "address",
              "name": "user",
              "type": "address"
            },
            {
              "internalType": "uint256",
              "name": "startTime",
              "type": "uint256"
            },
            {
              "internalType": "uint256",
              "name": "endTime",
              "type": "uint256"
            },
            {
              "internalType": "uint256",
              "name": "studyTimeSeconds",
              "type": "uint256"
            },
            {
              "internalType": "bool",
              "name": "isCompleted",
              "type": "bool"
            },
            {
              "internalType": "bool",
              "name": "hasEngagement",
              "type": "bool"
            },
            {
              "internalType": "bool",
              "name": "hasQuizPassed",
              "type": "bool"
            },
            {
              "internalType": "uint256",
              "name": "quizScore",
              "type": "uint256"
            },
            {
              "internalType": "uint256",
              "name": "engagementChecks",
              "type": "uint256"
            },
            {
              "internalType": "uint256",
              "name": "lastEngagementTime",
              "type": "uint256"
            },
            {
              "internalType": "string",
              "name": "sessionTopic",
              "type": "string"
            },
            {
              "internalType": "string",
              "name": "sessionContent",
              "type": "string"
            }
          ],
          "internalType": "struct SessionManager.Session",
          "name": "",
          "type": "tuple"
        }
      ],
      "stateMutability": "view",
      "type": "function"
    },
    {
      "inputs": [
        {
          "internalType": "address",
          "name": "user",
          "type": "address"
        }
      ],
      "name": "getUserSessionStats",
      "outputs": [
        {
          "internalType": "uint256",
          "name": "totalSessions",
          "type": "uint256"
        },
        {
          "internalType": "uint256",
          "name": "completedSessions",
          "type": "uint256"
        },
        {
          "internalType": "uint256",
          "name": "quizPassedSessions",
          "type": "uint256"
        },
        {
          "internalType": "uint256",
          "name": "totalStudyTime",
          "type": "uint256"
        }
      ],
      "stateMutability": "view",
      "type": "function"
    },
    {
      "inputs": [
        {
          "internalType": "address",
          "name": "user",
          "type": "address"
        }
      ],
      "name": "getUserSessions",
      "outputs": [
        {
          "internalType": "uint256[]",
          "name": "",
          "type": "uint256[]"
        }
      ],
      "stateMutability": "view",
      "type": "function"
    },
    {
      "inputs": [],
      "name": "owner",
      "outputs": [
        {
          "internalType": "address",
          "name": "",
          "type": "address"
        }
      ],
      "stateMutability": "view",
      "type": "function"
    },
    {
      "inputs": [],
      "name": "pause",
      "outputs": [],
      "stateMutability": "nonpayable",
      "type": "function"
    },
    {
      "inputs": [],
      "name": "paused",
      "outputs": [
        {
          "internalType": "bool",
          "name": "",
          "type": "bool"
        }
      ],
      "stateMutability": "view",
      "type": "function"
    },
    {
      "inputs": [
        {
          "internalType": "uint256",
          "name": "sessionId",
          "type": "uint256"
        },
        {
          "internalType": "address",
          "name": "user",
          "type": "address"
        }
      ],
      "name": "recordEngagement",
      "outputs": [],
      "stateMutability": "nonpayable",
      "type": "function"
    },
    {
      "inputs": [],
      "name": "renounceOwnership",
      "outputs": [],
      "stateMutability": "nonpayable",
      "type": "function"
    },
    {
      "inputs": [
        {
          "internalType": "uint256",
          "name": "",
          "type": "uint256"
        }
      ],
      "name": "sessions",
      "outputs": [
        {
          "internalType": "uint256",
          "name": "sessionId",
          "type": "uint256"
        },
        {
          "internalType": "address",
          "name": "user",
          "type": "address"
        },
        {
          "internalType": "uint256",
          "name": "startTime",
          "type": "uint256"
        },
        {
          "internalType": "uint256",
          "name": "endTime",
          "type": "uint256"
        },
        {
          "internalType": "uint256",
          "name": "studyTimeSeconds",
          "type": "uint256"
        },
        {
          "internalType": "bool",
          "name": "isCompleted",
          "type": "bool"
        },
        {
          "internalType": "bool",
          "name": "hasEngagement",
          "type": "bool"
        },
        {
          "internalType": "bool",
          "name": "hasQuizPassed",
          "type": "bool"
        },
        {
          "internalType": "uint256",
          "name": "quizScore",
          "type": "uint256"
        },
        {
          "internalType": "uint256",
          "name": "engagementChecks",
          "type": "uint256"
        },
        {
          "internalType": "uint256",
          "name": "lastEngagementTime",
          "type": "uint256"
        },
        {
          "internalType": "string",
          "name": "sessionTopic",
          "type": "string"
        },
        {
          "internalType": "string",
          "name": "sessionContent",
          "type": "string"
        }
      ],
      "stateMutability": "view",
      "type": "function"
    },
    {
      "inputs": [
        {
          "internalType": "address",
          "name": "user",
          "type": "address"
        },
        {
          "internalType": "string",
          "name": "topic",
          "type": "string"
        },
        {
          "internalType": "string",
          "name": "content",
          "type": "string"
        }
      ],
      "name": "startSession",
      "outputs": [
        {
          "internalType": "uint256",
          "name": "",
          "type": "uint256"
        }
      ],
      "stateMutability": "nonpayable",
      "type": "function"
    },
    {
      "inputs": [],
      "name": "studyToken",
      "outputs": [
        {
          "internalType": "contract StudyToken",
          "name": "",
          "type": "address"
        }
      ],
      "stateMutability": "view",
      "type": "function"
    },
    {
      "inputs": [
        {
          "internalType": "address",
          "name": "newOwner",
          "type": "address"
        }
      ],
      "name": "transferOwnership",
      "outputs": [],
      "stateMutability": "nonpayable",
      "type": "function"
    },
    {
      "inputs": [],
      "name": "unpause",
      "outputs": [],
      "stateMutability": "nonpayable",
      "type": "function"
    },
    {
      "inputs": [
        {
          "internalType": "address",
          "name": "newStudyToken",
          "type": "address"
        }
      ],
      "name": "updateStudyToken",
      "outputs": [],
      "stateMutability": "nonpayable",
      "type": "function"
    },
    {
      "inputs": [
        {
          "internalType": "address",
          "name": "",
          "type": "address"
        }
      ],
      "name": "userSessionCount",
      "outputs": [
        {
          "internalType": "uint256",
          "name": "",
          "type": "uint256"
        }
      ],
      "stateMutability": "view",
      "type": "function"
    },
    {
      "inputs": [
        {
          "internalType": "address",
          "name": "",
          "type": "address"
        },
        {
          "internalType": "uint256",
          "name": "",
          "type": "uint256"
        }
      ],
      "name": "userSessions",
      "outputs": [
        {
          "internalType": "uint256",
          "name": "",
          "type": "uint256"
        }
      ],
      "stateMutability": "view",
      "type": "function"
    }
  ],
  "bytecode": "0x60806040523480156200001157600080fd5b50604051620024ad380380620024ad833981016040819052620000349162000136565b33806200005c57604051631e4fbdf760e01b8152600060048201526024015b60405180910390fd5b6200006781620000e6565b506001600160a01b038116620000c05760405162461bcd60e51b815260206004820152601a60248201527f496e76616c6964205374756479546f6b656e2061646472657373000000000000604482015260640162000053565b600580546001600160a01b0319166001600160a01b039290921691909117905562000168565b600080546001600160a01b038381166001600160a01b0319831681178455604051919092169283917f8be0079c531659141344cd1fd0a4f28419497f9722a3daafe3b4186f6b6457e09190a35050565b6000602082840312156200014957600080fd5b81516001600160a01b03811681146200016157600080fd5b9392505050565b61233580620001786000396000f3fe608060405234801561001057600080fd5b50600436106101735760003560e01c80637d980286116100de578063a7481b5b11610097578063e611903311610071578063e61190331461035c578063ed2505c71461036f578063f2fde38b14610378578063f5edfc821461038b57600080fd5b8063a7481b5b14610323578063cdcf67ed14610336578063d167c9221461034957600080fd5b80637d980286146102a657806380ea53de146102af57806383c4b7a3146102c25780638456cb59146102ee57806386e9849e146102f65780638da5cb5b146102fe57600080fd5b8063402ff0db11610130578063402ff0db1461021e5780635a988a231461023e5780635c975abb146102715780636d597d1314610283578063715018a6146102965780637c73c82b1461029e57600080fd5b8063063e8eae1461017857806307e7cfb11461018d5780630f54e6f2146101a0578063223715dd146101d35780633a81273e146101f35780633f4ba83a14610216575b600080fd5b61018b610186366004611cbb565b61039e565b005b61018b61019b366004611cf0565b610681565b6101c06101ae366004611cf0565b60036020526000908152604090205481565b6040519081526020015b60405180910390f35b6101e66101e1366004611cf0565b610701565b6040516101ca9190611d0b565b610206610201366004611d4f565b61076d565b60405190151581526020016101ca565b61018b6109a4565b61023161022c366004611d4f565b6109b6565b6040516101ca9190611dae565b61025161024c366004611cf0565b610c33565b6040805194855260208501939093529183015260608201526080016101ca565b600054600160a01b900460ff16610206565b6101c0610291366004611e99565b610f0f565b61018b610f40565b6101c0600481565b6101c06104b081565b6101e66102bd366004611cf0565b610f52565b6102d56102d0366004611d4f565b611305565b6040516101ca9d9c9b9a99989796959493929190611ec3565b61018b61148e565b6101c0604681565b6000546001600160a01b03165b6040516001600160a01b0390911681526020016101ca565b60055461030b906001600160a01b031681565b6101c0610344366004611d4f565b61149e565b61018b610357366004611f59565b6116c3565b61018b61036a366004611f59565b6117dd565b6101c061012c81565b61018b610386366004611cf0565b6118f2565b6101c0610399366004612028565b611930565b6103a6611b35565b6000831180156103b857506004548311155b6103dd5760405162461bcd60e51b81526004016103d49061209c565b60405180910390fd5b6000838152600160208190526040909120908101546001600160a01b0384811691161461041c5760405162461bcd60e51b81526004016103d4906120c8565b600581015460ff16156104415760405162461bcd60e51b81526004016103d4906120ff565b6000816002015442610453919061214c565b90506104b081101561049b5760405162461bcd60e51b815260206004820152601160248201527014d95cdcda5bdb881d1bdbc81cda1bdc9d607a1b60448201526064016103d4565b60078201544260038401556004808401839055600580850180546006870188905561ffff19169383111561010081029490941760011762ff0000191660468810156201000002179055546040516301be37b560e31b81526001600160a01b0388811693820193909352602481018990526044810185905260648101849052911690630df1bda890608401600060405180830381600087803b15801561053f57600080fd5b505af1158015610553573d6000803e3d6000fd5b50505050600583015462010000900460ff16156105d857600554604051639d9efb5360e01b81526001600160a01b038781166004830152602482018990526044820187905290911690639d9efb5390606401600060405180830381600087803b1580156105bf57600080fd5b505af11580156105d3573d6000803e3d6000fd5b505050505b6040805183815282151560208201526001600160a01b0387169188917f50828a772ac38e048753d9360e0e1007109098931e7d472c3e19abc44f4ab52a910160405180910390a3600583015462010000900460ff16156106795760408051858152600160208201526001600160a01b0387169188917faf5b47078028af73960594a838023f34aede9401b58c6db90e35b20061773cc0910160405180910390a35b505050505050565b610689611b35565b6001600160a01b0381166106df5760405162461bcd60e51b815260206004820152601a60248201527f496e76616c6964205374756479546f6b656e206164647265737300000000000060448201526064016103d4565b600580546001600160a01b0319166001600160a01b0392909216919091179055565b6001600160a01b03811660009081526002602090815260409182902080548351818402810184019094528084526060939283018282801561076157602002820191906000526020600020905b81548152602001906001019080831161074d575b50505050509050919050565b6000808211801561078057506004548211155b61079c5760405162461bcd60e51b81526004016103d49061209c565b600082815260016020818152604080842081516101a08101835281548152938101546001600160a01b0316928401929092526002820154908301526003810154606083015260048101546080830152600581015460ff808216151560a08501526101008083048216151560c08601526201000090920416151560e0840152600682015490830152600781015461012083015260088101546101408301526009810180546101608401919061084f90612165565b80601f016020809104026020016040519081016040528092919081815260200182805461087b90612165565b80156108c85780601f1061089d576101008083540402835291602001916108c8565b820191906000526020600020905b8154815290600101906020018083116108ab57829003601f168201915b50505050508152602001600a820180546108e190612165565b80601f016020809104026020016040519081016040528092919081815260200182805461090d90612165565b801561095a5780601f1061092f5761010080835404028352916020019161095a565b820191906000526020600020905b81548152906001019060200180831161093d57829003601f168201915b50505050508152505090506000429050600082604001518261097c919061214c565b90506104b081101561099357506000949350505050565b505061012001516004111592915050565b6109ac611b35565b6109b4611b62565b565b610a30604051806101a001604052806000815260200160006001600160a01b0316815260200160008152602001600081526020016000815260200160001515815260200160001515815260200160001515815260200160008152602001600081526020016000815260200160608152602001606081525090565b600082118015610a4257506004548211155b610a5e5760405162461bcd60e51b81526004016103d49061209c565b60008281526001602081815260409283902083516101a08101855281548152928101546001600160a01b0316918301919091526002810154928201929092526003820154606082015260048201546080820152600582015460ff808216151560a08401526101008083048216151560c08501526201000090920416151560e08301526006830154908201526007820154610120820152600882015461014082015260098201805491929161016084019190610b1890612165565b80601f0160208091040260200160405190810160405280929190818152602001828054610b4490612165565b8015610b915780601f10610b6657610100808354040283529160200191610b91565b820191906000526020600020905b815481529060010190602001808311610b7457829003601f168201915b50505050508152602001600a82018054610baa90612165565b80601f0160208091040260200160405190810160405280929190818152602001828054610bd690612165565b8015610c235780601f10610bf857610100808354040283529160200191610c23565b820191906000526020600020905b815481529060010190602001808311610c0657829003601f168201915b5050505050815250509050919050565b600080600080600060026000876001600160a01b03166001600160a01b03168152602001908152602001600020805480602002602001604051908101604052809291908181526020018280548015610caa57602002820191906000526020600020905b815481526020019060010190808311610c96575b505050505090508051945060005b8151811015610f0657600060016000848481518110610cd957610cd961219f565b602090810291909101810151825281810192909252604090810160002081516101a0810183528154815260018201546001600160a01b0316938101939093526002810154918301919091526003810154606083015260048101546080830152600581015460ff808216151560a08501526101008083048216151560c08601526201000090920416151560e08401526006820154908301526007810154610120830152600881015461014083015260098101805461016084019190610d9c90612165565b80601f0160208091040260200160405190810160405280929190818152602001828054610dc890612165565b8015610e155780601f10610dea57610100808354040283529160200191610e15565b820191906000526020600020905b815481529060010190602001808311610df857829003601f168201915b50505050508152602001600a82018054610e2e90612165565b80601f0160208091040260200160405190810160405280929190818152602001828054610e5a90612165565b8015610ea75780601f10610e7c57610100808354040283529160200191610ea7565b820191906000526020600020905b815481529060010190602001808311610e8a57829003601f168201915b50505050508152505090508060a0015115610ef35785610ec6816121b5565b965050806080015184610ed991906121ce565b93508060e0015115610ef35784610eef816121b5565b9550505b5080610efe816121b5565b915050610cb8565b50509193509193565b60026020528160005260406000208181548110610f2b57600080fd5b90600052602060002001600091509150505481565b610f48611b35565b6109b46000611bb7565b6001600160a01b0381166000908152600260209081526040808320805482518185028101850190935280835260609493830182828015610fb157602002820191906000526020600020905b815481526020019060010190808311610f9d575b505050505090506000815167ffffffffffffffff811115610fd457610fd4611f85565b604051908082528060200260200182016040528015610ffd578160200160208202803683370190505b5090506000805b835181101561125f576000600160008684815181106110255761102561219f565b602090810291909101810151825281810192909252604090810160002081516101a0810183528154815260018201546001600160a01b0316938101939093526002810154918301919091526003810154606083015260048101546080830152600581015460ff808216151560a08501526101008083048216151560c08601526201000090920416151560e084015260068201549083015260078101546101208301526008810154610140830152600981018054610160840191906110e890612165565b80601f016020809104026020016040519081016040528092919081815260200182805461111490612165565b80156111615780601f1061113657610100808354040283529160200191611161565b820191906000526020600020905b81548152906001019060200180831161114457829003601f168201915b50505050508152602001600a8201805461117a90612165565b80601f01602080910402602001604051908101604052809291908181526020018280546111a690612165565b80156111f35780601f106111c8576101008083540402835291602001916111f3565b820191906000526020600020905b8154815290600101906020018083116111d657829003601f168201915b50505050508152505090508060a0015161124c578482815181106112195761121961219f565b60200260200101518484815181106112335761123361219f565b602090810291909101015282611248816121b5565b9350505b5080611257816121b5565b915050611004565b5060008167ffffffffffffffff81111561127b5761127b611f85565b6040519080825280602002602001820160405280156112a4578160200160208202803683370190505b50905060005b828110156112fb578381815181106112c4576112c461219f565b60200260200101518282815181106112de576112de61219f565b6020908102919091010152806112f3816121b5565b9150506112aa565b5095945050505050565b600160208190526000918252604090912080549181015460028201546003830154600484015460058501546006860154600787015460088801546009890180546001600160a01b039099169997989697959660ff80871697610100880482169762010000900490911695949392909161137d90612165565b80601f01602080910402602001604051908101604052809291908181526020018280546113a990612165565b80156113f65780601f106113cb576101008083540402835291602001916113f6565b820191906000526020600020905b8154815290600101906020018083116113d957829003601f168201915b50505050509080600a01805461140b90612165565b80601f016020809104026020016040519081016040528092919081815260200182805461143790612165565b80156114845780601f1061145957610100808354040283529160200191611484565b820191906000526020600020905b81548152906001019060200180831161146757829003601f168201915b505050505090508d565b611496611b35565b6109b4611c07565b600080821180156114b157506004548211155b6114cd5760405162461bcd60e51b81526004016103d49061209c565b600082815260016020818152604080842081516101a08101835281548152938101546001600160a01b0316928401929092526002820154908301526003810154606083015260048101546080830152600581015460ff808216151560a08501526101008083048216151560c08601526201000090920416151560e0840152600682015490830152600781015461012083015260088101546101408301526009810180546101608401919061158090612165565b80601f01602080910402602001604051908101604052809291908181526020018280546115ac90612165565b80156115f95780601f106115ce576101008083540402835291602001916115f9565b820191906000526020600020905b8154815290600101906020018083116115dc57829003601f168201915b50505050508152602001600a8201805461161290612165565b80601f016020809104026020016040519081016040528092919081815260200182805461163e90612165565b801561168b5780601f106116605761010080835404028352916020019161168b565b820191906000526020600020905b81548152906001019060200180831161166e57829003601f168201915b50505050508152505090508060a00151156116a95750600092915050565b61012c8161014001516116bc91906121ce565b9392505050565b6116cb611b35565b6000821180156116dd57506004548211155b6116f95760405162461bcd60e51b81526004016103d49061209c565b6000828152600160208190526040909120908101546001600160a01b038381169116146117385760405162461bcd60e51b81526004016103d4906120c8565b600581015460ff161561175d5760405162461bcd60e51b81526004016103d4906120ff565b600081600201544261176f919061214c565b4260038401556004830181905560058301805462ffffff191660011790556040519091506001600160a01b0384169085907fd0923f83d828fe48b7f77aa3870d73181d803dac6237e9932d9015493179ccaf906117cf9085815260200190565b60405180910390a350505050565b6117e5611b35565b6000821180156117f757506004548211155b6118135760405162461bcd60e51b81526004016103d49061209c565b6000828152600160208190526040909120908101546001600160a01b038381169116146118525760405162461bcd60e51b81526004016103d4906120c8565b600581015460ff16156118775760405162461bcd60e51b81526004016103d4906120ff565b6008810154429061188b9061012c906121ce565b81106118ec576007820180549060006118a3836121b5565b9091555050600882018190556040518181526001600160a01b0384169085907f7c13e24867db03a375a3617be3d8eefa58095d20d338593bf6fcd72021e607ba906020016117cf565b50505050565b6118fa611b35565b6001600160a01b03811661192457604051631e4fbdf760e01b8152600060048201526024016103d4565b61192d81611bb7565b50565b600061193a611b35565b6001600160a01b0384166119875760405162461bcd60e51b8152602060048201526014602482015273496e76616c69642075736572206164647265737360601b60448201526064016103d4565b60008351116119d05760405162461bcd60e51b8152602060048201526015602482015274546f7069632063616e6e6f7420626520656d70747960581b60448201526064016103d4565b600480549060006119e0836121b5565b9091555050600454600081815260016020819052604090912082815590810180546001600160a01b0319166001600160a01b03881617905542600282015560098101611a2c868261222c565b50600a8101611a3b858261222c565b506001600160a01b038616600081815260026020908152604080832080546001810182559084528284200186905592825260039052908120805491611a7f836121b5565b90915550506005546040516304508e9160e21b81526001600160a01b03888116600483015260248201859052909116906311423a4490604401600060405180830381600087803b158015611ad257600080fd5b505af1158015611ae6573d6000803e3d6000fd5b50505050856001600160a01b0316827f6b14fb41f0ae1763aee4b101836961e9fbe2a12704673a4f810411ec326eb79187604051611b2491906122ec565b60405180910390a350949350505050565b6000546001600160a01b031633146109b45760405163118cdaa760e01b81523360048201526024016103d4565b611b6a611c4a565b6000805460ff60a01b191690557f5db9ee0a495bf2e6ff9c91a7834c1ba4fdd244a5e8aa4e537bd38aeae4b073aa335b6040516001600160a01b03909116815260200160405180910390a1565b600080546001600160a01b038381166001600160a01b0319831681178455604051919092169283917f8be0079c531659141344cd1fd0a4f28419497f9722a3daafe3b4186f6b6457e09190a35050565b611c0f611c74565b6000805460ff60a01b1916600160a01b1790557f62e78cea01bee320cd4e420270b5ea74000d11b0c9f74754ebdbfc544b05a258611b9a3390565b600054600160a01b900460ff166109b457604051638dfc202b60e01b815260040160405180910390fd5b600054600160a01b900460ff16156109b45760405163d93c066560e01b815260040160405180910390fd5b80356001600160a01b0381168114611cb657600080fd5b919050565b600080600060608486031215611cd057600080fd5b83359250611ce060208501611c9f565b9150604084013590509250925092565b600060208284031215611d0257600080fd5b6116bc82611c9f565b6020808252825182820181905260009190848201906040850190845b81811015611d4357835183529284019291840191600101611d27565b50909695505050505050565b600060208284031215611d6157600080fd5b5035919050565b6000815180845260005b81811015611d8e57602081850181015186830182015201611d72565b506000602082860101526020601f19601f83011685010191505092915050565b602081528151602082015260006020830151611dd560408401826001600160a01b03169052565b506040830151606083015260608301516080830152608083015160a083015260a0830151611e0760c084018215159052565b5060c083015180151560e08401525060e0830151610100611e2b8185018315159052565b8401516101208481019190915284015161014080850191909152840151610160808501919091528401516101a061018080860182905291925090611e736101c0860184611d68565b90860151858203601f190183870152909250611e8f8382611d68565b9695505050505050565b60008060408385031215611eac57600080fd5b611eb583611c9f565b946020939093013593505050565b8d81526001600160a01b038d166020820152604081018c9052606081018b9052608081018a905288151560a082015287151560c082015260006101a088151560e084015287610100840152866101208401528561014084015280610160840152611f2f81840186611d68565b9050828103610180840152611f448185611d68565b9150509e9d5050505050505050505050505050565b60008060408385031215611f6c57600080fd5b82359150611f7c60208401611c9f565b90509250929050565b634e487b7160e01b600052604160045260246000fd5b600082601f830112611fac57600080fd5b813567ffffffffffffffff80821115611fc757611fc7611f85565b604051601f8301601f19908116603f01168101908282118183101715611fef57611fef611f85565b8160405283815286602085880101111561200857600080fd5b836020870160208301376000602085830101528094505050505092915050565b60008060006060848603121561203d57600080fd5b61204684611c9f565b9250602084013567ffffffffffffffff8082111561206357600080fd5b61206f87838801611f9b565b9350604086013591508082111561208557600080fd5b5061209286828701611f9b565b9150509250925092565b602080825260129082015271125b9d985b1a59081cd95cdcda5bdb88125160721b604082015260600190565b6020808252601f908201527f53657373696f6e20646f6573206e6f742062656c6f6e6720746f207573657200604082015260600190565b60208082526019908201527f53657373696f6e20616c726561647920636f6d706c6574656400000000000000604082015260600190565b634e487b7160e01b600052601160045260246000fd5b8181038181111561215f5761215f612136565b92915050565b600181811c9082168061217957607f821691505b60208210810361219957634e487b7160e01b600052602260045260246000fd5b50919050565b634e487b7160e01b600052603260045260246000fd5b6000600182016121c7576121c7612136565b5060010190565b8082018082111561215f5761215f612136565b601f82111561222757600081815260208120601f850160051c810160208610156122085750805b601f850160051c820191505b8181101561067957828155600101612214565b505050565b815167ffffffffffffffff81111561224657612246611f85565b61225a816122548454612165565b846121e1565b602080601f83116001811461228f57600084156122775750858301515b600019600386901b1c1916600185901b178555610679565b600085815260208120601f198616915b828110156122be5788860151825594840194600190910190840161229f565b50858210156122dc5787850151600019600388901b60f8161c191681555b5050505050600190811b01905550565b6020815260006116bc6020830184611d6856fea2646970667358221220754f74ec3983d32beb41292c67a78281ae4bb638200c7c1206ba7e6dc0e4a60264736f6c63430008140033",
  "linkReferences": {},
  "deployedLinkReferences": {}
}