{
  "_format": "hh-sol-artifact-1",
  "contractName": "StudyTokenShop",
  "sourceName": "contracts/StudyTokenShop.sol",
  "abi": [
    {
      "inputs": [
        {
          "internalType": "address",
          "name": "_studyToken",
          "type": "address"
        }
      ],
      "stateMutability": "nonpayable",
      "type": "constructor"
    },
    {
      "inputs": [],
      "name": "EnforcedPause",
      "type": "error"
    },
    {
      "inputs": [],
      "name": "ExpectedPause",
      "type": "error"
    },
    {
      "inputs": [
        {
          "internalType": "address",
          "name": "owner",
          "type": "address"
        }
      ],
      "name": "OwnableInvalidOwner",
      "type": "error"
    },
    {
      "inputs": [
        {
          "internalType": "address",
          "name": "account",
          "type": "address"
        }
      ],
      "name": "OwnableUnauthorizedAccount",
      "type": "error"
    },
    {
      "inputs": [],
      "name": "ReentrancyGuardReentrantCall",
      "type": "error"
    },
    {
      "anonymous": false,
      "inputs": [
        {
          "indexed": false,
          "internalType": "uint256",
          "name": "timestamp",
          "type": "uint256"
        },
        {
          "indexed": false,
          "internalType": "uint256",
          "name": "volume",
          "type": "uint256"
        },
        {
          "indexed": false,
          "internalType": "uint256",
          "name": "purchases",
          "type": "uint256"
        }
      ],
      "name": "DailyReset",
      "type": "event"
    },
    {
      "anonymous": false,
      "inputs": [
        {
          "indexed": true,
          "internalType": "address",
          "name": "previousOwner",
          "type": "address"
        },
        {
          "indexed": true,
          "internalType": "address",
          "name": "newOwner",
          "type": "address"
        }
      ],
      "name": "OwnershipTransferred",
      "type": "event"
    },
    {
      "anonymous": false,
      "inputs": [
        {
          "indexed": false,
          "internalType": "address",
          "name": "account",
          "type": "address"
        }
      ],
      "name": "Paused",
      "type": "event"
    },
    {
      "anonymous": false,
      "inputs": [
        {
          "indexed": false,
          "internalType": "uint256",
          "name": "oldPrice",
          "type": "uint256"
        },
        {
          "indexed": false,
          "internalType": "uint256",
          "name": "newPrice",
          "type": "uint256"
        },
        {
          "indexed": false,
          "internalType": "uint256",
          "name": "dailyVolume",
          "type": "uint256"
        }
      ],
      "name": "PriceUpdated",
      "type": "event"
    },
    {
      "anonymous": false,
      "inputs": [
        {
          "indexed": true,
          "internalType": "address",
          "name": "buyer",
          "type": "address"
        },
        {
          "indexed": false,
          "internalType": "uint256",
          "name": "ethAmount",
          "type": "uint256"
        },
        {
          "indexed": false,
          "internalType": "uint256",
          "name": "tokenAmount",
          "type": "uint256"
        },
        {
          "indexed": false,
          "internalType": "uint256",
          "name": "price",
          "type": "uint256"
        }
      ],
      "name": "TokensPurchased",
      "type": "event"
    },
    {
      "anonymous": false,
      "inputs": [
        {
          "indexed": false,
          "internalType": "address",
          "name": "account",
          "type": "address"
        }
      ],
      "name": "Unpaused",
      "type": "event"
    },
    {
      "inputs": [],
      "name": "MAX_PRICE",
      "outputs": [
        {
          "internalType": "uint256",
          "name": "",
          "type": "uint256"
        }
      ],
      "stateMutability": "view",
      "type": "function"
    },
    {
      "inputs": [],
      "name": "MIN_PRICE",
      "outputs": [
        {
          "internalType": "uint256",
          "name": "",
          "type": "uint256"
        }
      ],
      "stateMutability": "view",
      "type": "function"
    },
    {
      "inputs": [],
      "name": "PRICE_DECREASE_RATE",
      "outputs": [
        {
          "internalType": "uint256",
          "name": "",
          "type": "uint256"
        }
      ],
      "stateMutability": "view",
      "type": "function"
    },
    {
      "inputs": [],
      "name": "PRICE_INCREASE_RATE",
      "outputs": [
        {
          "internalType": "uint256",
          "name": "",
          "type": "uint256"
        }
      ],
      "stateMutability": "view",
      "type": "function"
    },
    {
      "inputs": [],
      "name": "VOLUME_THRESHOLD_HIGH",
      "outputs": [
        {
          "internalType": "uint256",
          "name": "",
          "type": "uint256"
        }
      ],
      "stateMutability": "view",
      "type": "function"
    },
    {
      "inputs": [],
      "name": "VOLUME_THRESHOLD_LOW",
      "outputs": [
        {
          "internalType": "uint256",
          "name": "",
          "type": "uint256"
        }
      ],
      "stateMutability": "view",
      "type": "function"
    },
    {
      "inputs": [],
      "name": "basePrice",
      "outputs": [
        {
          "internalType": "uint256",
          "name": "",
          "type": "uint256"
        }
      ],
      "stateMutability": "view",
      "type": "function"
    },
    {
      "inputs": [],
      "name": "buyTokens",
      "outputs": [],
      "stateMutability": "payable",
      "type": "function"
    },
    {
      "inputs": [],
      "name": "currentPrice",
      "outputs": [
        {
          "internalType": "uint256",
          "name": "",
          "type": "uint256"
        }
      ],
      "stateMutability": "view",
      "type": "function"
    },
    {
      "inputs": [],
      "name": "dailyPurchases",
      "outputs": [
        {
          "internalType": "uint256",
          "name": "",
          "type": "uint256"
        }
      ],
      "stateMutability": "view",
      "type": "function"
    },
    {
      "inputs": [],
      "name": "dailyVolume",
      "outputs": [
        {
          "internalType": "uint256",
          "name": "",
          "type": "uint256"
        }
      ],
      "stateMutability": "view",
      "type": "function"
    },
    {
      "inputs": [],
      "name": "emergencyWithdraw",
      "outputs": [],
      "stateMutability": "nonpayable",
      "type": "function"
    },
    {
      "inputs": [],
      "name": "forceReset",
      "outputs": [],
      "stateMutability": "nonpayable",
      "type": "function"
    },
    {
      "inputs": [],
      "name": "getPriceInfo",
      "outputs": [
        {
          "internalType": "uint256",
          "name": "price",
          "type": "uint256"
        },
        {
          "internalType": "uint256",
          "name": "tokensPerEth",
          "type": "uint256"
        },
        {
          "internalType": "uint256",
          "name": "dailyVol",
          "type": "uint256"
        },
        {
          "internalType": "uint256",
          "name": "dailyPurchasesCount",
          "type": "uint256"
        },
        {
          "internalType": "uint256",
          "name": "timeUntilReset",
          "type": "uint256"
        }
      ],
      "stateMutability": "view",
      "type": "function"
    },
    {
      "inputs": [
        {
          "internalType": "uint256",
          "name": "ethAmount",
          "type": "uint256"
        }
      ],
      "name": "getQuote",
      "outputs": [
        {
          "internalType": "uint256",
          "name": "tokenAmount",
          "type": "uint256"
        }
      ],
      "stateMutability": "view",
      "type": "function"
    },
    {
      "inputs": [],
      "name": "lastReset",
      "outputs": [
        {
          "internalType": "uint256",
          "name": "",
          "type": "uint256"
        }
      ],
      "stateMutability": "view",
      "type": "function"
    },
    {
      "inputs": [],
      "name": "owner",
      "outputs": [
        {
          "internalType": "address",
          "name": "",
          "type": "address"
        }
      ],
      "stateMutability": "view",
      "type": "function"
    },
    {
      "inputs": [],
      "name": "pause",
      "outputs": [],
      "stateMutability": "nonpayable",
      "type": "function"
    },
    {
      "inputs": [],
      "name": "paused",
      "outputs": [
        {
          "internalType": "bool",
          "name": "",
          "type": "bool"
        }
      ],
      "stateMutability": "view",
      "type": "function"
    },
    {
      "inputs": [],
      "name": "renounceOwnership",
      "outputs": [],
      "stateMutability": "nonpayable",
      "type": "function"
    },
    {
      "inputs": [
        {
          "internalType": "uint256",
          "name": "newBasePrice",
          "type": "uint256"
        }
      ],
      "name": "setBasePrice",
      "outputs": [],
      "stateMutability": "nonpayable",
      "type": "function"
    },
    {
      "inputs": [
        {
          "internalType": "uint256",
          "name": "newPrice",
          "type": "uint256"
        }
      ],
      "name": "setCurrentPrice",
      "outputs": [],
      "stateMutability": "nonpayable",
      "type": "function"
    },
    {
      "inputs": [],
      "name": "studyToken",
      "outputs": [
        {
          "internalType": "contract StudyToken",
          "name": "",
          "type": "address"
        }
      ],
      "stateMutability": "view",
      "type": "function"
    },
    {
      "inputs": [],
      "name": "totalBuyers",
      "outputs": [
        {
          "internalType": "uint256",
          "name": "",
          "type": "uint256"
        }
      ],
      "stateMutability": "view",
      "type": "function"
    },
    {
      "inputs": [],
      "name": "totalRevenue",
      "outputs": [
        {
          "internalType": "uint256",
          "name": "",
          "type": "uint256"
        }
      ],
      "stateMutability": "view",
      "type": "function"
    },
    {
      "inputs": [],
      "name": "totalSold",
      "outputs": [
        {
          "internalType": "uint256",
          "name": "",
          "type": "uint256"
        }
      ],
      "stateMutability": "view",
      "type": "function"
    },
    {
      "inputs": [
        {
          "internalType": "address",
          "name": "newOwner",
          "type": "address"
        }
      ],
      "name": "transferOwnership",
      "outputs": [],
      "stateMutability": "nonpayable",
      "type": "function"
    },
    {
      "inputs": [],
      "name": "unpause",
      "outputs": [],
      "stateMutability": "nonpayable",
      "type": "function"
    }
  ],
  "bytecode": "0x6080604052655af3107a4000600355655af3107a400060045534801561002457600080fd5b50604051610ff4380380610ff4833981016040819052610043916100f0565b338061006957604051631e4fbdf760e01b81526000600482015260240160405180910390fd5b610072816100a0565b5060018055600280546001600160a01b0319166001600160a01b039290921691909117905542600755610120565b600080546001600160a01b038381166001600160a01b0319831681178455604051919092169283917f8be0079c531659141344cd1fd0a4f28419497f9722a3daafe3b4186f6b6457e09190a35050565b60006020828403121561010257600080fd5b81516001600160a01b038116811461011957600080fd5b9392505050565b610ec58061012f6000396000f3fe6080604052600436106101b75760003560e01c806398c8877e116100ec578063c7876ea41161008a578063d0febe4c11610064578063d0febe4c14610466578063db2e21bc1461046e578063de4b326214610483578063f2fde38b146104a357600080fd5b8063c7876ea41461041a578063c9a1e7b214610430578063cf39918e1461044657600080fd5b8063a7481b5b116100c6578063a7481b5b146103b4578063ab0f8485146103d4578063ad9f20a6146103ea578063bf2d9e0b1461040457600080fd5b806398c8877e146103735780639d1b464a146103895780639ef113d11461039f57600080fd5b8063715018a6116101595780638a69bed9116101335780638a69bed9146102f95780638b680cc3146103165780638da5cb5b1461032b5780639106d7ba1461035d57600080fd5b8063715018a6146102b35780638456cb59146102c8578063855c3686146102dd57600080fd5b8063330227bf11610195578063330227bf146102215780633abd01361461025e5780633f4ba83a146102745780635c975abb1461028957600080fd5b806301c11d96146101bc57806318b20071146101ea57806327a67fc61461020c575b600080fd5b3480156101c857600080fd5b506101d766038d7ea4c6800081565b6040519081526020015b60405180910390f35b3480156101f657600080fd5b5061020a610205366004610d7d565b6104c3565b005b34801561021857600080fd5b506101d7606e81565b34801561022d57600080fd5b50610236610534565b604080519586526020860194909452928401919091526060830152608082015260a0016101e1565b34801561026a57600080fd5b506101d7600a5481565b34801561028057600080fd5b5061020a610593565b34801561029557600080fd5b50600054600160a01b900460ff1660405190151581526020016101e1565b3480156102bf57600080fd5b5061020a6105a5565b3480156102d457600080fd5b5061020a6105b7565b3480156102e957600080fd5b506101d7674563918244f4000081565b34801561030557600080fd5b506101d76802b5e3af16b188000081565b34801561032257600080fd5b5061020a6105c7565b34801561033757600080fd5b506000546001600160a01b03165b6040516001600160a01b0390911681526020016101e1565b34801561036957600080fd5b506101d760085481565b34801561037f57600080fd5b506101d760055481565b34801561039557600080fd5b506101d760045481565b3480156103ab57600080fd5b506101d7605a81565b3480156103c057600080fd5b50600254610345906001600160a01b031681565b3480156103e057600080fd5b506101d760065481565b3480156103f657600080fd5b506101d7652d79883d200081565b34801561041057600080fd5b506101d760095481565b34801561042657600080fd5b506101d760035481565b34801561043c57600080fd5b506101d760075481565b34801561045257600080fd5b506101d7610461366004610d7d565b6105d7565b61020a6105ff565b34801561047a57600080fd5b5061020a610957565b34801561048f57600080fd5b5061020a61049e366004610d7d565b61099c565b3480156104af57600080fd5b5061020a6104be366004610d96565b610a08565b6104cb610a43565b652d79883d200081101580156104e8575066038d7ea4c680008111155b61052f5760405162461bcd60e51b81526020600482015260136024820152725072696365206f7574206f6620626f756e647360681b60448201526064015b60405180910390fd5b600455565b6000806000806000426007546201518061054e9190610ddc565b6105589190610def565b905062015180811115610569575060005b60045461057e81670de0b6b3a7640000610e02565b60055460065494509450945094509091929394565b61059b610a43565b6105a3610a70565b565b6105ad610a43565b6105a36000610ac5565b6105bf610a43565b6105a3610b15565b6105cf610a43565b6105a3610b58565b6004546000906105ef83670de0b6b3a7640000610e24565b6105f99190610e02565b92915050565b610607610c00565b61060f610c2a565b6000341161064f5760405162461bcd60e51b815260206004820152600d60248201526c09aeae6e840e6cadcc8408aa89609b1b6044820152606401610526565b66038d7ea4c680003410156106a65760405162461bcd60e51b815260206004820152601b60248201527f4d696e696d756d2070757263686173653a20302e3030312045544800000000006044820152606401610526565b6106ae610b58565b34600560008282546106c09190610ddc565b9091555050600680549060006106d583610e3b565b90915550506004546000906106f234670de0b6b3a7640000610e24565b6106fc9190610e02565b90506000811161074e5760405162461bcd60e51b815260206004820152601b60248201527f496e73756666696369656e742045544820666f7220746f6b656e7300000000006044820152606401610526565b6002546040516370a0823160e01b815230600482015282916001600160a01b0316906370a0823190602401602060405180830381865afa158015610796573d6000803e3d6000fd5b505050506040513d601f19601f820116820180604052508101906107ba9190610e54565b10156108085760405162461bcd60e51b815260206004820152601c60248201527f53686f702068617320696e73756666696369656e7420746f6b656e73000000006044820152606401610526565b60025460405163a9059cbb60e01b8152336004820152602481018390526001600160a01b039091169063a9059cbb906044016020604051808303816000875af1158015610859573d6000803e3d6000fd5b505050506040513d601f19601f8201168201806040525081019061087d9190610e6d565b5080600860008282546108909190610ddc565b9250508190555034600960008282546108a99190610ddc565b9091555050600a80549060006108be83610e3b565b91905055506108cb610c55565b600080546040516001600160a01b03909116913480156108fc02929091818181858888f19350505050158015610905573d6000803e3d6000fd5b5060045460408051348152602081018490529081019190915233907f0d1a0d5e3d583a0e92588799dd06e50fd78c07daf05f0cc06d7b848b1ca445f19060600160405180910390a2506105a360018055565b61095f610a43565b600080546040516001600160a01b03909116914780156108fc02929091818181858888f19350505050158015610999573d6000803e3d6000fd5b50565b6109a4610a43565b652d79883d200081101580156109c1575066038d7ea4c680008111155b610a035760405162461bcd60e51b81526020600482015260136024820152725072696365206f7574206f6620626f756e647360681b6044820152606401610526565b600355565b610a10610a43565b6001600160a01b038116610a3a57604051631e4fbdf760e01b815260006004820152602401610526565b61099981610ac5565b6000546001600160a01b031633146105a35760405163118cdaa760e01b8152336004820152602401610526565b610a78610d53565b6000805460ff60a01b191690557f5db9ee0a495bf2e6ff9c91a7834c1ba4fdd244a5e8aa4e537bd38aeae4b073aa335b6040516001600160a01b03909116815260200160405180910390a1565b600080546001600160a01b038381166001600160a01b0319831681178455604051919092169283917f8be0079c531659141344cd1fd0a4f28419497f9722a3daafe3b4186f6b6457e09190a35050565b610b1d610c2a565b6000805460ff60a01b1916600160a01b1790557f62e78cea01bee320cd4e420270b5ea74000d11b0c9f74754ebdbfc544b05a258610aa83390565b600754610b689062015180610ddc565b42106105a35760075460055460065460408051938452602084019290925282820152517f9e3e7d6f44b9932dc8cbef16d0f7dc456e51e1ecff456315ff3855dbad61258f9181900360600190a1600060058190556006554260075560035460045411156105a3576064600454605f610be09190610e24565b610bea9190610e02565b600481905560035411156105a357600354600455565b600260015403610c2357604051633ee5aeb560e01b815260040160405180910390fd5b6002600155565b600054600160a01b900460ff16156105a35760405163d93c066560e01b815260040160405180910390fd5b6004546005546802b5e3af16b188000011610ca9576064606e600454610c7b9190610e24565b610c859190610e02565b600481905566038d7ea4c680001015610ca45766038d7ea4c680006004555b610d02565b674563918244f4000060055411158015610cc557506000600654115b15610d02576064605a600454610cdb9190610e24565b610ce59190610e02565b6004819055652d79883d20001115610d0257652d79883d20006004555b6004548114610999576004546005546040805184815260208101939093528201527f15819dd2fd9f6418b142e798d08a18d0bf06ea368f4480b7b0d3f75bd966bc489060600160405180910390a150565b600054600160a01b900460ff166105a357604051638dfc202b60e01b815260040160405180910390fd5b600060208284031215610d8f57600080fd5b5035919050565b600060208284031215610da857600080fd5b81356001600160a01b0381168114610dbf57600080fd5b9392505050565b634e487b7160e01b600052601160045260246000fd5b808201808211156105f9576105f9610dc6565b818103818111156105f9576105f9610dc6565b600082610e1f57634e487b7160e01b600052601260045260246000fd5b500490565b80820281158282048414176105f9576105f9610dc6565b600060018201610e4d57610e4d610dc6565b5060010190565b600060208284031215610e6657600080fd5b5051919050565b600060208284031215610e7f57600080fd5b81518015158114610dbf57600080fdfea26469706673582212203e7d1d5a6d5a0c88582633925d00257805eb981d76c64b8895502d3a921f775c64736f6c63430008140033",
  "linkReferences": {},
  "deployedLinkReferences": {}
}