{
  "_format": "hh-sol-artifact-1",
  "contractName": "StudyAchievements",
  "sourceName": "contracts/StudyAchievements.sol",
  "abi": [
    {
      "inputs": [
        {
          "internalType": "string",
          "name": "baseURI",
          "type": "string"
        }
      ],
      "stateMutability": "nonpayable",
      "type": "constructor"
    },
    {
      "inputs": [],
      "name": "ERC721EnumerableForbiddenBatchMint",
      "type": "error"
    },
    {
      "inputs": [
        {
          "internalType": "address",
          "name": "sender",
          "type": "address"
        },
        {
          "internalType": "uint256",
          "name": "tokenId",
          "type": "uint256"
        },
        {
          "internalType": "address",
          "name": "owner",
          "type": "address"
        }
      ],
      "name": "ERC721IncorrectOwner",
      "type": "error"
    },
    {
      "inputs": [
        {
          "internalType": "address",
          "name": "operator",
          "type": "address"
        },
        {
          "internalType": "uint256",
          "name": "tokenId",
          "type": "uint256"
        }
      ],
      "name": "ERC721InsufficientApproval",
      "type": "error"
    },
    {
      "inputs": [
        {
          "internalType": "address",
          "name": "approver",
          "type": "address"
        }
      ],
      "name": "ERC721InvalidApprover",
      "type": "error"
    },
    {
      "inputs": [
        {
          "internalType": "address",
          "name": "operator",
          "type": "address"
        }
      ],
      "name": "ERC721InvalidOperator",
      "type": "error"
    },
    {
      "inputs": [
        {
          "internalType": "address",
          "name": "owner",
          "type": "address"
        }
      ],
      "name": "ERC721InvalidOwner",
      "type": "error"
    },
    {
      "inputs": [
        {
          "internalType": "address",
          "name": "receiver",
          "type": "address"
        }
      ],
      "name": "ERC721InvalidReceiver",
      "type": "error"
    },
    {
      "inputs": [
        {
          "internalType": "address",
          "name": "sender",
          "type": "address"
        }
      ],
      "name": "ERC721InvalidSender",
      "type": "error"
    },
    {
      "inputs": [
        {
          "internalType": "uint256",
          "name": "tokenId",
          "type": "uint256"
        }
      ],
      "name": "ERC721NonexistentToken",
      "type": "error"
    },
    {
      "inputs": [
        {
          "internalType": "address",
          "name": "owner",
          "type": "address"
        },
        {
          "internalType": "uint256",
          "name": "index",
          "type": "uint256"
        }
      ],
      "name": "ERC721OutOfBoundsIndex",
      "type": "error"
    },
    {
      "inputs": [],
      "name": "EnforcedPause",
      "type": "error"
    },
    {
      "inputs": [],
      "name": "ExpectedPause",
      "type": "error"
    },
    {
      "inputs": [
        {
          "internalType": "address",
          "name": "owner",
          "type": "address"
        }
      ],
      "name": "OwnableInvalidOwner",
      "type": "error"
    },
    {
      "inputs": [
        {
          "internalType": "address",
          "name": "account",
          "type": "address"
        }
      ],
      "name": "OwnableUnauthorizedAccount",
      "type": "error"
    },
    {
      "anonymous": false,
      "inputs": [
        {
          "indexed": true,
          "internalType": "address",
          "name": "recipient",
          "type": "address"
        },
        {
          "indexed": true,
          "internalType": "uint256",
          "name": "tokenId",
          "type": "uint256"
        },
        {
          "indexed": false,
          "internalType": "enum StudyAchievements.AchievementType",
          "name": "achievementType",
          "type": "uint8"
        },
        {
          "indexed": false,
          "internalType": "string",
          "name": "title",
          "type": "string"
        }
      ],
      "name": "AchievementMinted",
      "type": "event"
    },
    {
      "anonymous": false,
      "inputs": [
        {
          "indexed": true,
          "internalType": "uint256",
          "name": "tokenId",
          "type": "uint256"
        },
        {
          "indexed": false,
          "internalType": "bool",
          "name": "verified",
          "type": "bool"
        }
      ],
      "name": "AchievementVerified",
      "type": "event"
    },
    {
      "anonymous": false,
      "inputs": [
        {
          "indexed": true,
          "internalType": "address",
          "name": "owner",
          "type": "address"
        },
        {
          "indexed": true,
          "internalType": "address",
          "name": "approved",
          "type": "address"
        },
        {
          "indexed": true,
          "internalType": "uint256",
          "name": "tokenId",
          "type": "uint256"
        }
      ],
      "name": "Approval",
      "type": "event"
    },
    {
      "anonymous": false,
      "inputs": [
        {
          "indexed": true,
          "internalType": "address",
          "name": "owner",
          "type": "address"
        },
        {
          "indexed": true,
          "internalType": "address",
          "name": "operator",
          "type": "address"
        },
        {
          "indexed": false,
          "internalType": "bool",
          "name": "approved",
          "type": "bool"
        }
      ],
      "name": "ApprovalForAll",
      "type": "event"
    },
    {
      "anonymous": false,
      "inputs": [
        {
          "indexed": false,
          "internalType": "uint256",
          "name": "_fromTokenId",
          "type": "uint256"
        },
        {
          "indexed": false,
          "internalType": "uint256",
          "name": "_toTokenId",
          "type": "uint256"
        }
      ],
      "name": "BatchMetadataUpdate",
      "type": "event"
    },
    {
      "anonymous": false,
      "inputs": [
        {
          "indexed": false,
          "internalType": "uint256",
          "name": "_tokenId",
          "type": "uint256"
        }
      ],
      "name": "MetadataUpdate",
      "type": "event"
    },
    {
      "anonymous": false,
      "inputs": [
        {
          "indexed": true,
          "internalType": "address",
          "name": "previousOwner",
          "type": "address"
        },
        {
          "indexed": true,
          "internalType": "address",
          "name": "newOwner",
          "type": "address"
        }
      ],
      "name": "OwnershipTransferred",
      "type": "event"
    },
    {
      "anonymous": false,
      "inputs": [
        {
          "indexed": false,
          "internalType": "address",
          "name": "account",
          "type": "address"
        }
      ],
      "name": "Paused",
      "type": "event"
    },
    {
      "anonymous": false,
      "inputs": [
        {
          "indexed": true,
          "internalType": "address",
          "name": "from",
          "type": "address"
        },
        {
          "indexed": true,
          "internalType": "address",
          "name": "to",
          "type": "address"
        },
        {
          "indexed": true,
          "internalType": "uint256",
          "name": "tokenId",
          "type": "uint256"
        }
      ],
      "name": "Transfer",
      "type": "event"
    },
    {
      "anonymous": false,
      "inputs": [
        {
          "indexed": false,
          "internalType": "address",
          "name": "account",
          "type": "address"
        }
      ],
      "name": "Unpaused",
      "type": "event"
    },
    {
      "inputs": [
        {
          "internalType": "enum StudyAchievements.AchievementType",
          "name": "",
          "type": "uint8"
        }
      ],
      "name": "achievementRequirements",
      "outputs": [
        {
          "internalType": "uint256",
          "name": "",
          "type": "uint256"
        }
      ],
      "stateMutability": "view",
      "type": "function"
    },
    {
      "inputs": [
        {
          "internalType": "uint256",
          "name": "",
          "type": "uint256"
        }
      ],
      "name": "achievements",
      "outputs": [
        {
          "internalType": "enum StudyAchievements.AchievementType",
          "name": "achievementType",
          "type": "uint8"
        },
        {
          "internalType": "string",
          "name": "title",
          "type": "string"
        },
        {
          "internalType": "string",
          "name": "description",
          "type": "string"
        },
        {
          "internalType": "uint256",
          "name": "timestamp",
          "type": "uint256"
        },
        {
          "internalType": "address",
          "name": "recipient",
          "type": "address"
        },
        {
          "internalType": "bool",
          "name": "isVerified",
          "type": "bool"
        }
      ],
      "stateMutability": "view",
      "type": "function"
    },
    {
      "inputs": [
        {
          "internalType": "address",
          "name": "to",
          "type": "address"
        },
        {
          "internalType": "uint256",
          "name": "tokenId",
          "type": "uint256"
        }
      ],
      "name": "approve",
      "outputs": [],
      "stateMutability": "nonpayable",
      "type": "function"
    },
    {
      "inputs": [
        {
          "internalType": "address",
          "name": "owner",
          "type": "address"
        }
      ],
      "name": "balanceOf",
      "outputs": [
        {
          "internalType": "uint256",
          "name": "",
          "type": "uint256"
        }
      ],
      "stateMutability": "view",
      "type": "function"
    },
    {
      "inputs": [
        {
          "internalType": "uint256",
          "name": "tokenId",
          "type": "uint256"
        }
      ],
      "name": "getAchievement",
      "outputs": [
        {
          "components": [
            {
              "internalType": "enum StudyAchievements.AchievementType",
              "name": "achievementType",
              "type": "uint8"
            },
            {
              "internalType": "string",
              "name": "title",
              "type": "string"
            },
            {
              "internalType": "string",
              "name": "description",
              "type": "string"
            },
            {
              "internalType": "uint256",
              "name": "timestamp",
              "type": "uint256"
            },
            {
              "internalType": "address",
              "name": "recipient",
              "type": "address"
            },
            {
              "internalType": "bool",
              "name": "isVerified",
              "type": "bool"
            }
          ],
          "internalType": "struct StudyAchievements.Achievement",
          "name": "",
          "type": "tuple"
        }
      ],
      "stateMutability": "view",
      "type": "function"
    },
    {
      "inputs": [
        {
          "internalType": "uint256",
          "name": "tokenId",
          "type": "uint256"
        }
      ],
      "name": "getApproved",
      "outputs": [
        {
          "internalType": "address",
          "name": "",
          "type": "address"
        }
      ],
      "stateMutability": "view",
      "type": "function"
    },
    {
      "inputs": [
        {
          "internalType": "address",
          "name": "owner",
          "type": "address"
        }
      ],
      "name": "getTokensByOwner",
      "outputs": [
        {
          "internalType": "uint256[]",
          "name": "",
          "type": "uint256[]"
        }
      ],
      "stateMutability": "view",
      "type": "function"
    },
    {
      "inputs": [
        {
          "internalType": "address",
          "name": "user",
          "type": "address"
        },
        {
          "internalType": "enum StudyAchievements.AchievementType",
          "name": "achievementType",
          "type": "uint8"
        }
      ],
      "name": "getUserAchievementCount",
      "outputs": [
        {
          "internalType": "uint256",
          "name": "",
          "type": "uint256"
        }
      ],
      "stateMutability": "view",
      "type": "function"
    },
    {
      "inputs": [
        {
          "internalType": "address",
          "name": "owner",
          "type": "address"
        },
        {
          "internalType": "address",
          "name": "operator",
          "type": "address"
        }
      ],
      "name": "isApprovedForAll",
      "outputs": [
        {
          "internalType": "bool",
          "name": "",
          "type": "bool"
        }
      ],
      "stateMutability": "view",
      "type": "function"
    },
    {
      "inputs": [
        {
          "internalType": "address",
          "name": "recipient",
          "type": "address"
        },
        {
          "internalType": "string",
          "name": "bnsName",
          "type": "string"
        },
        {
          "internalType": "string",
          "name": "bnsDescription",
          "type": "string"
        }
      ],
      "name": "mintBNSCredential",
      "outputs": [
        {
          "internalType": "uint256",
          "name": "",
          "type": "uint256"
        }
      ],
      "stateMutability": "nonpayable",
      "type": "function"
    },
    {
      "inputs": [
        {
          "internalType": "address",
          "name": "recipient",
          "type": "address"
        },
        {
          "internalType": "string",
          "name": "pathTitle",
          "type": "string"
        },
        {
          "internalType": "string",
          "name": "pathDescription",
          "type": "string"
        }
      ],
      "name": "mintLearningPath",
      "outputs": [
        {
          "internalType": "uint256",
          "name": "",
          "type": "uint256"
        }
      ],
      "stateMutability": "nonpayable",
      "type": "function"
    },
    {
      "inputs": [
        {
          "internalType": "address",
          "name": "recipient",
          "type": "address"
        },
        {
          "internalType": "string",
          "name": "sessionTitle",
          "type": "string"
        },
        {
          "internalType": "string",
          "name": "sessionDescription",
          "type": "string"
        }
      ],
      "name": "mintSessionCompletion",
      "outputs": [
        {
          "internalType": "uint256",
          "name": "",
          "type": "uint256"
        }
      ],
      "stateMutability": "nonpayable",
      "type": "function"
    },
    {
      "inputs": [
        {
          "internalType": "address",
          "name": "recipient",
          "type": "address"
        },
        {
          "internalType": "string",
          "name": "milestoneTitle",
          "type": "string"
        },
        {
          "internalType": "string",
          "name": "milestoneDescription",
          "type": "string"
        }
      ],
      "name": "mintStudyMilestone",
      "outputs": [
        {
          "internalType": "uint256",
          "name": "",
          "type": "uint256"
        }
      ],
      "stateMutability": "nonpayable",
      "type": "function"
    },
    {
      "inputs": [],
      "name": "name",
      "outputs": [
        {
          "internalType": "string",
          "name": "",
          "type": "string"
        }
      ],
      "stateMutability": "view",
      "type": "function"
    },
    {
      "inputs": [],
      "name": "owner",
      "outputs": [
        {
          "internalType": "address",
          "name": "",
          "type": "address"
        }
      ],
      "stateMutability": "view",
      "type": "function"
    },
    {
      "inputs": [
        {
          "internalType": "uint256",
          "name": "tokenId",
          "type": "uint256"
        }
      ],
      "name": "ownerOf",
      "outputs": [
        {
          "internalType": "address",
          "name": "",
          "type": "address"
        }
      ],
      "stateMutability": "view",
      "type": "function"
    },
    {
      "inputs": [],
      "name": "pause",
      "outputs": [],
      "stateMutability": "nonpayable",
      "type": "function"
    },
    {
      "inputs": [],
      "name": "paused",
      "outputs": [
        {
          "internalType": "bool",
          "name": "",
          "type": "bool"
        }
      ],
      "stateMutability": "view",
      "type": "function"
    },
    {
      "inputs": [],
      "name": "renounceOwnership",
      "outputs": [],
      "stateMutability": "nonpayable",
      "type": "function"
    },
    {
      "inputs": [
        {
          "internalType": "address",
          "name": "from",
          "type": "address"
        },
        {
          "internalType": "address",
          "name": "to",
          "type": "address"
        },
        {
          "internalType": "uint256",
          "name": "tokenId",
          "type": "uint256"
        }
      ],
      "name": "safeTransferFrom",
      "outputs": [],
      "stateMutability": "nonpayable",
      "type": "function"
    },
    {
      "inputs": [
        {
          "internalType": "address",
          "name": "from",
          "type": "address"
        },
        {
          "internalType": "address",
          "name": "to",
          "type": "address"
        },
        {
          "internalType": "uint256",
          "name": "tokenId",
          "type": "uint256"
        },
        {
          "internalType": "bytes",
          "name": "data",
          "type": "bytes"
        }
      ],
      "name": "safeTransferFrom",
      "outputs": [],
      "stateMutability": "nonpayable",
      "type": "function"
    },
    {
      "inputs": [
        {
          "internalType": "uint256",
          "name": "tokenId",
          "type": "uint256"
        },
        {
          "internalType": "bool",
          "name": "verified",
          "type": "bool"
        }
      ],
      "name": "setAchievementVerified",
      "outputs": [],
      "stateMutability": "nonpayable",
      "type": "function"
    },
    {
      "inputs": [
        {
          "internalType": "address",
          "name": "operator",
          "type": "address"
        },
        {
          "internalType": "bool",
          "name": "approved",
          "type": "bool"
        }
      ],
      "name": "setApprovalForAll",
      "outputs": [],
      "stateMutability": "nonpayable",
      "type": "function"
    },
    {
      "inputs": [
        {
          "internalType": "string",
          "name": "baseURI",
          "type": "string"
        }
      ],
      "name": "setBaseURI",
      "outputs": [],
      "stateMutability": "nonpayable",
      "type": "function"
    },
    {
      "inputs": [
        {
          "internalType": "bytes4",
          "name": "interfaceId",
          "type": "bytes4"
        }
      ],
      "name": "supportsInterface",
      "outputs": [
        {
          "internalType": "bool",
          "name": "",
          "type": "bool"
        }
      ],
      "stateMutability": "view",
      "type": "function"
    },
    {
      "inputs": [],
      "name": "symbol",
      "outputs": [
        {
          "internalType": "string",
          "name": "",
          "type": "string"
        }
      ],
      "stateMutability": "view",
      "type": "function"
    },
    {
      "inputs": [
        {
          "internalType": "uint256",
          "name": "index",
          "type": "uint256"
        }
      ],
      "name": "tokenByIndex",
      "outputs": [
        {
          "internalType": "uint256",
          "name": "",
          "type": "uint256"
        }
      ],
      "stateMutability": "view",
      "type": "function"
    },
    {
      "inputs": [
        {
          "internalType": "address",
          "name": "owner",
          "type": "address"
        },
        {
          "internalType": "uint256",
          "name": "index",
          "type": "uint256"
        }
      ],
      "name": "tokenOfOwnerByIndex",
      "outputs": [
        {
          "internalType": "uint256",
          "name": "",
          "type": "uint256"
        }
      ],
      "stateMutability": "view",
      "type": "function"
    },
    {
      "inputs": [
        {
          "internalType": "uint256",
          "name": "tokenId",
          "type": "uint256"
        }
      ],
      "name": "tokenURI",
      "outputs": [
        {
          "internalType": "string",
          "name": "",
          "type": "string"
        }
      ],
      "stateMutability": "view",
      "type": "function"
    },
    {
      "inputs": [],
      "name": "totalSupply",
      "outputs": [
        {
          "internalType": "uint256",
          "name": "",
          "type": "uint256"
        }
      ],
      "stateMutability": "view",
      "type": "function"
    },
    {
      "inputs": [
        {
          "internalType": "address",
          "name": "from",
          "type": "address"
        },
        {
          "internalType": "address",
          "name": "to",
          "type": "address"
        },
        {
          "internalType": "uint256",
          "name": "tokenId",
          "type": "uint256"
        }
      ],
      "name": "transferFrom",
      "outputs": [],
      "stateMutability": "nonpayable",
      "type": "function"
    },
    {
      "inputs": [
        {
          "internalType": "address",
          "name": "newOwner",
          "type": "address"
        }
      ],
      "name": "transferOwnership",
      "outputs": [],
      "stateMutability": "nonpayable",
      "type": "function"
    },
    {
      "inputs": [],
      "name": "unpause",
      "outputs": [],
      "stateMutability": "nonpayable",
      "type": "function"
    },
    {
      "inputs": [
        {
          "internalType": "address",
          "name": "",
          "type": "address"
        },
        {
          "internalType": "enum StudyAchievements.AchievementType",
          "name": "",
          "type": "uint8"
        }
      ],
      "name": "userAchievementCounts",
      "outputs": [
        {
          "internalType": "uint256",
          "name": "",
          "type": "uint256"
        }
      ],
      "stateMutability": "view",
      "type": "function"
    }
  ],
  "bytecode": "0x60806040523480156200001157600080fd5b50604051620030de380380620030de83398101604081905262000034916200021b565b3360405180604001604052806012815260200171537475647920416368696576656d656e747360701b815250604051806040016040528060088152602001670a6a8aa88b28286960c31b81525081600090816200009291906200037f565b506001620000a182826200037f565b5050506001600160a01b038116620000d357604051631e4fbdf760e01b81526000600482015260240160405180910390fd5b620000de81620001b3565b506010620000ed82826200037f565b5050600f60205260017ff4803e074bd026baaf6ed2e288c9515f68c72fb7216eebdd7cae1718a53ec37581905560057f169f97de0d9a84d840042b17d3c6b9638b3d6fd9024c9eb0c7a306a17b49f88f557fa74ba3945261e09fde15ba3db55005b205e61eeb4ad811ac0faa2b315bffeead55600a7f45f76dafbbad695564362934e24d72eedc57f9fc1a65f39bca62176cc829682855600460005260037f367ccd2d0ac16bf7110a5dffe0801fdc9452a95a1adb7e1a12fe97dd3e9a4edd556200044b565b600b80546001600160a01b038381166001600160a01b0319831681179093556040519116919082907f8be0079c531659141344cd1fd0a4f28419497f9722a3daafe3b4186f6b6457e090600090a35050565b634e487b7160e01b600052604160045260246000fd5b600060208083850312156200022f57600080fd5b82516001600160401b03808211156200024757600080fd5b818501915085601f8301126200025c57600080fd5b81518181111562000271576200027162000205565b604051601f8201601f19908116603f011681019083821181831017156200029c576200029c62000205565b816040528281528886848701011115620002b557600080fd5b600093505b82841015620002d95784840186015181850187015292850192620002ba565b600086848301015280965050505050505092915050565b600181811c908216806200030557607f821691505b6020821081036200032657634e487b7160e01b600052602260045260246000fd5b50919050565b601f8211156200037a57600081815260208120601f850160051c81016020861015620003555750805b601f850160051c820191505b81811015620003765782815560010162000361565b5050505b505050565b81516001600160401b038111156200039b576200039b62000205565b620003b381620003ac8454620002f0565b846200032c565b602080601f831160018114620003eb5760008415620003d25750858301515b600019600386901b1c1916600185901b17855562000376565b600085815260208120601f198616915b828110156200041c57888601518255948401946001909101908401620003fb565b50858210156200043b5787850151600019600388901b60f8161c191681555b5050505050600190811b01905550565b612c83806200045b6000396000f3fe608060405234801561001057600080fd5b50600436106102065760003560e01c806355f804b31161011a5780638da5cb5b116100ad578063b88d4fde1161007c578063b88d4fde1461047b578063c87b56dd1461048e578063e985e9c5146104a1578063f2ccc543146104b4578063f2fde38b146104d457600080fd5b80638da5cb5b1461043c578063952d43f21461044d57806395d89b4114610460578063a22cb4651461046857600080fd5b806368d8c3cc116100e957806368d8c3cc1461040657806370a0823114610419578063715018a61461042c5780638456cb591461043457600080fd5b806355f804b3146103bb5780635c975abb146103ce5780636352211e146103e057806364bab0a1146103f357600080fd5b806323b872dd1161019d5780633f4ba83a1161016c5780633f4ba83a1461035a57806340398d671461036257806342842e0e146103825780634629345b146103955780634f6ccce7146103a857600080fd5b806323b872dd146102e457806327aed72e146102f75780632f745c591461031c5780633481a4d71461032f57600080fd5b8063095ea7b3116101d9578063095ea7b3146102a1578063166bae2e146102b657806318160ddd146102c9578063222bce00146102d157600080fd5b806301ffc9a71461020b578063045ace8a1461023357806306fdde0314610261578063081812fc14610276575b600080fd5b61021e610219366004612351565b6104e7565b60405190151581526020015b60405180910390f35b610253610241366004612382565b600f6020526000908152604090205481565b60405190815260200161022a565b6102696104f8565b60405161022a91906123ed565b610289610284366004612400565b61058a565b6040516001600160a01b03909116815260200161022a565b6102b46102af366004612430565b6105b3565b005b6102536102c4366004612506565b6105c2565b600954610253565b6102536102df366004612506565b6107ac565b6102b46102f236600461257a565b61096a565b61030a610305366004612400565b6109f5565b60405161022a969594939291906125ee565b61025361032a366004612430565b610b4d565b61025361033d36600461264a565b600e60209081526000928352604080842090915290825290205481565b6102b4610bb2565b61037561037036600461267d565b610bc4565b60405161022a9190612698565b6102b461039036600461257a565b610c66565b6102536103a3366004612506565b610c86565b6102536103b6366004612400565b610e44565b6102b46103c93660046126dc565b610e9d565b600b54600160a01b900460ff1661021e565b6102896103ee366004612400565b610eb1565b610253610401366004612506565b610ebc565b61025361041436600461264a565b61107c565b61025361042736600461267d565b6110cf565b6102b4611117565b6102b4611129565b600b546001600160a01b0316610289565b6102b461045b366004612721565b611139565b610269611203565b6102b4610476366004612744565b611212565b6102b461048936600461276e565b61121d565b61026961049c366004612400565b611235565b61021e6104af3660046127ea565b611240565b6104c76104c2366004612400565b61126e565b60405161022a9190612814565b6102b46104e236600461267d565b6114ab565b60006104f2826114e9565b92915050565b60606000805461050790612893565b80601f016020809104026020016040519081016040528092919081815260200182805461053390612893565b80156105805780601f1061055557610100808354040283529160200191610580565b820191906000526020600020905b81548152906001019060200180831161056357829003601f168201915b5050505050905090565b60006105958261150e565b506000828152600460205260409020546001600160a01b03166104f2565b6105be828233611547565b5050565b60006105cc611554565b6001600160a01b0384166105fb5760405162461bcd60e51b81526004016105f2906128cd565b60405180910390fd5b600c805490600061060b8361291a565b9091555050600c546040805160c081018252600080825260208083018890528284018790524260608401526001600160a01b0389166080840152600160a08401819052858352600d9091529290208151815492938493839160ff199091169083600481111561067c5761067c6125b6565b0217905550602082015160018201906106959082612979565b50604082015160028201906106aa9082612979565b506060820151600382015560808201516004909101805460a0909301511515600160a01b026001600160a81b03199093166001600160a01b03928316179290921790915586166000908152600e6020526040812090806004811115610711576107116125b6565b815260200190815260200160002060008154809291906107309061291a565b919050555061073f8683611581565b6107708261074c8461159b565b60405160200161075c9190612a39565b6040516020818303038152906040526116a4565b81866001600160a01b0316600080516020612c2e83398151915260008860405161079b929190612a69565b60405180910390a350949350505050565b60006107b6611554565b6001600160a01b0384166107dc5760405162461bcd60e51b81526004016105f2906128cd565b600c80549060006107ec8361291a565b9091555050600c546040805160c0810182526002815260208082018790528183018690524260608301526001600160a01b0388166080830152600160a083018190526000858152600d9092529290208151815492938493839160ff199091169083600481111561085e5761085e6125b6565b0217905550602082015160018201906108779082612979565b506040820151600282019061088c9082612979565b506060820151600382015560808201516004909101805460a0909301511515600160a01b026001600160a81b03199093166001600160a01b03928316179290921790915586166000908152600e6020526040812090600260048111156108f4576108f46125b6565b815260200190815260200160002060008154809291906109139061291a565b91905055506109228683611581565b61093f8261092f8461159b565b60405160200161075c9190612a89565b81866001600160a01b0316600080516020612c2e83398151915260028860405161079b929190612a69565b6001600160a01b03821661099457604051633250574960e11b8152600060048201526024016105f2565b60006109a18383336116f4565b9050836001600160a01b0316816001600160a01b0316146109ef576040516364283d7b60e01b81526001600160a01b03808616600483015260248201849052821660448201526064016105f2565b50505050565b600d602052600090815260409020805460018201805460ff9092169291610a1b90612893565b80601f0160208091040260200160405190810160405280929190818152602001828054610a4790612893565b8015610a945780601f10610a6957610100808354040283529160200191610a94565b820191906000526020600020905b815481529060010190602001808311610a7757829003601f168201915b505050505090806002018054610aa990612893565b80601f0160208091040260200160405190810160405280929190818152602001828054610ad590612893565b8015610b225780601f10610af757610100808354040283529160200191610b22565b820191906000526020600020905b815481529060010190602001808311610b0557829003601f168201915b5050505060038301546004909301549192916001600160a01b0381169150600160a01b900460ff1686565b6000610b58836110cf565b8210610b895760405163295f44f760e21b81526001600160a01b0384166004820152602481018390526044016105f2565b506001600160a01b03919091166000908152600760209081526040808320938352929052205490565b610bba611554565b610bc261174f565b565b60606000610bd1836110cf565b905060008167ffffffffffffffff811115610bee57610bee61245a565b604051908082528060200260200182016040528015610c17578160200160208202803683370190505b50905060005b82811015610c5e57610c2f8582610b4d565b828281518110610c4157610c41612ab5565b602090810291909101015280610c568161291a565b915050610c1d565b509392505050565b610c818383836040518060200160405280600081525061121d565b505050565b6000610c90611554565b6001600160a01b038416610cb65760405162461bcd60e51b81526004016105f2906128cd565b600c8054906000610cc68361291a565b9091555050600c546040805160c081018252600180825260208083018890528284018790524260608401526001600160a01b038916608084015260a083018290526000858152600d909152929092208151815492938493839160ff1990911690836004811115610d3857610d386125b6565b021790555060208201516001820190610d519082612979565b5060408201516002820190610d669082612979565b506060820151600382015560808201516004909101805460a0909301511515600160a01b026001600160a81b03199093166001600160a01b03928316179290921790915586166000908152600e602052604081209060016004811115610dce57610dce6125b6565b81526020019081526020016000206000815480929190610ded9061291a565b9190505550610dfc8683611581565b610e1982610e098461159b565b60405160200161075c9190612acb565b81866001600160a01b0316600080516020612c2e83398151915260018860405161079b929190612a69565b6000610e4f60095490565b8210610e785760405163295f44f760e21b815260006004820152602481018390526044016105f2565b60098281548110610e8b57610e8b612ab5565b90600052602060002001549050919050565b610ea5611554565b60106105be8282612979565b60006104f28261150e565b6000610ec6611554565b6001600160a01b038416610eec5760405162461bcd60e51b81526004016105f2906128cd565b600c8054906000610efc8361291a565b9091555050600c546040805160c0810182526003815260208082018790528183018690524260608301526001600160a01b0388166080830152600160a083018190526000858152600d9092529290208151815492938493839160ff1990911690836004811115610f6e57610f6e6125b6565b021790555060208201516001820190610f879082612979565b5060408201516002820190610f9c9082612979565b50606082015160038083019190915560808301516004909201805460a0909401511515600160a01b026001600160a81b03199094166001600160a01b03938416179390931790925587166000908152600e60205260408120916004811115611006576110066125b6565b815260200190815260200160002060008154809291906110259061291a565b91905055506110348683611581565b611051826110418461159b565b60405160200161075c9190612afd565b81866001600160a01b0316600080516020612c2e83398151915260038860405161079b929190612a69565b6001600160a01b0382166000908152600e60205260408120818360048111156110a7576110a76125b6565b60048111156110b8576110b86125b6565b815260200190815260200160002054905092915050565b60006001600160a01b0382166110fb576040516322718ad960e21b8152600060048201526024016105f2565b506001600160a01b031660009081526003602052604090205490565b61111f611554565b610bc260006117a4565b611131611554565b610bc26117f6565b611141611554565b600061114c83610eb1565b6001600160a01b0316036111995760405162461bcd60e51b8152602060048201526014602482015273151bdad95b88191bd95cc81b9bdd08195e1a5cdd60621b60448201526064016105f2565b6000828152600d6020526040908190206004018054831515600160a01b0260ff60a01b199091161790555182907f372404783c0decd07697bcbd623b06fe18b040b63e8a15c275acd0272013a0c3906111f790841515815260200190565b60405180910390a25050565b60606001805461050790612893565b6105be338383611839565b61122884848461096a565b6109ef33858585856118d8565b60606104f282611a03565b6001600160a01b03918216600090815260056020908152604080832093909416825291909152205460ff1690565b6112b36040805160c08101909152806000815260200160608152602001606081526020016000815260200160006001600160a01b031681526020016000151581525090565b60006112be83610eb1565b6001600160a01b03160361130b5760405162461bcd60e51b8152602060048201526014602482015273151bdad95b88191bd95cc81b9bdd08195e1a5cdd60621b60448201526064016105f2565b6000828152600d602052604090819020815160c081019092528054829060ff16600481111561133c5761133c6125b6565b600481111561134d5761134d6125b6565b815260200160018201805461136190612893565b80601f016020809104026020016040519081016040528092919081815260200182805461138d90612893565b80156113da5780601f106113af576101008083540402835291602001916113da565b820191906000526020600020905b8154815290600101906020018083116113bd57829003601f168201915b505050505081526020016002820180546113f390612893565b80601f016020809104026020016040519081016040528092919081815260200182805461141f90612893565b801561146c5780601f106114415761010080835404028352916020019161146c565b820191906000526020600020905b81548152906001019060200180831161144f57829003601f168201915b5050509183525050600382015460208201526004909101546001600160a01b0381166040830152600160a01b900460ff16151560609091015292915050565b6114b3611554565b6001600160a01b0381166114dd57604051631e4fbdf760e01b8152600060048201526024016105f2565b6114e6816117a4565b50565b60006001600160e01b0319821663780e9d6360e01b14806104f257506104f282611aff565b6000818152600260205260408120546001600160a01b0316806104f257604051637e27328960e01b8152600481018490526024016105f2565b610c818383836001611b24565b600b546001600160a01b03163314610bc25760405163118cdaa760e01b81523360048201526024016105f2565b6105be828260405180602001604052806000815250611c2a565b6060816000036115c25750506040805180820190915260018152600360fc1b602082015290565b8160005b81156115ec57806115d68161291a565b91506115e59050600a83612b40565b91506115c6565b60008167ffffffffffffffff8111156116075761160761245a565b6040519080825280601f01601f191660200182016040528015611631576020820181803683370190505b5090505b841561169c57611646600183612b54565b9150611653600a86612b67565b61165e906030612b7b565b60f81b81838151811061167357611673612ab5565b60200101906001600160f81b031916908160001a905350611695600a86612b40565b9450611635565b949350505050565b60008281526006602052604090206116bc8282612979565b506040518281527ff8e1a15aba9398e019f0b49df1a4fde98ee17ae345cb5f6b5e2c27f5033e8ce79060200160405180910390a15050565b600b54600090600160a01b900460ff16156117445760405162461bcd60e51b815260206004820152601060248201526f14185d5cd8589b194e881c185d5cd95960821b60448201526064016105f2565b61169c848484611c42565b611757611d0f565b600b805460ff60a01b191690557f5db9ee0a495bf2e6ff9c91a7834c1ba4fdd244a5e8aa4e537bd38aeae4b073aa335b6040516001600160a01b03909116815260200160405180910390a1565b600b80546001600160a01b038381166001600160a01b0319831681179093556040519116919082907f8be0079c531659141344cd1fd0a4f28419497f9722a3daafe3b4186f6b6457e090600090a35050565b6117fe611d39565b600b805460ff60a01b1916600160a01b1790557f62e78cea01bee320cd4e420270b5ea74000d11b0c9f74754ebdbfc544b05a2586117873390565b6001600160a01b03821661186b57604051630b61174360e31b81526001600160a01b03831660048201526024016105f2565b6001600160a01b03838116600081815260056020908152604080832094871680845294825291829020805460ff191686151590811790915591519182527f17307eab39ab6107e8899845ad3d59bd9653f200f220920489ca2b5937696c31910160405180910390a3505050565b6001600160a01b0383163b156119fc57604051630a85bd0160e11b81526001600160a01b0384169063150b7a029061191a908890889087908790600401612b8e565b6020604051808303816000875af1925050508015611955575060408051601f3d908101601f1916820190925261195291810190612bcb565b60015b6119be573d808015611983576040519150601f19603f3d011682016040523d82523d6000602084013e611988565b606091505b5080516000036119b657604051633250574960e11b81526001600160a01b03851660048201526024016105f2565b805160208201fd5b6001600160e01b03198116630a85bd0160e11b146119fa57604051633250574960e11b81526001600160a01b03851660048201526024016105f2565b505b5050505050565b6060611a0e8261150e565b5060008281526006602052604081208054611a2890612893565b80601f0160208091040260200160405190810160405280929190818152602001828054611a5490612893565b8015611aa15780601f10611a7657610100808354040283529160200191611aa1565b820191906000526020600020905b815481529060010190602001808311611a8457829003601f168201915b505050505090506000611ab2611d64565b90508051600003611ac4575092915050565b815115611af6578082604051602001611ade929190612be8565b60405160208183030381529060405292505050919050565b61169c84611d73565b60006001600160e01b03198216632483248360e11b14806104f257506104f282611ddb565b8080611b3857506001600160a01b03821615155b15611bfa576000611b488461150e565b90506001600160a01b03831615801590611b745750826001600160a01b0316816001600160a01b031614155b8015611b875750611b858184611240565b155b15611bb05760405163a9fbf51f60e01b81526001600160a01b03841660048201526024016105f2565b8115611bf85783856001600160a01b0316826001600160a01b03167f8c5be1e5ebec7d5bd14f71427d1e84f3dd0314c0f7b2291e5b200ac8c7c3b92560405160405180910390a45b505b5050600090815260046020526040902080546001600160a01b0319166001600160a01b0392909216919091179055565b611c348383611e2b565b610c813360008585856118d8565b600080611c50858585611e90565b90506001600160a01b038116611cad57611ca884600980546000838152600a60205260408120829055600182018355919091527f6e1540171b6c0c960b71a7020d9f60077f6af931a8bbf590da0223dacf75c7af0155565b611cd0565b846001600160a01b0316816001600160a01b031614611cd057611cd08185611f89565b6001600160a01b038516611cec57611ce78461200a565b61169c565b846001600160a01b0316816001600160a01b03161461169c5761169c85856120b9565b600b54600160a01b900460ff16610bc257604051638dfc202b60e01b815260040160405180910390fd5b600b54600160a01b900460ff1615610bc25760405163d93c066560e01b815260040160405180910390fd5b60606010805461050790612893565b6060611d7e8261150e565b506000611d89611d64565b90506000815111611da95760405180602001604052806000815250611dd4565b80611db384612109565b604051602001611dc4929190612be8565b6040516020818303038152906040525b9392505050565b60006001600160e01b031982166380ac58cd60e01b1480611e0c57506001600160e01b03198216635b5e139f60e01b145b806104f257506301ffc9a760e01b6001600160e01b03198316146104f2565b6001600160a01b038216611e5557604051633250574960e11b8152600060048201526024016105f2565b6000611e63838360006116f4565b90506001600160a01b03811615610c81576040516339e3563760e11b8152600060048201526024016105f2565b6000828152600260205260408120546001600160a01b0390811690831615611ebd57611ebd81848661219c565b6001600160a01b03811615611efb57611eda600085600080611b24565b6001600160a01b038116600090815260036020526040902080546000190190555b6001600160a01b03851615611f2a576001600160a01b0385166000908152600360205260409020805460010190555b60008481526002602052604080822080546001600160a01b0319166001600160a01b0389811691821790925591518793918516917fddf252ad1be2c89b69c2b068fc378daa952ba7f163c4a11628f55a4df523b3ef91a4949350505050565b6000611f94836110cf565b6000838152600860209081526040808320546001600160a01b0388168452600790925290912091925090818314611feb57600083815260208281526040808320548584528184208190558352600890915290208290555b6000938452600860209081526040808620869055938552525081205550565b60095460009061201c90600190612b54565b6000838152600a60205260408120546009805493945090928490811061204457612044612ab5565b90600052602060002001549050806009838154811061206557612065612ab5565b6000918252602080832090910192909255828152600a9091526040808220849055858252812055600980548061209d5761209d612c17565b6001900381819060005260206000200160009055905550505050565b600060016120c6846110cf565b6120d09190612b54565b6001600160a01b039093166000908152600760209081526040808320868452825280832085905593825260089052919091209190915550565b6060600061211683612200565b600101905060008167ffffffffffffffff8111156121365761213661245a565b6040519080825280601f01601f191660200182016040528015612160576020820181803683370190505b5090508181016020015b600019016f181899199a1a9b1b9c1cb0b131b232b360811b600a86061a8153600a850494508461216a57509392505050565b6121a78383836122d8565b610c81576001600160a01b0383166121d557604051637e27328960e01b8152600481018290526024016105f2565b60405163177e802f60e01b81526001600160a01b0383166004820152602481018290526044016105f2565b60008072184f03e93ff9f4daa797ed6e38ed64bf6a1f0160401b831061223f5772184f03e93ff9f4daa797ed6e38ed64bf6a1f0160401b830492506040015b6d04ee2d6d415b85acef8100000000831061226b576d04ee2d6d415b85acef8100000000830492506020015b662386f26fc10000831061228957662386f26fc10000830492506010015b6305f5e10083106122a1576305f5e100830492506008015b61271083106122b557612710830492506004015b606483106122c7576064830492506002015b600a83106104f25760010192915050565b60006001600160a01b0383161580159061169c5750826001600160a01b0316846001600160a01b0316148061231257506123128484611240565b8061169c5750506000908152600460205260409020546001600160a01b03908116911614919050565b6001600160e01b0319811681146114e657600080fd5b60006020828403121561236357600080fd5b8135611dd48161233b565b80356005811061237d57600080fd5b919050565b60006020828403121561239457600080fd5b611dd48261236e565b60005b838110156123b85781810151838201526020016123a0565b50506000910152565b600081518084526123d981602086016020860161239d565b601f01601f19169290920160200192915050565b602081526000611dd460208301846123c1565b60006020828403121561241257600080fd5b5035919050565b80356001600160a01b038116811461237d57600080fd5b6000806040838503121561244357600080fd5b61244c83612419565b946020939093013593505050565b634e487b7160e01b600052604160045260246000fd5b600067ffffffffffffffff8084111561248b5761248b61245a565b604051601f8501601f19908116603f011681019082821181831017156124b3576124b361245a565b816040528093508581528686860111156124cc57600080fd5b858560208301376000602087830101525050509392505050565b600082601f8301126124f757600080fd5b611dd483833560208501612470565b60008060006060848603121561251b57600080fd5b61252484612419565b9250602084013567ffffffffffffffff8082111561254157600080fd5b61254d878388016124e6565b9350604086013591508082111561256357600080fd5b50612570868287016124e6565b9150509250925092565b60008060006060848603121561258f57600080fd5b61259884612419565b92506125a660208501612419565b9150604084013590509250925092565b634e487b7160e01b600052602160045260246000fd5b600581106125ea57634e487b7160e01b600052602160045260246000fd5b9052565b6125f881886125cc565b60c06020820152600061260e60c08301886123c1565b828103604084015261262081886123c1565b606084019690965250506001600160a01b03929092166080830152151560a0909101529392505050565b6000806040838503121561265d57600080fd5b61266683612419565b91506126746020840161236e565b90509250929050565b60006020828403121561268f57600080fd5b611dd482612419565b6020808252825182820181905260009190848201906040850190845b818110156126d0578351835292840192918401916001016126b4565b50909695505050505050565b6000602082840312156126ee57600080fd5b813567ffffffffffffffff81111561270557600080fd5b61169c848285016124e6565b8035801515811461237d57600080fd5b6000806040838503121561273457600080fd5b8235915061267460208401612711565b6000806040838503121561275757600080fd5b61276083612419565b915061267460208401612711565b6000806000806080858703121561278457600080fd5b61278d85612419565b935061279b60208601612419565b925060408501359150606085013567ffffffffffffffff8111156127be57600080fd5b8501601f810187136127cf57600080fd5b6127de87823560208401612470565b91505092959194509250565b600080604083850312156127fd57600080fd5b61280683612419565b915061267460208401612419565b602081526128266020820183516125cc565b6000602083015160c0604084015261284160e08401826123c1565b90506040840151601f1984830301606085015261285e82826123c1565b9150506060840151608084015260018060a01b0360808501511660a084015260a0840151151560c08401528091505092915050565b600181811c908216806128a757607f821691505b6020821081036128c757634e487b7160e01b600052602260045260246000fd5b50919050565b6020808252601b908201527f43616e6e6f74206d696e7420746f207a65726f20616464726573730000000000604082015260600190565b634e487b7160e01b600052601160045260246000fd5b60006001820161292c5761292c612904565b5060010190565b601f821115610c8157600081815260208120601f850160051c8101602086101561295a5750805b601f850160051c820191505b818110156119fa57828155600101612966565b815167ffffffffffffffff8111156129935761299361245a565b6129a7816129a18454612893565b84612933565b602080601f8311600181146129dc57600084156129c45750858301515b600019600386901b1c1916600185901b1785556119fa565b600085815260208120601f198616915b82811015612a0b578886015182559484019460019091019084016129ec565b5085821015612a295787850151600019600388901b60f8161c191681555b5050505050600190811b01905550565b6773657373696f6e2d60c01b815260008251612a5c81600885016020870161239d565b9190910160080192915050565b612a7381846125cc565b60406020820152600061169c60408301846123c1565b63626e732d60e01b815260008251612aa881600485016020870161239d565b9190910160040192915050565b634e487b7160e01b600052603260045260246000fd5b696d696c6573746f6e652d60b01b815260008251612af081600a85016020870161239d565b91909101600a0192915050565b64706174682d60d81b815260008251612b1d81600585016020870161239d565b9190910160050192915050565b634e487b7160e01b600052601260045260246000fd5b600082612b4f57612b4f612b2a565b500490565b818103818111156104f2576104f2612904565b600082612b7657612b76612b2a565b500690565b808201808211156104f2576104f2612904565b6001600160a01b0385811682528416602082015260408101839052608060608201819052600090612bc1908301846123c1565b9695505050505050565b600060208284031215612bdd57600080fd5b8151611dd48161233b565b60008351612bfa81846020880161239d565b835190830190612c0e81836020880161239d565b01949350505050565b634e487b7160e01b600052603160045260246000fdfe98d547c88b04360384fef1d266a6620da7a285a8f6d6664abe7e74da742f188aa2646970667358221220f60b88650a6c8ee6604b3d6c0db0a357ed70bfb09499bd83c8cf62cf5454e6d064736f6c63430008140033",
  "linkReferences": {},
  "deployedLinkReferences": {}
}